{
  "_format": "hh-sol-artifact-1",
  "contractName": "DiffusePylon",
  "sourceName": "contracts/DiffusePylon.sol",
  "abi": [
    {
      "inputs": [],
      "payable": false,
      "stateMutability": "nonpayable",
      "type": "constructor"
    },
    {
      "anonymous": false,
      "inputs": [
        {
          "indexed": false,
          "internalType": "address",
          "name": "sender",
          "type": "address"
        },
        {
          "indexed": false,
          "internalType": "uint256",
          "name": "aIn0",
          "type": "uint256"
        },
        {
          "indexed": false,
          "internalType": "bool",
          "name": "isAnchor",
          "type": "bool"
        }
      ],
      "name": "Burn",
      "type": "event"
    },
    {
      "anonymous": false,
      "inputs": [
        {
          "indexed": false,
          "internalType": "address",
          "name": "sender",
          "type": "address"
        },
        {
          "indexed": false,
          "internalType": "uint256",
          "name": "aIn0",
          "type": "uint256"
        },
        {
          "indexed": false,
          "internalType": "uint256",
          "name": "aIn1",
          "type": "uint256"
        }
      ],
      "name": "BurnAsync",
      "type": "event"
    },
    {
      "anonymous": false,
      "inputs": [
        {
          "indexed": false,
          "internalType": "uint256",
          "name": "feeBps",
          "type": "uint256"
        }
      ],
      "name": "FeeBPS",
      "type": "event"
    },
    {
      "anonymous": false,
      "inputs": [
        {
          "indexed": false,
          "internalType": "address",
          "name": "sender",
          "type": "address"
        },
        {
          "indexed": false,
          "internalType": "uint256",
          "name": "aIn0",
          "type": "uint256"
        },
        {
          "indexed": false,
          "internalType": "uint256",
          "name": "aIn1",
          "type": "uint256"
        }
      ],
      "name": "MintAsync",
      "type": "event"
    },
    {
      "anonymous": false,
      "inputs": [
        {
          "indexed": false,
          "internalType": "address",
          "name": "sender",
          "type": "address"
        },
        {
          "indexed": false,
          "internalType": "uint256",
          "name": "aIn0",
          "type": "uint256"
        },
        {
          "indexed": false,
          "internalType": "bool",
          "name": "isAnchor",
          "type": "bool"
        }
      ],
      "name": "MintSync",
      "type": "event"
    },
    {
      "anonymous": false,
      "inputs": [
        {
          "indexed": false,
          "internalType": "uint256",
          "name": "float",
          "type": "uint256"
        },
        {
          "indexed": false,
          "internalType": "uint256",
          "name": "anchor",
          "type": "uint256"
        }
      ],
      "name": "ProcessFees",
      "type": "event"
    },
    {
      "anonymous": false,
      "inputs": [
        {
          "indexed": false,
          "internalType": "uint256",
          "name": "reserve0",
          "type": "uint256"
        },
        {
          "indexed": false,
          "internalType": "uint256",
          "name": "reserve1",
          "type": "uint256"
        },
        {
          "indexed": false,
          "internalType": "uint256",
          "name": "virtualAnchorBalance",
          "type": "uint256"
        },
        {
          "indexed": false,
          "internalType": "uint256",
          "name": "virtualFloatBalance",
          "type": "uint256"
        },
        {
          "indexed": false,
          "internalType": "uint256",
          "name": "p2x",
          "type": "uint256"
        },
        {
          "indexed": false,
          "internalType": "uint256",
          "name": "p2y",
          "type": "uint256"
        },
        {
          "indexed": false,
          "internalType": "uint256",
          "name": "gamma",
          "type": "uint256"
        }
      ],
      "name": "PylonSync",
      "type": "event"
    },
    {
      "anonymous": false,
      "inputs": [
        {
          "indexed": false,
          "internalType": "uint256",
          "name": "reserve0",
          "type": "uint256"
        },
        {
          "indexed": false,
          "internalType": "uint256",
          "name": "reserve1",
          "type": "uint256"
        },
        {
          "indexed": false,
          "internalType": "uint256",
          "name": "virtualAnchorBalance",
          "type": "uint256"
        },
        {
          "indexed": false,
          "internalType": "uint256",
          "name": "virtualFloatBalance",
          "type": "uint256"
        },
        {
          "indexed": false,
          "internalType": "uint256",
          "name": "p2x",
          "type": "uint256"
        },
        {
          "indexed": false,
          "internalType": "uint256",
          "name": "p2y",
          "type": "uint256"
        },
        {
          "indexed": false,
          "internalType": "uint256",
          "name": "gamma",
          "type": "uint256"
        }
      ],
      "name": "PylonUpdate",
      "type": "event"
    },
    {
      "anonymous": false,
      "inputs": [
        {
          "indexed": false,
          "internalType": "uint256",
          "name": "lastPrice",
          "type": "uint256"
        },
        {
          "indexed": false,
          "internalType": "uint256",
          "name": "blockTimestamp",
          "type": "uint256"
        },
        {
          "indexed": false,
          "internalType": "uint256",
          "name": "currentFloatAccumulator",
          "type": "uint256"
        }
      ],
      "name": "UpdateLastPrice",
      "type": "event"
    },
    {
      "constant": true,
      "inputs": [],
      "name": "EMABlockNumber",
      "outputs": [
        {
          "internalType": "uint256",
          "name": "",
          "type": "uint256"
        }
      ],
      "payable": false,
      "stateMutability": "view",
      "type": "function"
    },
    {
      "constant": true,
      "inputs": [
        {
          "internalType": "uint256",
          "name": "_virtualAnchorBalance",
          "type": "uint256"
        },
        {
          "internalType": "uint256",
          "name": "_pylonReserve1",
          "type": "uint256"
        },
        {
          "internalType": "uint256",
          "name": "_translatedReserve0",
          "type": "uint256"
        },
        {
          "internalType": "uint256",
          "name": "_translatedReserve1",
          "type": "uint256"
        }
      ],
      "name": "_calculateGamma",
      "outputs": [
        {
          "internalType": "uint256",
          "name": "gamma",
          "type": "uint256"
        },
        {
          "internalType": "bool",
          "name": "isLineFormula",
          "type": "bool"
        },
        {
          "internalType": "bool",
          "name": "reduceOnly",
          "type": "bool"
        }
      ],
      "payable": false,
      "stateMutability": "view",
      "type": "function"
    },
    {
      "constant": false,
      "inputs": [
        {
          "internalType": "address",
          "name": "_to",
          "type": "address"
        },
        {
          "internalType": "bool",
          "name": "_isAnchor",
          "type": "bool"
        }
      ],
      "name": "burn",
      "outputs": [
        {
          "internalType": "uint256",
          "name": "amount",
          "type": "uint256"
        }
      ],
      "payable": false,
      "stateMutability": "nonpayable",
      "type": "function"
    },
    {
      "constant": false,
      "inputs": [
        {
          "internalType": "address",
          "name": "_to",
          "type": "address"
        },
        {
          "internalType": "bool",
          "name": "_isAnchor",
          "type": "bool"
        }
      ],
      "name": "burnAsync",
      "outputs": [
        {
          "internalType": "uint256",
          "name": "amount0",
          "type": "uint256"
        },
        {
          "internalType": "uint256",
          "name": "amount1",
          "type": "uint256"
        }
      ],
      "payable": false,
      "stateMutability": "nonpayable",
      "type": "function"
    },
    {
      "constant": false,
      "inputs": [
        {
          "internalType": "address",
          "name": "_energyAddress",
          "type": "address"
        },
        {
          "internalType": "address",
          "name": "_energyRevAddress",
          "type": "address"
        }
      ],
      "name": "changeEnergyAddress",
      "outputs": [],
      "payable": false,
      "stateMutability": "nonpayable",
      "type": "function"
    },
    {
      "constant": true,
      "inputs": [],
      "name": "formulaSwitch",
      "outputs": [
        {
          "internalType": "bool",
          "name": "",
          "type": "bool"
        }
      ],
      "payable": false,
      "stateMutability": "view",
      "type": "function"
    },
    {
      "constant": true,
      "inputs": [],
      "name": "gammaEMA",
      "outputs": [
        {
          "internalType": "uint256",
          "name": "",
          "type": "uint256"
        }
      ],
      "payable": false,
      "stateMutability": "view",
      "type": "function"
    },
    {
      "constant": true,
      "inputs": [],
      "name": "gammaMulDecimals",
      "outputs": [
        {
          "internalType": "uint256",
          "name": "",
          "type": "uint256"
        }
      ],
      "payable": false,
      "stateMutability": "view",
      "type": "function"
    },
    {
      "constant": true,
      "inputs": [],
      "name": "getSyncReserves",
      "outputs": [
        {
          "internalType": "uint112",
          "name": "_reserve0",
          "type": "uint112"
        },
        {
          "internalType": "uint112",
          "name": "_reserve1",
          "type": "uint112"
        }
      ],
      "payable": false,
      "stateMutability": "view",
      "type": "function"
    },
    {
      "constant": false,
      "inputs": [
        {
          "internalType": "uint256",
          "name": "_gamma",
          "type": "uint256"
        },
        {
          "internalType": "uint256",
          "name": "_vab",
          "type": "uint256"
        },
        {
          "internalType": "uint256",
          "name": "_vfb",
          "type": "uint256"
        },
        {
          "internalType": "uint256",
          "name": "_p2x",
          "type": "uint256"
        },
        {
          "internalType": "uint256",
          "name": "_p2y",
          "type": "uint256"
        },
        {
          "internalType": "bool",
          "name": "_formulaSwitch",
          "type": "bool"
        }
      ],
      "name": "initMigratedPylon",
      "outputs": [],
      "payable": false,
      "stateMutability": "nonpayable",
      "type": "function"
    },
    {
      "constant": false,
      "inputs": [
        {
          "internalType": "address",
          "name": "_to",
          "type": "address"
        }
      ],
      "name": "initPylon",
      "outputs": [
        {
          "internalType": "uint256",
          "name": "floatLiquidity",
          "type": "uint256"
        },
        {
          "internalType": "uint256",
          "name": "anchorLiquidity",
          "type": "uint256"
        }
      ],
      "payable": false,
      "stateMutability": "nonpayable",
      "type": "function"
    },
    {
      "constant": false,
      "inputs": [
        {
          "internalType": "address",
          "name": "_floatPoolTokenAddress",
          "type": "address"
        },
        {
          "internalType": "address",
          "name": "_anchorPoolTokenAddress",
          "type": "address"
        },
        {
          "internalType": "address",
          "name": "_floatToken",
          "type": "address"
        },
        {
          "internalType": "address",
          "name": "_anchorToken",
          "type": "address"
        },
        {
          "internalType": "address",
          "name": "_pairAddress",
          "type": "address"
        },
        {
          "internalType": "address",
          "name": "_pairFactoryAddress",
          "type": "address"
        },
        {
          "internalType": "address",
          "name": "_energy",
          "type": "address"
        },
        {
          "internalType": "address",
          "name": "_energyRev",
          "type": "address"
        }
      ],
      "name": "initialize",
      "outputs": [],
      "payable": false,
      "stateMutability": "nonpayable",
      "type": "function"
    },
    {
      "constant": true,
      "inputs": [],
      "name": "initialized",
      "outputs": [
        {
          "internalType": "uint256",
          "name": "",
          "type": "uint256"
        }
      ],
      "payable": false,
      "stateMutability": "view",
      "type": "function"
    },
    {
      "constant": true,
      "inputs": [],
      "name": "isFloatReserve0",
      "outputs": [
        {
          "internalType": "bool",
          "name": "",
          "type": "bool"
        }
      ],
      "payable": false,
      "stateMutability": "view",
      "type": "function"
    },
    {
      "constant": true,
      "inputs": [],
      "name": "lastFloatAccumulator",
      "outputs": [
        {
          "internalType": "uint256",
          "name": "",
          "type": "uint256"
        }
      ],
      "payable": false,
      "stateMutability": "view",
      "type": "function"
    },
    {
      "constant": true,
      "inputs": [],
      "name": "lastOracleTimestamp",
      "outputs": [
        {
          "internalType": "uint256",
          "name": "",
          "type": "uint256"
        }
      ],
      "payable": false,
      "stateMutability": "view",
      "type": "function"
    },
    {
      "constant": true,
      "inputs": [],
      "name": "lastPrice",
      "outputs": [
        {
          "internalType": "uint256",
          "name": "",
          "type": "uint256"
        }
      ],
      "payable": false,
      "stateMutability": "view",
      "type": "function"
    },
    {
      "constant": true,
      "inputs": [],
      "name": "lastRootKTranslated",
      "outputs": [
        {
          "internalType": "uint256",
          "name": "",
          "type": "uint256"
        }
      ],
      "payable": false,
      "stateMutability": "view",
      "type": "function"
    },
    {
      "constant": false,
      "inputs": [
        {
          "internalType": "address",
          "name": "newPylon",
          "type": "address"
        }
      ],
      "name": "migrateLiquidity",
      "outputs": [],
      "payable": false,
      "stateMutability": "nonpayable",
      "type": "function"
    },
    {
      "constant": false,
      "inputs": [
        {
          "internalType": "address",
          "name": "to",
          "type": "address"
        },
        {
          "internalType": "bool",
          "name": "shouldMintAnchor",
          "type": "bool"
        }
      ],
      "name": "mintAsync",
      "outputs": [
        {
          "internalType": "uint256",
          "name": "liquidity",
          "type": "uint256"
        }
      ],
      "payable": false,
      "stateMutability": "nonpayable",
      "type": "function"
    },
    {
      "constant": false,
      "inputs": [
        {
          "internalType": "address",
          "name": "_to",
          "type": "address"
        },
        {
          "internalType": "bool",
          "name": "isAnchor",
          "type": "bool"
        }
      ],
      "name": "mintPoolTokens",
      "outputs": [
        {
          "internalType": "uint256",
          "name": "liquidity",
          "type": "uint256"
        }
      ],
      "payable": false,
      "stateMutability": "nonpayable",
      "type": "function"
    },
    {
      "constant": true,
      "inputs": [],
      "name": "muMulDecimals",
      "outputs": [
        {
          "internalType": "uint256",
          "name": "",
          "type": "uint256"
        }
      ],
      "payable": false,
      "stateMutability": "view",
      "type": "function"
    },
    {
      "constant": true,
      "inputs": [],
      "name": "p2x",
      "outputs": [
        {
          "internalType": "uint256",
          "name": "",
          "type": "uint256"
        }
      ],
      "payable": false,
      "stateMutability": "view",
      "type": "function"
    },
    {
      "constant": true,
      "inputs": [],
      "name": "p2y",
      "outputs": [
        {
          "internalType": "uint256",
          "name": "",
          "type": "uint256"
        }
      ],
      "payable": false,
      "stateMutability": "view",
      "type": "function"
    },
    {
      "constant": true,
      "inputs": [],
      "name": "strikeBlock",
      "outputs": [
        {
          "internalType": "uint256",
          "name": "",
          "type": "uint256"
        }
      ],
      "payable": false,
      "stateMutability": "view",
      "type": "function"
    },
    {
      "constant": true,
      "inputs": [],
      "name": "thisBlockEMA",
      "outputs": [
        {
          "internalType": "uint256",
          "name": "",
          "type": "uint256"
        }
      ],
      "payable": false,
      "stateMutability": "view",
      "type": "function"
    },
    {
      "constant": true,
      "inputs": [],
      "name": "virtualAnchorBalance",
      "outputs": [
        {
          "internalType": "uint256",
          "name": "",
          "type": "uint256"
        }
      ],
      "payable": false,
      "stateMutability": "view",
      "type": "function"
    },
    {
      "constant": true,
      "inputs": [],
      "name": "virtualFloatBalance",
      "outputs": [
        {
          "internalType": "uint256",
          "name": "",
          "type": "uint256"
        }
      ],
      "payable": false,
      "stateMutability": "view",
      "type": "function"
    }
  ],
  "bytecode": "0x6080604052600060225534801561001557600080fd5b50600680546001600160a01b03191633179055614f0f806100376000396000f3fe608060405234801561001057600080fd5b50600436106101545760003560e01c806304c1675814610159578063053f14da146101a85780630a22d5f3146101c2578063158ef93e146101f0578063192b65d8146101f85780633339dc1a1461020057806333cdde4e14610208578063438ab5ac146102365780634a00d16a1461025e57806372645962146102665780638a29e2de146102a35780638aa96149146103025780638d470e22146103305780638ffa32361461035e57806397ed64db1461037a5780639ab9f34114610382578063a01de3aa1461038a578063a62ef07314610392578063abaf26491461039a578063b7073003146103a2578063ba7b3dea146103aa578063c548b4c5146103d8578063c561cf4f146103e0578063c9bd59a014610427578063cca03acb1461042f578063efefd9f914610437578063f29401c41461043f578063fef9349214610465575b600080fd5b6101886004803603608081101561016f57600080fd5b508035906020810135906040810135906060013561046d565b604080519384529115156020840152151582820152519081900360600190f35b6101b0610593565b60408051918252519081900360200190f35b6101ca610599565b604080516001600160701b03938416815291909216602082015281519081900390910190f35b6101b06105b4565b6101b06105ba565b6101b06105c0565b6101b06004803603604081101561021e57600080fd5b506001600160a01b03813516906020013515156105c6565b61025c6004803603602081101561024c57600080fd5b50356001600160a01b0316610b64565b005b6101b0610bca565b61025c600480360360c081101561027c57600080fd5b5080359060208101359060408101359060608101359060808101359060a001351515610bd0565b61025c60048036036101008110156102ba57600080fd5b506001600160a01b038135811691602081013582169160408201358116916060810135821691608082013581169160a081013582169160c082013581169160e0013516610de2565b61025c6004803603604081101561031857600080fd5b506001600160a01b0381358116916020013516611111565b6101b06004803603604081101561034657600080fd5b506001600160a01b0381351690602001351515611147565b6103666114f2565b604080519115158252519081900360200190f35b6101b0611502565b6101b0611508565b61036661150e565b6101b0611517565b6101b061151d565b6101b0611523565b6101b0600480360360408110156103c057600080fd5b506001600160a01b0381351690602001351515611529565b6101b0611746565b61040e600480360360408110156103f657600080fd5b506001600160a01b038135169060200135151561174c565b6040805192835260208301919091528051918290030190f35b6101b0611cee565b6101b0611cf4565b6101b0611cfa565b61040e6004803603602081101561045557600080fd5b50356001600160a01b0316611d00565b6101b061215b565b6000808080610482888863ffffffff61216116565b905060008660006002015487028161049657fe5b04905060008073__$35a202e49b25153024c9487aa953acde7f$__637b36c51b909184600e54600f548d8d8a6040518863ffffffff1660e01b81526004018088815260200187815260200186815260200185815260200184815260200183815260200182815260200197505050505050505060606040518083038186803b15801561052057600080fd5b505af4158015610534573d6000803e3d6000fd5b505050506040513d606081101561054a57600080fd5b508051602082015160409092015191965090945090506002870261057c82670de0b6b3a764000063ffffffff6121b716565b8161058357fe5b0495505050509450945094915050565b601c5481565b6021546001600160701b0380821692600160701b9092041690565b60225481565b600c5481565b60145481565b60006105d061221a565b6105d861232d565b6000806105e3610599565b915050806001600160701b0316600c540391505060008084610610576008546001600160a01b031661061d565b6009546001600160a01b03165b9050600080600080600080610630610599565b9150915060008061063f612a9c565b506001600160701b031691506001600160701b03169150600080610661612b74565b9150915060006106808560006002015486028161067a57fe5b04612bae565b905061069b836001600160701b03891663ffffffff61216116565b9a50612710818c026002020498506106b98b8a63ffffffff61216116565b9a506106e26106d7836001600160701b03891663ffffffff61216116565b826002026001612e13565b9950505050505060008b90506000806106fc6000806130ad565b50909250905089898960008661073957610734856107238460028a0263ffffffff6121b716565b8161072a57fe5b048460020261316a565b610761565b61076186610750856002890263ffffffff6121b716565b8161075757fe5b048360020261316a565b9050600061077483870185890102613180565b905060006107898488018e878b010102613180565b9050818111156107ca57816107bd8a6107a757868a016002026107ae565b8589016002025b8484039063ffffffff6121b716565b816107c457fe5b04830192505b5050866108d2576000806107f3600560019054906101000a90046001600160a01b0316306131d2565b90506000670de0b6b3a764000060125483028161080c57fe5b0489600202838e6001600160701b0316028161082457fe5b040190506000896002028386028161083857fe5b049050816108556108488a61325d565b839063ffffffff6121b716565b8161085c57fe5b049350505050809f50868683028161087057fe5b049a50896001600160701b0316670de0b6b3a764000061089e6012546002028a6121b790919063ffffffff16565b816108a557fe5b04016108bc836010546121b790919063ffffffff16565b816108c357fe5b60108054929091049091019055505b86156108fa57600c546108e76108488661325d565b816108ee57fe5b600c805484019055049e505b5050505050505050508597506000806109146000806130ad565b5091509150610922866132ca565b61092b856132ca565b60035460055461094d916001600160a01b039081169161010090041688613308565b60045460055461096f916001600160a01b039081169161010090041687613308565b600554604080516335313c2160e11b815230600482015290516101009092046001600160a01b031691636a627842916024808201926020929091908290030181600087803b1580156109c057600080fd5b505af11580156109d4573d6000803e3d6000fd5b505050506040513d60208110156109ea57600080fd5b5050600354600554610a0e916001600160a01b039081169161010090041686613308565b600554600b54604080516321913af360e11b8152306004820152600160a01b90920460ff1615156024830152516101009092046001600160a01b03169163432275e6916044808201926060929091908290030181600087803b158015610a7357600080fd5b505af1158015610a87573d6000803e3d6000fd5b505050506040513d6060811015610a9d57600080fd5b5060009050610aaf848285858e613486565b915050801580610abc57508b5b610afe576040805162461bcd60e51b815260206004820152600e60248201526d5a503a205265647563654f6e6c7960901b604482015290519081900360640190fd5b610b09888e8d613818565b604080513381526020810189905280820188905290517f9a36e9f82fd3ab4ec26a87598c0f7f4519b7895fa6a0bca1968b486ee019b0829181900360600190a150506005805460ff1916905550969998505050505050505050565b610b6c613895565b600554610b919061010090046001600160a01b031682610b8c82306131d2565b613308565b600454610bac906001600160a01b031682610b8c82306131d2565b600354610bc7906001600160a01b031682610b8c82306131d2565b50565b60115481565b610bd8613895565b610be06138df565b6012869055600c859055600d805460ff19168215151790556013869055436018556019869055600080610c146001806130ad565b50915091506000806000610c26612a9c565b63ffffffff1692506001600160701b031692506001600160701b031692506000610c4e610599565b506001600160701b0316905083600060020154840281610c6a57fe5b04601c55600b54600160a01b900460ff16610cfe57600560019054906101000a90046001600160a01b03166001600160a01b0316635a3d54936040518163ffffffff1660e01b815260040160206040518083038186803b158015610ccd57600080fd5b505afa158015610ce1573d6000803e3d6000fd5b505050506040513d6020811015610cf757600080fd5b5051610d79565b600560019054906101000a90046001600160a01b03166001600160a01b0316635909c0d56040518163ffffffff1660e01b815260040160206040518083038186803b158015610d4c57600080fd5b505afa158015610d60573d6000803e3d6000fd5b505050506040513d6020811015610d7657600080fd5b50515b601b55601a82905543601755600254670de0b6b3a764000090610da3908b9063ffffffff6121b716565b81610daa57fe5b04600e55600f88905560108a90558a15610dcf57610dcc60008088888f613486565b50505b5050600160225550505050505050505050565b610dea613895565b600880546001600160a01b03808b166001600160a01b031992831617909255600980548a84169216919091179055600580548683166101008102610100600160a81b03199092169190911790915560408051630dfe168160e01b8152905192891692630dfe168191600481810192602092909190829003018186803b158015610e7257600080fd5b505afa158015610e86573d6000803e3d6000fd5b505050506040513d6020811015610e9c57600080fd5b5051600b80546040805180820182526001600160a01b038c81168083528c82166020938401819052600380546001600160a01b031990811684179091556004805482169092179091556007805482168d8516179055600a805482168c851617905560ff60a01b1990951696821697909714600160a01b02959095179092169386169390931790915581516060810180845263313ce56760e01b9052915191928392909163313ce567916064808601929190818703018186803b158015610f6157600080fd5b505afa158015610f75573d6000803e3d6000fd5b505050506040513d6020811015610f8b57600080fd5b505160ff16600a0a81526040805163313ce56760e01b815290516020928301926001600160a01b038a169263313ce5679260048083019392829003018186803b158015610fd757600080fd5b505afa158015610feb573d6000803e3d6000fd5b505050506040513d602081101561100157600080fd5b505160ff16600a0a81526040805163313ce56760e01b815290516020928301926001600160a01b038a169263313ce5679260048083019392829003018186803b15801561104d57600080fd5b505afa158015611061573d6000803e3d6000fd5b505050506040513d602081101561107757600080fd5b50516040805163313ce56760e01b815290516001600160a01b038b169163313ce567916004808301926020929190829003018186803b1580156110b957600080fd5b505afa1580156110cd573d6000803e3d6000fd5b505050506040513d60208110156110e357600080fd5b505160ff91900360120116600a0a905280516000556020810151600155604001516002555050505050505050565b611119613895565b600a80546001600160a01b039384166001600160a01b031991821617909155600b8054929093169116179055565b600061115161221a565b61115961232d565b600080611164610599565b9150915060006111bb85611178578361117a565b825b6001600160701b03166111af8761119c576003546001600160a01b03166111a9565b6004546001600160a01b03165b306131d2565b9063ffffffff61216116565b90506111c6816132ca565b6000856111de576004546001600160a01b03166111eb565b6003546001600160a01b03165b905060006111f982306131d2565b9050600087611208578461120a565b855b6001600160701b03169050808211156112a057600a546112379084906001600160a01b0316838503613308565b600a60009054906101000a90046001600160a01b03166001600160a01b03166303f187ea6040518163ffffffff1660e01b8152600401600060405180830381600087803b15801561128757600080fd5b505af115801561129b573d6000803e3d6000fd5b505050505b5050506112b7816112b1602a612bae565b87612e13565b905060006112da600560019054906101000a90046001600160a01b0316306131d2565b90506000806112ea6000806130ad565b50600c5491935091506001600160701b038616900360008061132d8b61131b576008546001600160a01b0316611328565b6009546001600160a01b03165b61325d565b905060008c8c6001600160701b03808d16908c168b8a8a8d88808061136c878b6113575787611359565b865b8c611364578b611366565b8a5b8d613ab6565b925092509250858583028161137d57fe5b049d5089156113b057600c54611399848f63ffffffff6121b716565b816113a057fe5b600c805486019055049b50611440565b6000670de0b6b3a76400006012548602816113c757fe5b0487600202868c02816113d657fe5b04019050806113fa8f89600202888802816113ed57fe5b049063ffffffff6121b716565b8161140157fe5b049c506000670de0b6b3a764000060125489600202028161141e57fe5b0490508a810183601054028161143057fe5b6010805492909104909101905550505b50505050505050505060006114598660008b8b8b613486565b91505080158061146657508e5b6114a8576040805162461bcd60e51b815260206004820152600e60248201526d5a503a205265647563654f6e6c7960901b604482015290519081900360640190fd5b6114d5826114c1576008546001600160a01b03166114ce565b6009546001600160a01b03165b8486613818565b50506005805460ff19169055509c9b505050505050505050505050565b600b54600160a01b900460ff1681565b60125481565b60105481565b600d5460ff1681565b600f5481565b601a5481565b60155481565b600061153361221a565b61153b61232d565b600082611553576008546001600160a01b0316611560565b6009546001600160a01b03165b9050600061156e82306131d2565b9050611579816132ca565b60006115848361325d565b90506000806115946000806130ad565b509092509050670de0b6b3a7640000876000806115b283888a613df6565b9150915060006115c2602a612bae565b90508c6127108383020483036115fb866115e7576003546001600160a01b03166115f4565b6004546001600160a01b03165b8383613308565b8a85101561163a57848b038a896000808061161a8c878b878c8a613ef4565b9250925092508087019650829c50611632828a6141b9565b505050505050505b611645848488612e13565b506116518c308d6142e9565b809c50505050505050600081905060008061166a610599565b915050806001600160701b0316600c540391505089156116b257600c548690611699908963ffffffff6121b716565b816116a057fe5b600c80549290910490910390556116dc565b60105486906116c7908963ffffffff6121b716565b816116ce57fe5b601080549290910490910390555b6116ea826001878785613486565b505060408051338152602081018b90528b15158183015290517f5cf7281eb36e25a92ffd0cff3089777ca0cb41d28e8c7158c234b1eae9a07ed29181900360600190a150506005805460ff191690555094979650505050505050565b601b5481565b60008061175761221a565b61175f61232d565b600083611777576008546001600160a01b0316611784565b6009546001600160a01b03165b9050600061179282306131d2565b905061179d816132ca565b60006117a88361325d565b905060008060006117b7612a9c565b506001600160701b031691506001600160701b031691506117e18260006002015483028161067a57fe5b9250505060006117f2888585614349565b9050670de0b6b3a764000081600080611809610599565b6001600160701b031691506001600160701b0316915060008061182d6000806130ad565b509150915060008e6118835784670de0b6b3a764000061185b601254600202866121b790919063ffffffff16565b8161186257fe5b04016118748b8763ffffffff6121b716565b8161187b57fe5b048a036118a1565b600c546118968b8663ffffffff6121b716565b8161189d57fe5b048a035b9050808b106118e0576040805162461bcd60e51b815260206004808301919091526024820152635a3a204560e01b604482015290519081900360640190fd5b506118f187612710818b0204612161565b94508d15611a025760008f9050600a60009054906101000a90046001600160a01b03166001600160a01b031663e227c66487611963670de0b6b3a764000088600c540361195688600202601254670de0b6b3a7640000036121b790919063ffffffff16565b8161195d57fe5b0461316a565b600b546040805160e086901b6001600160e01b031916815260048101949094526024840192909252600160a01b900460ff16151560448301526001600160a01b038516606483015280516084808401938290030181600087803b1580156119c957600080fd5b505af11580156119dd573d6000803e3d6000fd5b505050506040513d60408110156119f357600080fd5b5080516020909101519d509550505b5050505060008b9050600080611a196000806130ad565b50915091506000611a3f600560019054906101000a90046001600160a01b0316306131d2565b600554909150611a5e9061010090046001600160a01b03168087613308565b6005546040805163226bf2d160e21b81526001600160a01b03878116600483015282516000948594610100909104909216926389afcb4492602480830193919282900301818787803b158015611ab357600080fd5b505af1158015611ac7573d6000803e3d6000fd5b505050506040513d6040811015611add57600080fd5b508051602090910151600b549193509150600160a01b900460ff16611b025780611b04565b815b600b549f019e600160a01b900460ff16611b1e5781611b20565b805b8e019d505050611b3087896141b9565b508d611c0c57611ba760405180604001604052806009815260200168736d7468206865726560b81b81525088670de0b6b3a7640000611b7a601254866121b790919063ffffffff16565b81611b8157fe5b04611b9a8b670de0b6b3a764000063ffffffff6121b716565b81611ba157fe5b046144b0565b670de0b6b3a7640000611bc5601254836121b790919063ffffffff16565b81611bcc57fe5b04611be588670de0b6b3a764000063ffffffff6121b716565b81611bec57fe5b0486039550888a6010540281611bfe57fe5b601080549290910490910390555b611c178b308c6142e9565b600080611c22610599565b6001600160701b031691505080600c54039150508e15611c5757898b600c540281611c4957fe5b600c80549290910490910390555b611c65876001868685613486565b50506000600560006101000a81548160ff0219169083151502179055507fb83dbb1f0386f1b6d6f534f325d617e3f96f2971cca29021702094328c1cb70c338f8f60405180846001600160a01b03166001600160a01b03168152602001838152602001828152602001935050505060405180910390a15050505050505050505050509250929050565b60165481565b600e5481565b60175481565b6000806022546000148015611d8c5750600660009054906101000a90046001600160a01b03166001600160a01b0316635c975abb6040518163ffffffff1660e01b815260040160206040518083038186803b158015611d5e57600080fd5b505afa158015611d72573d6000803e3d6000fd5b505050506040513d6020811015611d8857600080fd5b5051155b8015611d9b575060055460ff16155b611da457600080fd5b6000806000611db1612a9c565b9250925092506000836001600160701b0316118015611dd957506000826001600160701b0316115b611de257600080fd5b63ffffffff8116601a55600b54600160a01b900460ff16611e7c57600560019054906101000a90046001600160a01b03166001600160a01b0316635a3d54936040518163ffffffff1660e01b815260040160206040518083038186803b158015611e4b57600080fd5b505afa158015611e5f573d6000803e3d6000fd5b505050506040513d6020811015611e7557600080fd5b5051611ef7565b600560019054906101000a90046001600160a01b03166001600160a01b0316635909c0d56040518163ffffffff1660e01b815260040160206040518083038186803b158015611eca57600080fd5b505afa158015611ede573d6000803e3d6000fd5b505050506040513d6020811015611ef457600080fd5b50515b601b556002546001600160701b03808516919084160281611f1457fe5b04601c55611f206138df565b6005805460ff19166001179055600080611f38612b74565b91509150611f45826132ca565b611f4e816132ca565b611f6c856001600160701b0316856001600160701b0316848461456b565b600c8190556010829055601f54604080516310a3907360e31b81526000600482015260c88386028190048603938502048403838102602483015260448201819052606482018490528251959750939550919373__$35a202e49b25153024c9487aa953acde7f$__9263851c8398926084808301939192829003018186803b158015611ff657600080fd5b505af415801561200a573d6000803e3d6000fd5b505050506040513d604081101561202057600080fd5b508051602090910151600f55600e55600c54601f54612047919060c890860204848461046d565b50600d805460ff1916911515919091179055601255600954612076906001600160a01b031660006103e8613818565b600854612090906001600160a01b031660006103e8613818565b6120a2836103e863ffffffff61216116565b97506120df6103e86120c060026012546121b790919063ffffffff16565b86670de0b6b3a764000002816120d257fe5b049063ffffffff61216116565b98506120ec601f546145eb565b5050600954612105906001600160a01b03168b8a613818565b60085461211c906001600160a01b03168b8b613818565b60125460138190554360185560195561213a602a6000848480613486565b5050600160225550506005805460ff19169055509496939550929350505050565b60135481565b808203828111156121b1576040805162461bcd60e51b815260206004820152601560248201527464732d6d6174682d7375622d756e646572666c6f7760581b604482015290519081900360640190fd5b92915050565b60008115806121d2575050808202828282816121cf57fe5b04145b6121b1576040805162461bcd60e51b815260206004820152601460248201527364732d6d6174682d6d756c2d6f766572666c6f7760601b604482015290519081900360640190fd5b60225460011480156122a35750600660009054906101000a90046001600160a01b03166001600160a01b0316635c975abb6040518163ffffffff1660e01b815260040160206040518083038186803b15801561227557600080fd5b505afa158015612289573d6000803e3d6000fd5b505050506040513d602081101561229f57600080fd5b5051155b6122dd576040805162461bcd60e51b8152602060048083019190915260248201526305a3a20560e41b604482015290519081900360640190fd5b60055460ff161561231e576040805162461bcd60e51b815260206004808301919091526024820152632d1d102960e11b604482015290519081900360640190fd5b6005805460ff19166001179055565b6123356138df565b60055461010090046001600160a01b031633146123b557600560019054906101000a90046001600160a01b03166001600160a01b03166311816b046040518163ffffffff1660e01b8152600401600060405180830381600087803b15801561239c57600080fd5b505af11580156123b0573d6000803e3d6000fd5b505050505b600560019054906101000a90046001600160a01b03166001600160a01b031663145f3c276040518163ffffffff1660e01b8152600401600060405180830381600087803b15801561240557600080fd5b505af1158015612419573d6000803e3d6000fd5b5050505060008061242b6000806130ad565b5091509150600061243d828402613180565b9050600080600061244f6000806130ad565b925092509250600080612460610599565b601254600b5492945090925090600090600160a01b900460ff166124fd57600560019054906101000a90046001600160a01b03166001600160a01b0316635a3d54936040518163ffffffff1660e01b815260040160206040518083038186803b1580156124cc57600080fd5b505afa1580156124e0573d6000803e3d6000fd5b505050506040513d60208110156124f657600080fd5b5051612578565b600560019054906101000a90046001600160a01b03166001600160a01b0316635909c0d56040518163ffffffff1660e01b815260040160206040518083038186803b15801561254b57600080fd5b505afa15801561255f573d6000803e3d6000fd5b505050506040513d602081101561257557600080fd5b50515b601d54601a5491925042910181111561263c578563ffffffff168111156125ba5763ffffffff86168103607088901b818a82816125b157fe5b04028401935050505b601b5482111561263c5760006054600060020154601c601a548503601b548703816125e157fe5b04901c02901c601c819055601a839055601b849055604080518281526020810185905280820186905290519192507f3caf8432d05012530c6e6951248ea06553757d02163808a71aee52d5e8dcc969919081900360600190a1505b871580159061264a57508615155b15612a8f5760115460009081908a908a908d11156127155760008d6011548f03670de0b6b3a7640000028161267b57fe5b0490506001600160701b038916600080808061269985898989614801565b9350935093509350826000141580156126b157508115155b156126cf5781600e8190555080600f819055508399508298506126d3565b8399505b604080518a8152602081018c905281517f78b2b5b985f3534f1fcbf31262dbc897c6d4b8458bf62dbfe3d270c09e8c874e929181900390910190a15050505050505b600c8054850190819055601080548501905561273c906001600160701b038a16848461046d565b50600d805460ff1916911515919091179055601255601354600a5460065460408051637945980160e01b815290516001600160a01b039384169363b3828f839316916379459801916004808301926020929190829003018186803b1580156127a357600080fd5b505afa1580156127b7573d6000803e3d6000fd5b505050506040513d60208110156127cd57600080fd5b50516006546040805163604b97bd60e11b815290516001600160a01b039092169163c0972f7a91600480820192602092909190829003018186803b15801561281457600080fd5b505afa158015612828573d6000803e3d6000fd5b505050506040513d602081101561283e57600080fd5b5051601854601354601254601954604080516001600160e01b031960e08a901b1681526004810197909752602487019590955260448601939093526064850191909152608484015260a48301525160c48083019260209291908290030181600087803b1580156128ad57600080fd5b505af11580156128c1573d6000803e3d6000fd5b505050506040513d60208110156128d757600080fd5b5051601381905581146128ef57601254601955436018555b5060118d905560175460009061290c90439063ffffffff61216116565b905080156129fa576006546040805163ed6b92cd60e01b815290516000926001600160a01b03169163ed6b92cd916004808301926020929190829003018186803b15801561295957600080fd5b505afa15801561296d573d6000803e3d6000fd5b505050506040513d602081101561298357600080fd5b5051601654909150600090600a4391909103116129a15760006129a6565b600a83045b90506129bb600183018263ffffffff6149ad16565b6129d460155484601454026149ad90919063ffffffff16565b816129db57fe5b046014556012546129ec908b6149fc565b601555505043601755612a1c565b612a18612a096012548a6149fc565b6015549063ffffffff6149ad16565b6015555b602154600c54601054600e54600f54601254604080516001600160701b038089168252600160701b9098049097166020880152868101959095526060860193909352608085019190915260a084015260c083015251600080516020614ebb8339815191529181900360e00190a150505050505b5050505050505050505050565b600080600080600080600560019054906101000a90046001600160a01b03166001600160a01b0316630902f1ac6040518163ffffffff1660e01b815260040160606040518083038186803b158015612af357600080fd5b505afa158015612b07573d6000803e3d6000fd5b505050506040513d6060811015612b1d57600080fd5b5080516020820151604090920151600b54919550919350909150600160a01b900460ff16612b4b5781612b4d565b825b600b54909650600160a01b900460ff16612b675782612b69565b815b959690945092505050565b6003546000908190612b8f906001600160a01b0316306131d2565b600454909250612ba8906001600160a01b0316306131d2565b90509091565b600080612bbf601454601554614a13565b905082602a1415612c4c57600a5460125460408051630134dce560e11b81526004810192909252516001600160a01b0390921691630269b9ca91602480820192602092909190829003018186803b158015612c1957600080fd5b505afa158015612c2d573d6000803e3d6000fd5b505050506040513d6020811015612c4357600080fd5b50519150612caf565b601e546002029150601c548310612c8957601c548390612c749061271063ffffffff6121b716565b81612c7b57fe5b046127100382019150612caf565b601c54612c9e8461271063ffffffff6121b716565b81612ca557fe5b0461271003820191505b6020548110612d9b576000601654430390506000602054670de0b6b3a764000081612cd657fe5b04905080821115612cea5743601655612d98565b612d9584600660009054906101000a90046001600160a01b03166001600160a01b0316632be90b326040518163ffffffff1660e01b815260040160206040518083038186803b158015612d3c57600080fd5b505afa158015612d50573d6000803e3d6000fd5b505050506040513d6020811015612d6657600080fd5b505160205461271090612d7f888363ffffffff6121b716565b81612d8657fe5b0403019063ffffffff6149ad16565b93505b50505b6040805183815290517f814578e7bcc81698e89b8ca0851d2aa85277f3c2c79654a231931340d7c5298c9181900360200190a16127108210612e0d576040805162461bcd60e51b81526020600482015260066024820152650b474408ca8960d31b604482015290519081900360640190fd5b50919050565b600061271083850204600a8111612e2d57849150506130a6565b8215612ea9576004548190612e4b906001600160a01b0316306131d2565b11612e87576040805162461bcd60e51b81526020600482015260076024820152662d1d10232a241960c91b604482015290519081900360640190fd5b600454600a54612ea4916001600160a01b03908116911683613308565b613027565b600354600554612ecb916001600160a01b039081169161010090041683613308565b600080612ed6612a9c565b50915091506000612ef6601e5461271003856121b790919063ffffffff16565b90506000612f2582612f196001600160701b03871661271063ffffffff6121b716565b9063ffffffff6149ad16565b612f3e836001600160701b03861663ffffffff6121b716565b81612f4557fe5b04905080612f5a5788955050505050506130a6565b600554600b546101009091046001600160a01b03169063022c0d9f90600160a01b900460ff16612f8a5782612f8d565b60005b600b54600160a01b900460ff16612fa5576000612fa7565b835b600a54604080516001600160e01b031960e087901b168152600481019490945260248401929092526001600160a01b0316604483015260806064830152600060848301819052905160c48084019382900301818387803b15801561300a57600080fd5b505af115801561301e573d6000803e3d6000fd5b50505050505050505b600a60009054906101000a90046001600160a01b03166001600160a01b03166303f187ea6040518163ffffffff1660e01b8152600401600060405180830381600087803b15801561307757600080fd5b505af115801561308b573d6000803e3d6000fd5b505050506130a2818661216190919063ffffffff16565b9150505b9392505050565b6000806000806000806130be612a9c565b92506001600160701b031692506001600160701b0316925060006130f7600560019054906101000a90046001600160a01b0316306131d2565b90506000613119600560019054906101000a90046001600160a01b031661325d565b9050811580613126575080155b1561313e578989429750975097505050505050613163565b808286028161314957fe5b04818386028161315557fe5b048497509750975050505050505b9250925092565b600081831061317957816130a6565b5090919050565b600060038211156131c3575080600160028204015b818110156131bd578091506002818285816131ac57fe5b0401816131b557fe5b049050613195565b506131cd565b81156131cd575060015b919050565b6000826001600160a01b03166370a08231836040518263ffffffff1660e01b815260040180826001600160a01b03166001600160a01b0316815260200191505060206040518083038186803b15801561322a57600080fd5b505afa15801561323e573d6000803e3d6000fd5b505050506040513d602081101561325457600080fd5b50519392505050565b6000816001600160a01b03166318160ddd6040518163ffffffff1660e01b815260040160206040518083038186803b15801561329857600080fd5b505afa1580156132ac573d6000803e3d6000fd5b505050506040513d60208110156132c257600080fd5b505192915050565b60008111610bc7576040805162461bcd60e51b815260206004808301919091526024820152632d1d102d60e11b604482015290519081900360640190fd5b60408051808201825260198152787472616e7366657228616464726573732c75696e743235362960381b60209182015281516001600160a01b0385811660248301526044808301869052845180840390910181526064909201845291810180516001600160e01b031663a9059cbb60e01b1781529251815160009460609489169392918291908083835b602083106133b15780518252601f199092019160209182019101613392565b6001836020036101000a0380198251168184511680821785525050505050509050019150506000604051808303816000865af19150503d8060008114613413576040519150601f19603f3d011682016040523d82523d6000602084013e613418565b606091505b5091509150818015613446575080511580613446575080806020019051602081101561344357600080fd5b50515b61347f576040805162461bcd60e51b81526020600482015260056024820152642d1d102a2360d91b604482015290519081900360640190fd5b5050505050565b600080600080613494612b74565b915091506000806134a584846130ad565b509150915060006134ca600560019054906101000a90046001600160a01b031661325d565b905060006134ed600560019054906101000a90046001600160a01b0316306131d2565b905060008061353a8888606461350e601f548b6121b790919063ffffffff16565b8161351557fe5b04606461352d601f548b6121b790919063ffffffff16565b8161353457fe5b04614a22565b915091508d61355757828583600202028161355157fe5b0461359e565b670de0b6b3a7640000613575601254856121b790919063ffffffff16565b8161357c57fe5b0461359583670de0b6b3a764000063ffffffff6121b716565b8161359c57fe5b045b8f019e50505050506135cf60405180604001604052806007815260200166666368616e676560c81b8152508c614c92565b50879050866000602a8c1461362a578b8b6000806135ed89896130ad565b5091509150613620878784613610600060020154866121b790919063ffffffff16565b8161361757fe5b048f8888614d44565b9196509450925050505b61364261363d848463ffffffff6121b716565b613180565b601155600080613650610599565b6001600160701b031691506001600160701b031691508d602a1461376d57600073__$35a202e49b25153024c9487aa953acde7f$__63c9d9a56a90918760006002015488028161369c57fe5b600c54601054604080516001600160e01b031960e089901b1681526004810196909652939092046024850152869003604484015286900360648301526084820189905260a4820188905260c48201879052805160e480840193829003018186803b15801561370957600080fd5b505af415801561371d573d6000803e3d6000fd5b505050506040513d604081101561373357600080fd5b508051602091820151600f819055600e9190915560408051808201909152600381526270327960e81b9281019290925261376d9190614c92565b61377b600c5482878761046d565b9050809950819a5050506020546137948a6012546149fc565b1061379e57436016555b602154600c54601054600e54600f54604080516001600160701b038088168252600160701b9097049096166020870152858101949094526060850192909252608084015260a083015260c082018b905251600080516020614ebb8339815191529181900360e00190a1505050505050509550959350505050565b826001600160a01b03166340c10f1983836040518363ffffffff1660e01b815260040180836001600160a01b03166001600160a01b0316815260200182815260200192505050600060405180830381600087803b15801561387857600080fd5b505af115801561388c573d6000803e3d6000fd5b50505050505050565b6006546001600160a01b031633146138dd576040805162461bcd60e51b815260206004808301919091526024820152632d1d102360e11b604482015290519081900360640190fd5b565b600760009054906101000a90046001600160a01b03166001600160a01b03166398118cb46040518163ffffffff1660e01b815260040160206040518083038186803b15801561392d57600080fd5b505afa158015613941573d6000803e3d6000fd5b505050506040513d602081101561395757600080fd5b5051601e5560065460408051631475aa5760e31b815290516001600160a01b039092169163a3ad52b891600480820192602092909190829003018186803b1580156139a157600080fd5b505afa1580156139b5573d6000803e3d6000fd5b505050506040513d60208110156139cb57600080fd5b5051601f5560065460408051632ca17caf60e11b815290516001600160a01b0390921691635942f95e91600480820192602092909190829003018186803b158015613a1557600080fd5b505afa158015613a29573d6000803e3d6000fd5b505050506040513d6020811015613a3f57600080fd5b50516020908155600654604080516358e20cf160e11b815290516001600160a01b039092169263b1c419e292600480840193829003018186803b158015613a8557600080fd5b505afa158015613a99573d6000803e3d6000fd5b505050506040513d6020811015613aaf57600080fd5b5051601d55565b601f5460009081908190816064613ad3898463ffffffff6121b716565b81613ada57fe5b049050600080600080613aee6000806130ad565b5091509150600060c887840281613b0157fe5b600354919004915060c88884020490600090613b26906001600160a01b0316306131d2565b600454909150600090613b42906001600160a01b0316306131d2565b90508382118015613b5257508281115b15613b9757600080613b6a888888870388870361456b565b915091508f15613b865760648782018d02049a50809850613b94565b60648883018d02049a508198505b50505b50505050505088831115613bde5782810189900391508115613bde57818b11613bd9576000613bc5856145eb565b508c98509650879550613dec945050505050565b958101955b818b0360008080613bed612a9c565b506001600160701b031691506001600160701b031691508b15613ccf576000613c17828402613180565b905060006127106002601e5481613c2a57fe5b0460010161271003870281613c3b57fe5b0490506000613c5a613c53858463ffffffff6149ad16565b8602613180565b9050828111613c98576040805162461bcd60e51b81526020600482015260056024820152645a503a534b60d81b604482015290519081900360640190fd5b600083848303670de0b6b3a76400000281613caf57fe5b049050670de0b6b3a7640000858202600202048701965050505050613dc4565b6000613cdc828402613180565b905060006127106002601e5481613cef57fe5b0460010161271003870281613d0057fe5b0490506000613d1f84613d19878563ffffffff6149ad16565b02613180565b9050828111613d5d576040805162461bcd60e51b81526020600482015260056024820152645a503a534b60d81b604482015290519081900360640190fd5b600083848303670de0b6b3a76400000281613d7457fe5b049050600082858403670de0b6b3a76400000281613d8e57fe5b049050670de0b6b3a76400008782026002020488019750670de0b6b3a764000082600202880281613dbb57fe5b049d5050505050505b9982019960008615613ddd57613dd9896145eb565b5090505b99505050959092019450505050505b9450945094915050565b600080600080613e076000806130ad565b5091509150600080613e17610599565b91509150600089613e285782613e2a565b815b6001600160701b0316905060008a613e425785613e44565b845b905060008b613e9a57613e95670de0b6b3a7640000613e7f6002613e73601254876121b790919063ffffffff16565b9063ffffffff6121b716565b81613e8657fe5b8591900463ffffffff6149ad16565b613e9e565b600c545b905080613eb1848d63ffffffff6121b716565b81613eb857fe5b0498506000613ec78a8c61316a565b90508b613eda838363ffffffff6121b716565b81613ee157fe5b0498505050505050505050935093915050565b6000806000613f04898986614349565b60055490925061271088840204830390600090613f2f9061010090046001600160a01b0316306131d2565b90506000613f3b610599565b6001600160701b031691505060008c1561408657600a54600c546012548c928c926000926001600160a01b039092169163e227c664918a91613f9b91670de0b6b3a764000091908b90039061195690830360028b0263ffffffff6121b716565b600b546040805160e086901b6001600160e01b031916815260048101949094526024840192909252600160a01b900460ff16151560448301526001600160a01b038616606483015280516084808401938290030181600087803b15801561400157600080fd5b505af1158015614015573d6000803e3d6000fd5b505050506040513d604081101561402b57600080fd5b5080516020909101519850965087905085670de0b6b3a7640000888203028161405057fe5b049350670d7621dc5821000084101561407357670de0b6b3a76400008785020496505b670de0b6b3a764000093505050506140cb565b6140c8670de0b6b3a764000084601254028161409e57fe5b0487670de0b6b3a764000002816140b157fe5b670de0b6b3a764000091900463ffffffff61216116565b90505b6005546140e79061010090046001600160a01b03168086613308565b600560019054906101000a90046001600160a01b03166001600160a01b0316632ce510908a8f1515600b60149054906101000a900460ff16151514156040518363ffffffff1660e01b815260040180836001600160a01b03166001600160a01b031681526020018215151515815260200192505050602060405180830381600087803b15801561417657600080fd5b505af115801561418a573d6000803e3d6000fd5b505050506040513d60208110156141a057600080fd5b5051909d959c5093909301995092975050505050505050565b600061271082840204806141d057839150506121b1565b6005546141ec9061010090046001600160a01b03168083613308565b600554600a54600b54604080516302ce510960e41b81526001600160a01b039384166004820152600160a01b90920460ff161560248301525161010090930490911691632ce51090916044808201926020929091908290030181600087803b15801561425757600080fd5b505af115801561426b573d6000803e3d6000fd5b505050506040513d602081101561428157600080fd5b5050600a54604080516301f8c3f560e11b815290516001600160a01b03909216916303f187ea9160048082019260009290919082900301818387803b1580156142c957600080fd5b505af11580156142dd573d6000803e3d6000fd5b50505093039392505050565b826001600160a01b0316639dc29fac83836040518363ffffffff1660e01b815260040180836001600160a01b03166001600160a01b0316815260200182815260200192505050600060405180830381600087803b15801561387857600080fd5b60008060006143596001806130ad565b5091509150600080614369610599565b9150915060008061438f600560019054906101000a90046001600160a01b0316306131d2565b905089156143ca57846002026143bb846001600160701b0316600c5403836121b790919063ffffffff16565b816143c257fe5b0491506143f2565b601254670de0b6b3a7640000906143e7908363ffffffff6121b716565b816143ee57fe5b0491505b60008a61445557846001600160701b0316670de0b6b3a76400006144246012546002028a6121b790919063ffffffff16565b8161442b57fe5b04016144468a6001600160701b03881663ffffffff6121b716565b8161444d57fe5b04890361447c565b600c546144718a6001600160701b03871663ffffffff6121b716565b8161447857fe5b0489035b90508061448f8b8563ffffffff6121b716565b8161449657fe5b0497506144a2886132ca565b505050505050509392505050565b6145668383836040516024018080602001848152602001838152602001828103825285818151815260200191508051906020019080838360005b838110156145025781810151838201526020016144ea565b50505050905090810190601f16801561452f5780820380516001836020036101000a031916815260200191505b5060408051601f198184030181529190526020810180516001600160e01b031663ca47c4eb60e01b1790529450614e999350505050565b505050565b60008061459260405180604001604052806002815260200161062360f41b81525085614c92565b6000856145a5888663ffffffff6121b716565b816145ac57fe5b049050848111156145da57849250866145cb848863ffffffff6121b716565b816145d257fe5b0491506145e1565b8092508391505b5094509492505050565b6000806000806145f9612b74565b9150915060008061460a84846130ad565b509092509050600060c8614624848a63ffffffff6121b716565b8161462b57fe5b049050600060c8614642848b63ffffffff6121b716565b8161464957fe5b049050816001600160701b03168611801561466c5750806001600160701b031685115b156147855760008061467c612a9c565b506001600160701b031691506001600160701b031691506146b58282866001600160701b03168b03866001600160701b03168b0361456b565b600354600554929c50909a506146de916001600160a01b0391821691610100909104168c613308565b600454600554614700916001600160a01b03908116916101009004168b613308565b600554604080516335313c2160e11b815230600482015290516101009092046001600160a01b031691636a627842916024808201926020929091908290030181600087803b15801561475157600080fd5b505af1158015614765573d6000803e3d6000fd5b505050506040513d602081101561477b57600080fd5b506147f692505050565b600560019054906101000a90046001600160a01b03166001600160a01b031663145f3c276040518163ffffffff1660e01b8152600401600060405180830381600087803b1580156147d557600080fd5b505af11580156147e9573d6000803e3d6000fd5b5050505060009750600096505b505050505050915091565b6000808080670de0b6b3a764000061481f878763ffffffff6121b716565b6002028161482957fe5b0493508561486088670de0b6b3a7640000614859601354670de0b6b3a764000003896121b790919063ffffffff16565b816113ed57fe5b8161486757fe5b049250670de0b6b3a7640000614888601354866121b790919063ffffffff16565b8161488f57fe5b600e54919004945091506148cd670de0b6b3a76400006148b5858563ffffffff6121b716565b816148bc57fe5b600f5491900463ffffffff6149ad16565b600c5460408051630b6ae96760e01b8152600060048201526024810186905260448101849052606481018b9052608481018a90529187018b900360a48301525191925073__$35a202e49b25153024c9487aa953acde7f$__91630b6ae9679160c480820192602092909190829003018186803b15801561494c57600080fd5b505af4158015614960573d6000803e3d6000fd5b505050506040513d602081101561497657600080fd5b5051156149a25760135484670de0b6b3a7640000028161499257fe5b0493506000925060009150600090505b945094509450949050565b808201828110156121b1576040805162461bcd60e51b815260206004820152601460248201527364732d6d6174682d6164642d6f766572666c6f7760601b604482015290519081900360640190fd5b6000818310614a0e57508082036121b1565b500390565b600081831161317957816130a6565b60008085846001600160701b03161015614b5157600354600554614a63916001600160a01b03908116916101009004166001600160701b0387168903613308565b600554600b54604080516321913af360e11b8152306004820152600160a01b90920460ff161515602483015251600092839283926101009092046001600160a01b03169163432275e69160448082019260609290919082900301818787803b158015614ace57600080fd5b505af1158015614ae2573d6000803e3d6000fd5b505050506040513d6060811015614af857600080fd5b5080516020820151604090920151600b54919750879550919350909150600160a01b900460ff16614b295780614b2b565b815b602180546001600160701b0319166001600160701b038a161790559350614b6d92505050565b602180546001600160701b0319166001600160701b0388161790555b84836001600160701b03161015614c6457600454600554614bab916001600160a01b03908116916101009004166001600160701b0386168803613308565b600554600b54604080516321913af360e11b8152306004820152600160a01b90920460ff16156024830152516101009092046001600160a01b03169163432275e6916044808201926060929091908290030181600087803b158015614c0f57600080fd5b505af1158015614c23573d6000803e3d6000fd5b505050506040513d6060811015614c3957600080fd5b505060218054600160701b600160e01b031916600160701b6001600160701b03861602179055614c89565b60218054600160701b600160e01b031916600160701b6001600160701b038816021790555b94509492505050565b614d4082826040516024018080602001838152602001828103825284818151815260200191508051906020019080838360005b83811015614cdd578181015183820152602001614cc5565b50505050905090810190601f168015614d0a5780820380516001836020036101000a031916815260200191505b5060408051601f198184030181529190526020810180516001600160e01b0316632d839cb360e21b1790529350614e9992505050565b5050565b600e54600f5460408051637b36c51b60e01b815260006004820181905260248201899052604482019490945260648101929092526084820189905260a4820188905260c482018690525173__$35a202e49b25153024c9487aa953acde7f$__91637b36c51b9160e4808301926060929190829003018186803b158015614dc957600080fd5b505af4158015614ddd573d6000803e3d6000fd5b505050506040513d6060811015614df357600080fd5b505190508115614e355782670de0b6b3a764000014614e3057670de0b6b3a7640000614e25828563ffffffff6121b716565b81614e2c57fe5b0490505b614e8f565b6002546000908890614e4e90899063ffffffff6121b716565b81614e5557fe5b049050858114614e7b5780614e70858863ffffffff6121b716565b81614e7757fe5b0493505b614e8b828563ffffffff6149ad16565b9150505b9695505050505050565b80516a636f6e736f6c652e6c6f67602083016000808483855afa505050505056fe459c5d5c70f681eee7a3f619b080cae1a6590a039ce12c9f64014e7843844b44a265627a7a72315820e6cf8d5668a204be6e198ce247262cd59a64106fe71ee91ed961a40224da515464736f6c63430005100032",
  "linkReferences": {
    "contracts/libraries/DiffuseLibrary.sol": {
      "DiffuseLibrary": [
        {
          "length": 20,
          "start": 1237
        },
        {
          "length": 20,
          "start": 8183
        },
        {
          "length": 20,
          "start": 13993
        },
        {
          "length": 20,
          "start": 18761
        },
        {
          "length": 20,
          "start": 19911
        }
      ]
    }
  },
  "deployedLinkReferences": {
    "contracts/libraries/DiffuseLibrary.sol": {
      "DiffuseLibrary": [
        {
          "length": 20,
          "start": 1182
        },
        {
          "length": 20,
          "start": 8128
        },
        {
          "length": 20,
          "start": 13938
        },
        {
          "length": 20,
          "start": 18706
        },
        {
          "length": 20,
          "start": 19856
        }
      ]
    }
  }
}