{
  "_format": "hh-sol-artifact-1",
  "contractName": "DiffuseEnergyFactory",
  "sourceName": "contracts/energy/DiffuseEnergyFactory.sol",
  "abi": [
    {
      "inputs": [
        {
          "internalType": "address",
          "name": "_feeToSetter",
          "type": "address"
        },
        {
          "internalType": "address",
          "name": "_migrator",
          "type": "address"
        }
      ],
      "payable": false,
      "stateMutability": "nonpayable",
      "type": "constructor"
    },
    {
      "anonymous": false,
      "inputs": [
        {
          "indexed": false,
          "internalType": "address",
          "name": "a",
          "type": "address"
        },
        {
          "indexed": false,
          "internalType": "address",
          "name": "b",
          "type": "address"
        },
        {
          "indexed": false,
          "internalType": "address",
          "name": "c",
          "type": "address"
        },
        {
          "indexed": false,
          "internalType": "address",
          "name": "d",
          "type": "address"
        }
      ],
      "name": "CREATE_ENERGY",
      "type": "event"
    },
    {
      "anonymous": false,
      "inputs": [
        {
          "indexed": true,
          "internalType": "address",
          "name": "pair",
          "type": "address"
        },
        {
          "indexed": true,
          "internalType": "address",
          "name": "energy",
          "type": "address"
        },
        {
          "indexed": false,
          "internalType": "address",
          "name": "tokenA",
          "type": "address"
        },
        {
          "indexed": false,
          "internalType": "address",
          "name": "tokenB",
          "type": "address"
        },
        {
          "indexed": false,
          "internalType": "uint256",
          "name": "",
          "type": "uint256"
        }
      ],
      "name": "EnergyCreated",
      "type": "event"
    },
    {
      "constant": true,
      "inputs": [
        {
          "internalType": "uint256",
          "name": "",
          "type": "uint256"
        }
      ],
      "name": "allEnergies",
      "outputs": [
        {
          "internalType": "address",
          "name": "",
          "type": "address"
        }
      ],
      "payable": false,
      "stateMutability": "view",
      "type": "function"
    },
    {
      "constant": true,
      "inputs": [],
      "name": "allEnergiesLength",
      "outputs": [
        {
          "internalType": "uint256",
          "name": "",
          "type": "uint256"
        }
      ],
      "payable": false,
      "stateMutability": "view",
      "type": "function"
    },
    {
      "constant": true,
      "inputs": [
        {
          "internalType": "uint256",
          "name": "",
          "type": "uint256"
        }
      ],
      "name": "allEnergiesRevenue",
      "outputs": [
        {
          "internalType": "address",
          "name": "",
          "type": "address"
        }
      ],
      "payable": false,
      "stateMutability": "view",
      "type": "function"
    },
    {
      "constant": true,
      "inputs": [],
      "name": "allEnergiesRevenueLength",
      "outputs": [
        {
          "internalType": "uint256",
          "name": "",
          "type": "uint256"
        }
      ],
      "payable": false,
      "stateMutability": "view",
      "type": "function"
    },
    {
      "constant": false,
      "inputs": [
        {
          "internalType": "address",
          "name": "_pylon",
          "type": "address"
        },
        {
          "internalType": "address",
          "name": "_pair",
          "type": "address"
        },
        {
          "internalType": "address",
          "name": "_tokenA",
          "type": "address"
        },
        {
          "internalType": "address",
          "name": "_tokenB",
          "type": "address"
        }
      ],
      "name": "createEnergy",
      "outputs": [
        {
          "internalType": "address",
          "name": "energy",
          "type": "address"
        }
      ],
      "payable": false,
      "stateMutability": "nonpayable",
      "type": "function"
    },
    {
      "constant": false,
      "inputs": [
        {
          "internalType": "address",
          "name": "_pair",
          "type": "address"
        },
        {
          "internalType": "address",
          "name": "_tokenA",
          "type": "address"
        },
        {
          "internalType": "address",
          "name": "_tokenB",
          "type": "address"
        },
        {
          "internalType": "address",
          "name": "_pylonFactory",
          "type": "address"
        }
      ],
      "name": "createEnergyRev",
      "outputs": [
        {
          "internalType": "address",
          "name": "energy",
          "type": "address"
        }
      ],
      "payable": false,
      "stateMutability": "nonpayable",
      "type": "function"
    },
    {
      "constant": true,
      "inputs": [],
      "name": "energyCodeHash",
      "outputs": [
        {
          "internalType": "bytes32",
          "name": "",
          "type": "bytes32"
        }
      ],
      "payable": false,
      "stateMutability": "pure",
      "type": "function"
    },
    {
      "constant": true,
      "inputs": [],
      "name": "energyRevenueCodeHash",
      "outputs": [
        {
          "internalType": "bytes32",
          "name": "",
          "type": "bytes32"
        }
      ],
      "payable": false,
      "stateMutability": "pure",
      "type": "function"
    },
    {
      "constant": true,
      "inputs": [],
      "name": "feePercentageEnergy",
      "outputs": [
        {
          "internalType": "uint256",
          "name": "",
          "type": "uint256"
        }
      ],
      "payable": false,
      "stateMutability": "view",
      "type": "function"
    },
    {
      "constant": true,
      "inputs": [],
      "name": "feePercentageRev",
      "outputs": [
        {
          "internalType": "uint256",
          "name": "",
          "type": "uint256"
        }
      ],
      "payable": false,
      "stateMutability": "view",
      "type": "function"
    },
    {
      "constant": true,
      "inputs": [],
      "name": "feeToSetter",
      "outputs": [
        {
          "internalType": "address",
          "name": "",
          "type": "address"
        }
      ],
      "payable": false,
      "stateMutability": "view",
      "type": "function"
    },
    {
      "constant": true,
      "inputs": [
        {
          "internalType": "address",
          "name": "",
          "type": "address"
        },
        {
          "internalType": "address",
          "name": "",
          "type": "address"
        }
      ],
      "name": "getEnergy",
      "outputs": [
        {
          "internalType": "address",
          "name": "",
          "type": "address"
        }
      ],
      "payable": false,
      "stateMutability": "view",
      "type": "function"
    },
    {
      "constant": true,
      "inputs": [
        {
          "internalType": "address",
          "name": "",
          "type": "address"
        },
        {
          "internalType": "address",
          "name": "",
          "type": "address"
        }
      ],
      "name": "getEnergyRevenue",
      "outputs": [
        {
          "internalType": "address",
          "name": "",
          "type": "address"
        }
      ],
      "payable": false,
      "stateMutability": "view",
      "type": "function"
    },
    {
      "constant": false,
      "inputs": [
        {
          "internalType": "address",
          "name": "_token",
          "type": "address"
        },
        {
          "internalType": "uint256",
          "name": "_amount",
          "type": "uint256"
        },
        {
          "internalType": "address",
          "name": "_to",
          "type": "address"
        },
        {
          "internalType": "address",
          "name": "energyRev",
          "type": "address"
        }
      ],
      "name": "getFees",
      "outputs": [],
      "payable": false,
      "stateMutability": "nonpayable",
      "type": "function"
    },
    {
      "constant": true,
      "inputs": [],
      "name": "getMinMaxFee",
      "outputs": [
        {
          "internalType": "uint112",
          "name": "minFee",
          "type": "uint112"
        },
        {
          "internalType": "uint112",
          "name": "maxFee",
          "type": "uint112"
        }
      ],
      "payable": false,
      "stateMutability": "view",
      "type": "function"
    },
    {
      "constant": true,
      "inputs": [],
      "name": "insurancePerMille",
      "outputs": [
        {
          "internalType": "uint256",
          "name": "",
          "type": "uint256"
        }
      ],
      "payable": false,
      "stateMutability": "view",
      "type": "function"
    },
    {
      "constant": false,
      "inputs": [
        {
          "internalType": "address",
          "name": "oldEnergy",
          "type": "address"
        },
        {
          "internalType": "address",
          "name": "newEnergy",
          "type": "address"
        }
      ],
      "name": "migrateEnergy",
      "outputs": [],
      "payable": false,
      "stateMutability": "nonpayable",
      "type": "function"
    },
    {
      "constant": false,
      "inputs": [
        {
          "internalType": "address",
          "name": "pair",
          "type": "address"
        },
        {
          "internalType": "address",
          "name": "token",
          "type": "address"
        },
        {
          "internalType": "address",
          "name": "newEnergy",
          "type": "address"
        }
      ],
      "name": "migrateEnergyLiquidity",
      "outputs": [],
      "payable": false,
      "stateMutability": "nonpayable",
      "type": "function"
    },
    {
      "constant": false,
      "inputs": [
        {
          "internalType": "address",
          "name": "oldEnergy",
          "type": "address"
        },
        {
          "internalType": "address",
          "name": "newEnergy",
          "type": "address"
        }
      ],
      "name": "migrateEnergyRevenue",
      "outputs": [],
      "payable": false,
      "stateMutability": "nonpayable",
      "type": "function"
    },
    {
      "constant": false,
      "inputs": [
        {
          "internalType": "address",
          "name": "oldEnergy",
          "type": "address"
        },
        {
          "internalType": "address",
          "name": "newEnergy",
          "type": "address"
        }
      ],
      "name": "migrateEnergyRevenueFees",
      "outputs": [],
      "payable": false,
      "stateMutability": "nonpayable",
      "type": "function"
    },
    {
      "constant": true,
      "inputs": [],
      "name": "migrator",
      "outputs": [
        {
          "internalType": "address",
          "name": "",
          "type": "address"
        }
      ],
      "payable": false,
      "stateMutability": "view",
      "type": "function"
    },
    {
      "constant": false,
      "inputs": [
        {
          "internalType": "uint112",
          "name": "_minPylonFee",
          "type": "uint112"
        },
        {
          "internalType": "uint112",
          "name": "_maxPylonFee",
          "type": "uint112"
        }
      ],
      "name": "setFee",
      "outputs": [],
      "payable": false,
      "stateMutability": "nonpayable",
      "type": "function"
    },
    {
      "constant": false,
      "inputs": [
        {
          "internalType": "uint256",
          "name": "_fee",
          "type": "uint256"
        }
      ],
      "name": "setFeePercentageEnergy",
      "outputs": [],
      "payable": false,
      "stateMutability": "nonpayable",
      "type": "function"
    },
    {
      "constant": false,
      "inputs": [
        {
          "internalType": "uint256",
          "name": "_fee",
          "type": "uint256"
        }
      ],
      "name": "setFeePercentageRev",
      "outputs": [],
      "payable": false,
      "stateMutability": "nonpayable",
      "type": "function"
    },
    {
      "constant": false,
      "inputs": [
        {
          "internalType": "address",
          "name": "_feeToSetter",
          "type": "address"
        }
      ],
      "name": "setFeeToSetter",
      "outputs": [],
      "payable": false,
      "stateMutability": "nonpayable",
      "type": "function"
    },
    {
      "constant": false,
      "inputs": [
        {
          "internalType": "uint256",
          "name": "_insurancePerMille",
          "type": "uint256"
        }
      ],
      "name": "setInsurancePerMille",
      "outputs": [],
      "payable": false,
      "stateMutability": "nonpayable",
      "type": "function"
    },
    {
      "constant": false,
      "inputs": [
        {
          "internalType": "address",
          "name": "_migrator",
          "type": "address"
        }
      ],
      "name": "setMigrator",
      "outputs": [],
      "payable": false,
      "stateMutability": "nonpayable",
      "type": "function"
    }
  ],
  "bytecode": "0x608060405234801561001057600080fd5b50604051613ec4380380613ec48339818101604052604081101561003357600080fd5b50805160209182015160408051808201909152600180825260329190940152600980546001600160701b031916909317600160701b600160e01b031916601960711b17909255606460065560146007819055600855600480546001600160a01b03199081166001600160a01b03938416179091556005805490911691909216179055613e00806100c46000396000f3fe608060405234801561001057600080fd5b50600436106101495760003560e01c8063094b74151461014e5780630b0d7eb1146101725780630c16293a146101a25780631b151bc1146101de57806323cf3118146101fb578063295305d1146102215780634dd814421461024f57806363e1240114610269578063708284b41461029757806373e56b141461029f5780637cd07e47146102a757806388413ca0146102af5780638d72dfee146102dd5780639172e784146102fa5780639364a2961461029f57806394a77e5b14610338578063957ddb16146103765780639f9c54c914610393578063a2669ce7146103b0578063a2e74af6146103b8578063b5b729f6146103de578063ba77c79214610416578063cd2ba9641461041e578063d63135601461043b578063dcd8fc0b14610469578063e95078cf14610471578063f732ff4b1461049f575b600080fd5b6101566104cd565b604080516001600160a01b039092168252519081900360200190f35b6101a06004803603604081101561018857600080fd5b506001600160701b03813581169160200135166104dc565b005b6101a0600480360360808110156101b857600080fd5b506001600160a01b03813581169160208101359160408201358116916060013516610567565b6101a0600480360360208110156101f457600080fd5b503561066b565b6101a06004803603602081101561021157600080fd5b50356001600160a01b0316610709565b6101a06004803603604081101561023757600080fd5b506001600160a01b038135811691602001351661077b565b61025761088e565b60408051918252519081900360200190f35b610271610894565b604080516001600160701b03938416815291909216602082015281519081900390910190f35b6102576108af565b6102576108b5565b6101566108e7565b610156600480360360408110156102c557600080fd5b506001600160a01b03813581169160200135166108f6565b6101a0600480360360208110156102f357600080fd5b503561091c565b6101566004803603608081101561031057600080fd5b506001600160a01b038135811691602081013582169160408201358116916060013516610971565b6101566004803603608081101561034e57600080fd5b506001600160a01b038135811691602081013582169160408201358116916060013516610d4e565b6101566004803603602081101561038c57600080fd5b50356112a0565b6101a0600480360360208110156103a957600080fd5b50356112c7565b610257611365565b6101a0600480360360208110156103ce57600080fd5b50356001600160a01b031661136b565b6101a0600480360360608110156103f457600080fd5b506001600160a01b0381358116916020810135821691604090910135166113dd565b610257611596565b6101566004803603602081101561043457600080fd5b503561159c565b6101a06004803603604081101561045157600080fd5b506001600160a01b03813581169160200135166115a9565b610257611777565b6101a06004803603604081101561048757600080fd5b506001600160a01b038135811691602001351661177d565b610156600480360360408110156104b557600080fd5b506001600160a01b038135811691602001351661181c565b6004546001600160a01b031681565b6004546001600160a01b0316331461052c576040805162461bcd60e51b815260206004820152600e60248201526d2d282a1d102327a92124a22222a760911b604482015290519081900360640190fd5b600980546001600160701b03928316600160701b02600160701b600160e01b0319949093166001600160701b03199091161792909216179055565b6004546001600160a01b031633146105b7576040805162461bcd60e51b815260206004820152600e60248201526d2d282a1d102327a92124a22222a760911b604482015290519081900360640190fd5b826105f35760405162461bcd60e51b8152600401808060200182810382526027815260200180613d656027913960400191505060405180910390fd5b604080516365b7c8b760e11b81526001600160a01b03868116600483015260248201869052848116604483015291519183169163cb6f916e9160648082019260009290919082900301818387803b15801561064d57600080fd5b505af1158015610661573d6000803e3d6000fd5b5050505050505050565b6004546001600160a01b031633146106bb576040805162461bcd60e51b815260206004820152600e60248201526d2d282a1d102327a92124a22222a760911b604482015290519081900360640190fd5b6064811115610704576040805162461bcd60e51b815260206004820152601060248201526f0b48a74408c8a8abea89e9ebe90928e960831b604482015290519081900360640190fd5b600755565b6005546001600160a01b03163314610759576040805162461bcd60e51b815260206004820152600e60248201526d2d282a1d102327a92124a22222a760911b604482015290519081900360640190fd5b600580546001600160a01b0319166001600160a01b0392909216919091179055565b6005546001600160a01b031633146107cb576040805162461bcd60e51b815260206004820152600e60248201526d2d282a1d102327a92124a22222a760911b604482015290519081900360640190fd5b6001600160a01b03811661081a576040805162461bcd60e51b81526020600482015260116024820152705a453a205a45524f5f414444524553533560781b604482015290519081900360640190fd5b816001600160a01b031663438ab5ac826040518263ffffffff1660e01b815260040180826001600160a01b03166001600160a01b03168152602001915050600060405180830381600087803b15801561087257600080fd5b505af1158015610886573d6000803e3d6000fd5b505050505050565b60035490565b6009546001600160701b0380821692600160701b9092041690565b60085481565b6000604051806020016108c790611986565b6020820181038252601f19601f8201166040525080519060200120905090565b6005546001600160a01b031681565b60016020908152600092835260408084209091529082529020546001600160a01b031681565b6004546001600160a01b0316331461096c576040805162461bcd60e51b815260206004820152600e60248201526d2d282a1d102327a92124a22222a760911b604482015290519081900360640190fd5b600655565b604080516001600160a01b0380871682528086166020830152808516828401528316606082015290516000917f8199364a399c070f642de15139820ed6da3f2c0e2431a81b9eb864b73e8518e7919081900360800190a1816001600160a01b0316836001600160a01b03161415610a27576040805162461bcd60e51b81526020600482015260156024820152745a463a204944454e544943414c5f4144445245535360581b604482015290519081900360640190fd5b6001600160a01b03851615801590610a4757506001600160a01b03841615155b610a8c576040805162461bcd60e51b81526020600482015260116024820152705a453a205a45524f5f414444524553533160781b604482015290519081900360640190fd5b6001600160a01b0383811660009081526020818152604080832086851684529091529020541615610af8576040805162461bcd60e51b81526020600482015260116024820152705a453a20454e455247595f45584953545360781b604482015290519081900360640190fd5b606060405180602001610b0a90611986565b601f1982820381018352601f909101166040528051909150610b61576040805162461bcd60e51b81526020600482018190526024820152600080516020613d8c833981519152604482015290519081900360640190fd5b6000858560405160200180836001600160a01b03166001600160a01b031660601b8152601401826001600160a01b03166001600160a01b031660601b815260140192505050604051602081830303815290604052805190602001209050808251602084016000f592506001600160a01b038316610c21576040805162461bcd60e51b8152602060048201526019602482015278437265617465323a204661696c6564206f6e206465706c6f7960381b604482015290519081900360640190fd5b60408051637c643b2f60e11b81526001600160a01b03898116600483015288811660248301528781166044830152868116606483015291519185169163f8c8765e9160848082019260009290919082900301818387803b158015610c8457600080fd5b505af1158015610c98573d6000803e3d6000fd5b5050506001600160a01b038087166000818152602081815260408083208a86168085529083528184208054878c166001600160a01b0319918216811790925560028054600181018255968190527f405787fa12a823e0f2b7631cc41b3ba8828b3321ca811111fa75cd3aa3bb5ace9096018054909116821790559354825195865292850152838101919091525190935091891691600080516020613dac8339815191529181900360600190a35050949350505050565b6000826001600160a01b0316846001600160a01b03161415610daf576040805162461bcd60e51b81526020600482015260156024820152745a463a204944454e544943414c5f4144445245535360581b604482015290519081900360640190fd5b6001600160a01b038516610dfe576040805162461bcd60e51b815260206004820152601160248201527005a453a205a45524f5f414444524553533607c1b604482015290519081900360640190fd5b600080846001600160a01b0316866001600160a01b031610610e21578486610e24565b85855b6001600160a01b03808316600090815260016020908152604080832084861684529091529020549294509092501615610e98576040805162461bcd60e51b81526020600482015260116024820152705a453a20454e455247595f45584953545360781b604482015290519081900360640190fd5b606060405180602001610eaa90611993565b601f1982820381018352601f909101166040528051909150610f01576040805162461bcd60e51b81526020600482018190526024820152600080516020613d8c833981519152604482015290519081900360640190fd5b6040805160608a811b6001600160601b031990811660208085019190915287831b821660348501529186901b1660488301528251808303603c018152605c9092019092528051908201208251909182919084016000f594506001600160a01b038516610fb0576040805162461bcd60e51b8152602060048201526019602482015278437265617465323a204661696c6564206f6e206465706c6f7960381b604482015290519081900360640190fd5b6000610fbc858b61183f565b90506000610fca858c61183f565b90506000610fda87878e8c6118dd565b90506000610fea87898f8d6118dd565b9050886001600160a01b031663358764768e8a8a888888886040518863ffffffff1660e01b815260040180886001600160a01b03166001600160a01b03168152602001876001600160a01b03166001600160a01b03168152602001866001600160a01b03166001600160a01b03168152602001856001600160a01b03166001600160a01b03168152602001846001600160a01b03166001600160a01b03168152602001836001600160a01b03166001600160a01b03168152602001826001600160a01b03166001600160a01b03168152602001975050505050505050600060405180830381600087803b1580156110e057600080fd5b505af11580156110f4573d6000803e3d6000fd5b5050505088600160008a6001600160a01b03166001600160a01b031681526020019081526020016000206000896001600160a01b03166001600160a01b0316815260200190815260200160002060006101000a8154816001600160a01b0302191690836001600160a01b031602179055508860016000896001600160a01b03166001600160a01b0316815260200190815260200160002060008a6001600160a01b03166001600160a01b0316815260200190815260200160002060006101000a8154816001600160a01b0302191690836001600160a01b0316021790555060038990806001815401808255809150509060018203906000526020600020016000909192909190916101000a8154816001600160a01b0302191690836001600160a01b0316021790555050886001600160a01b03168d6001600160a01b0316600080516020613dac8339815191528a8a60028054905060405180846001600160a01b03166001600160a01b03168152602001836001600160a01b03166001600160a01b03168152602001828152602001935050505060405180910390a35050505050505050949350505050565b600281815481106112ad57fe5b6000918252602090912001546001600160a01b0316905081565b6004546001600160a01b03163314611317576040805162461bcd60e51b815260206004820152600e60248201526d2d282a1d102327a92124a22222a760911b604482015290519081900360640190fd5b6064811115611360576040805162461bcd60e51b815260206004820152601060248201526f0b48a74408c8a8abea89e9ebe90928e960831b604482015290519081900360640190fd5b600855565b60025490565b6004546001600160a01b031633146113bb576040805162461bcd60e51b815260206004820152600e60248201526d2d282a1d102327a92124a22222a760911b604482015290519081900360640190fd5b600480546001600160a01b0319166001600160a01b0392909216919091179055565b6005546001600160a01b0316331461142d576040805162461bcd60e51b815260206004820152600e60248201526d2d282a1d102327a92124a22222a760911b604482015290519081900360640190fd5b6001600160a01b03811661147c576040805162461bcd60e51b81526020600482015260116024820152702d229d102d22a927afa0a2222922a9a99960791b604482015290519081900360640190fd5b600030848460405160200180836001600160a01b03166001600160a01b031660601b8152601401826001600160a01b03166001600160a01b031660601b815260140192505050604051602081830303815290604052805190602001206114e06108b5565b60405160200180806001600160f81b0319815250600101846001600160a01b03166001600160a01b031660601b815260140183815260200182815260200193505050506040516020818303038152906040528051906020012060001c9050806001600160a01b031663438ab5ac836040518263ffffffff1660e01b815260040180826001600160a01b03166001600160a01b03168152602001915050600060405180830381600087803b15801561064d57600080fd5b60075481565b600381815481106112ad57fe5b6005546001600160a01b031633146115f9576040805162461bcd60e51b815260206004820152600e60248201526d2d282a1d102327a92124a22222a760911b604482015290519081900360640190fd5b6001600160a01b038116611648576040805162461bcd60e51b815260206004820152601160248201527016914e8816915493d7d05111149154d4cd607a1b604482015290519081900360640190fd5b6000826001600160a01b03166386f6f4306040518163ffffffff1660e01b8152600401602060405180830381600087803b15801561168557600080fd5b505af1158015611699573d6000803e3d6000fd5b505050506040513d60208110156116af57600080fd5b5051604080516350d7de8560e11b815290519192506000916001600160a01b0386169163a1afbd0a91600480830192602092919082900301818787803b1580156116f857600080fd5b505af115801561170c573d6000803e3d6000fd5b505050506040513d602081101561172257600080fd5b50516040805163f222771560e01b8152600481018590526024810183905290519192506001600160a01b0385169163f22277159160448082019260009290919082900301818387803b15801561064d57600080fd5b60065481565b6005546001600160a01b031633146117cd576040805162461bcd60e51b815260206004820152600e60248201526d2d282a1d102327a92124a22222a760911b604482015290519081900360640190fd5b6001600160a01b03811661081a576040805162461bcd60e51b81526020600482015260116024820152705a453a205a45524f5f414444524553533360781b604482015290519081900360640190fd5b60006020818152928152604080822090935290815220546001600160a01b031681565b604080516001600160601b0319606093841b811660208084019190915294841b166034820152815160288183030181526048820183528051908501206001600160f81b031960688301523090931b6069820152607d8101929092527f803b276468f7358dbf86c0992fddaa65f49560804530877a2be9e8b7493559f8609d808401919091528151808403909101815260bd9092019052805191012090565b604080516001600160601b0319606096871b811660208084019190915295871b8116603483015293861b841660488201528151603c818303018152605c820183528051908601206001600160f81b0319607c8301529290951b909216607d85015260918401527f9861265edc06a86bc0e66945f318d06135f796500e8ad92d52907c93d0a22f4860b1808501919091528151808503909101815260d19093019052815191012090565b61117f806119a183390190565b61124580612b208339019056fe6080604052600060065534801561001557600080fd5b50600480546001600160a01b03191633179055611148806100376000396000f3fe608060405234801561001057600080fd5b506004361061006d5760003560e01c80630269b9ca1461007257806303f187ea146100a1578063158ef93e146100ab578063438ab5ac146100b3578063b3828f83146100d9578063e227c66414610114578063f8c8765e14610167575b600080fd5b61008f6004803603602081101561008857600080fd5b50356101a5565b60408051918252519081900360200190f35b6100a96102fc565b005b61008f610618565b6100a9600480360360208110156100c957600080fd5b50356001600160a01b031661061e565b61008f600480360360c08110156100ef57600080fd5b5080359060208101359060408101359060608101359060808101359060a0013561082c565b61014e6004803603608081101561012a57600080fd5b508035906020810135906040810135151590606001356001600160a01b0316610932565b6040805192835260208301919091528051918290030190f35b6100a96004803603608081101561017d57600080fd5b506001600160a01b038135811691602081013582169160408201358116916060013516610cae565b60006006546001146101f3576040805162461bcd60e51b81526020600482015260126024820152712234b3333ab9b29d102327a92124a22222a760711b604482015290519081900360640190fd5b6000806101fe610db5565b6001600160701b0391821693501690506706f05b59d3b20000600081861161023857610233868303600a63ffffffff610e3516565b61024b565b61024b828703600a63ffffffff610e3516565b905067063eb89da4ed00008611158061026c57506707a1fe16027700008610155b156102b2576b012ced32a16a1b11e826288960241b6102a182610295868263ffffffff610e3516565b9063ffffffff610e3516565b816102a857fe5b04840194506102f3565b6102f0846a0c097ce7bc90715b34b9f160241b6102dc60246102958681868263ffffffff610e3516565b816102e357fe5b049063ffffffff610e9e16565b94505b50505050919050565b6000546001600160a01b0316331461034b576040805162461bcd60e51b815260206004820152600d60248201526c2d229d102737ba10283cb637b760991b604482015290519081900360640190fd5b600654600114610397576040805162461bcd60e51b81526020600482015260126024820152712234b3333ab9b29d102327a92124a22222a760711b604482015290519081900360640190fd5b600354604080516370a0823160e01b815230600482015290516000926001600160a01b0316916370a08231916024808301926020929190829003018186803b1580156103e257600080fd5b505afa1580156103f6573d6000803e3d6000fd5b505050506040513d602081101561040c57600080fd5b505160055490915081101561045e576040805162461bcd60e51b815260206004820152601360248201527216914e88105b98da1bdc881b9bdd081cd95b9d606a1b604482015290519081900360640190fd5b600061047560055483610eed90919063ffffffff16565b90506000600460009054906101000a90046001600160a01b03166001600160a01b031663708284b46040518163ffffffff1660e01b815260040160206040518083038186803b1580156104c757600080fd5b505afa1580156104db573d6000803e3d6000fd5b505050506040513d60208110156104f157600080fd5b5051600480546002546003546040805163044209e560e51b81526001600160a01b03938416958101959095529082166024850152519394506000939116916388413ca0916044808301926020929190829003018186803b15801561055457600080fd5b505afa158015610568573d6000803e3d6000fd5b505050506040513d602081101561057e57600080fd5b5051905060006064610596858563ffffffff610e3516565b8161059d57fe5b04905080156105bd576003546105bd906001600160a01b03168383610f3d565b6105cd858263ffffffff610eed16565b60058190556040805191825260208201869052818101839052517f89efb414e02af3789eedc7dfea4f4d869b9c77a6b0076f93e0c618cbe4715e0d9181900360600190a15050505050565b60065481565b6004546001600160a01b0316331461066d576040805162461bcd60e51b815260206004820152600d60248201526c2d281d102327a92124a22222a760991b604482015290519081900360640190fd5b600154604080516370a0823160e01b815230600482015290516000926001600160a01b0316916370a08231916024808301926020929190829003018186803b1580156106b857600080fd5b505afa1580156106cc573d6000803e3d6000fd5b505050506040513d60208110156106e257600080fd5b5051600354604080516370a0823160e01b815230600482015290519293506000926001600160a01b03909216916370a0823191602480820192602092909190829003018186803b15801561073557600080fd5b505afa158015610749573d6000803e3d6000fd5b505050506040513d602081101561075f57600080fd5b5051600254604080516370a0823160e01b815230600482015290519293506000926001600160a01b03909216916370a0823191602480820192602092909190829003018186803b1580156107b257600080fd5b505afa1580156107c6573d6000803e3d6000fd5b505050506040513d60208110156107dc57600080fd5b50516001549091506107f8906001600160a01b03168585610f3d565b60035461080f906001600160a01b03168584610f3d565b600254610826906001600160a01b03168583610f3d565b50505050565b6000868543031115610925578282808210156706f05b59d3b20000831015600061085685856110d3565b90508115158315151461089b57670de0b6b3a7640000610890610881876706f05b59d3b200006110d3565b83908e0263ffffffff610e3516565b8161089757fe5b0490505b82156108bc57670de0b6b3a7640000898201116108b757978801975b6108c9565b8881116108c95780890398505b6108e48967016345785d8a0000670c7d713b49da00006110ea565b6040805182815290519197507f82a87fc3d1e3751725dc2e9e55c48c944c0763264e15069ee79a6c07e7ecd2f0919081900360200190a15050505050610928565b50825b9695505050505050565b6000805481906001600160a01b03163314610984576040805162461bcd60e51b815260206004820152600d60248201526c2d229d102737ba10283cb637b760991b604482015290519081900360640190fd5b670de0b6b3a764000061099d868863ffffffff610e3516565b816109a457fe5b049150670de0b6b3a7640000851015610ca557600154604080516370a0823160e01b81523060048201529051670de0b6b3a76400008881038a0204926000926001600160a01b03909116916370a0823191602480820192602092909190829003018186803b158015610a1557600080fd5b505afa158015610a29573d6000803e3d6000fd5b505050506040513d6020811015610a3f57600080fd5b5051905080821015610a6757600154610a62906001600160a01b03168084610f3d565b610c62565b600154610a7e906001600160a01b03168083610f3d565b600154604080516318160ddd60e01b8152905188926000926001600160a01b03909116916318160ddd91600480820192602092909190829003018186803b158015610ac857600080fd5b505afa158015610adc573d6000803e3d6000fd5b505050506040513d6020811015610af257600080fd5b505160015460408051630240bc6b60e21b8152905192935060009283926001600160a01b031691630902f1ac916004808301926060929190829003018186803b158015610b3e57600080fd5b505afa158015610b52573d6000803e3d6000fd5b505050506040513d6060811015610b6857600080fd5b5080516020909101516001600160701b039182169350169050600084610b8e5782610b90565b815b905083610ba88789036002840263ffffffff610e3516565b81610baf57fe5b600354604080516370a0823160e01b81523060048201529051939092049a50600097506001600160a01b031695506370a082319450602480820194506020935090829003018186803b158015610c0457600080fd5b505afa158015610c18573d6000803e3d6000fd5b505050506040513d6020811015610c2e57600080fd5b50519050838111610c3f5780610c41565b835b600354909450610c5b906001600160a01b03168786610f3d565b8390036005555b604080518881526020810184905280820185905290517f2c857aeda5fd01dcaa3d09544151251b0af3ddb5b7349ecdfaa3b4795584a8a59181900360600190a150505b94509492505050565b60065415610ced576040805162461bcd60e51b81526020600482015260076024820152665a45523a20414960c81b604482015290519081900360640190fd5b6004546001600160a01b03163314610d41576040805162461bcd60e51b81526020600482015260126024820152712234b3333ab9b29d102327a92124a22222a760711b604482015290519081900360640190fd5b604080516080810182526001600160a01b0395861680825294861660208201819052938616918101829052919094166060909101819052600080546001600160a01b031990811690941790556001805484169092178255600280548416909417909355600380549092169092179055600655565b60048054604080516363e1240160e01b8152815160009485946001600160a01b0316936363e124019380830193919290829003018186803b158015610df957600080fd5b505afa158015610e0d573d6000803e3d6000fd5b505050506040513d6040811015610e2357600080fd5b50805160209091015190939092509050565b6000811580610e5057505080820282828281610e4d57fe5b04145b610e98576040805162461bcd60e51b815260206004820152601460248201527364732d6d6174682d6d756c2d6f766572666c6f7760601b604482015290519081900360640190fd5b92915050565b80820182811015610e98576040805162461bcd60e51b815260206004820152601460248201527364732d6d6174682d6164642d6f766572666c6f7760601b604482015290519081900360640190fd5b80820382811115610e98576040805162461bcd60e51b815260206004820152601560248201527464732d6d6174682d7375622d756e646572666c6f7760581b604482015290519081900360640190fd5b60408051808201825260198152787472616e7366657228616464726573732c75696e743235362960381b60209182015281516001600160a01b0385811660248301526044808301869052845180840390910181526064909201845291810180516001600160e01b031663a9059cbb60e01b1781529251815160009460609489169392918291908083835b60208310610fe65780518252601f199092019160209182019101610fc7565b6001836020036101000a0380198251168184511680821785525050505050509050019150506000604051808303816000865af19150503d8060008114611048576040519150601f19603f3d011682016040523d82523d6000602084013e61104d565b606091505b509150915081801561107b57508051158061107b575080806020019051602081101561107857600080fd5b50515b6110cc576040805162461bcd60e51b815260206004820152601e60248201527f446966667573652050796c6f6e3a205452414e534645525f4641494c45440000604482015290519081900360640190fd5b5050505050565b60008183106110e55750808203610e98565b500390565b60008284111561110957818410156111025783611104565b815b61110b565b825b94935050505056fea265627a7a7231582063da3834f16c5f9dc9a6dea3d89cfb291af9f668c2122ea5cd03efa34b83c10c64736f6c6343000510003260806040526000600c5534801561001557600080fd5b506000805460ff19166001179055600280546001600160a01b03191633179055611201806100446000396000f3fe608060405234801561001057600080fd5b50600436106100af5760003560e01c80630b48bd23146100b4578063158ef93e146100ce57806317d1ff9f146100d657806335876476146100fa578063438ab5ac1461015457806349d20f661461017a57806386f6f430146101a8578063a1afbd0a146101b0578063b8ce11d3146101b8578063b9d92de81461020b578063cb6f916e14610228578063cd3293de1461025e578063f222771514610266575b600080fd5b6100bc610289565b60408051918252519081900360200190f35b6100bc61037e565b6100de610384565b604080516001600160a01b039092168252519081900360200190f35b610152600480360360e081101561011057600080fd5b506001600160a01b038135811691602081013582169160408201358116916060810135821691608082013581169160a081013582169160c09091013516610393565b005b6101526004803603602081101561016a57600080fd5b50356001600160a01b03166104e4565b6101526004803603604081101561019057600080fd5b506001600160a01b03813581169160200135166106f2565b6100bc610774565b6100bc61077a565b6101c0610780565b604080516001600160a01b03988916815296881660208801529487168686015292861660608601529085166080850152841660a084015290921660c082015290519081900360e00190f35b6101526004803603602081101561022157600080fd5b50356107b9565b6101526004803603606081101561023e57600080fd5b506001600160a01b03813581169160208101359160409091013516610d70565b6100bc610e8a565b6101526004803603604081101561027c57600080fd5b5080359060200135610e90565b6000600c546001146102d7576040805162461bcd60e51b81526020600482015260126024820152712234b3333ab9b29d102327a92124a22222a760711b604482015290519081900360640190fd5b600a546001600160a01b03163314806102fa5750600b546001600160a01b031633145b61033b576040805162461bcd60e51b815260206004820152600d60248201526c2d229d102737ba10283cb637b760991b604482015290519081900360640190fd5b600a546001600160a01b031633141561035d575060048054600090915561037b565b600b546001600160a01b031633141561037b57506003805460009091555b90565b600c5481565b6002546001600160a01b031681565b600c54156103db576040805162461bcd60e51b815260206004820152601060248201526f5a45523a204e6f7420466163746f727960801b604482015290519081900360640190fd5b6002546001600160a01b0316331461042d576040805162461bcd60e51b815260206004820152601060248201526f5a45523a204e6f7420466163746f727960801b604482015290519081900360640190fd5b6040805160e0810182526001600160a01b0398891680825297891660208201819052968916918101829052948816606086018190529388166080860181905292881660a086018190529190971660c0909401849052600580546001600160a01b031990811690971790556006805487169095179094556007805486169096179095556008805485169091179055600980548416909417909355600a805483169091179055600b805490911690911790556001600c55565b6002546001600160a01b03163314610533576040805162461bcd60e51b815260206004820152600d60248201526c2d281d102327a92124a22222a760991b604482015290519081900360640190fd5b600554604080516370a0823160e01b815230600482015290516000926001600160a01b0316916370a08231916024808301926020929190829003018186803b15801561057e57600080fd5b505afa158015610592573d6000803e3d6000fd5b505050506040513d60208110156105a857600080fd5b5051600754604080516370a0823160e01b815230600482015290519293506000926001600160a01b03909216916370a0823191602480820192602092909190829003018186803b1580156105fb57600080fd5b505afa15801561060f573d6000803e3d6000fd5b505050506040513d602081101561062557600080fd5b5051600654604080516370a0823160e01b815230600482015290519293506000926001600160a01b03909216916370a0823191602480820192602092909190829003018186803b15801561067857600080fd5b505afa15801561068c573d6000803e3d6000fd5b505050506040513d60208110156106a257600080fd5b50516005549091506106be906001600160a01b03168585610eea565b6007546106d5906001600160a01b03168584610eea565b6006546106ec906001600160a01b03168583610eea565b50505050565b6002546001600160a01b03163314610746576040805162461bcd60e51b81526020600482015260126024820152712234b3333ab9b29d102327a92124a22222a760711b604482015290519081900360640190fd5b600a80546001600160a01b039384166001600160a01b031991821617909155600b8054929093169116179055565b60045481565b60035481565b600554600654600754600854600954600a54600b546001600160a01b039687169695861695948516949384169392831692918216911687565b6005546001600160a01b03163314610807576040805162461bcd60e51b815260206004820152600c60248201526b2d229d102737ba102830b4b960a11b604482015290519081900360640190fd5b60005460ff1661085e576040805162461bcd60e51b815260206004820152601f60248201527f5265656e7472616e637947756172643a207265656e7472616e742063616c6c00604482015290519081900360640190fd5b6000805460ff19169055600c546001146108b4576040805162461bcd60e51b81526020600482015260126024820152712234b3333ab9b29d102327a92124a22222a760711b604482015290519081900360640190fd5b600554604080516370a0823160e01b815230600482015290516000926001600160a01b0316916370a08231916024808301926020929190829003018186803b1580156108ff57600080fd5b505afa158015610913573d6000803e3d6000fd5b505050506040513d602081101561092957600080fd5b50516001549091508111610974576040805162461bcd60e51b815260206004820152600d60248201526c1691548e8814995d995c9d1959609a1b604482015290519081900360640190fd5b600554604080516318160ddd60e01b815290516000926001600160a01b0316916318160ddd916004808301926020929190829003018186803b1580156109b957600080fd5b505afa1580156109cd573d6000803e3d6000fd5b505050506040513d60208110156109e357600080fd5b5051600554600a54604080516370a0823160e01b81526001600160a01b039283166004820152905193945060009391909216916370a08231916024808301926020929190829003018186803b158015610a3b57600080fd5b505afa158015610a4f573d6000803e3d6000fd5b505050506040513d6020811015610a6557600080fd5b5051600554600b54604080516370a0823160e01b81526001600160a01b039283166004820152905193945060009391909216916370a08231916024808301926020929190829003018186803b158015610abd57600080fd5b505afa158015610ad1573d6000803e3d6000fd5b505050506040513d6020811015610ae757600080fd5b505160055460408051630240bc6b60e21b8152905192935060009283926001600160a01b031691630902f1ac916004808301926060929190829003018186803b158015610b3357600080fd5b505afa158015610b47573d6000803e3d6000fd5b505050506040513d6060811015610b5d57600080fd5b5080516020909101519092509050610b8385670de0b6b3a764000063ffffffff61109d16565b610baf85610ba36002818c6001600160701b03881663ffffffff61109d16565b9063ffffffff61109d16565b81610bb657fe5b60048054929091049091019055610bd585670de0b6b3a764000061109d565b610bf584610ba36002818c6001600160701b03891663ffffffff61109d16565b81610bfc57fe5b60038054929091049091019055505060025460408051635d3be3c960e11b815290516000926001600160a01b03169163ba77c792916004808301926020929190829003018186803b158015610c5057600080fd5b505afa158015610c64573d6000803e3d6000fd5b505050506040513d6020811015610c7a57600080fd5b5051600154909150600090610c9690879063ffffffff61110616565b905060006064610cc784820388610cb3868a63ffffffff61109d16565b81610cba57fe5b049063ffffffff61109d16565b81610cce57fe5b04905060006064610cec85820389610cb3878a63ffffffff61109d16565b81610cf357fe5b600554600854929091049250610d16916001600160a01b03918216911684610eea565b600554600954610d33916001600160a01b03908116911683610eea565b610d53610d46838363ffffffff61115616565b899063ffffffff61110616565b60019081556000805460ff19169091179055505050505050505050565b6002546001600160a01b03163314610dca576040805162461bcd60e51b81526020600482015260186024820152771691548e88139bdd081c1c9bdc195c9b1e4818d85b1b195960421b604482015290519081900360640190fd5b81610e065760405162461bcd60e51b81526004018080602001828103825260278152602001806111a66027913960400191505060405180910390fd5b6005546001600160a01b0384811691161415610e7a57600154821115610e63576040805162461bcd60e51b815260206004820152600d60248201526c1691548e8814995d995c9d1959609a1b604482015290519081900360640190fd5b600154610e76908363ffffffff61110616565b6001555b610e85838284610eea565b505050565b60015481565b6002546001600160a01b03163314610ee2576040805162461bcd60e51b815260206004820152601060248201526f5a45523a204e6f7420466163746f727960801b604482015290519081900360640190fd5b600355600455565b60408051808201825260198152787472616e7366657228616464726573732c75696e743235362960381b60209182015281516001600160a01b0385811660248301526044808301869052845180840390910181526064909201845291810180516001600160e01b031663a9059cbb60e01b1781529251815160009460609489169392918291908083835b60208310610f935780518252601f199092019160209182019101610f74565b6001836020036101000a0380198251168184511680821785525050505050509050019150506000604051808303816000865af19150503d8060008114610ff5576040519150601f19603f3d011682016040523d82523d6000602084013e610ffa565b606091505b50915091508161109657602481015180836110935760405162461bcd60e51b81526004018080602001828103825283818151815260200191508051906020019080838360005b83811015611058578181015183820152602001611040565b50505050905090810190601f1680156110855780820380516001836020036101000a031916815260200191505b509250505060405180910390fd5b50505b5050505050565b60008115806110b8575050808202828282816110b557fe5b04145b611100576040805162461bcd60e51b815260206004820152601460248201527364732d6d6174682d6d756c2d6f766572666c6f7760601b604482015290519081900360640190fd5b92915050565b80820382811115611100576040805162461bcd60e51b815260206004820152601560248201527464732d6d6174682d7375622d756e646572666c6f7760581b604482015290519081900360640190fd5b80820182811015611100576040805162461bcd60e51b815260206004820152601460248201527364732d6d6174682d6164642d6f766572666c6f7760601b604482015290519081900360640190fdfe4f7065726174696f6e733a2043616e6e6f74207265636f766572207a65726f2062616c616e6365a265627a7a723158202cb844b047e36e05f8c32a305b4e0d52cd5a1d007dbb1ae4db1ab012ce1c3e5564736f6c634300051000324f7065726174696f6e733a2043616e6e6f74207265636f766572207a65726f2062616c616e6365437265617465323a2062797465636f6465206c656e677468206973207a65726f3b4e72e4103178db6cd2e27320e98d9afdd1ab6f078b707886d1bf92b9fd8b25a265627a7a723158200a5b3b3f0525612b97a230c6831145bfdb04a508ce5f3ae52ea313246838bf4064736f6c63430005100032",
  "linkReferences": {},
  "deployedLinkReferences": {}
}