{
  "_format": "hh-sol-artifact-1",
  "contractName": "DiffuseFactory",
  "sourceName": "contracts/DiffuseFactory.sol",
  "abi": [
    {
      "inputs": [
        {
          "internalType": "address",
          "name": "_energyFactory",
          "type": "address"
        },
        {
          "internalType": "address",
          "name": "_feeToSetter",
          "type": "address"
        },
        {
          "internalType": "address",
          "name": "_migrator",
          "type": "address"
        }
      ],
      "payable": false,
      "stateMutability": "nonpayable",
      "type": "constructor"
    },
    {
      "anonymous": false,
      "inputs": [
        {
          "indexed": true,
          "internalType": "address",
          "name": "token0",
          "type": "address"
        },
        {
          "indexed": true,
          "internalType": "address",
          "name": "token1",
          "type": "address"
        },
        {
          "indexed": false,
          "internalType": "address",
          "name": "pair",
          "type": "address"
        },
        {
          "indexed": false,
          "internalType": "uint256",
          "name": "",
          "type": "uint256"
        }
      ],
      "name": "PairCreated",
      "type": "event"
    },
    {
      "constant": true,
      "inputs": [
        {
          "internalType": "uint256",
          "name": "",
          "type": "uint256"
        }
      ],
      "name": "allPairs",
      "outputs": [
        {
          "internalType": "address",
          "name": "",
          "type": "address"
        }
      ],
      "payable": false,
      "stateMutability": "view",
      "type": "function"
    },
    {
      "constant": true,
      "inputs": [],
      "name": "allPairsLength",
      "outputs": [
        {
          "internalType": "uint256",
          "name": "",
          "type": "uint256"
        }
      ],
      "payable": false,
      "stateMutability": "view",
      "type": "function"
    },
    {
      "constant": false,
      "inputs": [
        {
          "internalType": "address",
          "name": "_newEnergyFactory",
          "type": "address"
        }
      ],
      "name": "changeEnergyFactoryAddress",
      "outputs": [],
      "payable": false,
      "stateMutability": "nonpayable",
      "type": "function"
    },
    {
      "constant": false,
      "inputs": [
        {
          "internalType": "address",
          "name": "_pairAddress",
          "type": "address"
        },
        {
          "internalType": "address",
          "name": "_tokenA",
          "type": "address"
        },
        {
          "internalType": "address",
          "name": "_tokenB",
          "type": "address"
        },
        {
          "internalType": "address",
          "name": "_pylonFactory",
          "type": "address"
        }
      ],
      "name": "changeEnergyRevAddress",
      "outputs": [
        {
          "internalType": "address",
          "name": "newEnergy",
          "type": "address"
        }
      ],
      "payable": false,
      "stateMutability": "nonpayable",
      "type": "function"
    },
    {
      "constant": false,
      "inputs": [
        {
          "internalType": "address",
          "name": "tokenA",
          "type": "address"
        },
        {
          "internalType": "address",
          "name": "tokenB",
          "type": "address"
        },
        {
          "internalType": "address",
          "name": "_pylonFactory",
          "type": "address"
        }
      ],
      "name": "createPair",
      "outputs": [
        {
          "internalType": "address",
          "name": "pair",
          "type": "address"
        }
      ],
      "payable": false,
      "stateMutability": "nonpayable",
      "type": "function"
    },
    {
      "constant": true,
      "inputs": [],
      "name": "dynamicRatio",
      "outputs": [
        {
          "internalType": "uint256",
          "name": "",
          "type": "uint256"
        }
      ],
      "payable": false,
      "stateMutability": "view",
      "type": "function"
    },
    {
      "constant": true,
      "inputs": [],
      "name": "energyFactory",
      "outputs": [
        {
          "internalType": "address",
          "name": "",
          "type": "address"
        }
      ],
      "payable": false,
      "stateMutability": "view",
      "type": "function"
    },
    {
      "constant": true,
      "inputs": [],
      "name": "feeToSetter",
      "outputs": [
        {
          "internalType": "address",
          "name": "",
          "type": "address"
        }
      ],
      "payable": false,
      "stateMutability": "view",
      "type": "function"
    },
    {
      "constant": true,
      "inputs": [
        {
          "internalType": "address",
          "name": "",
          "type": "address"
        },
        {
          "internalType": "address",
          "name": "",
          "type": "address"
        }
      ],
      "name": "getPair",
      "outputs": [
        {
          "internalType": "address",
          "name": "",
          "type": "address"
        }
      ],
      "payable": false,
      "stateMutability": "view",
      "type": "function"
    },
    {
      "constant": true,
      "inputs": [],
      "name": "liquidityFee",
      "outputs": [
        {
          "internalType": "uint256",
          "name": "",
          "type": "uint256"
        }
      ],
      "payable": false,
      "stateMutability": "view",
      "type": "function"
    },
    {
      "constant": true,
      "inputs": [],
      "name": "migrator",
      "outputs": [
        {
          "internalType": "address",
          "name": "",
          "type": "address"
        }
      ],
      "payable": false,
      "stateMutability": "view",
      "type": "function"
    },
    {
      "constant": true,
      "inputs": [],
      "name": "pairCodeHash",
      "outputs": [
        {
          "internalType": "bytes32",
          "name": "",
          "type": "bytes32"
        }
      ],
      "payable": false,
      "stateMutability": "pure",
      "type": "function"
    },
    {
      "constant": false,
      "inputs": [
        {
          "internalType": "uint256",
          "name": "_dynamicRatio",
          "type": "uint256"
        }
      ],
      "name": "setDynamicRatio",
      "outputs": [],
      "payable": false,
      "stateMutability": "nonpayable",
      "type": "function"
    },
    {
      "constant": false,
      "inputs": [
        {
          "internalType": "address",
          "name": "_feeToSetter",
          "type": "address"
        }
      ],
      "name": "setFeeToSetter",
      "outputs": [],
      "payable": false,
      "stateMutability": "nonpayable",
      "type": "function"
    },
    {
      "constant": false,
      "inputs": [
        {
          "internalType": "uint256",
          "name": "_liquidityFee",
          "type": "uint256"
        }
      ],
      "name": "setLiquidityFee",
      "outputs": [],
      "payable": false,
      "stateMutability": "nonpayable",
      "type": "function"
    },
    {
      "constant": false,
      "inputs": [
        {
          "internalType": "address",
          "name": "_migrator",
          "type": "address"
        }
      ],
      "name": "setMigrator",
      "outputs": [],
      "payable": false,
      "stateMutability": "nonpayable",
      "type": "function"
    }
  ],
  "bytecode": "0x608060405234801561001057600080fd5b50604051613f92380380613f928339818101604052606081101561003357600080fd5b5080516020820151604090920151600080546001600160a01b039384166001600160a01b031991821617909155600180549284169282169290921790915560048054929093169116179055600f6005908155600655613efb806100976000396000f3fe608060405234801561001057600080fd5b50600436106100d05760003560e01c8063094b7415146100d557806317d1ff9f146100f95780631e3dd18b1461010157806323cf31181461011e578063320a557214610146578063357bf15c1461016c5780634d10127014610189578063574f2ba3146101a657806376f79738146101c05780637cd07e47146101f857806398118cb4146102005780639aab924814610208578063a2e74af614610210578063c223ba0914610236578063e6a4390514610274578063f5920b22146102a2575b600080fd5b6100dd6102aa565b604080516001600160a01b039092168252519081900360200190f35b6100dd6102b9565b6100dd6004803603602081101561011757600080fd5b50356102c8565b6101446004803603602081101561013457600080fd5b50356001600160a01b03166102ef565b005b6101446004803603602081101561015c57600080fd5b50356001600160a01b0316610361565b6101446004803603602081101561018257600080fd5b50356103d3565b6101446004803603602081101561019f57600080fd5b5035610428565b6101ae61047d565b60408051918252519081900360200190f35b6100dd600480360360608110156101d657600080fd5b506001600160a01b038135811691602081013582169160409091013516610483565b6100dd6107f9565b6101ae610808565b6101ae61080e565b6101446004803603602081101561022657600080fd5b50356001600160a01b0316610840565b6100dd6004803603608081101561024c57600080fd5b506001600160a01b0381358116916020810135821691604082013581169160600135166108b2565b6100dd6004803603604081101561028a57600080fd5b506001600160a01b0381358116916020013516610aa7565b6101ae610acd565b6004546001600160a01b031681565b6000546001600160a01b031681565b600381815481106102d557fe5b6000918252602090912001546001600160a01b0316905081565b6001546001600160a01b0316331461033f576040805162461bcd60e51b815260206004820152600e60248201526d2d282a1d102327a92124a22222a760911b604482015290519081900360640190fd5b600180546001600160a01b0319166001600160a01b0392909216919091179055565b6001546001600160a01b031633146103b1576040805162461bcd60e51b815260206004820152600e60248201526d2d282a1d102327a92124a22222a760911b604482015290519081900360640190fd5b600080546001600160a01b0319166001600160a01b0392909216919091179055565b6004546001600160a01b03163314610423576040805162461bcd60e51b815260206004820152600e60248201526d2d282a1d102327a92124a22222a760911b604482015290519081900360640190fd5b600555565b6004546001600160a01b03163314610478576040805162461bcd60e51b815260206004820152600e60248201526d2d282a1d102327a92124a22222a760911b604482015290519081900360640190fd5b600655565b60035490565b6000826001600160a01b0316846001600160a01b031614156104e6576040805162461bcd60e51b81526020600482015260176024820152765a463a204944454e544943414c5f41444452455353455360481b604482015290519081900360640190fd5b600080846001600160a01b0316866001600160a01b03161061050957848661050c565b85855b90925090506001600160a01b03821661055f576040805162461bcd60e51b815260206004820152601060248201526f5a463a205a45524f5f4144445245535360801b604482015290519081900360640190fd5b6001600160a01b038281166000908152600260209081526040808320858516845290915290205416156105cb576040805162461bcd60e51b815260206004820152600f60248201526e5a463a20504149525f45584953545360881b604482015290519081900360640190fd5b6060604051806020016105dd90610b6f565b6020820181038252601f19601f8201166040525090506000838360405160200180836001600160a01b03166001600160a01b031660601b8152601401826001600160a01b03166001600160a01b031660601b815260140192505050604051602081830303815290604052805190602001209050808251602084016000f594506001600160a01b0385166106a1576040805162461bcd60e51b81526020600482015260076024820152662d231d102821a360c91b604482015290519081900360640190fd5b60006106af8686868a610ad3565b6040805163c0c53b8b60e01b81526001600160a01b0388811660048301528781166024830152808416604483015291519293509088169163c0c53b8b9160648082019260009290919082900301818387803b15801561070d57600080fd5b505af1158015610721573d6000803e3d6000fd5b505050506001600160a01b0385811660008181526002602081815260408084208a87168086529083528185208054978e166001600160a01b031998891681179091559383528185208686528352818520805488168517905560038054600181018255958190527fc2575a0e9e593c00f959f8c92f12db2869c3395a3b0502d05e2516446f71f85b90950180549097168417909655925483519283529082015281517f0d3648bd0f6ba80134a33ba9275ac585d9d315f0ad8355cddefde31afa28d0e9929181900390910190a350505050509392505050565b6001546001600160a01b031681565b60055481565b60006040518060200161082090610b6f565b6020820181038252601f19601f8201166040525080519060200120905090565b6004546001600160a01b03163314610890576040805162461bcd60e51b815260206004820152600e60248201526d2d282a1d102327a92124a22222a760911b604482015290519081900360640190fd5b600480546001600160a01b0319166001600160a01b0392909216919091179055565b6001546000906001600160a01b03163314610905576040805162461bcd60e51b815260206004820152600e60248201526d2d282a1d102327a92124a22222a760911b604482015290519081900360640190fd5b6000546040805163044209e560e51b81526001600160a01b0387811660048301528681166024830152915191909216916388413ca0916044808301926020929190829003018186803b15801561095a57600080fd5b505afa15801561096e573d6000803e3d6000fd5b505050506040513d602081101561098457600080fd5b505190506001600160a01b038116610a2f5760008054604080516394a77e5b60e01b81526001600160a01b038981166004830152888116602483015287811660448301528681166064830152915191909216926394a77e5b92608480820193602093909283900390910190829087803b158015610a0057600080fd5b505af1158015610a14573d6000803e3d6000fd5b505050506040513d6020811015610a2a57600080fd5b505190505b846001600160a01b03166353ddd944826040518263ffffffff1660e01b815260040180826001600160a01b03166001600160a01b03168152602001915050600060405180830381600087803b158015610a8757600080fd5b505af1158015610a9b573d6000803e3d6000fd5b50505050949350505050565b60026020908152600092835260408084209091529082529020546001600160a01b031681565b60065481565b60008054604080516394a77e5b60e01b81526001600160a01b038881166004830152878116602483015286811660448301528581166064830152915191909216916394a77e5b91608480830192602092919082900301818787803b158015610b3a57600080fd5b505af1158015610b4e573d6000803e3d6000fd5b505050506040513d6020811015610b6457600080fd5b505195945050505050565b61334a80610b7d8339019056fe60806040526001600f553480156200001657600080fd5b5060408051808201825260078152664469666675736560c81b60208083019182528351808501909452600384526216941560ea1b908401528151919291469162000064916000919062000130565b5081516200007a90600190602085019062000130565b50604051806052620032f88239604080519182900360520182208651602097880120838301835260018452603160f81b93880193909352815180880191909152808201929092527fc89efdaa54c0f20c7adf612882df0950f5a951637e0307cdcb4c672f298b8bc6606083015260808201939093523060a0808301919091528351808303909101815260c090910190925250805192019190912060065550600780546001600160a01b03191633179055620001d5565b828054600181600116156101000203166002900490600052602060002090601f016020900481019282601f106200017357805160ff1916838001178555620001a3565b82800160010185558215620001a3579182015b82811115620001a357825182559160200191906001019062000186565b50620001b1929150620001b5565b5090565b620001d291905b80821115620001b15760008155600101620001bc565b90565b61311380620001e56000396000f3fe608060405234801561001057600080fd5b50600436106101965760003560e01c8063022c0d9f1461019b57806306fdde03146102275780630902f1ac146102a4578063095ea7b3146102dc5780630dfe16811461031c57806311816b0414610340578063145f3c271461034857806318160ddd1461035057806323b872dd1461036a5780632ce51090146103a057806330adf81f146103ce578063313ce567146103d65780633644e515146103f4578063432275e6146103fc5780634e6f19e51461044857806353ddd944146104505780635909c0d5146104765780635a3d54931461047e5780636a627842146104865780636da99636146104ac57806370a08231146104b45780637464fc3d146104da5780637ecebe00146104e257806389afcb441461050857806395d89b4114610547578063a9059cbb1461054f578063ba9a7a561461057b578063c0c53b8b14610583578063c45a0155146105bb578063d21220a7146105c3578063d505accf146105cb578063dd62ed3e1461061c578063f0f142f21461064a578063fff6cae914610676575b600080fd5b610225600480360360808110156101b157600080fd5b8135916020810135916001600160a01b036040830135169190810190608081016060820135600160201b8111156101e757600080fd5b8201836020820111156101f957600080fd5b803590602001918460018302840111600160201b8311171561021a57600080fd5b50909250905061067e565b005b61022f610c26565b6040805160208082528351818301528351919283929083019185019080838360005b83811015610269578181015183820152602001610251565b50505050905090810190601f1680156102965780820380516001836020036101000a031916815260200191505b509250505060405180910390f35b6102ac610cb4565b604080516001600160701b03948516815292909316602083015263ffffffff168183015290519081900360600190f35b610308600480360360408110156102f257600080fd5b506001600160a01b038135169060200135610cde565b604080519115158252519081900360200190f35b610324610cf5565b604080516001600160a01b039092168252519081900360200190f35b610225610d04565b610225610d50565b610358610de6565b60408051918252519081900360200190f35b6103086004803603606081101561038057600080fd5b506001600160a01b03813581169160208101359091169060400135610dec565b610358600480360360408110156103b657600080fd5b506001600160a01b0381351690602001351515610e86565b610358611371565b6103de611383565b6040805160ff9092168252519081900360200190f35b610358611388565b61042a6004803603604081101561041257600080fd5b506001600160a01b038135169060200135151561138e565b60408051938452602084019290925282820152519081900360600190f35b610225611869565b6102256004803603602081101561046657600080fd5b50356001600160a01b03166119b2565b610358611a2c565b610358611a32565b6103586004803603602081101561049c57600080fd5b50356001600160a01b0316611a38565b610324611d0e565b610358600480360360208110156104ca57600080fd5b50356001600160a01b0316611d1d565b610358611d2f565b610358600480360360208110156104f857600080fd5b50356001600160a01b0316611d35565b61052e6004803603602081101561051e57600080fd5b50356001600160a01b0316611d47565b6040805192835260208301919091528051918290030190f35b61022f6120ca565b6103086004803603604081101561056557600080fd5b506001600160a01b038135169060200135612124565b610358612131565b6102256004803603606081101561059957600080fd5b506001600160a01b038135811691602081013582169160409091013516612137565b6103246121ce565b6103246121dd565b610225600480360360e08110156105e157600080fd5b506001600160a01b03813581169160208101359091169060408101359060608101359060ff6080820135169060a08101359060c001356121ec565b6103586004803603604081101561063257600080fd5b506001600160a01b03813581169160200135166123db565b6102256004803603604081101561066057600080fd5b506001600160a01b0381351690602001356123f8565b610225612406565b600f546001146106c3576040805162461bcd60e51b81526020600482015260116024820152600080516020612fed833981519152604482015290519081900360640190fd5b6000600f55841515806106d65750600084115b6107115760405162461bcd60e51b8152600401808060200182810382526025815260200180612f3b6025913960400191505060405180910390fd5b60008061071c610cb4565b5091509150816001600160701b0316871080156107415750806001600160701b031686105b61077c5760405162461bcd60e51b8152600401808060200182810382526021815260200180612fa46021913960400191505060405180910390fd5b60085460095460009182916001600160a01b039182169190811690891682148015906107ba5750806001600160a01b0316896001600160a01b031614155b610803576040805162461bcd60e51b8152602060048201526015602482015274556e697377617056323a20494e56414c49445f544f60581b604482015290519081900360640190fd5b8a1561081457610814828a8d61255b565b891561082557610825818a8c61255b565b86156108e057886001600160a01b03166310d1e85c338d8d8c8c6040518663ffffffff1660e01b815260040180866001600160a01b03166001600160a01b03168152602001858152602001848152602001806020018281038252848482818152602001925080828437600081840152601f19601f8201169050808301925050509650505050505050600060405180830381600087803b1580156108c757600080fd5b505af11580156108db573d6000803e3d6000fd5b505050505b604080516370a0823160e01b815230600482015290516001600160a01b038416916370a08231916024808301926020929190829003018186803b15801561092657600080fd5b505afa15801561093a573d6000803e3d6000fd5b505050506040513d602081101561095057600080fd5b5051604080516370a0823160e01b815230600482015290519195506001600160a01b038316916370a0823191602480820192602092909190829003018186803b15801561099c57600080fd5b505afa1580156109b0573d6000803e3d6000fd5b505050506040513d60208110156109c657600080fd5b5051925060009150506001600160701b0385168a900383116109e95760006109f8565b89856001600160701b03160383035b9050600089856001600160701b0316038311610a15576000610a24565b89856001600160701b03160383035b90506000821180610a355750600081115b610a705760405162461bcd60e51b8152600401808060200182810382526024815260200180612f606024913960400191505060405180910390fd5b60075460408051632604632d60e21b815290516000926001600160a01b0316916398118cb4916004808301926020929190829003018186803b158015610ab557600080fd5b505afa158015610ac9573d6000803e3d6000fd5b505050506040513d6020811015610adf57600080fd5b505190506000610b16610af8858463ffffffff6126ee16565b610b0a8861271063ffffffff6126ee16565b9063ffffffff61275116565b90506000610b2d610af8858563ffffffff6126ee16565b9050610b5f6305f5e100610b536001600160701b038c8116908c1663ffffffff6126ee16565b9063ffffffff6126ee16565b610b6f838363ffffffff6126ee16565b1015610bb1576040805162461bcd60e51b815260206004820152600c60248201526b556e697377617056323a204b60a01b604482015290519081900360640190fd5b505050610bc0848488886127a1565b60408051838152602081018390528082018d9052606081018c905290516001600160a01b038b169133917fd78ad95fa46c994b6551d0da85fc275fe613ce37657fb8d5e3d130840159d8229181900360800190a350506001600f55505050505050505050565b6000805460408051602060026001851615610100026000190190941693909304601f81018490048402820184019092528181529291830182828015610cac5780601f10610c8157610100808354040283529160200191610cac565b820191906000526020600020905b815481529060010190602001808311610c8f57829003601f168201915b505050505081565b600b546001600160701b0380821692600160701b830490911691600160e01b900463ffffffff1690565b6000610ceb338484612958565b5060015b92915050565b6008546001600160a01b031681565b600f54600114610d49576040805162461bcd60e51b81526020600482015260116024820152600080516020612fed833981519152604482015290519081900360640190fd5b6001600f55565b600f54600114610d95576040805162461bcd60e51b81526020600482015260116024820152600080516020612fed833981519152604482015290519081900360640190fd5b6000600f81905580610da5610cb4565b5091509150610db482826129ba565b600b54610dda906001600160701b0380821691600160701b90041663ffffffff6126ee16565b600e5550506001600f55565b60025481565b6001600160a01b038316600090815260046020908152604080832033845290915281205460001914610e71576001600160a01b0384166000908152600460209081526040808320338452909152902054610e4c908363ffffffff61275116565b6001600160a01b03851660009081526004602090815260408083203384529091529020555b610e7c848484612ba9565b5060019392505050565b6000600f54600114610ecd576040805162461bcd60e51b81526020600482015260116024820152600080516020612fed833981519152604482015290519081900360640190fd5b6000600f81905580610edd610cb4565b50600854600954604080516370a0823160e01b815230600482015290519496509294506001600160a01b03918216939116916000918291829186916370a08231916024808301926020929190829003018186803b158015610f3d57600080fd5b505afa158015610f51573d6000803e3d6000fd5b505050506040513d6020811015610f6757600080fd5b5051604080516370a0823160e01b815230600482015290519192506000916001600160a01b038716916370a08231916024808301926020929190829003018186803b158015610fb557600080fd5b505afa158015610fc9573d6000803e3d6000fd5b505050506040513d6020811015610fdf57600080fd5b5051306000908152600360209081526040808320546007548251632604632d60e21b8152925195965090946001600160a01b03909116926398118cb49260048082019391829003018186803b15801561103757600080fd5b505afa15801561104b573d6000803e3d6000fd5b505050506040513d602081101561106157600080fd5b5051905061106f8a8a6129ba565b60025480611083848763ffffffff6126ee16565b8161108a57fe5b0496508061109e848663ffffffff6126ee16565b816110a557fe5b0495508c1561111a576110d086878c6001600160701b031603898e6001600160701b03160385612c51565b87019650869b50848c106111155760405162461bcd60e51b81526004018080602001828103825260298152602001806130766029913960400191505060405180910390fd5b611181565b61113c87888d6001600160701b031603888d6001600160701b03160385612c51565b86019550859b50838c106111815760405162461bcd60e51b81526004018080602001828103825260298152602001806130766029913960400191505060405180910390fd5b6000871180156111915750600086115b6111cc5760405162461bcd60e51b8152600401808060200182810382526028815260200180612fc56028913960400191505060405180910390fd5b6111d63084612d3a565b8c156111ec576111e7898f8e61255b565b6111f7565b6111f7888f8e61255b565b604080516370a0823160e01b815230600482015290516001600160a01b038b16916370a08231916024808301926020929190829003018186803b15801561123d57600080fd5b505afa158015611251573d6000803e3d6000fd5b505050506040513d602081101561126757600080fd5b5051604080516370a0823160e01b815230600482015290519196506001600160a01b038a16916370a0823191602480820192602092909190829003018186803b1580156112b357600080fd5b505afa1580156112c7573d6000803e3d6000fd5b505050506040513d60208110156112dd57600080fd5b505193506112ed85858d8d6127a1565b600b54611313906001600160701b0380821691600160701b90041663ffffffff6126ee16565b600e819055508d6001600160a01b0316336001600160a01b03166000805160206130568339815191528989604051808381526020018281526020019250505060405180910390a350506001600f5550979a9950505050505050505050565b6000805160206130bf83398151915281565b601281565b60065481565b6000806000600f546001146113d8576040805162461bcd60e51b81526020600482015260116024820152600080516020612fed833981519152604482015290519081900360640190fd5b6000600f5560025461141b5760405162461bcd60e51b81526004018080602001828103825260218152602001806130356021913960400191505060405180910390fd5b600080611426610cb4565b50600854604080516370a0823160e01b815230600482015290519395509193506000926001600160a01b03909116916370a08231916024808301926020929190829003018186803b15801561147a57600080fd5b505afa15801561148e573d6000803e3d6000fd5b505050506040513d60208110156114a457600080fd5b5051600954604080516370a0823160e01b815230600482015290519293506000926001600160a01b03909216916370a0823191602480820192602092909190829003018186803b1580156114f757600080fd5b505afa15801561150b573d6000803e3d6000fd5b505050506040513d602081101561152157600080fd5b5051905061153e826001600160701b03861663ffffffff61275116565b9550611559816001600160701b03851663ffffffff61275116565b94506000600760009054906101000a90046001600160a01b03166001600160a01b03166398118cb46040518163ffffffff1660e01b815260040160206040518083038186803b1580156115ab57600080fd5b505afa1580156115bf573d6000803e3d6000fd5b505050506040513d60208110156115d557600080fd5b505190506000891561167c5760018811611630576040805162461bcd60e51b815260206004820152601760248201527616940e88125b9cdd59999a58da595b9d08105b5bdd5b9d604a1b604482015290519081900360640190fd5b6116756116708461271061164d8c600288048303600019016126ee565b8161165457fe5b600b546001600160701b0316919004019063ffffffff6126ee16565b612dc5565b9050611710565b600187116116cb576040805162461bcd60e51b815260206004820152601760248201527616940e88125b9cdd59999a58da595b9d08105b5bdd5b9d604a1b604482015290519081900360640190fd5b61170d6116706127106116e78a600287048303600019016126ee565b816116ee57fe5b600b548892909104600160701b9091046001600160701b0316016126ee565b90505b600b5460009061173d90611670906001600160701b0380821691600160701b90041663ffffffff6126ee16565b9050600061175a600254610b53848661275190919063ffffffff16565b90508180828161176657fe5b600b80546001600160701b038a8116600160701b02600160701b600160e01b0319918d166001600160701b03199093169290921716179055049b506117ab89896129ba565b60008c116117ea5760405162461bcd60e51b815260040180806020018281038252602881526020018061300d6028913960400191505060405180910390fd5b6117f48e8d612e17565b61180087878b8b6127a1565b600b54611826906001600160701b0380821691600160701b90041663ffffffff6126ee16565b600e55604080518c8152602081018c905281513392600080516020612f84833981519152928290030190a25050505050505050506001600f819055509250925092565b600854604080516370a0823160e01b815230600482015290516000926001600160a01b0316916370a08231916024808301926020929190829003018186803b1580156118b457600080fd5b505afa1580156118c8573d6000803e3d6000fd5b505050506040513d60208110156118de57600080fd5b5051600954604080516370a0823160e01b815230600482015290519293506000926001600160a01b03909216916370a0823191602480820192602092909190829003018186803b15801561193157600080fd5b505afa158015611945573d6000803e3d6000fd5b505050506040513d602081101561195b57600080fd5b5051600b80546001600160701b0319166001600160701b0385811691909117600160701b600160e01b031916600160701b828516810291909117928390559293506119ab928282169204166126ee565b600e555050565b6007546001600160a01b03163314611a0a576040805162461bcd60e51b8152602060048201526016602482015275155b9a5cddd85c158c8e881393d517d0531313d5d15160521b604482015290519081900360640190fd5b600a80546001600160a01b0319166001600160a01b0392909216919091179055565b600c5481565b600d5481565b6000600f54600114611a7f576040805162461bcd60e51b81526020600482015260116024820152600080516020612fed833981519152604482015290519081900360640190fd5b6000600f81905580611a8f610cb4565b50600854604080516370a0823160e01b815230600482015290519395509193506000926001600160a01b03909116916370a08231916024808301926020929190829003018186803b158015611ae357600080fd5b505afa158015611af7573d6000803e3d6000fd5b505050506040513d6020811015611b0d57600080fd5b5051600954604080516370a0823160e01b815230600482015290519293506000926001600160a01b03909216916370a0823191602480820192602092909190829003018186803b158015611b6057600080fd5b505afa158015611b74573d6000803e3d6000fd5b505050506040513d6020811015611b8a57600080fd5b505190506000611ba9836001600160701b03871663ffffffff61275116565b90506000611bc6836001600160701b03871663ffffffff61275116565b9050611bd286866129ba565b60025480611c0757611bf36103e8610b0a611670868663ffffffff6126ee16565b9750611c0260006103e8612e17565b611c56565b611c536001600160701b038816611c24858463ffffffff6126ee16565b81611c2b57fe5b046001600160701b038816611c46858563ffffffff6126ee16565b81611c4d57fe5b04612e9c565b97505b60008811611c955760405162461bcd60e51b815260040180806020018281038252602881526020018061300d6028913960400191505060405180910390fd5b611c9f8989612e17565b611cab858589896127a1565b600b54611cd1906001600160701b0380821691600160701b90041663ffffffff6126ee16565b600e55604080518481526020810184905281513392600080516020612f84833981519152928290030190a250506001600f55509395945050505050565b600a546001600160a01b031681565b60036020526000908152604090205481565b600e5481565b60056020526000908152604090205481565b600080600f54600114611d8f576040805162461bcd60e51b81526020600482015260116024820152600080516020612fed833981519152604482015290519081900360640190fd5b6000600f81905580611d9f610cb4565b50600854600954604080516370a0823160e01b815230600482015290519496509294506001600160a01b039182169391169160009184916370a08231916024808301926020929190829003018186803b158015611dfb57600080fd5b505afa158015611e0f573d6000803e3d6000fd5b505050506040513d6020811015611e2557600080fd5b5051604080516370a0823160e01b815230600482015290519192506000916001600160a01b038516916370a08231916024808301926020929190829003018186803b158015611e7357600080fd5b505afa158015611e87573d6000803e3d6000fd5b505050506040513d6020811015611e9d57600080fd5b505130600090815260036020526040902054909150611ebc87876129ba565b60025480611ed0838663ffffffff6126ee16565b81611ed757fe5b04995080611eeb838563ffffffff6126ee16565b81611ef257fe5b04985060008a118015611f055750600089115b611f405760405162461bcd60e51b8152600401808060200182810382526028815260200180612fc56028913960400191505060405180910390fd5b611f4a3083612d3a565b611f55868c8c61255b565b611f60858c8b61255b565b604080516370a0823160e01b815230600482015290516001600160a01b038816916370a08231916024808301926020929190829003018186803b158015611fa657600080fd5b505afa158015611fba573d6000803e3d6000fd5b505050506040513d6020811015611fd057600080fd5b5051604080516370a0823160e01b815230600482015290519195506001600160a01b038716916370a0823191602480820192602092909190829003018186803b15801561201c57600080fd5b505afa158015612030573d6000803e3d6000fd5b505050506040513d602081101561204657600080fd5b5051925061205684848a8a6127a1565b600b5461207c906001600160701b0380821691600160701b90041663ffffffff6126ee16565b600e55604080518b8152602081018b905281516001600160a01b038e16923392600080516020613056833981519152929081900390910190a350505050505050506001600f81905550915091565b60018054604080516020600284861615610100026000190190941693909304601f81018490048402820184019092528181529291830182828015610cac5780601f10610c8157610100808354040283529160200191610cac565b6000610ceb338484612ba9565b6103e881565b6007546001600160a01b0316331461218f576040805162461bcd60e51b81526020600482015260166024820152752234b3333ab9b2a830b4b91d102327a92124a22222a760511b604482015290519081900360640190fd5b600880546001600160a01b039485166001600160a01b0319918216179091556009805493851693821693909317909255600a8054919093169116179055565b6007546001600160a01b031681565b6009546001600160a01b031681565b42841015612236576040805162461bcd60e51b8152602060048201526012602482015271155b9a5cddd85c158c8e881156141254915160721b604482015290519081900360640190fd5b6006546001600160a01b0380891660008181526005602090815260408083208054600180820190925582516000805160206130bf8339815191528186015280840196909652958d166060860152608085018c905260a085019590955260c08085018b90528151808603909101815260e08501825280519083012061190160f01b6101008601526101028501969096526101228085019690965280518085039096018652610142840180825286519683019690962095839052610162840180825286905260ff89166101828501526101a284018890526101c28401879052519193926101e280820193601f1981019281900390910190855afa15801561233f573d6000803e3d6000fd5b5050604051601f1901519150506001600160a01b038116158015906123755750886001600160a01b0316816001600160a01b0316145b6123c5576040805162461bcd60e51b815260206004820152601c60248201527b556e697377617056323a20494e56414c49445f5349474e415455524560201b604482015290519081900360640190fd5b6123d0898989612958565b505050505050505050565b600460209081526000928352604080842090915290825290205481565b6124028282612e17565b5050565b600f5460011461244b576040805162461bcd60e51b81526020600482015260116024820152600080516020612fed833981519152604482015290519081900360640190fd5b6000600f55600854604080516370a0823160e01b81523060048201529051610d49926001600160a01b0316916370a08231916024808301926020929190829003018186803b15801561249c57600080fd5b505afa1580156124b0573d6000803e3d6000fd5b505050506040513d60208110156124c657600080fd5b5051600954604080516370a0823160e01b815230600482015290516001600160a01b03909216916370a0823191602480820192602092909190829003018186803b15801561251357600080fd5b505afa158015612527573d6000803e3d6000fd5b505050506040513d602081101561253d57600080fd5b5051600b546001600160701b0380821691600160701b9004166127a1565b60408051808201825260198152787472616e7366657228616464726573732c75696e743235362960381b60209182015281516001600160a01b0385811660248301526044808301869052845180840390910181526064909201845291810180516001600160e01b031663a9059cbb60e01b1781529251815160009460609489169392918291908083835b602083106126045780518252601f1990920191602091820191016125e5565b6001836020036101000a0380198251168184511680821785525050505050509050019150506000604051808303816000865af19150503d8060008114612666576040519150601f19603f3d011682016040523d82523d6000602084013e61266b565b606091505b5091509150818015612699575080511580612699575080806020019051602081101561269657600080fd5b50515b6126e7576040805162461bcd60e51b815260206004820152601a602482015279155b9a5cddd85c158c8e881514905394d1915497d1905253115160321b604482015290519081900360640190fd5b5050505050565b60008115806127095750508082028282828161270657fe5b04145b610cef576040805162461bcd60e51b815260206004820152601460248201527364732d6d6174682d6d756c2d6f766572666c6f7760601b604482015290519081900360640190fd5b80820382811115610cef576040805162461bcd60e51b815260206004820152601560248201527464732d6d6174682d7375622d756e646572666c6f7760581b604482015290519081900360640190fd5b6001600160701b0384118015906127bf57506001600160701b038311155b612806576040805162461bcd60e51b8152602060048201526013602482015272556e697377617056323a204f564552464c4f5760681b604482015290519081900360640190fd5b600b5463ffffffff42811691600160e01b9004811682039081161580159061283657506001600160701b03841615155b801561284a57506001600160701b03831615155b156128bb578063ffffffff166128788561286386612eb4565b6001600160e01b03169063ffffffff612ec616565b600c80546001600160e01b03929092169290920201905563ffffffff81166128a38461286387612eb4565b600d80546001600160e01b0392909216929092020190555b600b80546001600160701b0319166001600160701b0388811691909117600160701b600160e01b031916600160701b8883168102919091176001600160e01b0316600160e01b63ffffffff871602179283905560408051848416815291909304909116602082015281517f1c411e9a96e071241c2f21f7726b17ae89e3cab4c78be50e062b03a9fffbbad1929181900390910190a1505050505050565b6001600160a01b03808416600081815260046020908152604080832094871680845294825291829020859055815185815291517f8c5be1e5ebec7d5bd14f71427d1e84f3dd0314c0f7b2291e5b200ac8c7c3b9259281900390910190a3505050565b600e548015612ba45760006129e46116706001600160701b0386811690861663ffffffff6126ee16565b905060006129f183612dc5565b9050808211156126e75760075460408051637ac9059160e11b815290516000926001600160a01b03169163f5920b22916004808301926020929190829003018186803b158015612a4057600080fd5b505afa158015612a54573d6000803e3d6000fd5b505050506040513d6020811015612a6a57600080fd5b505190506000612a8c670de0b6b3a7640000610b53868663ffffffff61275116565b90506000612ab084612aa4878663ffffffff6126ee16565b9063ffffffff612eeb16565b90506000818381612abd57fe5b04905080156123d057600a54600254612b02916001600160a01b031690670de0b6b3a764000090612af590859063ffffffff6126ee16565b81612afc57fe5b04612e17565b600085612b21670de0b6b3a7640000610b538a8463ffffffff61275116565b81612b2857fe5b600a5491900491506001600160a01b031663b9d92de8612b4e838563ffffffff61275116565b6040518263ffffffff1660e01b815260040180828152602001915050600060405180830381600087803b158015612b8457600080fd5b505af1158015612b98573d6000803e3d6000fd5b50505050505050505050505b505050565b6001600160a01b038316600090815260036020526040902054612bd2908263ffffffff61275116565b6001600160a01b038085166000908152600360205260408082209390935590841681522054612c07908263ffffffff612eeb16565b6001600160a01b03808416600081815260036020908152604091829020949094558051858152905191939287169260008051602061309f83398151915292918290030190a3505050565b6000808511612c92576040805162461bcd60e51b81526020600482015260086024820152675556323a2049494160c01b604482015290519081900360640190fd5b600084118015612ca25750600083115b612cdd576040805162461bcd60e51b815260206004820152600760248201526615558c8e88125360ca1b604482015290519081900360640190fd5b6000612cf48661271085900363ffffffff6126ee16565b90506000612d08828663ffffffff6126ee16565b90506000612d2283612aa48961271063ffffffff6126ee16565b9050808281612d2d57fe5b0498975050505050505050565b6001600160a01b038216600090815260036020526040902054612d63908263ffffffff61275116565b6001600160a01b038316600090815260036020526040902055600254612d8f908263ffffffff61275116565b6002556040805182815290516000916001600160a01b0385169160008051602061309f8339815191529181900360200190a35050565b60006003821115612e08575080600160028204015b81811015612e0257809150600281828581612df157fe5b040181612dfa57fe5b049050612dda565b50612e12565b8115612e12575060015b919050565b600254612e2a908263ffffffff612eeb16565b6002556001600160a01b038216600090815260036020526040902054612e56908263ffffffff612eeb16565b6001600160a01b038316600081815260036020908152604080832094909455835185815293519293919260008051602061309f8339815191529281900390910190a35050565b6000818310612eab5781612ead565b825b9392505050565b6001600160701b0316600160701b0290565b60006001600160701b0382166001600160e01b03841681612ee357fe5b049392505050565b80820182811015610cef576040805162461bcd60e51b815260206004820152601460248201527364732d6d6174682d6164642d6f766572666c6f7760601b604482015290519081900360640190fdfe556e697377617056323a20494e53554646494349454e545f4f55545055545f414d4f554e54556e697377617056323a20494e53554646494349454e545f494e5055545f414d4f554e544c209b5fc8ad50758f13e2e1088ba56a560dff690a1c6fef26394f4c03821c4f556e697377617056323a20494e53554646494349454e545f4c4951554944495459556e697377617056323a20494e53554646494349454e545f4c49515549444954595f4255524e4544556e697377617056323a204c4f434b4544000000000000000000000000000000556e697377617056323a20494e53554646494349454e545f4c49515549444954595f4d494e544544556e697377617056323a20557365206d696e7420746f2073746172742070616972dccd412f0b1252819cb1fd330b93224ca42612892bb3f4f789976e6d81936496556e697377617056323a20455854454e53494f4e5f4e4f545f454e4f5547485f4c4951554944495459ddf252ad1be2c89b69c2b068fc378daa952ba7f163c4a11628f55a4df523b3ef6e71edae12b1b97f4d1f60370fef10105fa2faae0126114a169c64845d6126c9a265627a7a72315820588a9070fd2ac2f9f06d0fcea58e81080542b2519698a0dbac4487c210ad6ce864736f6c63430005100032454950373132446f6d61696e28737472696e67206e616d652c737472696e672076657273696f6e2c75696e7432353620636861696e49642c6164647265737320766572696679696e67436f6e747261637429a265627a7a72315820be4ae333f5593b40946a2b8410a37ac3e33dedfc7a407d732faeae57ecb54b0564736f6c63430005100032",
  "linkReferences": {},
  "deployedLinkReferences": {}
}