{
  "_format": "hh-sol-artifact-1",
  "contractName": "ZirconPylon",
  "sourceName": "contracts/ZirconPylon.sol",
  "abi": [
    {
      "inputs": [],
      "payable": false,
      "stateMutability": "nonpayable",
      "type": "constructor"
    },
    {
      "anonymous": false,
      "inputs": [
        {
          "indexed": false,
          "internalType": "address",
          "name": "sender",
          "type": "address"
        },
        {
          "indexed": false,
          "internalType": "uint256",
          "name": "aIn0",
          "type": "uint256"
        },
        {
          "indexed": false,
          "internalType": "bool",
          "name": "isAnchor",
          "type": "bool"
        }
      ],
      "name": "Burn",
      "type": "event"
    },
    {
      "anonymous": false,
      "inputs": [
        {
          "indexed": false,
          "internalType": "address",
          "name": "sender",
          "type": "address"
        },
        {
          "indexed": false,
          "internalType": "uint256",
          "name": "aIn0",
          "type": "uint256"
        },
        {
          "indexed": false,
          "internalType": "uint256",
          "name": "aIn1",
          "type": "uint256"
        }
      ],
      "name": "BurnAsync",
      "type": "event"
    },
    {
      "anonymous": false,
      "inputs": [
        {
          "indexed": false,
          "internalType": "uint256",
          "name": "aIn0",
          "type": "uint256"
        },
        {
          "indexed": false,
          "internalType": "bool",
          "name": "applied",
          "type": "bool"
        }
      ],
      "name": "DeltaTax",
      "type": "event"
    },
    {
      "anonymous": false,
      "inputs": [
        {
          "indexed": false,
          "internalType": "uint256",
          "name": "aIn0",
          "type": "uint256"
        },
        {
          "indexed": false,
          "internalType": "bool",
          "name": "isAnchor",
          "type": "bool"
        }
      ],
      "name": "Excess",
      "type": "event"
    },
    {
      "anonymous": false,
      "inputs": [
        {
          "indexed": false,
          "internalType": "address",
          "name": "sender",
          "type": "address"
        },
        {
          "indexed": false,
          "internalType": "uint256",
          "name": "aIn0",
          "type": "uint256"
        },
        {
          "indexed": false,
          "internalType": "uint256",
          "name": "aIn1",
          "type": "uint256"
        }
      ],
      "name": "MintAsync",
      "type": "event"
    },
    {
      "anonymous": false,
      "inputs": [
        {
          "indexed": false,
          "internalType": "address",
          "name": "sender",
          "type": "address"
        },
        {
          "indexed": false,
          "internalType": "uint256",
          "name": "aIn0",
          "type": "uint256"
        },
        {
          "indexed": false,
          "internalType": "bool",
          "name": "isAnchor",
          "type": "bool"
        }
      ],
      "name": "MintAsync100",
      "type": "event"
    },
    {
      "anonymous": false,
      "inputs": [
        {
          "indexed": false,
          "internalType": "address",
          "name": "sender",
          "type": "address"
        },
        {
          "indexed": false,
          "internalType": "uint256",
          "name": "aIn0",
          "type": "uint256"
        },
        {
          "indexed": false,
          "internalType": "bool",
          "name": "isAnchor",
          "type": "bool"
        }
      ],
      "name": "MintSync",
      "type": "event"
    },
    {
      "anonymous": false,
      "inputs": [
        {
          "indexed": false,
          "internalType": "uint256",
          "name": "_vab",
          "type": "uint256"
        },
        {
          "indexed": false,
          "internalType": "uint256",
          "name": "_gamma",
          "type": "uint256"
        }
      ],
      "name": "PylonSync",
      "type": "event"
    },
    {
      "anonymous": false,
      "inputs": [
        {
          "indexed": false,
          "internalType": "uint256",
          "name": "_reserve0",
          "type": "uint256"
        },
        {
          "indexed": false,
          "internalType": "uint256",
          "name": "_reserve1",
          "type": "uint256"
        }
      ],
      "name": "PylonUpdate",
      "type": "event"
    },
    {
      "constant": true,
      "inputs": [],
      "name": "EMABlockNumber",
      "outputs": [
        {
          "internalType": "uint256",
          "name": "",
          "type": "uint256"
        }
      ],
      "payable": false,
      "stateMutability": "view",
      "type": "function"
    },
    {
      "constant": true,
      "inputs": [],
      "name": "MINIMUM_LIQUIDITY",
      "outputs": [
        {
          "internalType": "uint256",
          "name": "",
          "type": "uint256"
        }
      ],
      "payable": false,
      "stateMutability": "view",
      "type": "function"
    },
    {
      "constant": true,
      "inputs": [],
      "name": "anchorPoolTokenAddress",
      "outputs": [
        {
          "internalType": "address",
          "name": "",
          "type": "address"
        }
      ],
      "payable": false,
      "stateMutability": "view",
      "type": "function"
    },
    {
      "constant": false,
      "inputs": [
        {
          "internalType": "address",
          "name": "_to",
          "type": "address"
        },
        {
          "internalType": "bool",
          "name": "_isAnchor",
          "type": "bool"
        }
      ],
      "name": "burn",
      "outputs": [
        {
          "internalType": "uint256",
          "name": "amount",
          "type": "uint256"
        }
      ],
      "payable": false,
      "stateMutability": "nonpayable",
      "type": "function"
    },
    {
      "constant": false,
      "inputs": [
        {
          "internalType": "address",
          "name": "_to",
          "type": "address"
        },
        {
          "internalType": "bool",
          "name": "_isAnchor",
          "type": "bool"
        }
      ],
      "name": "burnAsync",
      "outputs": [
        {
          "internalType": "uint256",
          "name": "amount0",
          "type": "uint256"
        },
        {
          "internalType": "uint256",
          "name": "amount1",
          "type": "uint256"
        }
      ],
      "payable": false,
      "stateMutability": "nonpayable",
      "type": "function"
    },
    {
      "constant": false,
      "inputs": [
        {
          "internalType": "address",
          "name": "_energyAddress",
          "type": "address"
        },
        {
          "internalType": "address",
          "name": "_energyRevAddress",
          "type": "address"
        }
      ],
      "name": "changeEnergyAddress",
      "outputs": [],
      "payable": false,
      "stateMutability": "nonpayable",
      "type": "function"
    },
    {
      "constant": true,
      "inputs": [],
      "name": "energyAddress",
      "outputs": [
        {
          "internalType": "address",
          "name": "",
          "type": "address"
        }
      ],
      "payable": false,
      "stateMutability": "view",
      "type": "function"
    },
    {
      "constant": true,
      "inputs": [],
      "name": "energyRevAddress",
      "outputs": [
        {
          "internalType": "address",
          "name": "",
          "type": "address"
        }
      ],
      "payable": false,
      "stateMutability": "view",
      "type": "function"
    },
    {
      "constant": true,
      "inputs": [],
      "name": "factoryAddress",
      "outputs": [
        {
          "internalType": "address",
          "name": "",
          "type": "address"
        }
      ],
      "payable": false,
      "stateMutability": "view",
      "type": "function"
    },
    {
      "constant": true,
      "inputs": [],
      "name": "floatPoolTokenAddress",
      "outputs": [
        {
          "internalType": "address",
          "name": "",
          "type": "address"
        }
      ],
      "payable": false,
      "stateMutability": "view",
      "type": "function"
    },
    {
      "constant": true,
      "inputs": [],
      "name": "gammaEMA",
      "outputs": [
        {
          "internalType": "uint256",
          "name": "",
          "type": "uint256"
        }
      ],
      "payable": false,
      "stateMutability": "view",
      "type": "function"
    },
    {
      "constant": true,
      "inputs": [],
      "name": "gammaMulDecimals",
      "outputs": [
        {
          "internalType": "uint256",
          "name": "",
          "type": "uint256"
        }
      ],
      "payable": false,
      "stateMutability": "view",
      "type": "function"
    },
    {
      "constant": true,
      "inputs": [],
      "name": "getSyncReserves",
      "outputs": [
        {
          "internalType": "uint112",
          "name": "_reserve0",
          "type": "uint112"
        },
        {
          "internalType": "uint112",
          "name": "_reserve1",
          "type": "uint112"
        },
        {
          "internalType": "uint32",
          "name": "_blockTimestampLast",
          "type": "uint32"
        }
      ],
      "payable": false,
      "stateMutability": "view",
      "type": "function"
    },
    {
      "constant": false,
      "inputs": [
        {
          "internalType": "uint256",
          "name": "_gamma",
          "type": "uint256"
        },
        {
          "internalType": "uint256",
          "name": "_vab",
          "type": "uint256"
        }
      ],
      "name": "initMigratedPylon",
      "outputs": [],
      "payable": false,
      "stateMutability": "nonpayable",
      "type": "function"
    },
    {
      "constant": false,
      "inputs": [
        {
          "internalType": "address",
          "name": "_to",
          "type": "address"
        }
      ],
      "name": "initPylon",
      "outputs": [
        {
          "internalType": "uint256",
          "name": "floatLiquidity",
          "type": "uint256"
        },
        {
          "internalType": "uint256",
          "name": "anchorLiquidity",
          "type": "uint256"
        }
      ],
      "payable": false,
      "stateMutability": "nonpayable",
      "type": "function"
    },
    {
      "constant": false,
      "inputs": [
        {
          "internalType": "address",
          "name": "_floatPoolTokenAddress",
          "type": "address"
        },
        {
          "internalType": "address",
          "name": "_anchorPoolTokenAddress",
          "type": "address"
        },
        {
          "internalType": "address",
          "name": "_floatToken",
          "type": "address"
        },
        {
          "internalType": "address",
          "name": "_anchorToken",
          "type": "address"
        },
        {
          "internalType": "address",
          "name": "_pairAddress",
          "type": "address"
        },
        {
          "internalType": "address",
          "name": "_pairFactoryAddress",
          "type": "address"
        },
        {
          "internalType": "address",
          "name": "_energy",
          "type": "address"
        },
        {
          "internalType": "address",
          "name": "_energyRev",
          "type": "address"
        }
      ],
      "name": "initialize",
      "outputs": [],
      "payable": false,
      "stateMutability": "nonpayable",
      "type": "function"
    },
    {
      "constant": true,
      "inputs": [],
      "name": "initialized",
      "outputs": [
        {
          "internalType": "uint256",
          "name": "",
          "type": "uint256"
        }
      ],
      "payable": false,
      "stateMutability": "view",
      "type": "function"
    },
    {
      "constant": true,
      "inputs": [],
      "name": "isFloatReserve0",
      "outputs": [
        {
          "internalType": "bool",
          "name": "",
          "type": "bool"
        }
      ],
      "payable": false,
      "stateMutability": "view",
      "type": "function"
    },
    {
      "constant": false,
      "inputs": [
        {
          "internalType": "address",
          "name": "newPylon",
          "type": "address"
        }
      ],
      "name": "migrateLiquidity",
      "outputs": [],
      "payable": false,
      "stateMutability": "nonpayable",
      "type": "function"
    },
    {
      "constant": false,
      "inputs": [
        {
          "internalType": "address",
          "name": "to",
          "type": "address"
        },
        {
          "internalType": "bool",
          "name": "shouldMintAnchor",
          "type": "bool"
        }
      ],
      "name": "mintAsync",
      "outputs": [
        {
          "internalType": "uint256",
          "name": "liquidity",
          "type": "uint256"
        }
      ],
      "payable": false,
      "stateMutability": "nonpayable",
      "type": "function"
    },
    {
      "constant": false,
      "inputs": [
        {
          "internalType": "address",
          "name": "to",
          "type": "address"
        },
        {
          "internalType": "bool",
          "name": "isAnchor",
          "type": "bool"
        }
      ],
      "name": "mintAsync100",
      "outputs": [
        {
          "internalType": "uint256",
          "name": "liquidity",
          "type": "uint256"
        }
      ],
      "payable": false,
      "stateMutability": "nonpayable",
      "type": "function"
    },
    {
      "constant": false,
      "inputs": [
        {
          "internalType": "address",
          "name": "_to",
          "type": "address"
        },
        {
          "internalType": "bool",
          "name": "isAnchor",
          "type": "bool"
        }
      ],
      "name": "mintPoolTokens",
      "outputs": [
        {
          "internalType": "uint256",
          "name": "liquidity",
          "type": "uint256"
        }
      ],
      "payable": false,
      "stateMutability": "nonpayable",
      "type": "function"
    },
    {
      "constant": true,
      "inputs": [],
      "name": "muBlockNumber",
      "outputs": [
        {
          "internalType": "uint256",
          "name": "",
          "type": "uint256"
        }
      ],
      "payable": false,
      "stateMutability": "view",
      "type": "function"
    },
    {
      "constant": true,
      "inputs": [],
      "name": "muMulDecimals",
      "outputs": [
        {
          "internalType": "uint256",
          "name": "",
          "type": "uint256"
        }
      ],
      "payable": false,
      "stateMutability": "view",
      "type": "function"
    },
    {
      "constant": true,
      "inputs": [],
      "name": "muOldGamma",
      "outputs": [
        {
          "internalType": "uint256",
          "name": "",
          "type": "uint256"
        }
      ],
      "payable": false,
      "stateMutability": "view",
      "type": "function"
    },
    {
      "constant": true,
      "inputs": [],
      "name": "pairAddress",
      "outputs": [
        {
          "internalType": "address",
          "name": "",
          "type": "address"
        }
      ],
      "payable": false,
      "stateMutability": "view",
      "type": "function"
    },
    {
      "constant": true,
      "inputs": [],
      "name": "pairFactoryAddress",
      "outputs": [
        {
          "internalType": "address",
          "name": "",
          "type": "address"
        }
      ],
      "payable": false,
      "stateMutability": "view",
      "type": "function"
    },
    {
      "constant": true,
      "inputs": [],
      "name": "pylonToken",
      "outputs": [
        {
          "internalType": "address",
          "name": "float",
          "type": "address"
        },
        {
          "internalType": "address",
          "name": "anchor",
          "type": "address"
        }
      ],
      "payable": false,
      "stateMutability": "view",
      "type": "function"
    },
    {
      "constant": true,
      "inputs": [],
      "name": "strikeBlock",
      "outputs": [
        {
          "internalType": "uint256",
          "name": "",
          "type": "uint256"
        }
      ],
      "payable": false,
      "stateMutability": "view",
      "type": "function"
    },
    {
      "constant": true,
      "inputs": [],
      "name": "thisBlockEMA",
      "outputs": [
        {
          "internalType": "uint256",
          "name": "",
          "type": "uint256"
        }
      ],
      "payable": false,
      "stateMutability": "view",
      "type": "function"
    },
    {
      "constant": true,
      "inputs": [],
      "name": "virtualAnchorBalance",
      "outputs": [
        {
          "internalType": "uint256",
          "name": "",
          "type": "uint256"
        }
      ],
      "payable": false,
      "stateMutability": "view",
      "type": "function"
    }
  ],
  "bytecode": "0x6080604052662386f26fc10000601455600060155534801561002057600080fd5b506000805460ff19166001179055600480546001600160a01b03191633179055614dfe8061004f6000396000f3fe608060405234801561001057600080fd5b50600436106101755760003560e01c806306e53aec1461017a57806308acbe821461019e5780630a22d5f3146101a6578063158ef93e146101de578063192b65d8146101f857806322e489a4146102005780633339dc1a1461020857806333cdde4e14610210578063402d82c11461023e578063438ab5ac1461026c578063590f921d146102945780638a29e2de1461029c5780638a3019bb146102fb5780638aa961491461031e5780638d470e221461034c5780638ffa32361461037a57806394e999bb14610396578063966dae0e1461039e57806397ed64db146103a65780639892c7f1146103ae578063a8b08982146103b6578063ac9370f3146103be578063b32b3d92146103ec578063b7073003146103f4578063ba7b3dea146103fc578063ba9a7a561461042a578063c561cf4f14610432578063c9bd59a014610479578063efefd9f914610481578063f29401c414610489578063fef93492146104af575b600080fd5b6101826104b7565b604080516001600160a01b039092168252519081900360200190f35b6101826104c6565b6101ae6104d5565b604080516001600160701b03948516815292909316602083015263ffffffff168183015290519081900360600190f35b6101e66104ff565b60408051918252519081900360200190f35b6101e6610505565b61018261050b565b6101e661051a565b6101e66004803603604081101561022657600080fd5b506001600160a01b0381351690602001351515610520565b6102466108be565b604080516001600160a01b03938416815291909216602082015281519081900390910190f35b6102926004803603602081101561028257600080fd5b50356001600160a01b03166108d4565b005b6101e6610a00565b61029260048036036101008110156102b357600080fd5b506001600160a01b038135811691602081013582169160408201358116916060810135821691608082013581169160a081013582169160c082013581169160e0013516610a06565b6102926004803603604081101561031157600080fd5b5080359060200135610b9b565b6102926004803603604081101561033457600080fd5b506001600160a01b0381358116916020013516610bd2565b6101e66004803603604081101561036257600080fd5b506001600160a01b0381351690602001351515610c08565b610382610e71565b604080519115158252519081900360200190f35b610182610e81565b610182610e90565b6101e6610e9f565b610182610ea5565b610182610eb4565b6101e6600480360360408110156103d457600080fd5b506001600160a01b0381351690602001351515610ec3565b6101e6611248565b6101e661124e565b6101e66004803603604081101561041257600080fd5b506001600160a01b0381351690602001351515611254565b6101e6611647565b6104606004803603604081101561044857600080fd5b506001600160a01b038135169060200135151561164d565b6040805192835260208301919091528051918290030190f35b6101e6611acb565b6101e6611ad1565b6104606004803603602081101561049f57600080fd5b50356001600160a01b0316611ad7565b6101e6611f92565b6006546001600160a01b031681565b6008546001600160a01b031681565b6013546001600160701b0380821692600160701b830490911691600160e01b900463ffffffff1690565b60155481565b600a5481565b6007546001600160a01b031681565b600d5481565b6000805460ff16610566576040805162461bcd60e51b815260206004820152601f6024820152600080516020614d32833981519152604482015290519081900360640190fd5b6000805460ff19169055610578611f98565b610580612082565b600082610598576006546001600160a01b03166105a5565b6007546001600160a01b03165b90506000806105b26104d5565b50600154604080516370a0823160e01b81523060048201529051939550919350600092839283926001600160a01b0316916370a0823191602480820192602092909190829003018186803b15801561060957600080fd5b505afa15801561061d573d6000803e3d6000fd5b505050506040513d602081101561063357600080fd5b5051600254604080516370a0823160e01b815230600482015290519293506000926001600160a01b03909216916370a0823191602480820192602092909190829003018186803b15801561068657600080fd5b505afa15801561069a573d6000803e3d6000fd5b505050506040513d60208110156106b057600080fd5b505190506106cd826001600160701b03881663ffffffff6123c416565b93506106e8816001600160701b03871663ffffffff6123c416565b92506106f584600061241a565b935061070283600161241a565b925060008061071386868d8c612662565b915091508199508a1561072957600a8054820190555b505050506107368261285e565b61073f8161285e565b60015460035461075c916001600160a01b0390811691168461289b565b600254600354610779916001600160a01b0390811691168361289b565b600354604080516335313c2160e11b815230600482015290516001600160a01b0390921691636a627842916024808201926020929091908290030181600087803b1580156107c657600080fd5b505af11580156107da573d6000803e3d6000fd5b505050506040513d60208110156107f057600080fd5b5050604080516340c10f1960e01b81526001600160a01b038a81166004830152602482018990529151918716916340c10f199160448082019260009290919082900301818387803b15801561084457600080fd5b505af1158015610858573d6000803e3d6000fd5b5050604080513381526020810186905280820185905290517f9a36e9f82fd3ab4ec26a87598c0f7f4519b7895fa6a0bca1968b486ee019b0829350908190036060019150a16108a5612a1a565b50506000805460ff191660011790555091949350505050565b6001546002546001600160a01b03918216911682565b6108dc612ceb565b600354604080516370a0823160e01b8152306004820152905161095d926001600160a01b031691849183916370a08231916024808301926020929190829003018186803b15801561092c57600080fd5b505afa158015610940573d6000803e3d6000fd5b505050506040513d602081101561095657600080fd5b505161289b565b600254604080516370a0823160e01b815230600482015290516109ad926001600160a01b031691849183916370a08231916024808301926020929190829003018186803b15801561092c57600080fd5b600154604080516370a0823160e01b815230600482015290516109fd926001600160a01b031691849183916370a08231916024808301926020929190829003018186803b15801561092c57600080fd5b50565b60115481565b60005460ff16610a4b576040805162461bcd60e51b815260206004820152601f6024820152600080516020614d32833981519152604482015290519081900360640190fd5b6000805460ff19169055610a5d612ceb565b600680546001600160a01b03808b166001600160a01b031992831617909255600780548a84169083161790556003805487841692168217905560408051630dfe168160e01b8152905192891692630dfe168191600481810192602092909190829003018186803b158015610ad057600080fd5b505afa158015610ae4573d6000803e3d6000fd5b505050506040513d6020811015610afa57600080fd5b505160098054604080518082019091526001600160a01b039a8b16808252998b166020909101819052600180546001600160a01b0319908116909b178155600280548c16909217909155600580548b16988c1698909817909755600880548a16968b169690961790955560ff60a01b1990941690881691909114600160a01b021790941693909416929092179092556000805460ff19169091179055505050565b610ba3612ceb565b600b829055600a819055600c8290554360115560128290558015610bc957610bc9612a1a565b50506001601555565b610bda612ceb565b600880546001600160a01b039384166001600160a01b03199182161790915560098054929093169116179055565b6000805460ff16610c4e576040805162461bcd60e51b815260206004820152601f6024820152600080516020614d32833981519152604482015290519081900360640190fd5b6000805460ff19169055610c60611f98565b610c68612082565b600080610c736104d5565b5091509150600080610c86600080612d32565b91509150600086610ca2576001546001600160a01b0316610caf565b6002546001600160a01b03165b6001600160a01b03166370a08231306040518263ffffffff1660e01b815260040180826001600160a01b03166001600160a01b0316815260200191505060206040518083038186803b158015610d0457600080fd5b505afa158015610d18573d6000803e3d6000fd5b505050506040513d6020811015610d2e57600080fd5b505190506000610d5a88610d425786610d44565b855b83906001600160701b031663ffffffff6123c416565b9050610d658161285e565b610d6f818961241a565b90506000610da0828a610d825786610d84565b855b8b610d8f5789610d91565b885b6001600160701b03168c612d77565b90985090508815610db457600a8054820190555b88610dca576006546001600160a01b0316610dd7565b6007546001600160a01b03165b6001600160a01b03166340c10f198b8a6040518363ffffffff1660e01b815260040180836001600160a01b03166001600160a01b0316815260200182815260200192505050600060405180830381600087803b158015610e3657600080fd5b505af1158015610e4a573d6000803e3d6000fd5b50505050610e56612a1a565b50506000805460ff1916600117905550939695505050505050565b600954600160a01b900460ff1681565b6009546001600160a01b031681565b6004546001600160a01b031681565b600b5481565b6005546001600160a01b031681565b6003546001600160a01b031681565b6000805460ff16610f09576040805162461bcd60e51b815260206004820152601f6024820152600080516020614d32833981519152604482015290519081900360640190fd5b6000805460ff19169055610f1b611f98565b610f23612082565b600080610f2e6104d5565b509150915060008415610fd457600254604080516370a0823160e01b81523060048201529051610fcd926001600160701b038616926001600160a01b03909116916370a0823191602480820192602092909190829003018186803b158015610f9557600080fd5b505afa158015610fa9573d6000803e3d6000fd5b505050506040513d6020811015610fbf57600080fd5b50519063ffffffff6123c416565b9050611031565b600154604080516370a0823160e01b8152306004820152905161102e926001600160701b038716926001600160a01b03909116916370a0823191602480820192602092909190829003018186803b158015610f9557600080fd5b90505b61103b818661241a565b90506110468161285e565b61107e8561105f576001546001600160a01b031661106c565b6002546001600160a01b03165b6003546001600160a01b03168361289b565b600061108a8287612fc2565b95509050851561109d57600a8054820190555b6003546009546001600160a01b039091169063432275e6903090600160a01b900460ff166110cb57886110ce565b88155b6040518363ffffffff1660e01b815260040180836001600160a01b03166001600160a01b031681526020018215151515815260200192505050606060405180830381600087803b15801561112157600080fd5b505af1158015611135573d6000803e3d6000fd5b505050506040513d606081101561114b57600080fd5b50869050611164576006546001600160a01b0316611171565b6007546001600160a01b03165b6001600160a01b03166340c10f1988876040518363ffffffff1660e01b815260040180836001600160a01b03166001600160a01b0316815260200182815260200192505050600060405180830381600087803b1580156111d057600080fd5b505af11580156111e4573d6000803e3d6000fd5b50505050506111f1612a1a565b60408051338152602081018390528615158183015290517f1889e9c3cb9a926b5ab9da8b1f34e8883f1c84e43a61525a2551c32d779213279181900360600190a150506000805460ff191660011790555092915050565b60125481565b600e5481565b6000805460ff1661129a576040805162461bcd60e51b815260206004820152601f6024820152600080516020614d32833981519152604482015290519081900360640190fd5b6000805460ff191690556112ac611f98565b6112b4612082565b6000826112cc576006546001600160a01b03166112d9565b6007546001600160a01b03165b604080516370a0823160e01b815230600482015290519192506000916001600160a01b038416916370a08231916024808301926020929190829003018186803b15801561132557600080fd5b505afa158015611339573d6000803e3d6000fd5b505050506040513d602081101561134f57600080fd5b5051905061135c8161285e565b6000826001600160a01b03166318160ddd6040518163ffffffff1660e01b815260040160206040518083038186803b15801561139757600080fd5b505afa1580156113ab573d6000803e3d6000fd5b505050506040513d60208110156113c157600080fd5b5051600354909150869086906001600160a01b03166000806113e4848789613010565b915091506113f2818561241a565b98506114218461140d576001546001600160a01b031661141a565b6002546001600160a01b03165b868b61289b565b8682101561154d57600061143b888463ffffffff6123c416565b9050600061144a86838a6130b0565b90506114558161332c565b90506000861561146e57611468826133fc565b90925090505b61147986878461289b565b600954600090600160a01b900460ff166114935787611496565b87155b604080516302ce510960e41b81526001600160a01b038c8116600483015283151560248301529151929350600092918a1691632ce510909160448082019260209290919082900301818787803b1580156114ef57600080fd5b505af1158015611503573d6000803e3d6000fd5b505050506040513d602081101561151957600080fd5b50519d8e019d905061154782611530576000611532565b815b8361153d5782611540565b60005b858d613482565b50505050505b60408051632770a7eb60e21b81523060048201526024810189905290516001600160a01b038a1691639dc29fac91604480830192600092919082900301818387803b15801561159b57600080fd5b505af11580156115af573d6000803e3d6000fd5b50505050505050505084156115e857600a5481906115d3908463ffffffff61366c16565b816115da57fe5b600a80549290910490910390555b6115f0612a1a565b60408051338152602081018690528615158183015290517f5cf7281eb36e25a92ffd0cff3089777ca0cb41d28e8c7158c234b1eae9a07ed29181900360600190a150506000805460ff191660011790555092915050565b6103e881565b60008054819060ff16611695576040805162461bcd60e51b815260206004820152601f6024820152600080516020614d32833981519152604482015290519081900360640190fd5b6000805460ff191690556116a7611f98565b6116af612082565b6000836116c7576006546001600160a01b03166116d4565b6007546001600160a01b03165b604080516370a0823160e01b815230600482015290519192506000916001600160a01b038416916370a08231916024808301926020929190829003018186803b15801561172057600080fd5b505afa158015611734573d6000803e3d6000fd5b505050506040513d602081101561174a57600080fd5b505190506117578161285e565b6000826001600160a01b03166318160ddd6040518163ffffffff1660e01b815260040160206040518083038186803b15801561179257600080fd5b505afa1580156117a6573d6000803e3d6000fd5b505050506040513d60208110156117bc57600080fd5b50519050600080806117cc6104d5565b506001600160701b031691506001600160701b0316915060006117f0600080612d32565b50905060008a6118605761184184670de0b6b3a764000061182d600b5461182160028861366c90919063ffffffff16565b9063ffffffff61366c16565b8161183457fe5b049063ffffffff6136cf16565b611851878663ffffffff61366c16565b8161185857fe5b04860361187e565b600a54611873878563ffffffff61366c16565b8161187a57fe5b0486035b90508087106118bc576040805162461bcd60e51b81526020600482015260056024820152645a503a204560d81b604482015290519081900360640190fd5b5060006118ca8b88886130b0565b90506118d58161332c565b90508a156118eb576118e6816133fc565b955090505b600354611902906001600160a01b0316808361289b565b50506003546040805163226bf2d160e21b81526001600160a01b038d811660048301528251600096508695509316926389afcb449260248084019391929182900301818787803b15801561195557600080fd5b505af1158015611969573d6000803e3d6000fd5b505050506040513d604081101561197f57600080fd5b5080516020909101516009549193509150600160a01b900460ff166119a457806119a6565b815b600954909850600160a01b900460ff166119c057816119c2565b805b96506119d08888858d613482565b60408051632770a7eb60e21b81523060048201526024810187905290516001600160a01b03881691639dc29fac91604480830192600092919082900301818387803b158015611a1e57600080fd5b505af1158015611a32573d6000803e3d6000fd5b505050508815611a6657600a548490611a51908763ffffffff61366c16565b81611a5857fe5b600a80549290910490910390555b611a6e612a1a565b60408051338152602081018a905280820189905290517fb83dbb1f0386f1b6d6f534f325d617e3f96f2971cca29021702094328c1cb70c9181900360600190a150506000805460ff19166001179055509396929550919350505050565b600f5481565b60105481565b60008054819060ff16611b1f576040805162461bcd60e51b815260206004820152601f6024820152600080516020614d32833981519152604482015290519081900360640190fd5b6000805460ff1916905560155415611b67576040805162461bcd60e51b81526020600482015260066024820152655a503a20414960d01b604482015290519081900360640190fd5b6004805460408051635c975abb60e01b815290516001600160a01b0390921692635c975abb928282019260209290829003018186803b158015611ba957600080fd5b505afa158015611bbd573d6000803e3d6000fd5b505050506040513d6020811015611bd357600080fd5b505115611c0f576040805162461bcd60e51b815260206004820152600560248201526405a503a20560dc1b604482015290519081900360640190fd5b600154604080516370a0823160e01b815230600482015290516000926001600160a01b0316916370a08231916024808301926020929190829003018186803b158015611c5a57600080fd5b505afa158015611c6e573d6000803e3d6000fd5b505050506040513d6020811015611c8457600080fd5b5051600254604080516370a0823160e01b815230600482015290519293506000926001600160a01b03909216916370a0823191602480820192602092909190829003018186803b158015611cd757600080fd5b505afa158015611ceb573d6000803e3d6000fd5b505050506040513d6020811015611d0157600080fd5b50519050611d0e8261285e565b611d178161285e565b600080611d2261371e565b600a85905590925090506001600160701b03821615801590611d4d57506000816001600160701b0316115b15611e19576000611d95836001600160701b0316611d7d846001600160701b03168861366c90919063ffffffff16565b81611d8457fe5b600a5491900463ffffffff6136cf16565b905060028104600a541015611ddb57600a548190611dc190670de0b6b3a764000063ffffffff61366c16565b81611dc857fe5b04670de0b6b3a764000003600b55611e13565b600a54611def90600463ffffffff61366c16565b611e0782670de0b6b3a764000063ffffffff61366c16565b81611e0e57fe5b04600b555b50611e26565b6706f05b59d3b20000600b555b600754611e4d9084906000906001600160701b038516906001600160a01b031660016137e7565b600654909550611e769085906000906001600160701b038616906001600160a01b0316826137e7565b9550611e80613997565b600754604080516340c10f1960e01b81526001600160a01b038a8116600483015260248201899052915191909216916340c10f1991604480830192600092919082900301818387803b158015611ed557600080fd5b505af1158015611ee9573d6000803e3d6000fd5b5050600654604080516340c10f1960e01b81526001600160a01b038c81166004830152602482018c905291519190921693506340c10f199250604480830192600092919082900301818387803b158015611f4257600080fd5b505af1158015611f56573d6000803e3d6000fd5b5050600b54600c8190554360115560125550611f729050612a1a565b5050600160158190556000805460ff191690911790555091939092509050565b600c5481565b601554600114611fd8576040805162461bcd60e51b81526020600482015260066024820152655a503a204e4960d01b604482015290519081900360640190fd5b6004805460408051635c975abb60e01b815290516001600160a01b0390921692635c975abb928282019260209290829003018186803b15801561201a57600080fd5b505afa15801561202e573d6000803e3d6000fd5b505050506040513d602081101561204457600080fd5b505115612080576040805162461bcd60e51b815260206004820152600560248201526405a503a20560dc1b604482015290519081900360640190fd5b565b6003546001600160a01b031633146120fd57600360009054906101000a90046001600160a01b03166001600160a01b03166311816b046040518163ffffffff1660e01b8152600401600060405180830381600087803b1580156120e457600080fd5b505af11580156120f8573d6000803e3d6000fd5b505050505b60008061210861371e565b9150915060006121166104d5565b50600b5490925090506001600160701b0384161580159061213f57506001600160701b03831615155b156123be57600061216a6121636001600160701b038616600263ffffffff61366c16565b6000613ceb565b90506000600960009054906101000a90046001600160a01b03166001600160a01b0316630b48bd236040518163ffffffff1660e01b8152600401602060405180830381600087803b1580156121be57600080fd5b505af11580156121d2573d6000803e3d6000fd5b505050506040513d60208110156121e857600080fd5b5051600c54909150670de0b6b3a76400009061220d908390830363ffffffff61366c16565b8161221457fe5b04600a6000828254019250508190555061223a600a54856001600160701b031684613e18565b600b55612245613ea5565b600061225c601054436123c490919063ffffffff16565b90508015612355576000600460009054906101000a90046001600160a01b03166001600160a01b031663ed6b92cd6040518163ffffffff1660e01b815260040160206040518083038186803b1580156122b457600080fd5b505afa1580156122c8573d6000803e3d6000fd5b505050506040513d60208110156122de57600080fd5b5051600f54909150600090600a4391909103116122fc576000612301565b600a83045b9050612316600183018263ffffffff6136cf16565b61232f600e5484600d54026136cf90919063ffffffff16565b8161233657fe5b04600d55600b5461234790876140d6565b600e55505043601055612377565b612373612364600b54866140d6565b600e549063ffffffff6136cf16565b600e555b7f72ff579f9fee6120ee4fa25381562f2fb89e34ebedaf4180032d16db57237b55600a54600b54604051808381526020018281526020019250505060405180910390a15050505b50505050565b80820382811115612414576040805162461bcd60e51b815260206004820152601560248201527464732d6d6174682d7375622d756e646572666c6f7760581b604482015290519081900360640190fd5b92915050565b60008061242684614106565b50905082156124515760025460085461244c916001600160a01b0390811691168361289b565b6125df565b60015460035461246e916001600160a01b0390811691168361289b565b60008061247961371e565b91509150600061251684846001600160701b0316846001600160701b0316600460009054906101000a90046001600160a01b03166001600160a01b03166398118cb46040518163ffffffff1660e01b815260040160206040518083038186803b1580156124e557600080fd5b505afa1580156124f9573d6000803e3d6000fd5b505050506040513d602081101561250f57600080fd5b5051614452565b6003546009549192506001600160a01b03169063022c0d9f90600160a01b900460ff166125435782612546565b60005b600954600160a01b900460ff1661255e576000612560565b835b600854604080516001600160e01b031960e087901b168152600481019490945260248401929092526001600160a01b0316604483015260806064830152600060848301819052905160c48084019382900301818387803b1580156125c357600080fd5b505af11580156125d7573d6000803e3d6000fd5b505050505050505b600860009054906101000a90046001600160a01b03166001600160a01b03166303f187ea6040518163ffffffff1660e01b8152600401600060405180830381600087803b15801561262f57600080fd5b505af1158015612643573d6000803e3d6000fd5b5050505061265a81856123c490919063ffffffff16565b949350505050565b60008060008061267061371e565b9150915060008061267f6104d5565b50915091508715612772576126d6846001600160701b03166126b86002611821876001600160701b03168f61366c90919063ffffffff16565b816126bf57fe5b046126d18b600263ffffffff61366c16565b614546565b945061276b8886896001600160a01b03166318160ddd6040518163ffffffff1660e01b815260040160206040518083038186803b15801561271657600080fd5b505afa15801561272a573d6000803e3d6000fd5b505050506040513d602081101561274057600080fd5b50516127566001600160701b0388166000613ceb565b856001600160701b0316600b54600a5461455c565b9550612851565b6127b9836001600160701b03166127a06002611821886001600160701b03168e61366c90919063ffffffff16565b816127a757fe5b046126d18c600263ffffffff61366c16565b945061284e8886896001600160a01b03166318160ddd6040518163ffffffff1660e01b815260040160206040518083038186803b1580156127f957600080fd5b505afa15801561280d573d6000803e3d6000fd5b505050506040513d602081101561282357600080fd5b50516128396001600160701b0389166000613ceb565b866001600160701b0316600b54600a5461455c565b95505b5050505094509492505050565b600081116109fd576040805162461bcd60e51b81526020600482015260056024820152642d281d102d60d91b604482015290519081900360640190fd5b60408051808201825260198152787472616e7366657228616464726573732c75696e743235362960381b60209182015281516001600160a01b0385811660248301526044808301869052845180840390910181526064909201845291810180516001600160e01b031663a9059cbb60e01b1781529251815160009460609489169392918291908083835b602083106129445780518252601f199092019160209182019101612925565b6001836020036101000a0380198251168184511680821785525050505050509050019150506000604051808303816000865af19150503d80600081146129a6576040519150601f19603f3d011682016040523d82523d6000602084013e6129ab565b606091505b50915091508180156129d95750805115806129d957508080602001905160208110156129d657600080fd5b50515b612a13576040805162461bcd60e51b81526020600482015260066024820152652d281d102a2360d11b604482015290519081900360640190fd5b5050505050565b601380546001600160e01b0316600160e01b63ffffffff421690810291909117909155600154604080516370a0823160e01b815230600482015290516000926001600160a01b0316916370a08231916024808301926020929190829003018186803b158015612a8857600080fd5b505afa158015612a9c573d6000803e3d6000fd5b505050506040513d6020811015612ab257600080fd5b5051600254604080516370a0823160e01b815230600482015290519293506000926001600160a01b03909216916370a0823191602480820192602092909190829003018186803b158015612b0557600080fd5b505afa158015612b19573d6000803e3d6000fd5b505050506040513d6020811015612b2f57600080fd5b50519050600080612b408484612d32565b915091506000600460009054906101000a90046001600160a01b03166001600160a01b031663a3ad52b86040518163ffffffff1660e01b815260040160206040518083038186803b158015612b9457600080fd5b505afa158015612ba8573d6000803e3d6000fd5b505050506040513d6020811015612bbe57600080fd5b5051905060006064612bd6858463ffffffff61366c16565b81612bdd57fe5b04905060006064612bf4858563ffffffff61366c16565b81612bfb57fe5b049050612c0a878784846145f1565b6000612c146104d5565b506001600160701b03169150506000612c43600a5483612c3e60028a61366c90919063ffffffff16565b613e18565b90506000600460009054906101000a90046001600160a01b03166001600160a01b0316635942f95e6040518163ffffffff1660e01b815260040160206040518083038186803b158015612c9557600080fd5b505afa158015612ca9573d6000803e3d6000fd5b505050506040513d6020811015612cbf57600080fd5b5051600b549091508190612cd49084906140d6565b10612cde5743600f555b5050505050505050505050565b6004546001600160a01b03163314612080576040805162461bcd60e51b81526020600482015260056024820152642d281d102360d91b604482015290519081900360640190fd5b600080600080612d4061371e565b91509150612d57826001600160701b031687613ceb565b9350612d6c816001600160701b031686613ceb565b925050509250929050565b6000806000600460009054906101000a90046001600160a01b03166001600160a01b031663a3ad52b86040518163ffffffff1660e01b815260040160206040518083038186803b158015612dca57600080fd5b505afa158015612dde573d6000803e3d6000fd5b505050506040513d6020811015612df457600080fd5b5051905060006064612e0c888463ffffffff61366c16565b81612e1357fe5b049050600086821115612e7e57612e30828863ffffffff6123c416565b9050808911612e7e57612e6889888a89612e55576006546001600160a01b0316612e62565b6007546001600160a01b03165b8a6137e7565b9450612e72613997565b50879250612fb9915050565b6000612e908a8363ffffffff6123c416565b9050612e9c8188612fc2565b965094508115612eeb576000612ed7838a8c8b612ec4576006546001600160a01b0316612ed1565b6007546001600160a01b03165b8c6137e7565b9050612ee1613997565b9590950194938101935b612f048761105f576001546001600160a01b031661106c565b6003546009546001600160a01b039091169063432275e6903090600160a01b900460ff16612f325789612f35565b89155b6040518363ffffffff1660e01b815260040180836001600160a01b03166001600160a01b031681526020018215151515815260200192505050606060405180830381600087803b158015612f8857600080fd5b505af1158015612f9c573d6000803e3d6000fd5b505050506040513d6060811015612fb257600080fd5b5050505050505b94509492505050565b600080600080612fd28686614878565b9150915061300482828788612ff2576006546001600160a01b0316612fff565b6007546001600160a01b03165b612662565b97909650945050505050565b600b54600a546000918291826130268180612d32565b5090506000806130346104d5565b509150915060008a6130465782613048565b815b6001600160701b0316905060008b6130605784613074565b601354600160701b90046001600160701b03165b90506130858c838d84868c8c61455c565b985061309f8c6130958b8d614546565b8d84868c8c614987565b975050505050505050935093915050565b60008060006130c0600180612d32565b915091506000806130cf6104d5565b50915091506000881561319f576130ed84600263ffffffff61366c16565b600a546131909061310d906001600160701b03861663ffffffff6123c416565b600354604080516370a0823160e01b815230600482015290516001600160a01b03909216916370a0823191602480820192602092909190829003018186803b15801561315857600080fd5b505afa15801561316c573d6000803e3d6000fd5b505050506040513d602081101561318257600080fd5b50519063ffffffff61366c16565b8161319757fe5b04905061323e565b600354604080516370a0823160e01b81523060048201529051670de0b6b3a764000092613233926001600160a01b03909116916370a0823191602480820192602092909190829003018186803b1580156131f857600080fd5b505afa15801561320c573d6000803e3d6000fd5b505050506040513d602081101561322257600080fd5b5051600b549063ffffffff61366c16565b8161323a57fe5b0490505b60008961329d57613275846001600160701b0316670de0b6b3a764000061182d600b5461182160028c61366c90919063ffffffff16565b61328e896001600160701b03871663ffffffff61366c16565b8161329557fe5b0488036132c4565b600a546132b9896001600160701b03861663ffffffff61366c16565b816132c057fe5b0488035b9050806132d78a8463ffffffff61366c16565b816132de57fe5b0496506000871161331f576040805162461bcd60e51b81526020600482015260066024820152652d281d1021ad60d11b604482015290519081900360640190fd5b5050505050509392505050565b60008061333883614106565b50600354909150613353906001600160a01b0316808361289b565b600354600854600954604080516302ce510960e41b81526001600160a01b039384166004820152600160a01b90920460ff16156024830152519190921691632ce510909160448083019260209291908290030181600087803b1580156133b857600080fd5b505af11580156133cc573d6000803e3d6000fd5b505050506040513d60208110156133e257600080fd5b506133f59050838263ffffffff6123c416565b9392505050565b60008060006134096104d5565b506001600160701b03169150506000613423600080612d32565b91506000905061344961343d83600263ffffffff61366c16565b84600b54600a546149cc565b90506134558187614a0a565b9350670de0b6b3a7640000613470828863ffffffff61366c16565b8161347757fe5b049450505050915091565b81156123be5783831561350b5760008061349a61371e565b6001600160701b031691506001600160701b03169150613504868383600460009054906101000a90046001600160a01b03166001600160a01b03166398118cb46040518163ffffffff1660e01b815260040160206040518083038186803b1580156124e557600080fd5b8301925050505b6000670de0b6b3a7640000613526838663ffffffff61366c16565b8161352d57fe5b600254600854604080516370a0823160e01b81526001600160a01b039283166004820152905194909304945084939116916370a08231916024808301926020929190829003018186803b15801561358357600080fd5b505afa158015613597573d6000803e3d6000fd5b505050506040513d60208110156135ad57600080fd5b505111156135d8576002546008546135d3916001600160a01b0390811691168584614b4a565b613664565b600254600854604080516370a0823160e01b81526001600160a01b03928316600482018190529151613664949390931692879184916370a0823191602480820192602092909190829003018186803b15801561363357600080fd5b505afa158015613647573d6000803e3d6000fd5b505050506040513d602081101561365d57600080fd5b5051614b4a565b505050505050565b60008115806136875750508082028282828161368457fe5b04145b612414576040805162461bcd60e51b815260206004820152601460248201527364732d6d6174682d6d756c2d6f766572666c6f7760601b604482015290519081900360640190fd5b80820182811015612414576040805162461bcd60e51b815260206004820152601460248201527364732d6d6174682d6164642d6f766572666c6f7760601b604482015290519081900360640190fd5b600080600080600360009054906101000a90046001600160a01b03166001600160a01b0316630902f1ac6040518163ffffffff1660e01b815260040160606040518083038186803b15801561377257600080fd5b505afa158015613786573d6000803e3d6000fd5b505050506040513d606081101561379c57600080fd5b5080516020909101516009549193509150600160a01b900460ff166137c157806137c3565b815b600954909450600160a01b900460ff166137dd57816137df565b805b925050509091565b60006137f28661285e565b6000836001600160a01b03166318160ddd6040518163ffffffff1660e01b815260040160206040518083038186803b15801561382d57600080fd5b505afa158015613841573d6000803e3d6000fd5b505050506040513d602081101561385757600080fd5b5051600b54600a54919250908261393857604080516340c10f1960e01b81526000600482018190526103e8602483015291516001600160a01b038916926340c10f19926044808201939182900301818387803b1580156138b657600080fd5b505af11580156138ca573d6000803e3d6000fd5b5050505084156138ed576138e6896103e863ffffffff6123c416565b9350613933565b6139306103e861390484600263ffffffff61366c16565b61391c8c670de0b6b3a764000063ffffffff61366c16565b8161392357fe5b049063ffffffff6123c416565b93505b61394a565b613947858a858a8c878761455c565b93505b505060408051338152602081018990528415158183015290517f19d363807bf5ba06f3320318d009a9851c28f799660016f386c9960478c46ea29181900360600190a15095945050505050565b600154604080516370a0823160e01b815230600482015290516000926001600160a01b0316916370a08231916024808301926020929190829003018186803b1580156139e257600080fd5b505afa1580156139f6573d6000803e3d6000fd5b505050506040513d6020811015613a0c57600080fd5b5051600254604080516370a0823160e01b815230600482015290519293506000926001600160a01b03909216916370a0823191602480820192602092909190829003018186803b158015613a5f57600080fd5b505afa158015613a73573d6000803e3d6000fd5b505050506040513d6020811015613a8957600080fd5b50519050600080613a9a8484612d32565b915091506000600460009054906101000a90046001600160a01b03166001600160a01b031663a3ad52b86040518163ffffffff1660e01b815260040160206040518083038186803b158015613aee57600080fd5b505afa158015613b02573d6000803e3d6000fd5b505050506040513d6020811015613b1857600080fd5b50519050600060c8613b30858463ffffffff61366c16565b81613b3757fe5b049050600060c8613b4e858563ffffffff61366c16565b81613b5557fe5b049050816001600160701b031687118015613b785750806001600160701b031686115b15613ce257600080613b8861371e565b6001600160701b031691506001600160701b03169150600080836000148015613baf575082155b15613bfa57613bf08b8b613bd2826001600160701b038b1663ffffffff6123c416565b613beb8e6001600160701b038b1663ffffffff6123c416565b614cc7565b9092509050613c1e565b613c188484613bd28e6001600160701b038b1663ffffffff6123c416565b90925090505b8115613c4157600154600354613c41916001600160a01b0390811691168461289b565b8015613c6457600254600354613c64916001600160a01b0390811691168361289b565b600354604080516335313c2160e11b815230600482015290516001600160a01b0390921691636a627842916024808201926020929091908290030181600087803b158015613cb157600080fd5b505af1158015613cc5573d6000803e3d6000fd5b505050506040513d6020811015613cdb57600080fd5b5050505050505b50505050505050565b600354604080516370a0823160e01b8152306004820152905160009283926001600160a01b03909116916370a0823191602480820192602092909190829003018186803b158015613d3b57600080fd5b505afa158015613d4f573d6000803e3d6000fd5b505050506040513d6020811015613d6557600080fd5b5051600354604080516318160ddd60e01b815290519293506000926001600160a01b03909216916318160ddd91600480820192602092909190829003018186803b158015613db257600080fd5b505afa158015613dc6573d6000803e3d6000fd5b505050506040513d6020811015613ddc57600080fd5b50519050801580613deb575081155b613e0d5780613e00868463ffffffff61366c16565b81613e0757fe5b04613e0f565b835b95945050505050565b600060028204613e2e858563ffffffff6123c416565b1015613e685781613e45858563ffffffff6123c416565b670de0b6b3a76400000281613e5657fe5b04670de0b6b3a76400000390506133f5565b613e7d6004611821868663ffffffff6123c416565b613e9583670de0b6b3a764000063ffffffff61366c16565b81613e9c57fe5b04949350505050565b6011546004805460408051637945980160e01b815290514394936000936001600160a01b03169263794598019281830192602092829003018186803b158015613eed57600080fd5b505afa158015613f01573d6000803e3d6000fd5b505050506040513d6020811015613f1757600080fd5b505190508282038110156140d157600b54601254808210156706f05b59d3b2000083101580821461407f5760008115613f5e5750600b546706f05b59d3b1ffff1901613f6d565b50600b546706f05b59d3b20000035b6000600460009054906101000a90046001600160a01b03166001600160a01b031663c0972f7a6040518163ffffffff1660e01b815260040160206040518083038186803b158015613fbd57600080fd5b505afa158015613fd1573d6000803e3d6000fd5b505050506040513d6020811015613fe757600080fd5b50519050831561403c576000670de0b6b3a764000061401087890385850263ffffffff61366c16565b8161401757fe5b049050670de0b6b3a7640000600c5482011161403657600c8054820190555b50614078565b6000670de0b6b3a76400006140598888038563ffffffff61366c16565b8161406057fe5b049050600c54811161407657600c805482900390555b505b50506140c5565b81156140ac57600c5483850390670de0b6b3a7640000908201116140a657600c8054820190555b506140c5565b600c548484039081116140c357600c805482900390555b505b50505060125560118390555b505050565b60008183106140f6576140ef838363ffffffff6123c416565b9050612414565b6133f5828463ffffffff6123c416565b6000806000614119600d54600e54614d22565b90506000600460009054906101000a90046001600160a01b03166001600160a01b0316635942f95e6040518163ffffffff1660e01b815260040160206040518083038186803b15801561416b57600080fd5b505afa15801561417f573d6000803e3d6000fd5b505050506040513d602081101561419557600080fd5b505160048054604080516315f4859960e11b815290519394506000936001600160a01b0390921692632be90b32928282019260209290829003018186803b1580156141df57600080fd5b505afa1580156141f3573d6000803e3d6000fd5b505050506040513d602081101561420957600080fd5b5051905081831061436c57600f544303600083670de0b6b3a76400008161422c57fe5b049050808211156142405743600f55614369565b60008361271086614257898363ffffffff61366c16565b8161425e57fe5b04030190506142fa600860009054906101000a90046001600160a01b03166001600160a01b0316630269b9ca600b546040518263ffffffff1660e01b81526004018082815260200191505060206040518083038186803b1580156142c157600080fd5b505afa1580156142d5573d6000803e3d6000fd5b505050506040513d60208110156142eb57600080fd5b5051829063ffffffff6136cf16565b9050612710811061433c576040805162461bcd60e51b81526020600482015260076024820152660b4a074408ca8960cb1b604482015290519081900360640190fd5b600196506127106143538a8363ffffffff61366c16565b8161435a57fe5b04975061444d95505050505050565b50505b600854600b5460408051630134dce560e11b81526004810192909252516000965061271092614400926001600160a01b0390911691630269b9ca91602480820192602092909190829003018186803b1580156143c757600080fd5b505afa1580156143db573d6000803e3d6000fd5b505050506040513d60208110156143f157600080fd5b5051889063ffffffff61366c16565b8161440757fe5b6040805192909104808352861515602084015281519097507f3e2f131ffe50fecbee1df82d56b70021104f94a384c753f5f1022ab9b24c2eb39281900390910190a15050505b915091565b60008085116144925760405162461bcd60e51b815260040180806020018281038252602b815260200180614d9f602b913960400191505060405180910390fd5b6000841180156144a25750600083115b6144dd5760405162461bcd60e51b8152600401808060200182810382526028815260200180614d776028913960400191505060405180910390fd5b60006144f48661271085900363ffffffff61366c16565b90506000614508828663ffffffff61366c16565b9050600061452e836145228961271063ffffffff61366c16565b9063ffffffff6136cf16565b905080828161453957fe5b0498975050505050505050565b600081831061455557816133f5565b5090919050565b600087156145845781614575888863ffffffff61366c16565b8161457c57fe5b0490506145e6565b6000614596888863ffffffff61366c16565b90506000670de0b6b3a76400006145b860026118218a8963ffffffff61366c16565b816145bf57fe5b04905060006145d4878363ffffffff6136cf16565b90508083816145df57fe5b0493505050505b979650505050505050565b60006001600160701b0383168511156146e857600154600354614639916001600160a01b039081169116614634886001600160701b03881663ffffffff6123c416565b61289b565b600354600954604080516321913af360e11b8152306004820152600160a01b90920460ff1615156024830152516001600160a01b039092169163432275e6916044808201926060929091908290030181600087803b15801561469a57600080fd5b505af11580156146ae573d6000803e3d6000fd5b505050506040513d60608110156146c457600080fd5b5051601380546001600160701b0319166001600160701b0386161790559050614704565b601380546001600160701b0319166001600160701b0387161790555b83826001600160701b031610156147fc57600254600354614745916001600160a01b039081169116614634876001600160701b03871663ffffffff6123c416565b600354600954604080516321913af360e11b8152306004820152600160a01b90920460ff16156024830152516001600160a01b039092169163432275e6916044808201926060929091908290030181600087803b1580156147a557600080fd5b505af11580156147b9573d6000803e3d6000fd5b505050506040513d60608110156147cf57600080fd5b505160138054600160701b600160e01b031916600160701b6001600160701b038616021790559050614821565b60138054600160701b600160e01b031916600160701b6001600160701b038716021790555b601354604080516001600160701b038084168252600160701b909304909216602083015280517f1d96001f313f6446e46c7776b79d231589555627a46fa2388f3220937fc79e519281900390910190a15050505050565b60008060008061488661371e565b9150915084156148fe576148f960028704826001600160701b0316846001600160701b0316600460009054906101000a90046001600160a01b03166001600160a01b03166398118cb46040518163ffffffff1660e01b815260040160206040518083038186803b1580156124e557600080fd5b614903565b600286045b9350846149785761497360028704836001600160701b0316836001600160701b0316600460009054906101000a90046001600160a01b03166001600160a01b03166398118cb46040518163ffffffff1660e01b815260040160206040518083038186803b1580156124e557600080fd5b612d6c565b60028604925050509250929050565b600087156149a05785614575838963ffffffff61366c16565b856149c58861182187670de0b6b3a764000061182d6002848d8c63ffffffff61366c16565b8161453957fe5b60006149de828563ffffffff6123c416565b6149f9670de0b6b3a76400008590038763ffffffff61366c16565b81614a0057fe5b0495945050505050565b6000670de0b6b3a7640000831015614b41576000670de0b6b3a7640000614a398486830363ffffffff61366c16565b81614a4057fe5b600354600854604080516370a0823160e01b81526001600160a01b03928316600482015290519490930494506000939116916370a08231916024808301926020929190829003018186803b158015614a9757600080fd5b505afa158015614aab573d6000803e3d6000fd5b505050506040513d6020811015614ac157600080fd5b5051905080821015614af457600354600854614aeb916001600160a01b0390811691168185614b4a565b60009250614b3a565b600354600854614b12916001600160a01b0390811691168184614b4a565b83614b2f670de0b6b3a7640000611821858563ffffffff6123c416565b81614b3657fe5b0492505b5050612414565b50600092915050565b60006060856001600160a01b0316604051806060016040528060258152602001614d52602591398051602091820120604080516001600160a01b03808b166024830152891660448201526064808201899052825180830390910181526084909101825292830180516001600160e01b03166001600160e01b0319909316929092178252518251909182918083835b60208310614bf75780518252601f199092019160209182019101614bd8565b6001836020036101000a0380198251168184511680821785525050505050509050019150506000604051808303816000865af19150503d8060008114614c59576040519150601f19603f3d011682016040523d82523d6000602084013e614c5e565b606091505b5091509150818015614c8c575080511580614c8c5750808060200190516020811015614c8957600080fd5b50515b613664576040805162461bcd60e51b81526020600482015260076024820152662d281d102a232360c91b604482015290519081900360640190fd5b6000808085614cdc888663ffffffff61366c16565b81614ce357fe5b04905084811115614d115784925086614d02848863ffffffff61366c16565b81614d0957fe5b049150614d18565b8092508391505b5094509492505050565b600081831161455557816133f556fe5265656e7472616e637947756172643a207265656e7472616e742063616c6c007472616e7366657246726f6d28616464726573732c616464726573732c75696e7432353629556e697377617056324c6962726172793a20494e53554646494349454e545f4c4951554944495459556e697377617056324c6962726172793a20494e53554646494349454e545f494e5055545f414d4f554e54a265627a7a72315820d3298b21db6eb1905c4b2243ff0bf429e4219af6196e32e1d48b40e3887bcb5064736f6c63430005100032",
  "linkReferences": {},
  "deployedLinkReferences": {}
}