{
  "_format": "hh-sol-artifact-1",
  "contractName": "ZirconPylonFactory",
  "sourceName": "contracts/ZirconPylonFactory.sol",
  "abi": [
    {
      "inputs": [
        {
          "internalType": "address",
          "name": "_factory",
          "type": "address"
        },
        {
          "internalType": "address",
          "name": "_energyFactory",
          "type": "address"
        },
        {
          "internalType": "address",
          "name": "_ptFactory",
          "type": "address"
        },
        {
          "internalType": "address",
          "name": "_feeToSetter",
          "type": "address"
        },
        {
          "internalType": "address",
          "name": "_migrator",
          "type": "address"
        }
      ],
      "payable": false,
      "stateMutability": "nonpayable",
      "type": "constructor"
    },
    {
      "anonymous": false,
      "inputs": [
        {
          "indexed": true,
          "internalType": "address",
          "name": "token0",
          "type": "address"
        },
        {
          "indexed": true,
          "internalType": "address",
          "name": "token1",
          "type": "address"
        },
        {
          "indexed": false,
          "internalType": "address",
          "name": "poolToken0",
          "type": "address"
        },
        {
          "indexed": false,
          "internalType": "address",
          "name": "poolToken1",
          "type": "address"
        },
        {
          "indexed": false,
          "internalType": "address",
          "name": "pylon",
          "type": "address"
        },
        {
          "indexed": false,
          "internalType": "address",
          "name": "pair",
          "type": "address"
        }
      ],
      "name": "PylonCreated",
      "type": "event"
    },
    {
      "constant": true,
      "inputs": [],
      "name": "EMASamples",
      "outputs": [
        {
          "internalType": "uint256",
          "name": "",
          "type": "uint256"
        }
      ],
      "payable": false,
      "stateMutability": "view",
      "type": "function"
    },
    {
      "constant": false,
      "inputs": [
        {
          "internalType": "address",
          "name": "_pairAddress",
          "type": "address"
        },
        {
          "internalType": "address",
          "name": "_tokenA",
          "type": "address"
        },
        {
          "internalType": "address",
          "name": "_tokenB",
          "type": "address"
        }
      ],
      "name": "addPylon",
      "outputs": [
        {
          "internalType": "address",
          "name": "pylonAddress",
          "type": "address"
        }
      ],
      "payable": false,
      "stateMutability": "nonpayable",
      "type": "function"
    },
    {
      "constant": false,
      "inputs": [
        {
          "internalType": "address",
          "name": "_pairAddress",
          "type": "address"
        },
        {
          "internalType": "address",
          "name": "_tokenA",
          "type": "address"
        },
        {
          "internalType": "address",
          "name": "_tokenB",
          "type": "address"
        },
        {
          "internalType": "address",
          "name": "floatPTAddress",
          "type": "address"
        },
        {
          "internalType": "address",
          "name": "anchorPTAddress",
          "type": "address"
        }
      ],
      "name": "addPylonCustomPT",
      "outputs": [
        {
          "internalType": "address",
          "name": "pylonAddress",
          "type": "address"
        }
      ],
      "payable": false,
      "stateMutability": "nonpayable",
      "type": "function"
    },
    {
      "constant": true,
      "inputs": [
        {
          "internalType": "uint256",
          "name": "",
          "type": "uint256"
        }
      ],
      "name": "allPylons",
      "outputs": [
        {
          "internalType": "address",
          "name": "",
          "type": "address"
        }
      ],
      "payable": false,
      "stateMutability": "view",
      "type": "function"
    },
    {
      "constant": true,
      "inputs": [],
      "name": "allPylonsLength",
      "outputs": [
        {
          "internalType": "uint256",
          "name": "",
          "type": "uint256"
        }
      ],
      "payable": false,
      "stateMutability": "view",
      "type": "function"
    },
    {
      "constant": false,
      "inputs": [
        {
          "internalType": "address",
          "name": "_newEnergyRev",
          "type": "address"
        },
        {
          "internalType": "address",
          "name": "_pylonAddress",
          "type": "address"
        },
        {
          "internalType": "address",
          "name": "_pairAddress",
          "type": "address"
        },
        {
          "internalType": "address",
          "name": "_tokenA",
          "type": "address"
        },
        {
          "internalType": "address",
          "name": "_tokenB",
          "type": "address"
        }
      ],
      "name": "changeEnergyAddress",
      "outputs": [
        {
          "internalType": "address",
          "name": "energy",
          "type": "address"
        }
      ],
      "payable": false,
      "stateMutability": "nonpayable",
      "type": "function"
    },
    {
      "constant": false,
      "inputs": [
        {
          "internalType": "address",
          "name": "_newEnergyFactory",
          "type": "address"
        }
      ],
      "name": "changeEnergyFactoryAddress",
      "outputs": [],
      "payable": false,
      "stateMutability": "nonpayable",
      "type": "function"
    },
    {
      "constant": true,
      "inputs": [],
      "name": "deltaGammaMinFee",
      "outputs": [
        {
          "internalType": "uint256",
          "name": "",
          "type": "uint256"
        }
      ],
      "payable": false,
      "stateMutability": "view",
      "type": "function"
    },
    {
      "constant": true,
      "inputs": [],
      "name": "deltaGammaThreshold",
      "outputs": [
        {
          "internalType": "uint256",
          "name": "",
          "type": "uint256"
        }
      ],
      "payable": false,
      "stateMutability": "view",
      "type": "function"
    },
    {
      "constant": true,
      "inputs": [],
      "name": "energyFactory",
      "outputs": [
        {
          "internalType": "address",
          "name": "",
          "type": "address"
        }
      ],
      "payable": false,
      "stateMutability": "view",
      "type": "function"
    },
    {
      "constant": true,
      "inputs": [],
      "name": "factory",
      "outputs": [
        {
          "internalType": "address",
          "name": "",
          "type": "address"
        }
      ],
      "payable": false,
      "stateMutability": "view",
      "type": "function"
    },
    {
      "constant": true,
      "inputs": [
        {
          "internalType": "address",
          "name": "",
          "type": "address"
        },
        {
          "internalType": "address",
          "name": "",
          "type": "address"
        }
      ],
      "name": "getPylon",
      "outputs": [
        {
          "internalType": "address",
          "name": "",
          "type": "address"
        }
      ],
      "payable": false,
      "stateMutability": "view",
      "type": "function"
    },
    {
      "constant": true,
      "inputs": [],
      "name": "liquidityFee",
      "outputs": [
        {
          "internalType": "uint256",
          "name": "",
          "type": "uint256"
        }
      ],
      "payable": false,
      "stateMutability": "view",
      "type": "function"
    },
    {
      "constant": true,
      "inputs": [],
      "name": "maximumPercentageSync",
      "outputs": [
        {
          "internalType": "uint256",
          "name": "",
          "type": "uint256"
        }
      ],
      "payable": false,
      "stateMutability": "view",
      "type": "function"
    },
    {
      "constant": false,
      "inputs": [
        {
          "internalType": "address",
          "name": "_oldPylon",
          "type": "address"
        },
        {
          "internalType": "address",
          "name": "_newPylon",
          "type": "address"
        }
      ],
      "name": "migrateLiquidity",
      "outputs": [],
      "payable": false,
      "stateMutability": "nonpayable",
      "type": "function"
    },
    {
      "constant": true,
      "inputs": [],
      "name": "muChangeFactor",
      "outputs": [
        {
          "internalType": "uint256",
          "name": "",
          "type": "uint256"
        }
      ],
      "payable": false,
      "stateMutability": "view",
      "type": "function"
    },
    {
      "constant": true,
      "inputs": [],
      "name": "muUpdatePeriod",
      "outputs": [
        {
          "internalType": "uint256",
          "name": "",
          "type": "uint256"
        }
      ],
      "payable": false,
      "stateMutability": "view",
      "type": "function"
    },
    {
      "constant": true,
      "inputs": [],
      "name": "paused",
      "outputs": [
        {
          "internalType": "bool",
          "name": "",
          "type": "bool"
        }
      ],
      "payable": false,
      "stateMutability": "view",
      "type": "function"
    },
    {
      "constant": false,
      "inputs": [
        {
          "internalType": "address",
          "name": "_feeToSetter",
          "type": "address"
        }
      ],
      "name": "setFeeToSetter",
      "outputs": [],
      "payable": false,
      "stateMutability": "nonpayable",
      "type": "function"
    },
    {
      "constant": false,
      "inputs": [
        {
          "internalType": "uint256",
          "name": "_maximumPercentageSync",
          "type": "uint256"
        },
        {
          "internalType": "uint256",
          "name": "_deltaGammaThreshold",
          "type": "uint256"
        },
        {
          "internalType": "uint256",
          "name": "_deltaGammaMinFee",
          "type": "uint256"
        },
        {
          "internalType": "uint256",
          "name": "_muUpdatePeriod",
          "type": "uint256"
        },
        {
          "internalType": "uint256",
          "name": "_muChangeFactor",
          "type": "uint256"
        },
        {
          "internalType": "uint256",
          "name": "_EMASamples",
          "type": "uint256"
        }
      ],
      "name": "setFees",
      "outputs": [],
      "payable": false,
      "stateMutability": "nonpayable",
      "type": "function"
    },
    {
      "constant": false,
      "inputs": [
        {
          "internalType": "uint256",
          "name": "_liquidityFee",
          "type": "uint256"
        }
      ],
      "name": "setLiquidityFee",
      "outputs": [],
      "payable": false,
      "stateMutability": "nonpayable",
      "type": "function"
    },
    {
      "constant": false,
      "inputs": [
        {
          "internalType": "address",
          "name": "_migrator",
          "type": "address"
        }
      ],
      "name": "setMigrator",
      "outputs": [],
      "payable": false,
      "stateMutability": "nonpayable",
      "type": "function"
    },
    {
      "constant": false,
      "inputs": [
        {
          "internalType": "bool",
          "name": "_paused",
          "type": "bool"
        }
      ],
      "name": "setPaused",
      "outputs": [],
      "payable": false,
      "stateMutability": "nonpayable",
      "type": "function"
    },
    {
      "constant": false,
      "inputs": [
        {
          "internalType": "address",
          "name": "_pylon",
          "type": "address"
        },
        {
          "internalType": "uint256",
          "name": "_gamma",
          "type": "uint256"
        },
        {
          "internalType": "uint256",
          "name": "_vab",
          "type": "uint256"
        },
        {
          "internalType": "uint256",
          "name": "_anchorKFactor",
          "type": "uint256"
        },
        {
          "internalType": "bool",
          "name": "_formulaSwitch",
          "type": "bool"
        }
      ],
      "name": "startPylon",
      "outputs": [],
      "payable": false,
      "stateMutability": "nonpayable",
      "type": "function"
    }
  ],
  "bytecode": "0x608060405234801561001057600080fd5b50604051615f44380380615f44833981810160405260a081101561003357600080fd5b508051602082015160408301516060840151608090940151600280546001600160a01b03199081166001600160a01b03968716178255600480548216958716959095179094556003805485169386169390931783556005805485169686169690961790955560068054600a6007819055668e1bc9bf0400006008556064600955600b9790975560f0600c55600d93909355601e909555911691161760ff60a01b19169055615e5e806100e66000396000f3fe608060405234801561001057600080fd5b50600436106101285760003560e01c80630e0f29731461012d5780631397ed541461017757806316c38b3c146101b957806317d1ff9f146101d857806323cf3118146101e05780632be90b3214610206578063320a557214610220578063357bf15c146102465780635942f95e146102635780635c975abb1461026b57806362c0bfe8146102875780636c0fb018146102cf57806379281abe146102d7578063794598011461030f57806386f6c3c11461031757806398118cb414610352578063a2e74af61461035a578063a3ad52b814610380578063afc3743f14610388578063c0972f7a146103a5578063c45a0155146103ad578063dc2c1e99146103b5578063ed6b92cd146103e3578063fd0d6ec6146103eb575b600080fd5b61015b6004803603604081101561014357600080fd5b506001600160a01b0381358116916020013516610433565b604080516001600160a01b039092168252519081900360200190f35b6101b7600480360360a081101561018d57600080fd5b506001600160a01b0381351690602081013590604081013590606081013590608001351515610456565b005b6101b7600480360360208110156101cf57600080fd5b503515156104db565b61015b610501565b6101b7600480360360208110156101f657600080fd5b50356001600160a01b0316610510565b61020e61053a565b60408051918252519081900360200190f35b6101b76004803603602081101561023657600080fd5b50356001600160a01b0316610540565b6101b76004803603602081101561025c57600080fd5b503561056a565b61020e610577565b61027361057d565b604080519115158252519081900360200190f35b61015b600480360360a081101561029d57600080fd5b506001600160a01b0381358116916020810135821691604082013581169160608101358216916080909101351661058d565b61020e61073a565b61015b600480360360608110156102ed57600080fd5b506001600160a01b038135811691602081013582169160409091013516610740565b61020e610a16565b6101b7600480360360c081101561032d57600080fd5b5080359060208101359060408101359060608101359060808101359060a00135610a1c565b61020e610a41565b6101b76004803603602081101561037057600080fd5b50356001600160a01b0316610a47565b61020e610a71565b61015b6004803603602081101561039e57600080fd5b5035610a77565b61020e610a9e565b61015b610aa4565b6101b7600480360360408110156103cb57600080fd5b506001600160a01b0381358116916020013516610ab3565b61020e610b2f565b61015b600480360360a081101561040157600080fd5b506001600160a01b03813581169160208101358216916040820135811691606081013582169160809091013516610b35565b60006020818152928152604080822090935290815220546001600160a01b031681565b61045e610c14565b60408051635786ed1560e11b8152600481018690526024810185905260448101849052821515606482015290516001600160a01b0387169163af0dda2a91608480830192600092919082900301818387803b1580156104bc57600080fd5b505af11580156104d0573d6000803e3d6000fd5b505050505050505050565b6104e3610c5e565b60068054911515600160a01b0260ff60a01b19909216919091179055565b6004546001600160a01b031681565b610518610c14565b600680546001600160a01b0319166001600160a01b0392909216919091179055565b60095481565b610548610c14565b600480546001600160a01b0319166001600160a01b0392909216919091179055565b610572610c5e565b600a55565b60085481565b600654600160a01b900460ff1681565b6000610597610c14565b600480546040805163f732ff4b60e01b81526001600160a01b038781169482019490945285841660248201529051929091169163f732ff4b91604480820192602092909190829003018186803b1580156105f057600080fd5b505afa158015610604573d6000803e3d6000fd5b505050506040513d602081101561061a57600080fd5b505190506001600160a01b0381166106c657600480546040805163245cb9e160e21b81526001600160a01b038981169482019490945287841660248201528684166044820152858416606482015290519290911691639172e784916084808201926020929091908290030181600087803b15801561069757600080fd5b505af11580156106ab573d6000803e3d6000fd5b505050506040513d60208110156106c157600080fd5b505190505b60408051638aa9614960e01b81526001600160a01b0383811660048301528881166024830152915191871691638aa961499160448082019260009290919082900301818387803b15801561071957600080fd5b505af115801561072d573d6000803e3d6000fd5b5050505095945050505050565b60015490565b6000816001600160a01b0316836001600160a01b03161415610792576040805162461bcd60e51b81526020600482015260066024820152655a463a20494160d01b604482015290519081900360640190fd5b6001600160a01b03838116600090815260208181526040808320868516845290915290205416156107f3576040805162461bcd60e51b81526020600482015260066024820152655a463a20504560d01b604482015290519081900360640190fd5b6107fe838386610ca6565b6003546040805162f3d1d760e51b81526001600160a01b038781166004830152808516602483015291519394506000939190921691631e7a3ae091604480830192602092919082900301818787803b15801561085957600080fd5b505af115801561086d573d6000803e3d6000fd5b505050506040513d602081101561088357600080fd5b50516003546040805162f3d1d760e51b81526001600160a01b038781166004830152868116602483015291519394506000939190921691631e7a3ae091604480830192602092919082900301818787803b1580156108e057600080fd5b505af11580156108f4573d6000803e3d6000fd5b505050506040513d602081101561090a57600080fd5b5051905061091c858584848a88610d30565b60408051633fb3e5cd60e21b81526001600160a01b0387811660048301528881166024830152858116604483015260006064830181905292519085169263fecf9734926084808201939182900301818387803b15801561097b57600080fd5b505af115801561098f573d6000803e3d6000fd5b505060408051633fb3e5cd60e21b81526001600160a01b0388811660048301528a811660248301528781166044830152600160648301529151918516935063fecf9734925060848082019260009290919082900301818387803b1580156109f557600080fd5b505af1158015610a09573d6000803e3d6000fd5b5050505050509392505050565b600c5481565b610a24610c5e565b600795909555600893909355600991909155600c55600d55600b55565b600a5481565b610a4f610c5e565b600580546001600160a01b0319166001600160a01b0392909216919091179055565b60075481565b60018181548110610a8457fe5b6000918252602090912001546001600160a01b0316905081565b600d5481565b6002546001600160a01b031681565b610abb610c14565b816001600160a01b031663438ab5ac826040518263ffffffff1660e01b815260040180826001600160a01b03166001600160a01b03168152602001915050600060405180830381600087803b158015610b1357600080fd5b505af1158015610b27573d6000803e3d6000fd5b505050505050565b600b5481565b6000610b3f610c14565b836001600160a01b0316856001600160a01b03161415610b8f576040805162461bcd60e51b81526020600482015260066024820152655a463a20494160d01b604482015290519081900360640190fd5b6001600160a01b0385811660009081526020818152604080832088851684529091529020541615610bf0576040805162461bcd60e51b81526020600482015260066024820152655a463a20504560d01b604482015290519081900360640190fd5b610bfb858588610ca6565b9050610c0b858585858a86610d30565b95945050505050565b6006546001600160a01b03163314610c5c576040805162461bcd60e51b81526020600482015260066024820152652d282a1d102360d11b604482015290519081900360640190fd5b565b6005546001600160a01b03163314610c5c576040805162461bcd60e51b81526020600482015260066024820152652d282a1d102360d11b604482015290519081900360640190fd5b6000606060405180602001610cba90610fcf565b601f1982820381018352601f9091011660408181526001600160601b0319606089811b821660208581019190915289821b831660348601529088901b90911660488401528151603c818503018152605c909301909152815191810191909120825192935091829184016000f59695505050505050565b600480546040805163044209e560e51b81526001600160a01b038a81169482019490945288841660248201529051600093909216916388413ca091604480820192602092909190829003018186803b158015610d8b57600080fd5b505afa158015610d9f573d6000803e3d6000fd5b505050506040513d6020811015610db557600080fd5b5051600480546040805163245cb9e160e21b81526001600160a01b038781169482019490945287841660248201528b841660448201528a8416606482015290519394506000939290911691639172e7849160848082019260209290919082900301818787803b158015610e2757600080fd5b505af1158015610e3b573d6000803e3d6000fd5b505050506040513d6020811015610e5157600080fd5b505160025460408051634514f16f60e11b81526001600160a01b038a8116600483015289811660248301528c811660448301528b81166064830152888116608483015292831660a482015282841660c482015285831660e4820152905192935090851691638a29e2de916101048082019260009290919082900301818387803b158015610edd57600080fd5b505af1158015610ef1573d6000803e3d6000fd5b5050604080516001600160a01b038a8116825289811660208301528781168284015288811660608301529151828c169450918c1692507fab83557b3a718996d408afe08287d09bafed3590c7ae61a430d518d3199d4590919081900360800190a350506001600160a01b0395861660009081526020818152604080832097891683529690529485208054969091166001600160a01b0319968716811790915560018054808201825595527fb10e2d527612073b26eecdfd717e6a320cf44b4afac2b0732d9fcbe2b7fa0cf69094018054909516909317909355505050565b614e4d80610fdd8339019056fe6080604052600060175534801561001557600080fd5b506000805460ff19166001179055600480546001600160a01b03191633179055614e09806100446000396000f3fe608060405234801561001057600080fd5b50600436106101125760003560e01c80630a22d5f314610117578063158ef93e14610145578063192b65d81461015f5780633339dc1a1461016757806333cdde4e1461016f578063438ab5ac1461019d5780634a00d16a146101c55780638a29e2de146101cd5780638aa961491461022c5780638d470e221461025a5780638ffa32361461028857806397ed64db146102a4578063a01de3aa146102ac578063a9f0e58f146102b4578063af0dda2a146102bc578063b7073003146102ed578063ba7b3dea146102f5578063c561cf4f14610323578063c9bd59a01461036a578063efefd9f914610372578063f29401c41461037a578063fef93492146103a0575b600080fd5b61011f6103a8565b604080516001600160701b03938416815291909216602082015281519081900390910190f35b61014d6103c3565b60408051918252519081900360200190f35b61014d6103c9565b61014d6103cf565b61014d6004803603604081101561018557600080fd5b506001600160a01b03813516906020013515156103d5565b6101c3600480360360208110156101b357600080fd5b50356001600160a01b0316610838565b005b61014d610964565b6101c360048036036101008110156101e457600080fd5b506001600160a01b038135811691602081013582169160408201358116916060810135821691608082013581169160a081013582169160c082013581169160e001351661096a565b6101c36004803603604081101561024257600080fd5b506001600160a01b0381358116916020013516610aff565b61014d6004803603604081101561027057600080fd5b506001600160a01b0381351690602001351515610b35565b610290610d9f565b604080519115158252519081900360200190f35b61014d610daf565b610290610db5565b61014d610dbe565b6101c3600480360360808110156102d257600080fd5b50803590602081013590604081013590606001351515610dc4565b61014d610e10565b61014d6004803603604081101561030b57600080fd5b506001600160a01b0381351690602001351515610e16565b6103516004803603604081101561033957600080fd5b506001600160a01b0381351690602001351515611377565b6040805192835260208301919091528051918290030190f35b61014d61195b565b61014d611961565b6103516004803603602081101561039057600080fd5b50356001600160a01b0316611967565b61014d611ed7565b6016546001600160701b0380821692600160701b9092041690565b60175481565b600a5481565b60105481565b6000805460ff1661041b576040805162461bcd60e51b815260206004820152601f6024820152600080516020614d90833981519152604482015290519081900360640190fd5b6000805460ff1916905561042d611edd565b610435611f96565b60008261044d576006546001600160a01b031661045a565b6007546001600160a01b03165b90506000806104676103a8565b600154604080516370a0823160e01b81523060048201529051939550919350600092839283926001600160a01b0316916370a0823191602480820192602092909190829003018186803b1580156104bd57600080fd5b505afa1580156104d1573d6000803e3d6000fd5b505050506040513d60208110156104e757600080fd5b5051600254604080516370a0823160e01b815230600482015290519293506000926001600160a01b03909216916370a0823191602480820192602092909190829003018186803b15801561053a57600080fd5b505afa15801561054e573d6000803e3d6000fd5b505050506040513d602081101561056457600080fd5b50519050610581826001600160701b03881663ffffffff6123a916565b935061059c816001600160701b03871663ffffffff6123a916565b925060006105a86123ff565b90506105b685826000612625565b94506105c484826001612625565b935060008061063987878e8d6001600160a01b03166318160ddd6040518163ffffffff1660e01b815260040160206040518083038186803b15801561060857600080fd5b505afa15801561061c573d6000803e3d6000fd5b505050506040513d602081101561063257600080fd5b505161289f565b91509150819a508b156106a257600080610654600080612985565b91509150610694600b60009054906101000a900460ff1684600c5461068d8e6001600160701b0316600a546123a990919063ffffffff16565b8686612afe565b600c555050600a8054820190555b50505050506106b082612d35565b6106b981612d35565b6001546003546106d6916001600160a01b03908116911684612d73565b6002546003546106f3916001600160a01b03908116911683612d73565b600354604080516335313c2160e11b815230600482015290516001600160a01b0390921691636a627842916024808201926020929091908290030181600087803b15801561074057600080fd5b505af1158015610754573d6000803e3d6000fd5b505050506040513d602081101561076a57600080fd5b5050604080516340c10f1960e01b81526001600160a01b038a81166004830152602482018990529151918716916340c10f199160448082019260009290919082900301818387803b1580156107be57600080fd5b505af11580156107d2573d6000803e3d6000fd5b5050604080513381526020810186905280820185905290517f9a36e9f82fd3ab4ec26a87598c0f7f4519b7895fa6a0bca1968b486ee019b0829350908190036060019150a161081f612ef1565b50506000805460ff191660011790555091949350505050565b6108406131ab565b600354604080516370a0823160e01b815230600482015290516108c1926001600160a01b031691849183916370a08231916024808301926020929190829003018186803b15801561089057600080fd5b505afa1580156108a4573d6000803e3d6000fd5b505050506040513d60208110156108ba57600080fd5b5051612d73565b600254604080516370a0823160e01b81523060048201529051610911926001600160a01b031691849183916370a08231916024808301926020929190829003018186803b15801561089057600080fd5b600154604080516370a0823160e01b81523060048201529051610961926001600160a01b031691849183916370a08231916024808301926020929190829003018186803b15801561089057600080fd5b50565b600d5481565b60005460ff166109af576040805162461bcd60e51b815260206004820152601f6024820152600080516020614d90833981519152604482015290519081900360640190fd5b6000805460ff191690556109c16131ab565b600680546001600160a01b03808b166001600160a01b031992831617909255600780548a84169083161790556003805487841692168217905560408051630dfe168160e01b8152905192891692630dfe168191600481810192602092909190829003018186803b158015610a3457600080fd5b505afa158015610a48573d6000803e3d6000fd5b505050506040513d6020811015610a5e57600080fd5b505160098054604080518082019091526001600160a01b039a8b16808252998b166020909101819052600180546001600160a01b0319908116909b178155600280548c16909217909155600580548b16988c1698909817909755600880548a16968b169690961790955560ff60a01b1990941690881691909114600160a01b021790941693909416929092179092556000805460ff19169091179055505050565b610b076131ab565b600880546001600160a01b039384166001600160a01b03199182161790915560098054929093169116179055565b6000805460ff16610b7b576040805162461bcd60e51b815260206004820152601f6024820152600080516020614d90833981519152604482015290519081900360640190fd5b6000805460ff19169055610b8d611edd565b610b95611f96565b600080610ba06103a8565b915091506000610c6f85610bb45783610bb6565b825b6001600160701b031686610bd5576001546001600160a01b0316610be2565b6002546001600160a01b03165b6001600160a01b03166370a08231306040518263ffffffff1660e01b815260040180826001600160a01b03166001600160a01b0316815260200191505060206040518083038186803b158015610c3757600080fd5b505afa158015610c4b573d6000803e3d6000fd5b505050506040513d6020811015610c6157600080fd5b50519063ffffffff6123a916565b9050610c7a81612d35565b610c8c81610c866123ff565b87612625565b9050600080610c9c600080612985565b915091506000610ccf8489610cb15784610cb3565b835b8a610cbe5788610cc0565b875b6001600160701b03168b6131f3565b90975090508715610ce357600a8054820190555b87610cf9576006546001600160a01b0316610d06565b6007546001600160a01b03165b6001600160a01b03166340c10f198a896040518363ffffffff1660e01b815260040180836001600160a01b03166001600160a01b0316815260200182815260200192505050600060405180830381600087803b158015610d6557600080fd5b505af1158015610d79573d6000803e3d6000fd5b50505050610d85612ef1565b50506000805460ff19166001179055509295945050505050565b600954600160a01b900460ff1681565b600e5481565b600b5460ff1681565b600c5481565b610dcc6131ab565b600e849055600a839055600c829055600b805460ff1916821515179055600f8490554360145560158490558215610e0557610e05612ef1565b505060016017555050565b60115481565b6000805460ff16610e5c576040805162461bcd60e51b815260206004820152601f6024820152600080516020614d90833981519152604482015290519081900360640190fd5b6000805460ff19169055610e6e611edd565b610e76611f96565b600082610e8e576006546001600160a01b0316610e9b565b6007546001600160a01b03165b604080516370a0823160e01b815230600482015290519192506000916001600160a01b038416916370a08231916024808301926020929190829003018186803b158015610ee757600080fd5b505afa158015610efb573d6000803e3d6000fd5b505050506040513d6020811015610f1157600080fd5b50519050610f1e81612d35565b6000826001600160a01b03166318160ddd6040518163ffffffff1660e01b815260040160206040518083038186803b158015610f5957600080fd5b505afa158015610f6d573d6000803e3d6000fd5b505050506040513d6020811015610f8357600080fd5b5051600354909150869086906001600160a01b0316600080610fa68487896133f3565b915091506000610fb46123ff565b90506000610fe4612710610fce858563ffffffff6134d016565b81610fd557fe5b8591900463ffffffff6123a916565b905061101386610fff576001546001600160a01b031661100c565b6002546001600160a01b03165b8883612d73565b8884101561127857600061102d8a8663ffffffff6123a916565b9050600061103c88838c613533565b9050600061106c612710611056848863ffffffff6134d016565b8161105d57fe5b8491900463ffffffff6123a916565b9050600089156111655761107f8261373e565b90925090508b600061108f6103a8565b6001600160701b031691505060006110a8600080612985565b600b54600a5491935061115e925060ff169085908a02816110c557fe5b600354604080516370a0823160e01b8152306004820152905193909204928a926001600160a01b03909216916370a08231916024808301926020929190829003018186803b15801561111657600080fd5b505afa15801561112a573d6000803e3d6000fd5b505050506040513d602081101561114057600080fd5b5051600c54600a54611158908963ffffffff6123a916565b8761391e565b600c555050505b61117087878c612625565b5061117c898a84612d73565b600954604080516302ce510960e41b81526001600160a01b038e8116600483015260ff600160a01b9094049390931615158d15151415602482015290516000928c1691632ce5109091604480830192602092919082900301818787803b1580156111e557600080fd5b505af11580156111f9573d6000803e3d6000fd5b505050506040513d602081101561120f57600080fd5b5051600954968101969091506112679060ff600160a01b9091041615158c1515141561123c57600061123e565b815b60095460ff600160a01b9091041615158d1515141561125d5782611260565b60005b848f613ab5565b6112718488613ce8565b5050505050505b60408051632770a7eb60e21b8152306004820152602481018b905290516001600160a01b038c1691639dc29fac91604480830192600092919082900301818387803b1580156112c657600080fd5b505af11580156112da573d6000803e3d6000fd5b50505050809a5050505050505050841561131857600a548190611303908463ffffffff6134d016565b8161130a57fe5b600a80549290910490910390555b611320612ef1565b60408051338152602081018690528615158183015290517f5cf7281eb36e25a92ffd0cff3089777ca0cb41d28e8c7158c234b1eae9a07ed29181900360600190a150506000805460ff191660011790555092915050565b60008054819060ff166113bf576040805162461bcd60e51b815260206004820152601f6024820152600080516020614d90833981519152604482015290519081900360640190fd5b6000805460ff191690556113d1611edd565b6113d9611f96565b6000836113f1576006546001600160a01b03166113fe565b6007546001600160a01b03165b604080516370a0823160e01b815230600482015290519192506000916001600160a01b038416916370a08231916024808301926020929190829003018186803b15801561144a57600080fd5b505afa15801561145e573d6000803e3d6000fd5b505050506040513d602081101561147457600080fd5b5051905061148181612d35565b6000826001600160a01b03166318160ddd6040518163ffffffff1660e01b815260040160206040518083038186803b1580156114bc57600080fd5b505afa1580156114d0573d6000803e3d6000fd5b505050506040513d60208110156114e657600080fd5b505190506000806114f56123ff565b9050436012541415611537576040805162461bcd60e51b8152602060048083019190915260248201526305a3a20560e41b604482015290519081900360640190fd5b6000611544898686613533565b90506000806115516103a8565b6001600160701b031691506001600160701b03169150600080611575600080612985565b9150915060008d6115e6576115c785670de0b6b3a76400006115b3600e546115a76002896134d090919063ffffffff16565b9063ffffffff6134d016565b816115ba57fe5b049063ffffffff613e0116565b6115d78a8763ffffffff6134d016565b816115de57fe5b048903611604565b600a546115f98a8663ffffffff6134d016565b8161160057fe5b0489035b9050808a10611643576040805162461bcd60e51b815260206004808301919091526024820152635a3a204560e01b604482015290519081900360640190fd5b50600061167261271061165c898963ffffffff6134d016565b8161166357fe5b8891900463ffffffff6123a916565b90508d1561174d576116838161373e565b600b54600a54919a509192506117499160ff16908b906116a9908e63ffffffff6134d016565b816116b057fe5b600354604080516370a0823160e01b81523060048201529051939092049286926001600160a01b03909216916370a08231916024808301926020929190829003018186803b15801561170157600080fd5b505afa158015611715573d6000803e3d6000fd5b505050506040513d602081101561172b57600080fd5b5051600c54600a54611743908b63ffffffff6123a916565b8861391e565b600c555b600354611764906001600160a01b03168083612d73565b5050505050600080600360009054906101000a90046001600160a01b03166001600160a01b03166389afcb448d6040518263ffffffff1660e01b815260040180826001600160a01b03166001600160a01b031681526020019150506040805180830381600087803b1580156117d857600080fd5b505af11580156117ec573d6000803e3d6000fd5b505050506040513d604081101561180257600080fd5b508051602090910151909250905061181a8385613ce8565b50600954600160a01b900460ff166118325780611834565b815b600954909a50600160a01b900460ff1661184e5781611850565b805b985061185e8a8a878f613ab5565b60408051632770a7eb60e21b81523060048201526024810189905290516001600160a01b038a1691639dc29fac91604480830192600092919082900301818387803b1580156118ac57600080fd5b505af11580156118c0573d6000803e3d6000fd5b505050508a156118f457600a5486906118df908963ffffffff6134d016565b816118e657fe5b600a80549290910490910390555b6118fc612ef1565b60408051338152602081018c90528082018b905290517fb83dbb1f0386f1b6d6f534f325d617e3f96f2971cca29021702094328c1cb70c9181900360600190a150506000805460ff191660011790555095989497509395505050505050565b60125481565b60135481565b60008054819060ff166119af576040805162461bcd60e51b815260206004820152601f6024820152600080516020614d90833981519152604482015290519081900360640190fd5b6000805460ff19169055601754158015611a3457506004805460408051635c975abb60e01b815290516001600160a01b0390921692635c975abb928282019260209290829003018186803b158015611a0657600080fd5b505afa158015611a1a573d6000803e3d6000fd5b505050506040513d6020811015611a3057600080fd5b5051155b611a6e576040805162461bcd60e51b8152602060048083019190915260248201526305a3a20560e41b604482015290519081900360640190fd5b600154604080516370a0823160e01b815230600482015290516000926001600160a01b0316916370a08231916024808301926020929190829003018186803b158015611ab957600080fd5b505afa158015611acd573d6000803e3d6000fd5b505050506040513d6020811015611ae357600080fd5b5051600254604080516370a0823160e01b815230600482015290519293506000926001600160a01b03909216916370a0823191602480820192602092909190829003018186803b158015611b3657600080fd5b505afa158015611b4a573d6000803e3d6000fd5b505050506040513d6020811015611b6057600080fd5b50519050611b6d82612d35565b611b7681612d35565b600080611b81613e50565b915091506000826001600160701b0316118015611ba757506000816001600160701b0316115b15611bd057611bca826001600160701b0316826001600160701b03168686613f19565b90945092505b600a839055670de0b6b3a7640000600c819055611bf1908490600082613f74565b600b805460ff1916911515919091179055600e55600754604080516340c10f1960e01b81526000600482018190526103e8602483015291516001600160a01b03909316926340c10f199260448084019391929182900301818387803b158015611c5957600080fd5b505af1158015611c6d573d6000803e3d6000fd5b5050600654604080516340c10f1960e01b81526000600482018190526103e8602483015291516001600160a01b0390931694506340c10f1993506044808201939182900301818387803b158015611cc357600080fd5b505af1158015611cd7573d6000803e3d6000fd5b50505050611cf06103e8846123a990919063ffffffff16565b9450611d3a6103e8611d0e6002600e546134d090919063ffffffff16565b611d2687670de0b6b3a764000063ffffffff6134d016565b81611d2d57fe5b049063ffffffff6123a916565b95506000600460009054906101000a90046001600160a01b03166001600160a01b031663a3ad52b86040518163ffffffff1660e01b815260040160206040518083038186803b158015611d8c57600080fd5b505afa158015611da0573d6000803e3d6000fd5b505050506040513d6020811015611db657600080fd5b50519050611dc38161407e565b600754604080516340c10f1960e01b81526001600160a01b038b81166004830152602482018a9052915191909216916340c10f1991604480830192600092919082900301818387803b158015611e1857600080fd5b505af1158015611e2c573d6000803e3d6000fd5b5050600654604080516340c10f1960e01b81526001600160a01b038d81166004830152602482018d905291519190921693506340c10f199250604480830192600092919082900301818387803b158015611e8557600080fd5b505af1158015611e99573d6000803e3d6000fd5b5050600e54600f8190554360145560155550611eb59050612ef1565b5050600160178190556000805460ff1916909117905550929491935090915050565b600f5481565b6017546001148015611f5a57506004805460408051635c975abb60e01b815290516001600160a01b0390921692635c975abb928282019260209290829003018186803b158015611f2c57600080fd5b505afa158015611f40573d6000803e3d6000fd5b505050506040513d6020811015611f5657600080fd5b5051155b611f94576040805162461bcd60e51b8152602060048083019190915260248201526305a3a20560e41b604482015290519081900360640190fd5b565b6003546001600160a01b0316331461201157600360009054906101000a90046001600160a01b03166001600160a01b03166311816b046040518163ffffffff1660e01b8152600401600060405180830381600087803b158015611ff857600080fd5b505af115801561200c573d6000803e3d6000fd5b505050505b600360009054906101000a90046001600160a01b03166001600160a01b031663145f3c276040518163ffffffff1660e01b8152600401600060405180830381600087803b15801561206157600080fd5b505af1158015612075573d6000803e3d6000fd5b50505050600080612087600080612985565b9150915060006120956103a8565b600e54909250905083158015906120ab57508215155b156123a3576000806120cb6120c6878763ffffffff6134d016565b614403565b600d54600f54919250879187916000916120ef906115a7878463ffffffff6123a916565b816120f657fe5b04905080156121e157670de0b6b3a7640000612118898363ffffffff6134d016565b6002028161212257fe5b0494506000612145886001600160701b0316600a546123a990919063ffffffff16565b600b54600a549192506121dc9160ff90911690612168898563ffffffff6134d016565b8161216f57fe5b04600c546121918c6001600160701b0316600a546123a990919063ffffffff16565b670de0b6b3a76400006121ac8a89830363ffffffff6134d016565b816121b357fe5b04670de0b6b3a76400006121cf8a8a830363ffffffff6134d016565b816121d657fe5b04612afe565b600c55505b5050600a8054840190819055600c5461220592506001600160701b03871688613f74565b600b805460ff1916911515919091179055600e55612221614455565b600d81905560135460009061223d90439063ffffffff6123a916565b90508015612336576000600460009054906101000a90046001600160a01b03166001600160a01b031663ed6b92cd6040518163ffffffff1660e01b815260040160206040518083038186803b15801561229557600080fd5b505afa1580156122a9573d6000803e3d6000fd5b505050506040513d60208110156122bf57600080fd5b5051601254909150600090600a4391909103116122dd5760006122e2565b600a83045b90506122f7600183018263ffffffff613e0116565b6123106011548460105402613e0190919063ffffffff16565b8161231757fe5b04601055600e546123289087614677565b601155505043601355612358565b612354612345600e5486614677565b6011549063ffffffff613e0116565b6011555b600a54600c54600e5460408051938452602084019290925282820152517f54964c70825f65946c2e16cd62d98784e0536cf3d54b15ce1845f37f325945d29181900360600190a15050505b50505050565b808203828111156123f9576040805162461bcd60e51b815260206004820152601560248201527464732d6d6174682d7375622d756e646572666c6f7760581b604482015290519081900360640190fd5b92915050565b6000806124106010546011546146ae565b90506000600460009054906101000a90046001600160a01b03166001600160a01b0316635942f95e6040518163ffffffff1660e01b815260040160206040518083038186803b15801561246257600080fd5b505afa158015612476573d6000803e3d6000fd5b505050506040513d602081101561248c57600080fd5b5051600854600e5460408051630134dce560e11b81526004810192909252519293506001600160a01b0390911691630269b9ca91602480820192602092909190829003018186803b1580156124e057600080fd5b505afa1580156124f4573d6000803e3d6000fd5b505050506040513d602081101561250a57600080fd5b50519250808210612620576012544303600082670de0b6b3a76400008161252d57fe5b04905080821115612541574360125561261d565b60048054604080516315f4859960e11b815290516125dc9389936001600160a01b031692632be90b329281830192602092829003018186803b15801561258657600080fd5b505afa15801561259a573d6000803e3d6000fd5b505050506040513d60208110156125b057600080fd5b5051612710866125c6898363ffffffff6134d016565b816125cd57fe5b0403019063ffffffff613e0116565b9450612710851061261d576040805162461bcd60e51b81526020600482015260066024820152650b474408ca8960d31b604482015290519081900360640190fd5b50505b505090565b600061271083850204821561265657600254600854612651916001600160a01b03908116911683612d73565b61282e565b600154600354612673916001600160a01b03908116911683612d73565b60008061267e613e50565b915091506000612712600460009054906101000a90046001600160a01b03166001600160a01b03166398118cb46040518163ffffffff1660e01b815260040160206040518083038186803b1580156126d557600080fd5b505afa1580156126e9573d6000803e3d6000fd5b505050506040513d60208110156126ff57600080fd5b505185906127100363ffffffff6134d016565b90506000612741826127356001600160701b03871661271063ffffffff6134d016565b9063ffffffff613e0116565b61275a836001600160701b03861663ffffffff6134d016565b8161276157fe5b6003546009549290910492506001600160a01b03169063022c0d9f90600160a01b900460ff166127915782612794565b60005b600954600160a01b900460ff166127ac5760006127ae565b835b600854604080516001600160e01b031960e087901b168152600481019490945260248401929092526001600160a01b0316604483015260806064830152600060848301819052905160c48084019382900301818387803b15801561281157600080fd5b505af1158015612825573d6000803e3d6000fd5b50505050505050505b600860009054906101000a90046001600160a01b03166001600160a01b03166303f187ea6040518163ffffffff1660e01b8152600401600060405180830381600087803b15801561287e57600080fd5b505af1158015612892573d6000803e3d6000fd5b5050509403949350505050565b6000806000806128b0600080612985565b915091506000806128bf6103a8565b91509150871561292557612900846128e260026115a78e8863ffffffff6134d016565b816128e957fe5b046128fb8b600263ffffffff6134d016565b6146c4565b945061291e88868986856001600160701b0316600e54600a546146d3565b9550612978565b6129578361293e60026115a78d8963ffffffff6134d016565b8161294557fe5b046128fb8c600263ffffffff6134d016565b945061297588868987866001600160701b0316600e54600a546146d3565b95505b5050505094509492505050565b600080600080612993613e50565b600354604080516370a0823160e01b815230600482015290519395509193506000926001600160a01b03909116916370a08231916024808301926020929190829003018186803b1580156129e657600080fd5b505afa1580156129fa573d6000803e3d6000fd5b505050506040513d6020811015612a1057600080fd5b5051600354604080516318160ddd60e01b815290519293506000926001600160a01b03909216916318160ddd91600480820192602092909190829003018186803b158015612a5d57600080fd5b505afa158015612a71573d6000803e3d6000fd5b505050506040513d6020811015612a8757600080fd5b50519050811580612a96575080155b15612aaa5787879550955050505050612af7565b80612ac46001600160701b0386168463ffffffff6134d016565b81612acb57fe5b0481612ae66001600160701b0386168563ffffffff6134d016565b81612aed57fe5b0495509550505050505b9250929050565b600080612b2486670de0b6b3a76400006002820a5b0403670de0b6b3a764000002614403565b90506000868210612b3757818701612b3b565b8187035b90506000612b4f878363ffffffff6134d016565b612b6d866a0c097ce7bc90715b34b9f160241b63ffffffff6134d016565b81612b7457fe5b0490508980612b8b5750670de0b6b3a76400008110155b15612d235789158015612bc757508087612bb38b670de0b6b3a764000063ffffffff6134d016565b81612bba57fe5b04670de0b6b3a764000001105b15612bd757879350505050612d2b565b8860008b612c4c57612c476002612bff670de0b6b3a763ffff1986018c63ffffffff6134d016565b81612c0657fe5b048801888a6002612c28670de0b6b3a763ffff1989018f63ffffffff6134d016565b81612c2f57fe5b040281612c3857fe5b048a019063ffffffff6134d016565b612c5c565b612c5c888863ffffffff6134d016565b905060008c612c8b57670de0b6b3a7640000612c7e858c63ffffffff6134d016565b81612c8557fe5b04612c8d565b895b90506000612cc4600285048a0160028b02612cae878e63ffffffff6134d016565b81612cb557fe5b048c019063ffffffff6134d016565b905082612cd7828463ffffffff6134d016565b81612cde57fe5b0497508a8401612cf4898e63ffffffff6134d016565b81612cfb57fe5b049750670de0b6b3a7640000881015612d1a57670de0b6b3a764000097505b50505050612d27565b8793505b5050505b9695505050505050565b60008111610961576040805162461bcd60e51b815260206004808301919091526024820152632d1d102d60e11b604482015290519081900360640190fd5b60408051808201825260198152787472616e7366657228616464726573732c75696e743235362960381b60209182015281516001600160a01b0385811660248301526044808301869052845180840390910181526064909201845291810180516001600160e01b031663a9059cbb60e01b1781529251815160009460609489169392918291908083835b60208310612e1c5780518252601f199092019160209182019101612dfd565b6001836020036101000a0380198251168184511680821785525050505050509050019150506000604051808303816000865af19150503d8060008114612e7e576040519150601f19603f3d011682016040523d82523d6000602084013e612e83565b606091505b5091509150818015612eb1575080511580612eb15750808060200190516020811015612eae57600080fd5b50515b612eea576040805162461bcd60e51b81526020600482015260056024820152642d1d102a2360d91b604482015290519081900360640190fd5b5050505050565b600154604080516370a0823160e01b815230600482015290516000926001600160a01b0316916370a08231916024808301926020929190829003018186803b158015612f3c57600080fd5b505afa158015612f50573d6000803e3d6000fd5b505050506040513d6020811015612f6657600080fd5b5051600254604080516370a0823160e01b815230600482015290519293506000926001600160a01b03909216916370a0823191602480820192602092909190829003018186803b158015612fb957600080fd5b505afa158015612fcd573d6000803e3d6000fd5b505050506040513d6020811015612fe357600080fd5b50519050600080612ff48484612985565b915091506000600460009054906101000a90046001600160a01b03166001600160a01b031663a3ad52b86040518163ffffffff1660e01b815260040160206040518083038186803b15801561304857600080fd5b505afa15801561305c573d6000803e3d6000fd5b505050506040513d602081101561307257600080fd5b505190506000606461308a858463ffffffff6134d016565b8161309157fe5b049050600060646130a8858563ffffffff6134d016565b816130af57fe5b0490506130be87878484614756565b6130c88787612985565b90955093506130e06120c6868663ffffffff6134d016565b600d5560006130ed6103a8565b6001600160701b0316915050600061310b600a54600c548489613f74565b509050600460009054906101000a90046001600160a01b03166001600160a01b0316635942f95e6040518163ffffffff1660e01b815260040160206040518083038186803b15801561315c57600080fd5b505afa158015613170573d6000803e3d6000fd5b505050506040513d602081101561318657600080fd5b5051600e54613196908390614677565b106131a057436012555b505050505050505050565b6004546001600160a01b03163314611f94576040805162461bcd60e51b815260206004808301919091526024820152632d1d102360e11b604482015290519081900360640190fd5b6000806000600460009054906101000a90046001600160a01b03166001600160a01b031663a3ad52b86040518163ffffffff1660e01b815260040160206040518083038186803b15801561324657600080fd5b505afa15801561325a573d6000803e3d6000fd5b505050506040513d602081101561327057600080fd5b5051905060006064613288888463ffffffff6134d016565b8161328f57fe5b049050600080866132ab576006546001600160a01b03166132b8565b6007546001600160a01b03165b6001600160a01b03166318160ddd6040518163ffffffff1660e01b815260040160206040518083038186803b1580156132f057600080fd5b505afa158015613304573d6000803e3d6000fd5b505050506040513d602081101561331a57600080fd5b505190508783111561337157878303915081156133715761334d8761333f848d6146c4565b838c8c600e54600a546146d3565b9550818a1161336c5761335f8461407e565b508893506133ea92505050565b938101935b818a03600080613381838b6149d6565b9150915089156133cb578a6000806133998180612985565b600b54600c54600a549395509193506133c49260ff90911691889161068d908863ffffffff6123a916565b600c555050505b978801979681019684156133e2576133e28761407e565b505050505050505b94509492505050565b600080600080613404600080612985565b915091506000806134136103a8565b915091506000896134245782613426565b815b6001600160701b0316905060008a61343e5785613440565b845b600e54600a54919250906134598d858e868287876146d3565b995060006134678b8d6146c4565b90508d1561348f578c613480838363ffffffff6134d016565b8161348757fe5b0499506134bf565b8c6134b4826115a788670de0b6b3a76400006115b36002848c8c63ffffffff6134d016565b816134bb57fe5b0499505b505050505050505050935093915050565b60008115806134eb575050808202828282816134e857fe5b04145b6123f9576040805162461bcd60e51b815260206004820152601460248201527364732d6d6174682d6d756c2d6f766572666c6f7760601b604482015290519081900360640190fd5b6000806000613543600180612985565b915091506000806135526103a8565b600354604080516370a0823160e01b8152306004820152905193955091935060009283926001600160a01b03909216916370a08231916024808301926020929190829003018186803b1580156135a757600080fd5b505afa1580156135bb573d6000803e3d6000fd5b505050506040513d60208110156135d157600080fd5b505190508915613628576135ec85600263ffffffff6134d016565b600a546136199061360c906001600160701b03871663ffffffff6123a916565b839063ffffffff6134d016565b8161362057fe5b049150613650565b600e54670de0b6b3a764000090613645908363ffffffff6134d016565b8161364c57fe5b0491505b60008a6136af57613687856001600160701b0316670de0b6b3a76400006115b3600e546115a760028d6134d090919063ffffffff16565b6136a08a6001600160701b03881663ffffffff6134d016565b816136a757fe5b0489036136d6565b600a546136cb8a6001600160701b03871663ffffffff6134d016565b816136d257fe5b0489035b9050806136e98b8563ffffffff6134d016565b816136f057fe5b04975060008811613730576040805162461bcd60e51b81526020600482015260056024820152642d1d1021ad60d91b604482015290519081900360640190fd5b505050505050509392505050565b600080600061374b6103a8565b6001600160701b03169150506000613764600080612985565b91505060006137c4670de0b6b3a764000061378a85600a546123a990919063ffffffff16565b6137b761379e86600263ffffffff6134d016565b600e54670de0b6b3a7640000039063ffffffff6134d016565b816137be57fe5b046146c4565b9050670de0b6b3a76400006137df828863ffffffff6134d016565b816137e657fe5b049450670de0b6b3a7640000811015613916576000670de0b6b3a76400006138168884830363ffffffff6134d016565b8161381d57fe5b600354600854604080516370a0823160e01b81526001600160a01b03928316600482015290519490930494506000939116916370a08231916024808301926020929190829003018186803b15801561387457600080fd5b505afa158015613888573d6000803e3d6000fd5b505050506040513d602081101561389e57600080fd5b50519050808210156138cd576003546008546138c8916001600160a01b0390811691168185614c0b565b613913565b6003546008546138eb916001600160a01b0390811691168184614c0b565b87613908670de0b6b3a76400006115a7858563ffffffff6123a916565b8161390f57fe5b0495505b50505b505050915091565b600087806139335750670de0b6b3a764000084115b15613aa7578688156139de57600061395786670de0b6b3a76400006002820a612b13565b9050600086821061396a5781870161396e565b8187035b90506000613982878363ffffffff6134d016565b6139a0876a0c097ce7bc90715b34b9f160241b63ffffffff6134d016565b816139a757fe5b0490506139d8670de0b6b3a76400006139ca896115a7838663ffffffff6123a916565b816139d157fe5b048c6146c4565b93505050505b6000886139f1898463ffffffff6134d016565b816139f857fe5b0490506000670de0b6b3a7640000600289613a19838663ffffffff6134d016565b81613a2057fe5b04670de0b6b3a7640000030a81613a3357fe5b049050613a46868463ffffffff6123a916565b613a56828863ffffffff6134d016565b81613a5d57fe5b049350670de0b6b3a7640000613a79858963ffffffff6134d016565b81613a8057fe5b049350670de0b6b3a7640000841015613a9f57670de0b6b3a764000093505b505050613aaa565b50825b979650505050505050565b81156123a357838315613afd57600080613acd613e50565b6001600160701b03918216935016905081613aee878363ffffffff6134d016565b81613af557fe5b048301925050505b600083670de0b6b3a764000003613b25670de0b6b3a7640000846134d090919063ffffffff16565b81613b2c57fe5b0490506000613b41828463ffffffff6123a916565b600254600854604080516370a0823160e01b81526001600160a01b0392831660048201529051939450849391909216916370a08231916024808301926020929190829003018186803b158015613b9657600080fd5b505afa158015613baa573d6000803e3d6000fd5b505050506040513d6020811015613bc057600080fd5b50511115613beb57600254600854613be6916001600160a01b0390811691168684614c0b565b613c77565b600254600854604080516370a0823160e01b81526001600160a01b03928316600482018190529151613c77949390931692889184916370a0823191602480820192602092909190829003018186803b158015613c4657600080fd5b505afa158015613c5a573d6000803e3d6000fd5b505050506040513d6020811015613c7057600080fd5b5051614c0b565b600860009054906101000a90046001600160a01b03166001600160a01b0316634923b2306040518163ffffffff1660e01b8152600401600060405180830381600087803b158015613cc757600080fd5b505af1158015613cdb573d6000803e3d6000fd5b5050505050505050505050565b6003546000906127108385020490613d0a906001600160a01b03168083612d73565b600354600854600954604080516302ce510960e41b81526001600160a01b039384166004820152600160a01b90920460ff16156024830152519190921691632ce510909160448083019260209291908290030181600087803b158015613d6f57600080fd5b505af1158015613d83573d6000803e3d6000fd5b505050506040513d6020811015613d9957600080fd5b5050600854604080516301f8c3f560e11b815290516001600160a01b03909216916303f187ea9160048082019260009290919082900301818387803b158015613de157600080fd5b505af1158015613df5573d6000803e3d6000fd5b50505093039392505050565b808201828110156123f9576040805162461bcd60e51b815260206004820152601460248201527364732d6d6174682d6164642d6f766572666c6f7760601b604482015290519081900360640190fd5b600080600080600360009054906101000a90046001600160a01b03166001600160a01b0316630902f1ac6040518163ffffffff1660e01b815260040160606040518083038186803b158015613ea457600080fd5b505afa158015613eb8573d6000803e3d6000fd5b505050506040513d6060811015613ece57600080fd5b5080516020909101516009549193509150600160a01b900460ff16613ef35780613ef5565b815b600954909450600160a01b900460ff16613f0f5781613f11565b805b925050509091565b6000808085613f2e888663ffffffff6134d016565b81613f3557fe5b04905084811115613f635784925086613f54848863ffffffff6134d016565b81613f5b57fe5b049150613f6a565b8092508391505b5094509492505050565b60008080613f8984600263ffffffff6134d016565b90506000613f9d888763ffffffff6123a916565b90506000613fb788670de0b6b3a76400006002820a612b13565b90506000888210613fca57818901613fce565b8189035b90506000670de0b6b3a7640000613feb858463ffffffff6134d016565b81613ff257fe5b04905080881115614022578484670de0b6b3a7640000028161401057fe5b04670de0b6b3a7640000039650614070565b6004840261403e86670de0b6b3a764000063ffffffff6134d016565b8161404557fe5b0496508961406188670de0b6b3a764000063ffffffff6134d016565b8161406857fe5b049650600195505b505050505094509492505050565b600154604080516370a0823160e01b815230600482015290516000926001600160a01b0316916370a08231916024808301926020929190829003018186803b1580156140c957600080fd5b505afa1580156140dd573d6000803e3d6000fd5b505050506040513d60208110156140f357600080fd5b5051600254604080516370a0823160e01b815230600482015290519293506000926001600160a01b03909216916370a0823191602480820192602092909190829003018186803b15801561414657600080fd5b505afa15801561415a573d6000803e3d6000fd5b505050506040513d602081101561417057600080fd5b505190506000806141818484612985565b9092509050600060c861419a848863ffffffff6134d016565b816141a157fe5b049050600060c86141b8848963ffffffff6134d016565b816141bf57fe5b049050816001600160701b0316861180156141e25750806001600160701b031685115b156143aa576000806141f2613e50565b6001600160701b031691506001600160701b03169150600080836000148015614219575082155b156142645761425a8a8a61423c826001600160701b038b1663ffffffff6123a916565b6142558d6001600160701b038b1663ffffffff6123a916565b613f19565b9092509050614288565b614282848461423c8d6001600160701b038b1663ffffffff6123a916565b90925090505b601754600114156142e157600061429d6103a8565b6001600160701b03169150506142dc600b60009054906101000a900460ff1683600c546142d585600a546123a990919063ffffffff16565b8d8d612afe565b600c55505b811561430457600154600354614304916001600160a01b03908116911684612d73565b801561432757600254600354614327916001600160a01b03908116911683612d73565b600354604080516335313c2160e11b815230600482015290516001600160a01b0390921691636a627842916024808201926020929091908290030181600087803b15801561437457600080fd5b505af1158015614388573d6000803e3d6000fd5b505050506040513d602081101561439e57600080fd5b506143fa945050505050565b600360009054906101000a90046001600160a01b03166001600160a01b031663145f3c276040518163ffffffff1660e01b8152600401600060405180830381600087803b158015613cc757600080fd5b50505050505050565b60006003821115614446575080600160028204015b818110156144405780915060028182858161442f57fe5b04018161443857fe5b049050614418565b50614450565b8115614450575060015b919050565b6004805460408051637945980160e01b8152905143936001600160a01b0390931692637945980192808201926020929091829003018186803b15801561449a57600080fd5b505afa1580156144ae573d6000803e3d6000fd5b505050506040513d60208110156144c457600080fd5b5051601454829003111561096157600e54601554808210156706f05b59d3b20000831015808214614627576000811561450b5750600e546706f05b59d3b1ffff190161451a565b50600e546706f05b59d3b20000035b82156145e5576000670de0b6b3a76400006145b9600460009054906101000a90046001600160a01b03166001600160a01b031663c0972f7a6040518163ffffffff1660e01b815260040160206040518083038186803b15801561457c57600080fd5b505afa158015614590573d6000803e3d6000fd5b505050506040513d60208110156145a657600080fd5b505187890390850263ffffffff6134d016565b816145c057fe5b049050670de0b6b3a7640000600f548201116145df57600f8054820190555b50614621565b6000670de0b6b3a76400006146028787038463ffffffff6134d016565b8161460957fe5b049050600f54811161461f57600f805482900390555b505b5061466c565b811561465357600f5483850390670de0b6b3a76400009082011161462157600f8054820190555061466c565b600f5484840390811161466a57600f805482900390555b505b505050601555601455565b600081831061469757614690838363ffffffff6123a916565b90506123f9565b6146a7828463ffffffff6123a916565b9392505050565b60008183116146bd57816146a7565b5090919050565b60008183106146bd57816146a7565b600087156146fb57816146ec888863ffffffff6134d016565b816146f357fe5b049050613aaa565b614732670de0b6b3a764000061471c60026115a7898863ffffffff6134d016565b8161472357fe5b8691900463ffffffff613e0116565b614742888863ffffffff6134d016565b8161474957fe5b0498975050505050505050565b83826001600160701b031610156148495760015460035461479c916001600160a01b039081169116614797876001600160701b03871663ffffffff6123a916565b612d73565b600354600954604080516321913af360e11b8152306004820152600160a01b90920460ff1615156024830152516001600160a01b039092169163432275e6916044808201926060929091908290030181600087803b1580156147fd57600080fd5b505af1158015614811573d6000803e3d6000fd5b505050506040513d606081101561482757600080fd5b5050601680546001600160701b0319166001600160701b038416179055614865565b601680546001600160701b0319166001600160701b0386161790555b82816001600160701b0316101561495b576002546003546148a6916001600160a01b039081169116614797866001600160701b03861663ffffffff6123a916565b600354600954604080516321913af360e11b8152306004820152600160a01b90920460ff16156024830152516001600160a01b039092169163432275e6916044808201926060929091908290030181600087803b15801561490657600080fd5b505af115801561491a573d6000803e3d6000fd5b505050506040513d606081101561493057600080fd5b505060168054600160701b600160e01b031916600160701b6001600160701b03841602179055614980565b60168054600160701b600160e01b031916600160701b6001600160701b038616021790555b601654604080516001600160701b038084168252600160701b909304909216602083015280517f1d96001f313f6446e46c7776b79d231589555627a46fa2388f3220937fc79e519281900390910190a150505050565b6000806000806149e4613e50565b90925090506000614a0a6120c66001600160701b0380861690851663ffffffff6134d016565b90506000612710614aae6002600460009054906101000a90046001600160a01b03166001600160a01b03166398118cb46040518163ffffffff1660e01b815260040160206040518083038186803b158015614a6457600080fd5b505afa158015614a78573d6000803e3d6000fd5b505050506040513d6020811015614a8e57600080fd5b505181614a9757fe5b8b916000199104612710030163ffffffff6134d016565b81614ab557fe5b049050600087614ae857614ae36120c66001600160701b03808716906115a79089168663ffffffff613e0116565b614b1d565b614b1d6120c6614b076001600160701b0387168563ffffffff613e0116565b6001600160701b0388169063ffffffff6134d016565b9050600083614b3e670de0b6b3a76400006115a7858463ffffffff6123a916565b81614b4557fe5b049050614bfb670de0b6b3a7640000614b6d6001600160701b0389168463ffffffff6134d016565b81614b7457fe5b04670de0b6b3a7640000614b976001600160701b0389168563ffffffff6134d016565b81614b9e57fe5b048b8c614bb6576006546001600160a01b0316614bc3565b6007546001600160a01b03165b6001600160a01b03166318160ddd6040518163ffffffff1660e01b815260040160206040518083038186803b15801561060857600080fd5b9b909a5098505050505050505050565b60006060856001600160a01b0316604051806060016040528060258152602001614db0602591398051602091820120604080516001600160a01b03808b166024830152891660448201526064808201899052825180830390910181526084909101825292830180516001600160e01b03166001600160e01b0319909316929092178252518251909182918083835b60208310614cb85780518252601f199092019160209182019101614c99565b6001836020036101000a0380198251168184511680821785525050505050509050019150506000604051808303816000865af19150503d8060008114614d1a576040519150601f19603f3d011682016040523d82523d6000602084013e614d1f565b606091505b5091509150818015614d4d575080511580614d4d5750808060200190516020811015614d4a57600080fd5b50515b614d87576040805162461bcd60e51b81526020600482015260066024820152652d1d102a232360d11b604482015290519081900360640190fd5b50505050505056fe5265656e7472616e637947756172643a207265656e7472616e742063616c6c007472616e7366657246726f6d28616464726573732c616464726573732c75696e7432353629a265627a7a72315820e628bc853b6be8589be32d47eed1f62b1d93016536a6631a6480e734ab5eee2364736f6c63430005100032a265627a7a723158202e56bdafe6e5b6012d659da1c1164d17f2a8b461a0a90cca7ee3dbd8eb55bc4364736f6c63430005100032",
  "linkReferences": {},
  "deployedLinkReferences": {}
}