{
  "_format": "hh-sol-artifact-1",
  "contractName": "ZirconPylonRouter",
  "sourceName": "contracts/ZirconPylonRouter.sol",
  "abi": [
    {
      "inputs": [
        {
          "internalType": "address",
          "name": "_factory",
          "type": "address"
        },
        {
          "internalType": "address",
          "name": "_pylonFactory",
          "type": "address"
        },
        {
          "internalType": "address",
          "name": "_ptFactory",
          "type": "address"
        },
        {
          "internalType": "address",
          "name": "_WETH",
          "type": "address"
        }
      ],
      "stateMutability": "nonpayable",
      "type": "constructor"
    },
    {
      "inputs": [],
      "name": "WETH",
      "outputs": [
        {
          "internalType": "address",
          "name": "",
          "type": "address"
        }
      ],
      "stateMutability": "view",
      "type": "function"
    },
    {
      "inputs": [
        {
          "internalType": "address",
          "name": "tokenA",
          "type": "address"
        },
        {
          "internalType": "address",
          "name": "tokenB",
          "type": "address"
        },
        {
          "internalType": "uint256",
          "name": "amountADesired",
          "type": "uint256"
        },
        {
          "internalType": "uint256",
          "name": "amountBDesired",
          "type": "uint256"
        },
        {
          "internalType": "uint256",
          "name": "minLiquidity",
          "type": "uint256"
        },
        {
          "internalType": "bool",
          "name": "isAnchor",
          "type": "bool"
        },
        {
          "internalType": "address",
          "name": "to",
          "type": "address"
        },
        {
          "internalType": "address",
          "name": "farm",
          "type": "address"
        },
        {
          "internalType": "uint256",
          "name": "deadline",
          "type": "uint256"
        }
      ],
      "name": "addAsyncLiquidity",
      "outputs": [
        {
          "internalType": "uint256",
          "name": "liquidity",
          "type": "uint256"
        }
      ],
      "stateMutability": "nonpayable",
      "type": "function"
    },
    {
      "inputs": [
        {
          "internalType": "address",
          "name": "token",
          "type": "address"
        },
        {
          "internalType": "uint256",
          "name": "amountDesiredToken",
          "type": "uint256"
        },
        {
          "internalType": "uint256",
          "name": "minLiquidity",
          "type": "uint256"
        },
        {
          "internalType": "bool",
          "name": "isAnchor",
          "type": "bool"
        },
        {
          "internalType": "bool",
          "name": "shouldReceiveAnchor",
          "type": "bool"
        },
        {
          "internalType": "address",
          "name": "to",
          "type": "address"
        },
        {
          "internalType": "address",
          "name": "farm",
          "type": "address"
        },
        {
          "internalType": "uint256",
          "name": "deadline",
          "type": "uint256"
        }
      ],
      "name": "addAsyncLiquidityETH",
      "outputs": [
        {
          "internalType": "uint256",
          "name": "amountA",
          "type": "uint256"
        },
        {
          "internalType": "uint256",
          "name": "amountB",
          "type": "uint256"
        },
        {
          "internalType": "uint256",
          "name": "liquidity",
          "type": "uint256"
        }
      ],
      "stateMutability": "payable",
      "type": "function"
    },
    {
      "inputs": [
        {
          "internalType": "address",
          "name": "tokenA",
          "type": "address"
        },
        {
          "internalType": "address",
          "name": "tokenB",
          "type": "address"
        },
        {
          "internalType": "uint256",
          "name": "amountDesired",
          "type": "uint256"
        },
        {
          "internalType": "uint256",
          "name": "minLiquidity",
          "type": "uint256"
        },
        {
          "internalType": "bool",
          "name": "isAnchor",
          "type": "bool"
        },
        {
          "internalType": "address",
          "name": "to",
          "type": "address"
        },
        {
          "internalType": "address",
          "name": "farm",
          "type": "address"
        },
        {
          "internalType": "uint256",
          "name": "deadline",
          "type": "uint256"
        }
      ],
      "name": "addSyncLiquidity",
      "outputs": [
        {
          "internalType": "uint256",
          "name": "amount",
          "type": "uint256"
        },
        {
          "internalType": "uint256",
          "name": "liquidity",
          "type": "uint256"
        }
      ],
      "stateMutability": "nonpayable",
      "type": "function"
    },
    {
      "inputs": [
        {
          "internalType": "address",
          "name": "token",
          "type": "address"
        },
        {
          "internalType": "bool",
          "name": "isAnchor",
          "type": "bool"
        },
        {
          "internalType": "uint256",
          "name": "minLiquidity",
          "type": "uint256"
        },
        {
          "internalType": "address",
          "name": "to",
          "type": "address"
        },
        {
          "internalType": "address",
          "name": "farm",
          "type": "address"
        },
        {
          "internalType": "uint256",
          "name": "deadline",
          "type": "uint256"
        }
      ],
      "name": "addSyncLiquidityETH",
      "outputs": [
        {
          "internalType": "uint256",
          "name": "liquidity",
          "type": "uint256"
        }
      ],
      "stateMutability": "payable",
      "type": "function"
    },
    {
      "inputs": [],
      "name": "factory",
      "outputs": [
        {
          "internalType": "address",
          "name": "",
          "type": "address"
        }
      ],
      "stateMutability": "view",
      "type": "function"
    },
    {
      "inputs": [
        {
          "internalType": "address",
          "name": "tokenA",
          "type": "address"
        },
        {
          "internalType": "address",
          "name": "tokenB",
          "type": "address"
        },
        {
          "internalType": "uint256",
          "name": "amountDesiredA",
          "type": "uint256"
        },
        {
          "internalType": "uint256",
          "name": "amountDesiredB",
          "type": "uint256"
        },
        {
          "internalType": "address",
          "name": "to",
          "type": "address"
        },
        {
          "internalType": "uint256",
          "name": "deadline",
          "type": "uint256"
        }
      ],
      "name": "init",
      "outputs": [
        {
          "internalType": "uint256",
          "name": "amountA",
          "type": "uint256"
        },
        {
          "internalType": "uint256",
          "name": "amountB",
          "type": "uint256"
        }
      ],
      "stateMutability": "nonpayable",
      "type": "function"
    },
    {
      "inputs": [
        {
          "internalType": "address",
          "name": "token",
          "type": "address"
        },
        {
          "internalType": "uint256",
          "name": "amountDesiredToken",
          "type": "uint256"
        },
        {
          "internalType": "bool",
          "name": "isAnchor",
          "type": "bool"
        },
        {
          "internalType": "address",
          "name": "to",
          "type": "address"
        },
        {
          "internalType": "uint256",
          "name": "deadline",
          "type": "uint256"
        }
      ],
      "name": "initETH",
      "outputs": [
        {
          "internalType": "uint256",
          "name": "amountA",
          "type": "uint256"
        },
        {
          "internalType": "uint256",
          "name": "amountB",
          "type": "uint256"
        }
      ],
      "stateMutability": "payable",
      "type": "function"
    },
    {
      "inputs": [],
      "name": "ptFactory",
      "outputs": [
        {
          "internalType": "address",
          "name": "",
          "type": "address"
        }
      ],
      "stateMutability": "view",
      "type": "function"
    },
    {
      "inputs": [],
      "name": "pylonFactory",
      "outputs": [
        {
          "internalType": "address",
          "name": "",
          "type": "address"
        }
      ],
      "stateMutability": "view",
      "type": "function"
    },
    {
      "inputs": [
        {
          "internalType": "address",
          "name": "tokenA",
          "type": "address"
        },
        {
          "internalType": "address",
          "name": "tokenB",
          "type": "address"
        },
        {
          "internalType": "uint256",
          "name": "liquidity",
          "type": "uint256"
        },
        {
          "internalType": "uint256",
          "name": "amountAMin",
          "type": "uint256"
        },
        {
          "internalType": "uint256",
          "name": "amountBMin",
          "type": "uint256"
        },
        {
          "internalType": "bool",
          "name": "isAnchor",
          "type": "bool"
        },
        {
          "internalType": "address",
          "name": "to",
          "type": "address"
        },
        {
          "internalType": "uint256",
          "name": "deadline",
          "type": "uint256"
        }
      ],
      "name": "removeLiquidityAsync",
      "outputs": [
        {
          "internalType": "uint256",
          "name": "amountA",
          "type": "uint256"
        },
        {
          "internalType": "uint256",
          "name": "amountB",
          "type": "uint256"
        }
      ],
      "stateMutability": "nonpayable",
      "type": "function"
    },
    {
      "inputs": [
        {
          "internalType": "address",
          "name": "token",
          "type": "address"
        },
        {
          "internalType": "uint256",
          "name": "liquidity",
          "type": "uint256"
        },
        {
          "internalType": "uint256",
          "name": "amountTokenMin",
          "type": "uint256"
        },
        {
          "internalType": "uint256",
          "name": "amountETHMin",
          "type": "uint256"
        },
        {
          "internalType": "bool",
          "name": "isAnchor",
          "type": "bool"
        },
        {
          "internalType": "bool",
          "name": "shouldBurnAnchor",
          "type": "bool"
        },
        {
          "internalType": "address",
          "name": "to",
          "type": "address"
        },
        {
          "internalType": "uint256",
          "name": "deadline",
          "type": "uint256"
        }
      ],
      "name": "removeLiquidityAsyncETH",
      "outputs": [
        {
          "internalType": "uint256",
          "name": "amountToken",
          "type": "uint256"
        },
        {
          "internalType": "uint256",
          "name": "amountETH",
          "type": "uint256"
        }
      ],
      "stateMutability": "nonpayable",
      "type": "function"
    },
    {
      "inputs": [
        {
          "internalType": "address",
          "name": "tokenA",
          "type": "address"
        },
        {
          "internalType": "address",
          "name": "tokenB",
          "type": "address"
        },
        {
          "internalType": "uint256",
          "name": "liquidity",
          "type": "uint256"
        },
        {
          "internalType": "uint256",
          "name": "amountMin",
          "type": "uint256"
        },
        {
          "internalType": "bool",
          "name": "shouldReceiveAnchor",
          "type": "bool"
        },
        {
          "internalType": "address",
          "name": "to",
          "type": "address"
        },
        {
          "internalType": "uint256",
          "name": "deadline",
          "type": "uint256"
        }
      ],
      "name": "removeLiquiditySync",
      "outputs": [
        {
          "internalType": "uint256",
          "name": "amount",
          "type": "uint256"
        }
      ],
      "stateMutability": "nonpayable",
      "type": "function"
    },
    {
      "inputs": [
        {
          "internalType": "address",
          "name": "token",
          "type": "address"
        },
        {
          "internalType": "uint256",
          "name": "liquidity",
          "type": "uint256"
        },
        {
          "internalType": "uint256",
          "name": "amountMin",
          "type": "uint256"
        },
        {
          "internalType": "bool",
          "name": "isAnchor",
          "type": "bool"
        },
        {
          "internalType": "bool",
          "name": "shouldRemoveAnchor",
          "type": "bool"
        },
        {
          "internalType": "address",
          "name": "to",
          "type": "address"
        },
        {
          "internalType": "uint256",
          "name": "deadline",
          "type": "uint256"
        }
      ],
      "name": "removeLiquiditySyncETH",
      "outputs": [
        {
          "internalType": "uint256",
          "name": "amount",
          "type": "uint256"
        }
      ],
      "stateMutability": "nonpayable",
      "type": "function"
    },
    {
      "stateMutability": "payable",
      "type": "receive"
    }
  ],
  "bytecode": "0x61010060405234801561001157600080fd5b5060405161330f38038061330f8339818101604052608081101561003457600080fd5b508051602082015160408301516060938401516001600160601b031993851b8416608052841b831660e05290831b821660a05290911b1660c05260805160601c60a05160601c60c05160601c60e05160601c6131a86101676000398060f15280610875528061089c52806108e4528061090b528061095252806109d25280610c1f5280610c4a5280610cad5280610d44528061148d52806114b852806114fa5280611591528061170e528061192e528061196252806119c05280611ab65280611ae15280611b645250806105d45280610e485280610fd4525080611bec5280611c1552806121ad528061227b528061234b528061251652806125e952806127b552806128885250806117325280611c3b52806120a252806121d752806123d25280612671528061290852506131a86000f3fe6080604052600436106100e15760003560e01c80638a96e2471161007f578063cdccaca011610059578063cdccaca014610428578063ed1d080f14610497578063ef68f27f146104fb578063ef8863b41461055a5761011a565b80638a96e247146103b4578063ad5c4648146103fe578063c45a0155146104135761011a565b80632b34f135116100bb5780632b34f1351461026457806359b11df71461029557806359b9a98b146102ea578063769635bd1461034e5761011a565b8063119438711461011f5780631e3990bd14610190578063230e9bca146102075761011a565b3661011a57336001600160a01b037f0000000000000000000000000000000000000000000000000000000000000000161461011857fe5b005b600080fd5b34801561012b57600080fd5b5061017e600480360360e081101561014257600080fd5b506001600160a01b0381358116916020810135821691604082013591606081013591608082013515159160a08101359091169060c0013561056f565b60408051918252519081900360200190f35b6101e960048036036101008110156101a757600080fd5b506001600160a01b0381358116916020810135916040820135916060810135151591608082013515159160a081013582169160c0820135169060e0013561080a565b60408051938452602084019290925282820152519081900360600190f35b61024b600480360360a081101561021d57600080fd5b506001600160a01b038135811691602081013591604082013515159160608101359091169060800135610bbc565b6040805192835260208301919091528051918290030190f35b34801561027057600080fd5b50610279610e46565b604080516001600160a01b039092168252519081900360200190f35b3480156102a157600080fd5b5061024b600480360360c08110156102b857600080fd5b506001600160a01b03813581169160208101358216916040820135916060810135916080820135169060a00135610e6a565b3480156102f657600080fd5b5061024b600480360361010081101561030e57600080fd5b506001600160a01b038135811691602081013582169160408201359160608101359160808201359160a081013515159160c0820135169060e00135610f6e565b34801561035a57600080fd5b5061024b600480360361010081101561037257600080fd5b506001600160a01b0381358116916020810135821691604082013591606081013591608082013515159160a081013582169160c0820135169060e00135611250565b61017e600480360360c08110156103ca57600080fd5b506001600160a01b038135811691602081013515159160408201359160608101358216916080820135169060a001356113d6565b34801561040a57600080fd5b5061027961170c565b34801561041f57600080fd5b50610279611730565b34801561043457600080fd5b5061017e600480360361012081101561044c57600080fd5b506001600160a01b038135811691602081013582169160408201359160608101359160808201359160a081013515159160c082013581169160e0810135909116906101000135611754565b3480156104a357600080fd5b5061024b60048036036101008110156104bb57600080fd5b506001600160a01b038135811691602081013591604082013591606081013591608082013515159160a081013515159160c0820135169060e001356118cc565b34801561050757600080fd5b5061017e600480360360e081101561051e57600080fd5b506001600160a01b0381358116916020810135916040820135916060810135151591608082013515159160a08101359091169060c00135611a54565b34801561056657600080fd5b50610279611bea565b600081428110156105c2576040805162461bcd60e51b8152602060048201526018602482015277155b9a5cddd85c158c949bdd5d195c8e881156141254915160421b604482015290519081900360640190fd5b60006105ce8a8a611c0e565b905060007f00000000000000000000000000000000000000000000000000000000000000006001600160a01b031663fad51a9a838961060d578d61060f565b8c5b6040518363ffffffff1660e01b815260040180836001600160a01b03166001600160a01b03168152602001826001600160a01b03166001600160a01b031681526020019250505060206040518083038186803b15801561066e57600080fd5b505afa158015610682573d6000803e3d6000fd5b505050506040513d602081101561069857600080fd5b5051604080516323b872dd60e01b81523360048201526001600160a01b038581166024830152604482018d90529151929350908316916323b872dd916064808201926020929091908290030181600087803b1580156106f657600080fd5b505af115801561070a573d6000803e3d6000fd5b505050506040513d602081101561072057600080fd5b5050604080517fba7b3dea0000000000000000000000000000000000000000000000000000000081526001600160a01b038881166004830152891515602483015291519184169163ba7b3dea916044808201926020929091908290030181600087803b15801561078f57600080fd5b505af11580156107a3573d6000803e3d6000fd5b505050506040513d60208110156107b957600080fd5b50519350878410156107fc5760405162461bcd60e51b81526004018080602001828103825260248152602001806130af6024913960400191505060405180910390fd5b505050979650505050505050565b60008060008342811015610860576040805162461bcd60e51b8152602060048201526018602482015277155b9a5cddd85c158c949bdd5d195c8e881156141254915160421b604482015290519081900360640190fd5b8b896108c78d3483806108735785610895565b7f00000000000000000000000000000000000000000000000000000000000000005b856108c0577f00000000000000000000000000000000000000000000000000000000000000006108c2565b865b611c6d565b90965094508d91508a90506000610936826108e25783610904565b7f00000000000000000000000000000000000000000000000000000000000000005b8361092f577f0000000000000000000000000000000000000000000000000000000000000000610931565b845b611c0e565b905061095083338385610949578a61094b565b895b611cb0565b7f00000000000000000000000000000000000000000000000000000000000000006001600160a01b031663d0e30db08361098a578761098c565b885b6040518263ffffffff1660e01b81526004016000604051808303818588803b1580156109b757600080fd5b505af11580156109cb573d6000803e3d6000fd5b50505050507f00000000000000000000000000000000000000000000000000000000000000006001600160a01b031663a9059cbb8284610a0b5788610a0d565b895b6040518363ffffffff1660e01b815260040180836001600160a01b03166001600160a01b0316815260200182815260200192505050602060405180830381600087803b158015610a5c57600080fd5b505af1158015610a70573d6000803e3d6000fd5b505050506040513d6020811015610a8657600080fd5b5051610a8e57fe5b604080516319e6ef2760e11b81526001600160a01b038c811660048301528d151560248301529151918316916333cdde4e916044808201926020929091908290030181600087803b158015610ae257600080fd5b505af1158015610af6573d6000803e3d6000fd5b505050506040513d6020811015610b0c57600080fd5b505194508c851015610b65576040805162461bcd60e51b815260206004820152601960248201527f5a50523a204e6f7420656e6f756768206c697175696469747900000000000000604482015290519081900360640190fd5b50505088610b735782610b75565b835b341115610b9457610b94338a610b8b5784610b8d565b855b3403611e0d565b6001600160a01b03861615610bad57610bad8683611f05565b50985098509895505050505050565b6000808242811015610c10576040805162461bcd60e51b8152602060048201526018602482015277155b9a5cddd85c158c949bdd5d195c8e881156141254915160421b604482015290519081900360640190fd5b600086610c1d5788610c3f565b7f00000000000000000000000000000000000000000000000000000000000000005b9050600087610c6e577f0000000000000000000000000000000000000000000000000000000000000000610c70565b895b90506000610c7e838361209d565b91505088610c8c5789610c8e565b345b955088610c9b5734610c9d565b895b9450610cab8b33838d611cb0565b7f00000000000000000000000000000000000000000000000000000000000000006001600160a01b031663d0e30db0346040518263ffffffff1660e01b81526004016000604051808303818588803b158015610d0657600080fd5b505af1158015610d1a573d6000803e3d6000fd5b50506040805163a9059cbb60e01b81526001600160a01b03868116600483015234602483015291517f0000000000000000000000000000000000000000000000000000000000000000909216945063a9059cbb935060448082019350602092918290030181600087803b158015610d9057600080fd5b505af1158015610da4573d6000803e3d6000fd5b505050506040513d6020811015610dba57600080fd5b5051610dc257fe5b60408051633ca5007160e21b81526001600160a01b038a8116600483015282519084169263f29401c492602480820193918290030181600087803b158015610e0957600080fd5b505af1158015610e1d573d6000803e3d6000fd5b505050506040513d6040811015610e3357600080fd5b50959b949a509398505050505050505050565b7f000000000000000000000000000000000000000000000000000000000000000081565b6000808242811015610ebe576040805162461bcd60e51b8152602060048201526018602482015277155b9a5cddd85c158c949bdd5d195c8e881156141254915160421b604482015290519081900360640190fd5b6000610eca8a8a61209d565b915050879350869250610edf8a338387611cb0565b610eeb89338386611cb0565b60408051633ca5007160e21b81526001600160a01b03888116600483015282519084169263f29401c492602480820193918290030181600087803b158015610f3257600080fd5b505af1158015610f46573d6000803e3d6000fd5b505050506040513d6040811015610f5c57600080fd5b50939a92995091975050505050505050565b6000808242811015610fc2576040805162461bcd60e51b8152602060048201526018602482015277155b9a5cddd85c158c949bdd5d195c8e881156141254915160421b604482015290519081900360640190fd5b6000610fce8c8c611c0e565b905060007f00000000000000000000000000000000000000000000000000000000000000006001600160a01b031663fad51a9a838a61100d578f61100f565b8e5b6040518363ffffffff1660e01b815260040180836001600160a01b03166001600160a01b03168152602001826001600160a01b03166001600160a01b031681526020019250505060206040518083038186803b15801561106e57600080fd5b505afa158015611082573d6000803e3d6000fd5b505050506040513d602081101561109857600080fd5b5051604080516323b872dd60e01b81523360048201526001600160a01b038581166024830152604482018f90529151929350908316916323b872dd916064808201926020929091908290030181600087803b1580156110f657600080fd5b505af115801561110a573d6000803e3d6000fd5b505050506040513d602081101561112057600080fd5b5050604080517fc561cf4f0000000000000000000000000000000000000000000000000000000081526001600160a01b0389811660048301528a1515602483015282519085169263c561cf4f92604480820193918290030181600087803b15801561118a57600080fd5b505af115801561119e573d6000803e3d6000fd5b505050506040513d60408110156111b457600080fd5b5080516020909101519095509350898510156112015760405162461bcd60e51b81526004018080602001828103825260268152602001806131206026913960400191505060405180910390fd5b888410156112405760405162461bcd60e51b81526004018080602001828103825260268152602001806130896026913960400191505060405180910390fd5b5050509850989650505050505050565b60008082428110156112a4576040805162461bcd60e51b8152602060048201526018602482015277155b9a5cddd85c158c949bdd5d195c8e881156141254915160421b604482015290519081900360640190fd5b6112ae8b8b6123cc565b88925060006112bd8c8c611c0e565b90506112d7886112cd578c6112cf565b8b5b338387611cb0565b604080516346a3871160e11b81526001600160a01b0389811660048301528a15156024830152915191831691638d470e22916044808201926020929091908290030181600087803b15801561132b57600080fd5b505af115801561133f573d6000803e3d6000fd5b505050506040513d602081101561135557600080fd5b50519250888310156113ae576040805162461bcd60e51b815260206004820152601960248201527f5a50523a204e6f7420656e6f756768206c697175696469747900000000000000604482015290519081900360640190fd5b6001600160a01b038616156113c7576113c78684611f05565b50509850989650505050505050565b60008142811015611429576040805162461bcd60e51b8152602060048201526018602482015277155b9a5cddd85c158c949bdd5d195c8e881156141254915160421b604482015290519081900360640190fd5b6000341161147e576040805162461bcd60e51b815260206004820152600f60248201527f5a50523a205a45524f2d56414c55450000000000000000000000000000000000604482015290519081900360640190fd5b60008761148b57886114ad565b7f00000000000000000000000000000000000000000000000000000000000000005b90506000886114dc577f00000000000000000000000000000000000000000000000000000000000000006114de565b895b90506114ea82826123cc565b60006114f68383611c0e565b90507f00000000000000000000000000000000000000000000000000000000000000006001600160a01b031663d0e30db0346040518263ffffffff1660e01b81526004016000604051808303818588803b15801561155357600080fd5b505af1158015611567573d6000803e3d6000fd5b50506040805163a9059cbb60e01b81526001600160a01b03868116600483015234602483015291517f0000000000000000000000000000000000000000000000000000000000000000909216945063a9059cbb935060448082019350602092918290030181600087803b1580156115dd57600080fd5b505af11580156115f1573d6000803e3d6000fd5b505050506040513d602081101561160757600080fd5b505161160f57fe5b604080516346a3871160e11b81526001600160a01b038a811660048301528c156024830152915191831691638d470e22916044808201926020929091908290030181600087803b15801561166257600080fd5b505af1158015611676573d6000803e3d6000fd5b505050506040513d602081101561168c57600080fd5b50519450888510156116e5576040805162461bcd60e51b815260206004820152601960248201527f5a50523a204e6f7420656e6f756768206c697175696469747900000000000000604482015290519081900360640190fd5b6001600160a01b038716156116fe576116fe8786611f05565b505050509695505050505050565b7f000000000000000000000000000000000000000000000000000000000000000081565b7f000000000000000000000000000000000000000000000000000000000000000081565b600081428110156117a7576040805162461bcd60e51b8152602060048201526018602482015277155b9a5cddd85c158c949bdd5d195c8e881156141254915160421b604482015290519081900360640190fd5b6000806117b68d8d8d8d612668565b9150915060006117c88e8e85856129a0565b604080516319e6ef2760e11b81526001600160a01b038b811660048301528c151560248301529151929350908316916333cdde4e916044808201926020929091908290030181600087803b15801561181f57600080fd5b505af1158015611833573d6000803e3d6000fd5b505050506040513d602081101561184957600080fd5b50519450898510156118a2576040805162461bcd60e51b815260206004820152601960248201527f5a50523a204e6f7420656e6f756768206c697175696469747900000000000000604482015290519081900360640190fd5b6001600160a01b038716156118bb576118bb8786611f05565b505050509998505050505050505050565b6000808242811015611920576040805162461bcd60e51b8152602060048201526018602482015277155b9a5cddd85c158c949bdd5d195c8e881156141254915160421b604482015290519081900360640190fd5b60008061198d8915611952577f0000000000000000000000000000000000000000000000000000000000000000611954565b8d5b8a15611960578e611982565b7f00000000000000000000000000000000000000000000000000000000000000005b8e8e8e8d308d610f6e565b91509150881561199d578061199f565b815b945088156119ad57816119af565b805b935050506119be8b86856129ce565b7f00000000000000000000000000000000000000000000000000000000000000006001600160a01b0316632e1a7d4d836040518263ffffffff1660e01b815260040180828152602001915050600060405180830381600087803b158015611a2457600080fd5b505af1158015611a38573d6000803e3d6000fd5b50505050611a468583611e0d565b509850989650505050505050565b60008142811015611aa7576040805162461bcd60e51b8152602060048201526018602482015277155b9a5cddd85c158c949bdd5d195c8e881156141254915160421b604482015290519081900360640190fd5b600086611ab45789611ad6565b7f00000000000000000000000000000000000000000000000000000000000000005b9050600087611b05577f0000000000000000000000000000000000000000000000000000000000000000611b07565b8a5b9050611b3f82828c8c8b8d8015611b1b57508c5b80611b2d57508c158015611b2d57508d155b611b375730611b39565b8b5b8b61056f565b9350878015611b4c575086155b80611b5d5750868015611b5d575087155b156107fc577f00000000000000000000000000000000000000000000000000000000000000006001600160a01b0316632e1a7d4d856040518263ffffffff1660e01b815260040180828152602001915050600060405180830381600087803b158015611bc857600080fd5b505af1158015611bdc573d6000803e3d6000fd5b505050506107fc8685611e0d565b7f000000000000000000000000000000000000000000000000000000000000000081565b6000611c667f00000000000000000000000000000000000000000000000000000000000000008484611c617f00000000000000000000000000000000000000000000000000000000000000008888612b1b565b612bf3565b9392505050565b60008060008515611c7e5786611c80565b875b905060008615611c905788611c92565b875b9050611ca086868484612668565b909a909950975050505050505050565b604080516001600160a01b0385811660248301528481166044830152606480830185905283518084039091018152608490920183526020820180516001600160e01b03166323b872dd60e01b17815292518251600094606094938a169392918291908083835b60208310611d355780518252601f199092019160209182019101611d16565b6001836020036101000a0380198251168184511680821785525050505050509050019150506000604051808303816000865af19150503d8060008114611d97576040519150601f19603f3d011682016040523d82523d6000602084013e611d9c565b606091505b5091509150818015611dca575080511580611dca5750808060200190516020811015611dc757600080fd5b50515b611e055760405162461bcd60e51b8152600401808060200182810382526031815260200180612fff6031913960400191505060405180910390fd5b505050505050565b604080516000808252602082019092526001600160a01b0384169083906040518082805190602001908083835b60208310611e595780518252601f199092019160209182019101611e3a565b6001836020036101000a03801982511681845116808217855250505050505090500191505060006040518083038185875af1925050503d8060008114611ebb576040519150601f19603f3d011682016040523d82523d6000602084013e611ec0565b606091505b5050905080611f005760405162461bcd60e51b81526004018080602001828103825260348152602001806130306034913960400191505060405180910390fd5b505050565b604080518082018252601681527f726f757465724465706f7369742875696e74323536290000000000000000000060209182015281516024808201859052835180830390910181526044909101835290810180516001600160e01b03167f462293a300000000000000000000000000000000000000000000000000000000178152915181516000936060936001600160a01b038816939092909182918083835b60208310611fc45780518252601f199092019160209182019101611fa5565b6001836020036101000a0380198251168184511680821785525050505050509050019150506000604051808303816000865af19150503d8060008114612026576040519150601f19603f3d011682016040523d82523d6000602084013e61202b565b606091505b509150915081612097578051156120455780518082602001fd5b81612097576040805162461bcd60e51b815260206004820152600f60248201527f5a503a204641524d5f4641494c45440000000000000000000000000000000000604482015290519081900360640190fd5b50505050565b6000807f00000000000000000000000000000000000000000000000000000000000000006001600160a01b031663e6a4390585856040518363ffffffff1660e01b815260040180836001600160a01b03166001600160a01b03168152602001826001600160a01b03166001600160a01b031681526020019250505060206040518083038186803b15801561213057600080fd5b505afa158015612144573d6000803e3d6000fd5b505050506040513d602081101561215a57600080fd5b505191506001600160a01b03821661225157604080517f76f797380000000000000000000000000000000000000000000000000000000081526001600160a01b03868116600483015285811660248301527f00000000000000000000000000000000000000000000000000000000000000008116604483015291517f0000000000000000000000000000000000000000000000000000000000000000909216916376f79738916064808201926020929091908290030181600087803b15801561222257600080fd5b505af1158015612236573d6000803e3d6000fd5b505050506040513d602081101561224c57600080fd5b505191505b60408051630e0f297360e01b81526001600160a01b038681166004830152858116602483015291517f000000000000000000000000000000000000000000000000000000000000000090921691630e0f297391604480820192602092909190829003018186803b1580156122c457600080fd5b505afa1580156122d8573d6000803e3d6000fd5b505050506040513d60208110156122ee57600080fd5b505190506001600160a01b0381166123c557604080517f79281abe0000000000000000000000000000000000000000000000000000000081526001600160a01b0384811660048301528681166024830152858116604483015291517f0000000000000000000000000000000000000000000000000000000000000000909216916379281abe916064808201926020929091908290030181600087803b15801561239657600080fd5b505af11580156123aa573d6000803e3d6000fd5b505050506040513d60208110156123c057600080fd5b505190505b9250929050565b818160007f00000000000000000000000000000000000000000000000000000000000000006001600160a01b031663e6a4390584846040518363ffffffff1660e01b815260040180836001600160a01b03166001600160a01b03168152602001826001600160a01b03166001600160a01b031681526020019250505060206040518083038186803b15801561246057600080fd5b505afa158015612474573d6000803e3d6000fd5b505050506040513d602081101561248a57600080fd5b505190506001600160a01b0381166124e9576040805162461bcd60e51b815260206004820152601560248201527f5a50523a2050616972204e6f7420437265617465640000000000000000000000604482015290519081900360640190fd5b60408051630e0f297360e01b81526001600160a01b038581166004830152848116602483015291516000927f00000000000000000000000000000000000000000000000000000000000000001691630e0f2973916044808301926020929190829003018186803b15801561255c57600080fd5b505afa158015612570573d6000803e3d6000fd5b505050506040513d602081101561258657600080fd5b50516001600160a01b031614156125e4576040805162461bcd60e51b815260206004820152601660248201527f5a50523a2050796c6f6e206e6f74206372656174656400000000000000000000604482015290519081900360640190fd5b6126107f0000000000000000000000000000000000000000000000000000000000000000848484612cbd565b612661576040805162461bcd60e51b815260206004820152601a60248201527f5a50523a2050796c6f6e204e6f7420496e697469616c697a6564000000000000604482015290519081900360640190fd5b5050505050565b600080858560007f00000000000000000000000000000000000000000000000000000000000000006001600160a01b031663e6a4390584846040518363ffffffff1660e01b815260040180836001600160a01b03166001600160a01b03168152602001826001600160a01b03166001600160a01b031681526020019250505060206040518083038186803b1580156126ff57600080fd5b505afa158015612713573d6000803e3d6000fd5b505050506040513d602081101561272957600080fd5b505190506001600160a01b038116612788576040805162461bcd60e51b815260206004820152601560248201527f5a50523a2050616972204e6f7420437265617465640000000000000000000000604482015290519081900360640190fd5b60408051630e0f297360e01b81526001600160a01b038581166004830152848116602483015291516000927f00000000000000000000000000000000000000000000000000000000000000001691630e0f2973916044808301926020929190829003018186803b1580156127fb57600080fd5b505afa15801561280f573d6000803e3d6000fd5b505050506040513d602081101561282557600080fd5b50516001600160a01b03161415612883576040805162461bcd60e51b815260206004820152601660248201527f5a50523a2050796c6f6e206e6f74206372656174656400000000000000000000604482015290519081900360640190fd5b6128af7f0000000000000000000000000000000000000000000000000000000000000000848484612cbd565b612900576040805162461bcd60e51b815260206004820152601a60248201527f5a50523a2050796c6f6e204e6f7420496e697469616c697a6564000000000000604482015290519081900360640190fd5b60008061292e7f00000000000000000000000000000000000000000000000000000000000000008c8c612d3b565b91509150816000148015612940575080155b1561295057889650879550612992565b600061295d8a8484612e09565b905088811161297157899750955085612990565b600061297e8a8486612e09565b90508a81111561298a57fe5b97508896505b505b505050505094509492505050565b60006129ac8585611c0e565b90506129ba85338386611cb0565b6129c684338385611cb0565b949350505050565b604080516001600160a01b038481166024830152604480830185905283518084039091018152606490920183526020820180516001600160e01b031663a9059cbb60e01b178152925182516000946060949389169392918291908083835b60208310612a4b5780518252601f199092019160209182019101612a2c565b6001836020036101000a0380198251168184511680821785525050505050509050019150506000604051808303816000865af19150503d8060008114612aad576040519150601f19603f3d011682016040523d82523d6000602084013e612ab2565b606091505b5091509150818015612ae0575080511580612ae05750808060200190516020811015612add57600080fd5b50515b6126615760405162461bcd60e51b815260040180806020018281038252602d815260200180613146602d913960400191505060405180910390fd5b6000806000612b2a8585612eb5565b604080516bffffffffffffffffffffffff19606094851b811660208084019190915293851b81166034830152825160288184030181526048830184528051908501207fff0000000000000000000000000000000000000000000000000000000000000060688401529a90941b9093166069840152607d8301989098527ffba3b609147954cd9974c0861e37826e73a93045eed5dacff6c1bd2e5a4d1c0d609d808401919091528851808403909101815260bd909201909752805196019590952095945050505050565b604080516bffffffffffffffffffffffff19606095861b811660208084019190915294861b8116603483015292851b831660488201528151603c818303018152605c820183528051908501207fff00000000000000000000000000000000000000000000000000000000000000607c8301529590941b909116607d84015260918301939093527fbc14739d9e3a534adaa23ec7ee2d2bd78805be36b56798919f77e6536b981ae660b1808401919091528351808403909101815260d1909201909252805191012090565b6000612ccb85858585612bf3565b6001600160a01b031663158ef93e6040518163ffffffff1660e01b815260040160206040518083038186803b158015612d0357600080fd5b505afa158015612d17573d6000803e3d6000fd5b505050506040513d6020811015612d2d57600080fd5b505160011495945050505050565b6000806000612d4a8585612eb5565b509050600080612d5b888888612b1b565b6001600160a01b0316630902f1ac6040518163ffffffff1660e01b815260040160606040518083038186803b158015612d9357600080fd5b505afa158015612da7573d6000803e3d6000fd5b505050506040513d6060811015612dbd57600080fd5b5080516020909101516dffffffffffffffffffffffffffff91821693501690506001600160a01b0387811690841614612df7578082612dfa565b81815b90999098509650505050505050565b6000808411612e495760405162461bcd60e51b81526004018080602001828103825260258152602001806130fb6025913960400191505060405180910390fd5b600083118015612e595750600082115b612e945760405162461bcd60e51b81526004018080602001828103825260288152602001806130d36028913960400191505060405180910390fd5b82612ea5858463ffffffff612f8c16565b81612eac57fe5b04949350505050565b600080826001600160a01b0316846001600160a01b03161415612f095760405162461bcd60e51b81526004018080602001828103825260258152602001806130646025913960400191505060405180910390fd5b826001600160a01b0316846001600160a01b031610612f29578284612f2c565b83835b90925090506001600160a01b0382166123c5576040805162461bcd60e51b815260206004820152601e60248201527f556e697377617056324c6962726172793a205a45524f5f414444524553530000604482015290519081900360640190fd5b6000811580612fa757505080820282828281612fa457fe5b04145b612ff8576040805162461bcd60e51b815260206004820152601460248201527f64732d6d6174682d6d756c2d6f766572666c6f77000000000000000000000000604482015290519081900360640190fd5b9291505056fe5472616e7366657248656c7065723a3a7472616e7366657246726f6d3a207472616e7366657246726f6d206661696c65645472616e7366657248656c7065723a3a736166655472616e736665724554483a20455448207472616e73666572206661696c6564556e697377617056324c6962726172793a204944454e544943414c5f414444524553534553556e69737761705632526f757465723a20494e53554646494349454e545f425f414d4f554e54556e69737761705632526f757465723a20494e53554646494349454e545f414d4f554e54556e697377617056324c6962726172793a20494e53554646494349454e545f4c4951554944495459556e697377617056324c6962726172793a20494e53554646494349454e545f414d4f554e54556e69737761705632526f757465723a20494e53554646494349454e545f415f414d4f554e545472616e7366657248656c7065723a3a736166655472616e736665723a207472616e73666572206661696c6564a26469706673582212207fffa47f16eff0bcc71fd9643b91e2ba44e1aa49e7da3cdf9a08f5994889ccbf64736f6c63430006060033",
  "linkReferences": {},
  "deployedLinkReferences": {}
}