{
  "_format": "hh-sol-artifact-1",
  "contractName": "ZirconPylonFactory",
  "sourceName": "contracts/ZirconPylonFactory.sol",
  "abi": [
    {
      "inputs": [
        {
          "internalType": "address",
          "name": "_factory",
          "type": "address"
        },
        {
          "internalType": "address",
          "name": "_energyFactory",
          "type": "address"
        },
        {
          "internalType": "address",
          "name": "_ptFactory",
          "type": "address"
        },
        {
          "internalType": "address",
          "name": "_feeToSetter",
          "type": "address"
        },
        {
          "internalType": "address",
          "name": "_migrator",
          "type": "address"
        }
      ],
      "payable": false,
      "stateMutability": "nonpayable",
      "type": "constructor"
    },
    {
      "anonymous": false,
      "inputs": [
        {
          "indexed": true,
          "internalType": "address",
          "name": "token0",
          "type": "address"
        },
        {
          "indexed": true,
          "internalType": "address",
          "name": "token1",
          "type": "address"
        },
        {
          "indexed": false,
          "internalType": "address",
          "name": "poolToken0",
          "type": "address"
        },
        {
          "indexed": false,
          "internalType": "address",
          "name": "poolToken1",
          "type": "address"
        },
        {
          "indexed": false,
          "internalType": "address",
          "name": "pylon",
          "type": "address"
        },
        {
          "indexed": false,
          "internalType": "address",
          "name": "pair",
          "type": "address"
        }
      ],
      "name": "PylonCreated",
      "type": "event"
    },
    {
      "constant": true,
      "inputs": [],
      "name": "EMASamples",
      "outputs": [
        {
          "internalType": "uint256",
          "name": "",
          "type": "uint256"
        }
      ],
      "payable": false,
      "stateMutability": "view",
      "type": "function"
    },
    {
      "constant": false,
      "inputs": [
        {
          "internalType": "address",
          "name": "_pairAddress",
          "type": "address"
        },
        {
          "internalType": "address",
          "name": "_tokenA",
          "type": "address"
        },
        {
          "internalType": "address",
          "name": "_tokenB",
          "type": "address"
        }
      ],
      "name": "addPylon",
      "outputs": [
        {
          "internalType": "address",
          "name": "pylonAddress",
          "type": "address"
        }
      ],
      "payable": false,
      "stateMutability": "nonpayable",
      "type": "function"
    },
    {
      "constant": false,
      "inputs": [
        {
          "internalType": "address",
          "name": "_pairAddress",
          "type": "address"
        },
        {
          "internalType": "address",
          "name": "_tokenA",
          "type": "address"
        },
        {
          "internalType": "address",
          "name": "_tokenB",
          "type": "address"
        },
        {
          "internalType": "address",
          "name": "floatPTAddress",
          "type": "address"
        },
        {
          "internalType": "address",
          "name": "anchorPTAddress",
          "type": "address"
        }
      ],
      "name": "addPylonCustomPT",
      "outputs": [
        {
          "internalType": "address",
          "name": "pylonAddress",
          "type": "address"
        }
      ],
      "payable": false,
      "stateMutability": "nonpayable",
      "type": "function"
    },
    {
      "constant": true,
      "inputs": [
        {
          "internalType": "uint256",
          "name": "",
          "type": "uint256"
        }
      ],
      "name": "allPylons",
      "outputs": [
        {
          "internalType": "address",
          "name": "",
          "type": "address"
        }
      ],
      "payable": false,
      "stateMutability": "view",
      "type": "function"
    },
    {
      "constant": true,
      "inputs": [],
      "name": "allPylonsLength",
      "outputs": [
        {
          "internalType": "uint256",
          "name": "",
          "type": "uint256"
        }
      ],
      "payable": false,
      "stateMutability": "view",
      "type": "function"
    },
    {
      "constant": false,
      "inputs": [
        {
          "internalType": "address",
          "name": "_newEnergyRev",
          "type": "address"
        },
        {
          "internalType": "address",
          "name": "_pylonAddress",
          "type": "address"
        },
        {
          "internalType": "address",
          "name": "_pairAddress",
          "type": "address"
        },
        {
          "internalType": "address",
          "name": "_tokenA",
          "type": "address"
        },
        {
          "internalType": "address",
          "name": "_tokenB",
          "type": "address"
        }
      ],
      "name": "changeEnergyAddress",
      "outputs": [
        {
          "internalType": "address",
          "name": "energy",
          "type": "address"
        }
      ],
      "payable": false,
      "stateMutability": "nonpayable",
      "type": "function"
    },
    {
      "constant": false,
      "inputs": [
        {
          "internalType": "address",
          "name": "_newEnergyFactory",
          "type": "address"
        }
      ],
      "name": "changeEnergyFactoryAddress",
      "outputs": [],
      "payable": false,
      "stateMutability": "nonpayable",
      "type": "function"
    },
    {
      "constant": true,
      "inputs": [],
      "name": "deltaGammaMinFee",
      "outputs": [
        {
          "internalType": "uint256",
          "name": "",
          "type": "uint256"
        }
      ],
      "payable": false,
      "stateMutability": "view",
      "type": "function"
    },
    {
      "constant": true,
      "inputs": [],
      "name": "deltaGammaThreshold",
      "outputs": [
        {
          "internalType": "uint256",
          "name": "",
          "type": "uint256"
        }
      ],
      "payable": false,
      "stateMutability": "view",
      "type": "function"
    },
    {
      "constant": true,
      "inputs": [],
      "name": "energyFactory",
      "outputs": [
        {
          "internalType": "address",
          "name": "",
          "type": "address"
        }
      ],
      "payable": false,
      "stateMutability": "view",
      "type": "function"
    },
    {
      "constant": true,
      "inputs": [],
      "name": "factory",
      "outputs": [
        {
          "internalType": "address",
          "name": "",
          "type": "address"
        }
      ],
      "payable": false,
      "stateMutability": "view",
      "type": "function"
    },
    {
      "constant": true,
      "inputs": [
        {
          "internalType": "address",
          "name": "",
          "type": "address"
        },
        {
          "internalType": "address",
          "name": "",
          "type": "address"
        }
      ],
      "name": "getPylon",
      "outputs": [
        {
          "internalType": "address",
          "name": "",
          "type": "address"
        }
      ],
      "payable": false,
      "stateMutability": "view",
      "type": "function"
    },
    {
      "constant": true,
      "inputs": [],
      "name": "maximumPercentageSync",
      "outputs": [
        {
          "internalType": "uint256",
          "name": "",
          "type": "uint256"
        }
      ],
      "payable": false,
      "stateMutability": "view",
      "type": "function"
    },
    {
      "constant": false,
      "inputs": [
        {
          "internalType": "address",
          "name": "_oldPylon",
          "type": "address"
        },
        {
          "internalType": "address",
          "name": "_newPylon",
          "type": "address"
        }
      ],
      "name": "migrateLiquidity",
      "outputs": [],
      "payable": false,
      "stateMutability": "nonpayable",
      "type": "function"
    },
    {
      "constant": true,
      "inputs": [],
      "name": "muChangeFactor",
      "outputs": [
        {
          "internalType": "uint256",
          "name": "",
          "type": "uint256"
        }
      ],
      "payable": false,
      "stateMutability": "view",
      "type": "function"
    },
    {
      "constant": true,
      "inputs": [],
      "name": "muUpdatePeriod",
      "outputs": [
        {
          "internalType": "uint256",
          "name": "",
          "type": "uint256"
        }
      ],
      "payable": false,
      "stateMutability": "view",
      "type": "function"
    },
    {
      "constant": true,
      "inputs": [],
      "name": "oracleUpdateSecs",
      "outputs": [
        {
          "internalType": "uint256",
          "name": "",
          "type": "uint256"
        }
      ],
      "payable": false,
      "stateMutability": "view",
      "type": "function"
    },
    {
      "constant": true,
      "inputs": [],
      "name": "paused",
      "outputs": [
        {
          "internalType": "bool",
          "name": "",
          "type": "bool"
        }
      ],
      "payable": false,
      "stateMutability": "view",
      "type": "function"
    },
    {
      "constant": false,
      "inputs": [
        {
          "internalType": "address",
          "name": "_feeToSetter",
          "type": "address"
        }
      ],
      "name": "setFeeToSetter",
      "outputs": [],
      "payable": false,
      "stateMutability": "nonpayable",
      "type": "function"
    },
    {
      "constant": false,
      "inputs": [
        {
          "internalType": "uint256",
          "name": "_maximumPercentageSync",
          "type": "uint256"
        },
        {
          "internalType": "uint256",
          "name": "_deltaGammaThreshold",
          "type": "uint256"
        },
        {
          "internalType": "uint256",
          "name": "_deltaGammaMinFee",
          "type": "uint256"
        },
        {
          "internalType": "uint256",
          "name": "_muUpdatePeriod",
          "type": "uint256"
        },
        {
          "internalType": "uint256",
          "name": "_muChangeFactor",
          "type": "uint256"
        },
        {
          "internalType": "uint256",
          "name": "_EMASamples",
          "type": "uint256"
        },
        {
          "internalType": "uint256",
          "name": "_oracleUpdate",
          "type": "uint256"
        }
      ],
      "name": "setFees",
      "outputs": [],
      "payable": false,
      "stateMutability": "nonpayable",
      "type": "function"
    },
    {
      "constant": false,
      "inputs": [
        {
          "internalType": "address",
          "name": "_migrator",
          "type": "address"
        }
      ],
      "name": "setMigrator",
      "outputs": [],
      "payable": false,
      "stateMutability": "nonpayable",
      "type": "function"
    },
    {
      "constant": false,
      "inputs": [
        {
          "internalType": "bool",
          "name": "_paused",
          "type": "bool"
        }
      ],
      "name": "setPaused",
      "outputs": [],
      "payable": false,
      "stateMutability": "nonpayable",
      "type": "function"
    },
    {
      "constant": false,
      "inputs": [
        {
          "internalType": "address",
          "name": "_pylon",
          "type": "address"
        },
        {
          "internalType": "uint256",
          "name": "_gamma",
          "type": "uint256"
        },
        {
          "internalType": "uint256",
          "name": "_vab",
          "type": "uint256"
        },
        {
          "internalType": "bool",
          "name": "_formulaSwitch",
          "type": "bool"
        }
      ],
      "name": "startPylon",
      "outputs": [],
      "payable": false,
      "stateMutability": "nonpayable",
      "type": "function"
    }
  ],
  "bytecode": "0x608060405234801561001057600080fd5b50604051616076380380616076833981810160405260a081101561003357600080fd5b508051602082015160408301516060840151608090940151600280546001600160a01b03199081166001600160a01b03968716178255600480548216958716959095179094556003805485169386169390931783556005805485169686169690961790955560068054600a6007819055668e1bc9bf0400006008556064600955969096556078600b5560f0600c55600d9290925593909116919092161760ff60a01b19169055615f8e806100e86000396000f3fe608060405234801561001057600080fd5b506004361061011d5760003560e01c80630e0f29731461012257806316c38b3c1461016c57806317d1ff9f1461018d5780631b63e01a1461019557806323cf3118146101cf5780632be90b32146101f5578063320a55721461020f5780635942f95e146102355780635c975abb1461023d57806362c0bfe8146102595780636c0fb018146102a157806379281abe146102a957806379459801146102e1578063a2e74af6146102e9578063a3ad52b81461030f578063afc3743f14610317578063b1c419e214610334578063c0972f7a1461033c578063c45a015514610344578063da2e3bad1461034c578063dc2c1e991461038d578063ed6b92cd146103bb578063fd0d6ec6146103c3575b600080fd5b6101506004803603604081101561013857600080fd5b506001600160a01b038135811691602001351661040b565b604080516001600160a01b039092168252519081900360200190f35b61018b6004803603602081101561018257600080fd5b5035151561042e565b005b610150610454565b61018b600480360360808110156101ab57600080fd5b506001600160a01b0381351690602081013590604081013590606001351515610463565b61018b600480360360208110156101e557600080fd5b50356001600160a01b03166104e0565b6101fd61050a565b60408051918252519081900360200190f35b61018b6004803603602081101561022557600080fd5b50356001600160a01b0316610510565b6101fd61053a565b610245610540565b604080519115158252519081900360200190f35b610150600480360360a081101561026f57600080fd5b506001600160a01b03813581169160208101358216916040820135811691606081013582169160809091013516610550565b6101fd6106fd565b610150600480360360608110156102bf57600080fd5b506001600160a01b038135811691602081013582169160409091013516610703565b6101fd6109d9565b61018b600480360360208110156102ff57600080fd5b50356001600160a01b03166109df565b6101fd610a09565b6101506004803603602081101561032d57600080fd5b5035610a0f565b6101fd610a36565b6101fd610a3c565b610150610a42565b61018b600480360360e081101561036257600080fd5b5080359060208101359060408101359060608101359060808101359060a08101359060c00135610a51565b61018b600480360360408110156103a357600080fd5b506001600160a01b0381358116916020013516610a79565b6101fd610af5565b610150600480360360a08110156103d957600080fd5b506001600160a01b03813581169160208101358216916040820135811691606081013582169160809091013516610afb565b60006020818152928152604080822090935290815220546001600160a01b031681565b610436610bda565b60068054911515600160a01b0260ff60a01b19909216919091179055565b6004546001600160a01b031681565b61046b610c24565b6040805163cb84b76560e01b81526004810185905260248101849052821515604482015290516001600160a01b0386169163cb84b76591606480830192600092919082900301818387803b1580156104c257600080fd5b505af11580156104d6573d6000803e3d6000fd5b5050505050505050565b6104e8610c24565b600680546001600160a01b0319166001600160a01b0392909216919091179055565b60095481565b610518610c24565b600480546001600160a01b0319166001600160a01b0392909216919091179055565b60085481565b600654600160a01b900460ff1681565b600061055a610c24565b600480546040805163f732ff4b60e01b81526001600160a01b038781169482019490945285841660248201529051929091169163f732ff4b91604480820192602092909190829003018186803b1580156105b357600080fd5b505afa1580156105c7573d6000803e3d6000fd5b505050506040513d60208110156105dd57600080fd5b505190506001600160a01b03811661068957600480546040805163245cb9e160e21b81526001600160a01b038981169482019490945287841660248201528684166044820152858416606482015290519290911691639172e784916084808201926020929091908290030181600087803b15801561065a57600080fd5b505af115801561066e573d6000803e3d6000fd5b505050506040513d602081101561068457600080fd5b505190505b60408051638aa9614960e01b81526001600160a01b0383811660048301528881166024830152915191871691638aa961499160448082019260009290919082900301818387803b1580156106dc57600080fd5b505af11580156106f0573d6000803e3d6000fd5b5050505095945050505050565b60015490565b6000816001600160a01b0316836001600160a01b03161415610755576040805162461bcd60e51b81526020600482015260066024820152655a463a20494160d01b604482015290519081900360640190fd5b6001600160a01b03838116600090815260208181526040808320868516845290915290205416156107b6576040805162461bcd60e51b81526020600482015260066024820152655a463a20504560d01b604482015290519081900360640190fd5b6107c1838386610c6c565b6003546040805162f3d1d760e51b81526001600160a01b038781166004830152808516602483015291519394506000939190921691631e7a3ae091604480830192602092919082900301818787803b15801561081c57600080fd5b505af1158015610830573d6000803e3d6000fd5b505050506040513d602081101561084657600080fd5b50516003546040805162f3d1d760e51b81526001600160a01b038781166004830152868116602483015291519394506000939190921691631e7a3ae091604480830192602092919082900301818787803b1580156108a357600080fd5b505af11580156108b7573d6000803e3d6000fd5b505050506040513d60208110156108cd57600080fd5b505190506108df858584848a88610cf6565b60408051633fb3e5cd60e21b81526001600160a01b0387811660048301528881166024830152858116604483015260006064830181905292519085169263fecf9734926084808201939182900301818387803b15801561093e57600080fd5b505af1158015610952573d6000803e3d6000fd5b505060408051633fb3e5cd60e21b81526001600160a01b0388811660048301528a811660248301528781166044830152600160648301529151918516935063fecf9734925060848082019260009290919082900301818387803b1580156109b857600080fd5b505af11580156109cc573d6000803e3d6000fd5b5050505050509392505050565b600c5481565b6109e7610bda565b600580546001600160a01b0319166001600160a01b0392909216919091179055565b60075481565b60018181548110610a1c57fe5b6000918252602090912001546001600160a01b0316905081565b600b5481565b600d5481565b6002546001600160a01b031681565b610a59610bda565b600796909655600894909455600992909255600c55600d55600a55600b55565b610a81610c24565b816001600160a01b031663438ab5ac826040518263ffffffff1660e01b815260040180826001600160a01b03166001600160a01b03168152602001915050600060405180830381600087803b158015610ad957600080fd5b505af1158015610aed573d6000803e3d6000fd5b505050505050565b600a5481565b6000610b05610c24565b836001600160a01b0316856001600160a01b03161415610b55576040805162461bcd60e51b81526020600482015260066024820152655a463a20494160d01b604482015290519081900360640190fd5b6001600160a01b0385811660009081526020818152604080832088851684529091529020541615610bb6576040805162461bcd60e51b81526020600482015260066024820152655a463a20504560d01b604482015290519081900360640190fd5b610bc1858588610c6c565b9050610bd1858585858a86610cf6565b95945050505050565b6005546001600160a01b03163314610c22576040805162461bcd60e51b81526020600482015260066024820152652d282a1d102360d11b604482015290519081900360640190fd5b565b6006546001600160a01b03163314610c22576040805162461bcd60e51b81526020600482015260066024820152652d282a1d102360d11b604482015290519081900360640190fd5b6000606060405180602001610c8090610f95565b601f1982820381018352601f9091011660408181526001600160601b0319606089811b821660208581019190915289821b831660348601529088901b90911660488401528151603c818503018152605c909301909152815191810191909120825192935091829184016000f59695505050505050565b600480546040805163044209e560e51b81526001600160a01b038a81169482019490945288841660248201529051600093909216916388413ca091604480820192602092909190829003018186803b158015610d5157600080fd5b505afa158015610d65573d6000803e3d6000fd5b505050506040513d6020811015610d7b57600080fd5b5051600480546040805163245cb9e160e21b81526001600160a01b038781169482019490945287841660248201528b841660448201528a8416606482015290519394506000939290911691639172e7849160848082019260209290919082900301818787803b158015610ded57600080fd5b505af1158015610e01573d6000803e3d6000fd5b505050506040513d6020811015610e1757600080fd5b505160025460408051634514f16f60e11b81526001600160a01b038a8116600483015289811660248301528c811660448301528b81166064830152888116608483015292831660a482015282841660c482015285831660e4820152905192935090851691638a29e2de916101048082019260009290919082900301818387803b158015610ea357600080fd5b505af1158015610eb7573d6000803e3d6000fd5b5050604080516001600160a01b038a8116825289811660208301528781168284015288811660608301529151828c169450918c1692507fab83557b3a718996d408afe08287d09bafed3590c7ae61a430d518d3199d4590919081900360800190a350506001600160a01b0395861660009081526020818152604080832097891683529690529485208054969091166001600160a01b0319968716811790915560018054808201825595527fb10e2d527612073b26eecdfd717e6a320cf44b4afac2b0732d9fcbe2b7fa0cf69094018054909516909317909355505050565b614fb780610fa38339019056fe6080604052600060215534801561001557600080fd5b50600580546001600160a01b03191633179055614f80806100376000396000f3fe608060405234801561001057600080fd5b50600436106101545760003560e01c8063053f14da146101595780630a22d5f314610173578063158ef93e146101a1578063192b65d8146101a95780633339dc1a146101b157806333cdde4e146101b9578063438ab5ac146101e75780634a00d16a1461020f5780635d4b592e146102175780638a29e2de1461027f5780638aa96149146102de5780638d470e221461030c5780638ffa32361461033a57806397ed64db146103565780639ab9f3411461035e578063a01de3aa14610366578063a62ef0731461036e578063abaf264914610376578063b70730031461037e578063ba7b3dea14610386578063c548b4c5146103b4578063c561cf4f146103bc578063c9bd59a014610403578063cb84b7651461040b578063cca03acb14610436578063efefd9f91461043e578063f29401c414610446578063fef934921461046c575b600080fd5b610161610474565b60408051918252519081900360200190f35b61017b61047a565b604080516001600160701b03938416815291909216602082015281519081900390910190f35b610161610495565b61016161049b565b6101616104a1565b610161600480360360408110156101cf57600080fd5b506001600160a01b03813516906020013515156104a7565b61020d600480360360208110156101fd57600080fd5b50356001600160a01b0316610a52565b005b610161610ab8565b61025f600480360361010081101561022e57600080fd5b5080359060208101359060408101359060608101359060808101359060a08101359060c08101359060e00135610abe565b604080519384529115156020840152151582820152519081900360600190f35b61020d600480360361010081101561029657600080fd5b506001600160a01b038135811691602081013582169160408201358116916060810135821691608082013581169160a081013582169160c082013581169160e0013516610c2d565b61020d600480360360408110156102f457600080fd5b506001600160a01b0381358116916020013516610e68565b6101616004803603604081101561032257600080fd5b506001600160a01b0381351690602001351515610e9e565b61034261124d565b604080519115158252519081900360200190f35b61016161125d565b610161611263565b610342611269565b610161611272565b610161611278565b61016161127e565b6101616004803603604081101561039c57600080fd5b506001600160a01b0381351690602001351515611284565b6101616114bc565b6103ea600480360360408110156103d257600080fd5b506001600160a01b03813516906020013515156114c2565b6040805192835260208301919091528051918290030190f35b610161611a78565b61020d6004803603606081101561042157600080fd5b50803590602081013590604001351515611a7e565b610161611b87565b610161611b8d565b6103ea6004803603602081101561045c57600080fd5b50356001600160a01b0316611b93565b6101616121fc565b601b5481565b6020546001600160701b0380821692600160701b9092041690565b60215481565b600b5481565b60135481565b60006104b1612202565b6104b9612315565b60008060006104c661047a565b91509150806001600160701b0316600b540392505050600080846104f5576007546001600160a01b0316610502565b6008546001600160a01b03165b905060008060008060008061051561047a565b91509150600080610524612a80565b506001600160701b031691506001600160701b03169150600080610546612b58565b91509150600061056485600080015486028161055e57fe5b04612b92565b905061057f836001600160701b03891663ffffffff612dec16565b61271060028383020204908190039b5098506105b26105a7836001600160701b038916612dec565b826002026001612e42565b9950505050505060008b90506000806105cc6000806130bb565b50909250905089898960008661060957610604856105f38460028a0263ffffffff61317816565b816105fa57fe5b04846002026131db565b610631565b61063186610620856002890263ffffffff61317816565b8161062757fe5b04836002026131db565b90506000610644838701858901026131f1565b905060006106598488018e878b0101026131f1565b9050818111156106b2576000896106735785600202610678565b846002025b9050826106a48b61068e57878b01600202610695565b868a016002025b8585039063ffffffff61317816565b816106ab57fe5b0484019350505b5050866107ba576000806106db600460019054906101000a90046001600160a01b031630613243565b90506000670de0b6b3a76400006011548302816106f457fe5b0489600202838e6001600160701b0316028161070c57fe5b040190506000896002028386028161072057fe5b0490508161073d6107308a6132ce565b839063ffffffff61317816565b8161074457fe5b049350505050809f50868683028161075857fe5b049a50896001600160701b0316670de0b6b3a76400006107866011546002028a61317890919063ffffffff16565b8161078d57fe5b04016107a483600f5461317890919063ffffffff16565b816107ab57fe5b600f8054929091049091019055505b86156107e257600b546107cf610730866132ce565b816107d657fe5b600b805484019055049e505b5050505050505050508597506000806107fc6000806130bb565b509150915061080a8661333b565b6108138561333b565b600254600454610835916001600160a01b039081169161010090041688613379565b600354600454610857916001600160a01b039081169161010090041687613379565b60048054604080516335313c2160e11b81523093810193909352516101009091046001600160a01b031691636a6278429160248083019260209291908290030181600087803b1580156108a957600080fd5b505af11580156108bd573d6000803e3d6000fd5b505050506040513d60208110156108d357600080fd5b50506002546004546108f7916001600160a01b039081169161010090041686613379565b60048054600a54604080516321913af360e11b81523094810194909452600160a01b90910460ff1615156024840152516101009091046001600160a01b03169163432275e69160448083019260609291908290030181600087803b15801561095e57600080fd5b505af1158015610972573d6000803e3d6000fd5b505050506040513d606081101561098857600080fd5b50600090508061099b858286868f6134f7565b915091508015806109a957508c5b6109eb576040805162461bcd60e51b815260206004820152600e60248201526d5a503a205265647563654f6e6c7960901b604482015290519081900360640190fd5b6109f6898f8e613722565b60408051338152602081018a905280820189905290517f9a36e9f82fd3ab4ec26a87598c0f7f4519b7895fa6a0bca1968b486ee019b0829181900360600190a150506004805460ff1916905550979a9950505050505050505050565b610a5a61379f565b600454610a7f9061010090046001600160a01b031682610a7a8230613243565b613379565b600354610a9a906001600160a01b031682610a7a8230613243565b600254610ab5906001600160a01b031682610a7a8230613243565b50565b60105481565b6000808080610ad38c8863ffffffff612dec16565b90506000866000800154870281610ae657fe5b049050610b10604051806040016040528060018152602001600f60fb1b81525060008001546137e9565b6040805163234eca8b60e01b815260006004820181905260248201849052604482018e9052606482018d9052608482018a905260a4820189905260c48201859052915173__$a7d75b79dbad75865e91612b2984d03884$__9163234eca8b9160e4808301926060929190829003018186803b158015610b8e57600080fd5b505af4158015610ba2573d6000803e3d6000fd5b505050506040513d6060811015610bb857600080fd5b5080516020820151604090920151919650909450905060028702610bea82670de0b6b3a764000063ffffffff61317816565b81610bf157fe5b049550610c1c6040518060400160405280600581526020016467616d6d6160d81b815250828961389b565b505050985098509895505050505050565b610c3561379f565b600780546001600160a01b03808b166001600160a01b031992831617909255600880548a84169216919091179055600480548683166101008102610100600160a81b031990921691909117825560408051630dfe168160e01b81529051938a16939192630dfe1681928282019260209290829003018186803b158015610cba57600080fd5b505afa158015610cce573d6000803e3d6000fd5b505050506040513d6020811015610ce457600080fd5b5051600a80546040805180820182526001600160a01b038c81168083528c82166020938401819052600280546001600160a01b031990811684179091556003805482169092179091556006805482168d85161790556009805482168c851617905560ff60a01b1990951696821697909714600160a01b029590951790921693861693909317909155815180830180845263313ce56760e01b9052915191928392909163313ce567916044808601929190818703018186803b158015610da857600080fd5b505afa158015610dbc573d6000803e3d6000fd5b505050506040513d6020811015610dd257600080fd5b505160ff16600a0a81526040805163313ce56760e01b815290516020928301926001600160a01b038a169263313ce5679260048083019392829003018186803b158015610e1e57600080fd5b505afa158015610e32573d6000803e3d6000fd5b505050506040513d6020811015610e4857600080fd5b505160ff16600a0a90528051600055602001516001555050505050505050565b610e7061379f565b600980546001600160a01b039384166001600160a01b031991821617909155600a8054929093169116179055565b6000610ea8612202565b610eb0612315565b600080610ebb61047a565b915091506000610f1285610ecf5783610ed1565b825b6001600160701b0316610f0687610ef3576002546001600160a01b0316610f00565b6003546001600160a01b03165b30613243565b9063ffffffff612dec16565b9050610f1d8161333b565b600085610f35576003546001600160a01b0316610f42565b6002546001600160a01b03165b90506000610f508230613243565b9050600087610f5f5784610f61565b855b6001600160701b0316905080821115610ff757600954610f8e9084906001600160a01b0316838503613379565b600960009054906101000a90046001600160a01b03166001600160a01b03166303f187ea6040518163ffffffff1660e01b8152600401600060405180830381600087803b158015610fde57600080fd5b505af1158015610ff2573d6000803e3d6000fd5b505050505b50505061100e81611008602a612b92565b87612e42565b90506000611031600460019054906101000a90046001600160a01b031630613243565b90506000806110416000806130bb565b50600b5491935091506001600160701b03861690036000806110848b611072576007546001600160a01b031661107f565b6008546001600160a01b03165b6132ce565b905060008c8c6001600160701b03808d16908c168b8a8a8d8880806110c3878b6110ae57876110b0565b865b8c6110bb578b6110bd565b8a5b8d613956565b92509250925085858302816110d457fe5b049d50891561110757600b546110f0848f63ffffffff61317816565b816110f757fe5b600b805486019055049b50611197565b6000670de0b6b3a764000060115486028161111e57fe5b0487600202868c028161112d57fe5b04019050806111518f896002028888028161114457fe5b049063ffffffff61317816565b8161115857fe5b049c506000670de0b6b3a764000060115489600202028161117557fe5b0490508a810183600f54028161118757fe5b600f805492909104909101905550505b5050505050505050506000806111b18760008c8c8c6134f7565b915091508015806111bf57508f5b611201576040805162461bcd60e51b815260206004820152600e60248201526d5a503a205265647563654f6e6c7960901b604482015290519081900360640190fd5b61122e8361121a576007546001600160a01b0316611227565b6008546001600160a01b03165b8587613722565b50506004805460ff1916905550909d9c50505050505050505050505050565b600a54600160a01b900460ff1681565b60115481565b600f5481565b600c5460ff1681565b600e5481565b60195481565b60145481565b600061128e612202565b611296612315565b6000826112ae576007546001600160a01b03166112bb565b6008546001600160a01b03165b905060006112c98230613243565b90506112d48161333b565b60006112df836132ce565b90506000806112ef6000806130bb565b509150915060006112fe61047a565b6001600160701b03169150670de0b6b3a764000090508860008061132383898b613c8c565b915091506000611333602a612b92565b90508d61271083830204830361136c86611358576002546001600160a01b0316611365565b6003546001600160a01b03165b8383613379565b8b8510156113ab57848c038b8a6000808061138b8c878b878c8a613d8a565b9250925092508087019650829c506113a3828a614086565b505050505050505b6113b6848488612e42565b506113c28d308e6141b6565b809d50505050505050600081905060008060006113dd61047a565b91509150806001600160701b0316600b5403925050508a1561142757600b54879061140e908a63ffffffff61317816565b8161141557fe5b600b8054929091049091039055611451565b600f54879061143c908a63ffffffff61317816565b8161144357fe5b600f80549290910490910390555b61145f8260018888856134f7565b505060408051338152602081018c90528c15158183015290517f5cf7281eb36e25a92ffd0cff3089777ca0cb41d28e8c7158c234b1eae9a07ed29181900360600190a150506004805460ff19169055509598975050505050505050565b601a5481565b6000806114cd612202565b6114d5612315565b6000836114ed576007546001600160a01b03166114fa565b6008546001600160a01b03165b905060006115088230613243565b90506115138161333b565b600061151e836132ce565b9050600080600061152d612a80565b506001600160701b031691506001600160701b0316915061155682600080015483028161055e57fe5b925050506000611567888585614216565b905061159060405180604001604052806005815260200164696e70747560d81b815250826137e9565b670de0b6b3a7640000816000806115a561047a565b6001600160701b031691506001600160701b031691506000806115c96000806130bb565b509150915060008e61161f5784670de0b6b3a76400006115f76011546002028661317890919063ffffffff16565b816115fe57fe5b04016116108b8763ffffffff61317816565b8161161757fe5b048a0361163d565b600b546116328b8663ffffffff61317816565b8161163957fe5b048a035b9050808b1061167c576040805162461bcd60e51b815260206004808301919091526024820152635a3a204560e01b604482015290519081900360640190fd5b5061168d87612710818b0204612dec565b94506116b8604051806040016040528060068152602001650383a3a9d1d160d51b815250868961389b565b8d156117d25760008f9050600960009054906101000a90046001600160a01b03166001600160a01b0316638b25fde187611728670de0b6b3a764000088600b540361171b88600202601154670de0b6b3a76400000361317890919063ffffffff16565b8161172257fe5b046131db565b601d54600a546040805160e087901b6001600160e01b0319168152600481019590955260248501939093526044840191909152600160a01b900460ff16151560648301526001600160a01b0385166084830152805160a4808401938290030181600087803b15801561179957600080fd5b505af11580156117ad573d6000803e3d6000fd5b505050506040513d60408110156117c357600080fd5b5080516020909101519d509550505b5050505060008b90506000806117e96000806130bb565b5091509150600061180f600460019054906101000a90046001600160a01b031630613243565b60045490915061182e9061010090046001600160a01b03168087613379565b61185a6040518060400160405280600a8152602001697074755769746846656560b01b815250866137e9565b600480546040805163226bf2d160e21b81526001600160a01b038881169482019490945281516000948594610100900416926389afcb44926024808201939182900301818787803b1580156118ae57600080fd5b505af11580156118c2573d6000803e3d6000fd5b505050506040513d60408110156118d857600080fd5b508051602090910151600a549193509150600160a01b900460ff166118fd57806118ff565b815b600a549f019e600160a01b900460ff16611919578161191b565b805b8e019d50505061192b8789614086565b508d61199657670de0b6b3a764000061194f6011548361317890919063ffffffff16565b8161195657fe5b0461196f88670de0b6b3a764000063ffffffff61317816565b8161197657fe5b0486039550888a600f54028161198857fe5b600f80549290910490910390555b6119a18b308c6141b6565b6000806119ac61047a565b6001600160701b031691505080600b54039150508e156119e157898b600b5402816119d357fe5b600b80549290910490910390555b6119ef8760018686856134f7565b50506000600460006101000a81548160ff0219169083151502179055507fb83dbb1f0386f1b6d6f534f325d617e3f96f2971cca29021702094328c1cb70c338f8f60405180846001600160a01b03166001600160a01b03168152602001838152602001828152602001935050505060405180910390a15050505050505050505050509250929050565b60155481565b611a8661379f565b611a8e614433565b6011839055600b829055600c805460ff19168215151790556012839055436017556018839055600080611ac26001806130bb565b5091509150600080611ad2612a80565b506001600160701b031691506001600160701b031691506000611af361047a565b506001600160701b03169050846000800154850281611b0e57fe5b04600d55601154670de0b6b3a764000090850260020204600e558515611b42578682840281611b3957fe5b04600f55611b61565b80670de0b6b3a7640000601154876002020281611b5b57fe5b0401600f555b8615611b7857611b7560008087878b6134f7565b50505b50506001602155505050505050565b600d5481565b60165481565b6000806021546000148015611c1f5750600560009054906101000a90046001600160a01b03166001600160a01b0316635c975abb6040518163ffffffff1660e01b815260040160206040518083038186803b158015611bf157600080fd5b505afa158015611c05573d6000803e3d6000fd5b505050506040513d6020811015611c1b57600080fd5b5051155b8015611c2e575060045460ff16155b611c3757600080fd5b6000806000611c44612a80565b9250925092506000836001600160701b0316118015611c6c57506000826001600160701b0316115b611c7557600080fd5b63ffffffff8116601955600a54600160a01b900460ff16611d0f57600460019054906101000a90046001600160a01b03166001600160a01b0316635a3d54936040518163ffffffff1660e01b815260040160206040518083038186803b158015611cde57600080fd5b505afa158015611cf2573d6000803e3d6000fd5b505050506040513d6020811015611d0857600080fd5b5051611d8a565b600460019054906101000a90046001600160a01b03166001600160a01b0316635909c0d56040518163ffffffff1660e01b815260040160206040518083038186803b158015611d5d57600080fd5b505afa158015611d71573d6000803e3d6000fd5b505050506040513d6020811015611d8757600080fd5b50515b601a556000546001600160701b03808516919084160281611da757fe5b04601b8190556040805180820190915260098152686c617374507269636560b81b6020820152611dd6916137e9565b600660009054906101000a90046001600160a01b03166001600160a01b03166398118cb46040518163ffffffff1660e01b815260040160206040518083038186803b158015611e2457600080fd5b505afa158015611e38573d6000803e3d6000fd5b505050506040513d6020811015611e4e57600080fd5b5051601d5560055460408051631475aa5760e31b815290516001600160a01b039092169163a3ad52b891600480820192602092909190829003018186803b158015611e9857600080fd5b505afa158015611eac573d6000803e3d6000fd5b505050506040513d6020811015611ec257600080fd5b5051601e5560055460408051632ca17caf60e11b815290516001600160a01b0390921691635942f95e91600480820192602092909190829003018186803b158015611f0c57600080fd5b505afa158015611f20573d6000803e3d6000fd5b505050506040513d6020811015611f3657600080fd5b5051601f55600554604080516358e20cf160e11b815290516001600160a01b039092169163b1c419e291600480820192602092909190829003018186803b158015611f8057600080fd5b505afa158015611f94573d6000803e3d6000fd5b505050506040513d6020811015611faa57600080fd5b5051601c556004805460ff19166001179055600080611fc7612b58565b91509150611fd48261333b565b611fdd8161333b565b611ffb856001600160701b0316856001600160701b0316848461460e565b600b819055600f829055601e546040805163066bc71760e11b81526000600482015260c88386028190048603938502048403838102602483015260448201819052606482018490528251959750939550919373__$a7d75b79dbad75865e91612b2984d03884$__92630cd78e2e926084808301939192829003018186803b15801561208557600080fd5b505af4158015612099573d6000803e3d6000fd5b505050506040513d60408110156120af57600080fd5b508051602090910151600e819055600d829055600b54600f54601e546120e89492939192919060c88a8202819004918a02048888610abe565b50600c805460ff1916911515919091179055601155600854612117906001600160a01b031660006103e8613722565b600754612131906001600160a01b031660006103e8613722565b612143836103e863ffffffff612dec16565b97506121806103e8612161600260115461317890919063ffffffff16565b86670de0b6b3a7640000028161217357fe5b049063ffffffff612dec16565b985061218d601e54614669565b50506008546121a6906001600160a01b03168b8a613722565b6007546121bd906001600160a01b03168b8b613722565b6011546012819055436017556018556121db602a60008484806134f7565b5050600160215550506004805460ff19169055509496939550929350505050565b60125481565b602154600114801561228b5750600560009054906101000a90046001600160a01b03166001600160a01b0316635c975abb6040518163ffffffff1660e01b815260040160206040518083038186803b15801561225d57600080fd5b505afa158015612271573d6000803e3d6000fd5b505050506040513d602081101561228757600080fd5b5051155b6122c5576040805162461bcd60e51b8152602060048083019190915260248201526305a3a20560e41b604482015290519081900360640190fd5b60045460ff1615612306576040805162461bcd60e51b815260206004808301919091526024820152632d1d102960e11b604482015290519081900360640190fd5b6004805460ff19166001179055565b61231d614433565b60045461010090046001600160a01b0316331461239d57600460019054906101000a90046001600160a01b03166001600160a01b03166311816b046040518163ffffffff1660e01b8152600401600060405180830381600087803b15801561238457600080fd5b505af1158015612398573d6000803e3d6000fd5b505050505b600460019054906101000a90046001600160a01b03166001600160a01b031663145f3c276040518163ffffffff1660e01b8152600401600060405180830381600087803b1580156123ed57600080fd5b505af1158015612401573d6000803e3d6000fd5b505050506000806124136000806130bb565b509150915060006124258284026131f1565b905060008060006124376000806130bb565b92509250925060008061244861047a565b601154600a5492945090925090600090600160a01b900460ff166124e557600460019054906101000a90046001600160a01b03166001600160a01b0316635a3d54936040518163ffffffff1660e01b815260040160206040518083038186803b1580156124b457600080fd5b505afa1580156124c8573d6000803e3d6000fd5b505050506040513d60208110156124de57600080fd5b5051612560565b600460019054906101000a90046001600160a01b03166001600160a01b0316635909c0d56040518163ffffffff1660e01b815260040160206040518083038186803b15801561253357600080fd5b505afa158015612547573d6000803e3d6000fd5b505050506040513d602081101561255d57600080fd5b50515b601c5460195491925042910181111561260f578563ffffffff168111156125a25763ffffffff86168103607088901b818a828161259957fe5b04028401935050505b601a5482111561260f576000603860006001015460386019548503601a548703816125c957fe5b04901c02901c90506126016040518060400160405280600e81526020016d44443a3a2061766720707269636560901b815250826137e9565b601b556019819055601a8290555b871580159061261d57508615155b15612a435760105460009081908a908a908d11156126b35760008d6010548f03670de0b6b3a7640000028161264e57fe5b0490506001600160701b03808a16908b16600080808061267185878b8b8b614880565b93509350935093508260001415801561268957508115155b156126a75781600d8190555080600e81905550839a508299506126ab565b839a505b505050505050505b600b8054850190819055600f8054850190819055600d54600e546126e9939291906001600160701b03808f16908e168888610abe565b50600c805460ff191691151591909117905560115560125460095460055460408051637945980160e01b815290516001600160a01b039384169363b3828f839316916379459801916004808301926020929190829003018186803b15801561275057600080fd5b505afa158015612764573d6000803e3d6000fd5b505050506040513d602081101561277a57600080fd5b50516005546040805163604b97bd60e11b815290516001600160a01b039092169163c0972f7a91600480820192602092909190829003018186803b1580156127c157600080fd5b505afa1580156127d5573d6000803e3d6000fd5b505050506040513d60208110156127eb57600080fd5b5051601754601254601154601854604080516001600160e01b031960e08a901b1681526004810197909752602487019590955260448601939093526064850191909152608484015260a48301525160c4808301926020929190829003018186803b15801561285857600080fd5b505afa15801561286c573d6000803e3d6000fd5b505050506040513d602081101561288257600080fd5b50516012819055811461289a57601154601855436017555b5060108d8155604080518082019091529081526f19d85b5b584818d85b18dd5b185d195960821b60208201526128cf90614a2d565b60006128e660165443612dec90919063ffffffff16565b905080156129d4576005546040805163ed6b92cd60e01b815290516000926001600160a01b03169163ed6b92cd916004808301926020929190829003018186803b15801561293357600080fd5b505afa158015612947573d6000803e3d6000fd5b505050506040513d602081101561295d57600080fd5b5051601554909150600090600a43919091031161297b576000612980565b600a83045b9050612995600183018263ffffffff614ad316565b6129ae6014548460135402614ad390919063ffffffff16565b816129b557fe5b046013556011546129c6908b614b22565b6014555050436016556129f6565b6129f26129e36011548a614b22565b6014549063ffffffff614ad316565b6014555b600b54600f5460115460408051938452602084019290925282820152517f54964c70825f65946c2e16cd62d98784e0536cf3d54b15ce1845f37f325945d29181900360600190a150505050505b612a736040518060400160405280600f81526020016e1cde5b98c818d85b18dd5b185d1959608a1b815250614a2d565b5050505050505050505050565b600080600080600080600460019054906101000a90046001600160a01b03166001600160a01b0316630902f1ac6040518163ffffffff1660e01b815260040160606040518083038186803b158015612ad757600080fd5b505afa158015612aeb573d6000803e3d6000fd5b505050506040513d6060811015612b0157600080fd5b5080516020820151604090920151600a54919550919350909150600160a01b900460ff16612b2f5781612b31565b825b600a54909650600160a01b900460ff16612b4b5782612b4d565b815b959690945092505050565b6002546000908190612b73906001600160a01b031630613243565b600354909250612b8c906001600160a01b031630613243565b90509091565b600080612ba3601354601454614b39565b905082602a1415612c305760095460115460408051630134dce560e11b81526004810192909252516001600160a01b0390921691630269b9ca91602480820192602092909190829003018186803b158015612bfd57600080fd5b505afa158015612c11573d6000803e3d6000fd5b505050506040513d6020811015612c2757600080fd5b50519150612c93565b601d546002029150601b548310612c6d57601b548390612c589061271063ffffffff61317816565b81612c5f57fe5b046127100382019150612c93565b601b54612c828461271063ffffffff61317816565b81612c8957fe5b0461271003820191505b601f548110612d7f576000601554430390506000601f54670de0b6b3a764000081612cba57fe5b04905080821115612cce5743601555612d7c565b612d7984600560009054906101000a90046001600160a01b03166001600160a01b0316632be90b326040518163ffffffff1660e01b815260040160206040518083038186803b158015612d2057600080fd5b505afa158015612d34573d6000803e3d6000fd5b505050506040513d6020811015612d4a57600080fd5b5051601f5461271090612d63888363ffffffff61317816565b81612d6a57fe5b0403019063ffffffff614ad316565b93505b50505b612da76040518060400160405280600681526020016566656562707360d01b815250836137e9565b6127108210612de6576040805162461bcd60e51b81526020600482015260066024820152650b474408ca8960d31b604482015290519081900360640190fd5b50919050565b80820382811115612e3c576040805162461bcd60e51b815260206004820152601560248201527464732d6d6174682d7375622d756e646572666c6f7760581b604482015290519081900360640190fd5b92915050565b600061271083850204600a8111612e5c57849150506130b4565b8215612ed8576003548190612e7a906001600160a01b031630613243565b11612eb6576040805162461bcd60e51b81526020600482015260076024820152662d1d10232a241960c91b604482015290519081900360640190fd5b600354600954612ed3916001600160a01b03908116911683613379565b613046565b600254600454612efa916001600160a01b039081169161010090041683613379565b600080612f05612a80565b50915091506000612f25601d54612710038561317890919063ffffffff16565b90506000612f5482612f486001600160701b03871661271063ffffffff61317816565b9063ffffffff614ad316565b612f6d836001600160701b03861663ffffffff61317816565b81612f7457fe5b600454600a5492909104925061010090046001600160a01b03169063022c0d9f90600160a01b900460ff16612fa95782612fac565b60005b600a54600160a01b900460ff16612fc4576000612fc6565b835b600954604080516001600160e01b031960e087901b168152600481019490945260248401929092526001600160a01b0316604483015260806064830152600060848301819052905160c48084019382900301818387803b15801561302957600080fd5b505af115801561303d573d6000803e3d6000fd5b50505050505050505b600960009054906101000a90046001600160a01b03166001600160a01b03166303f187ea6040518163ffffffff1660e01b8152600401600060405180830381600087803b15801561309657600080fd5b505af11580156130aa573d6000803e3d6000fd5b5050509085039150505b9392505050565b6000806000806000806130cc612a80565b92506001600160701b031692506001600160701b031692506000613105600460019054906101000a90046001600160a01b031630613243565b90506000613127600460019054906101000a90046001600160a01b03166132ce565b9050811580613134575080155b1561314c578989429750975097505050505050613171565b808286028161315757fe5b04818386028161316357fe5b048497509750975050505050505b9250925092565b60008115806131935750508082028282828161319057fe5b04145b612e3c576040805162461bcd60e51b815260206004820152601460248201527364732d6d6174682d6d756c2d6f766572666c6f7760601b604482015290519081900360640190fd5b60008183106131ea57816130b4565b5090919050565b60006003821115613234575080600160028204015b8181101561322e5780915060028182858161321d57fe5b04018161322657fe5b049050613206565b5061323e565b811561323e575060015b919050565b6000826001600160a01b03166370a08231836040518263ffffffff1660e01b815260040180826001600160a01b03166001600160a01b0316815260200191505060206040518083038186803b15801561329b57600080fd5b505afa1580156132af573d6000803e3d6000fd5b505050506040513d60208110156132c557600080fd5b50519392505050565b6000816001600160a01b03166318160ddd6040518163ffffffff1660e01b815260040160206040518083038186803b15801561330957600080fd5b505afa15801561331d573d6000803e3d6000fd5b505050506040513d602081101561333357600080fd5b505192915050565b60008111610ab5576040805162461bcd60e51b815260206004808301919091526024820152632d1d102d60e11b604482015290519081900360640190fd5b60408051808201825260198152787472616e7366657228616464726573732c75696e743235362960381b60209182015281516001600160a01b0385811660248301526044808301869052845180840390910181526064909201845291810180516001600160e01b031663a9059cbb60e01b1781529251815160009460609489169392918291908083835b602083106134225780518252601f199092019160209182019101613403565b6001836020036101000a0380198251168184511680821785525050505050509050019150506000604051808303816000865af19150503d8060008114613484576040519150601f19603f3d011682016040523d82523d6000602084013e613489565b606091505b50915091508180156134b75750805115806134b757508080602001905160208110156134b457600080fd5b50515b6134f0576040805162461bcd60e51b81526020600482015260056024820152642d1d102a2360d91b604482015290519081900360640190fd5b5050505050565b600080600080613505612b58565b9150915060008061351684846130bb565b509150915061356384846064613537601e548761317890919063ffffffff16565b8161353e57fe5b046064613556601e548761317890919063ffffffff16565b8161355d57fe5b04614b48565b505088915087905060008b602a146135c0578b8b60008061358489896130bb565b50915091506135b68787846135a660008001548661317890919063ffffffff16565b816135ad57fe5b048f8888614dd7565b9196509450925050505b6135d86135d3848463ffffffff61317816565b6131f1565b6010556000806135e661047a565b6001600160701b031691506001600160701b031691508d602a146136d6576000805473__$a7d75b79dbad75865e91612b2984d03884$__9163dd2301ed91889088028161362f57fe5b600b54600f54604080516001600160e01b031960e089901b1681526004810196909652939092046024850152869003604484015286900360648301526084820189905260a4820188905260c48201879052805160e480840193829003018186803b15801561369c57600080fd5b505af41580156136b0573d6000803e3d6000fd5b505050506040513d60408110156136c657600080fd5b508051602090910151600e55600d555b6136ee600b54600f54600d54600e5486868b8b610abe565b9050809950819a505050601f546137078a601154614b22565b1061371157436015555b505050505050509550959350505050565b826001600160a01b03166340c10f1983836040518363ffffffff1660e01b815260040180836001600160a01b03166001600160a01b0316815260200182815260200192505050600060405180830381600087803b15801561378257600080fd5b505af1158015613796573d6000803e3d6000fd5b50505050505050565b6005546001600160a01b031633146137e7576040805162461bcd60e51b815260206004808301919091526024820152632d1d102360e11b604482015290519081900360640190fd5b565b61389782826040516024018080602001838152602001828103825284818151815260200191508051906020019080838360005b8381101561383457818101518382015260200161381c565b50505050905090810190601f1680156138615780820380516001836020036101000a031916815260200191505b5060408051601f198184030181529190526020810180516001600160e01b0316632d839cb360e21b1790529350614f2a92505050565b5050565b6139518383836040516024018080602001848152602001838152602001828103825285818151815260200191508051906020019080838360005b838110156138ed5781810151838201526020016138d5565b50505050905090810190601f16801561391a5780820380516001836020036101000a031916815260200191505b5060408051601f198184030181529190526020810180516001600160e01b031663ca47c4eb60e01b1790529450614f2a9350505050565b505050565b601e5460009081908190816064613973898463ffffffff61317816565b8161397a57fe5b04905060008060008061398e6000806130bb565b5091509150600060c8878402816139a157fe5b600254919004915060c888840204906000906139c6906001600160a01b031630613243565b6003549091506000906139e2906001600160a01b031630613243565b905083821180156139f257508281115b15613a3757600080613a0a888888870388870361460e565b915091508f15613a265760648782018d02049a50809850613a34565b60648883018d02049a508198505b50505b50505050505088831115613a7e5782810189900391508115613a7e57818b11613a79576000613a6585614669565b508c98509650879550613c82945050505050565b958101955b818b0360008080613a8f81806130bb565b50915091508b15613b61578c6000613aa88484026131f1565b905060006127106002601d5481613abb57fe5b0460010161271003880281613acc57fe5b0490506000613aeb613ae4868463ffffffff614ad316565b87026131f1565b9050828111613b29576040805162461bcd60e51b81526020600482015260056024820152645a503a534b60d81b604482015290519081900360640190fd5b600083848303670de0b6b3a76400000281613b4057fe5b049050670de0b6b3a764000086820260020204880197505050505050613c58565b8c6000613b6f8484026131f1565b905060006127106002601d5481613b8257fe5b0460010161271003880281613b9357fe5b0490506000613bb285613bac888563ffffffff614ad316565b026131f1565b9050828111613bf0576040805162461bcd60e51b81526020600482015260056024820152645a503a534b60d81b604482015290519081900360640190fd5b600083848303670de0b6b3a76400000281613c0757fe5b049050600082858403670de0b6b3a76400000281613c2157fe5b049050670de0b6b3a76400008882026002020489019850670de0b6b3a764000082600202890281613c4e57fe5b049e505050505050505b9982019960008615613c7157613c6d89614669565b5090505b890199505050929095019450505050505b9450945094915050565b600080600080613c9d6000806130bb565b5091509150600080613cad61047a565b91509150600089613cbe5782613cc0565b815b6001600160701b0316905060008a613cd85785613cda565b845b905060008b613d3057613d2b670de0b6b3a7640000613d156002613d096011548761317890919063ffffffff16565b9063ffffffff61317816565b81613d1c57fe5b8591900463ffffffff614ad316565b613d34565b600b545b905080613d47848d63ffffffff61317816565b81613d4e57fe5b0498506000613d5d8a8c6131db565b90508b613d70838363ffffffff61317816565b81613d7757fe5b0498505050505050505050935093915050565b6000806000613d9a898986614216565b60045490925061271088840204830390600090613dc59061010090046001600160a01b031630613243565b90506000613dd161047a565b6001600160701b031691505060008c15613f2757600954600b546011548c928c926000926001600160a01b0390921691638b25fde1918a91613e3191670de0b6b3a764000091908b90039061171b90830360028b0263ffffffff61317816565b601d54600a546040805160e087901b6001600160e01b0319168152600481019590955260248501939093526044840191909152600160a01b900460ff16151560648301526001600160a01b0386166084830152805160a4808401938290030181600087803b158015613ea257600080fd5b505af1158015613eb6573d6000803e3d6000fd5b505050506040513d6040811015613ecc57600080fd5b5080516020909101519850965087905085670de0b6b3a76400008882030281613ef157fe5b049350670d7621dc58210000841015613f1457670de0b6b3a76400008785020496505b670de0b6b3a76400009350505050613f6c565b613f69670de0b6b3a7640000846011540281613f3f57fe5b0487670de0b6b3a76400000281613f5257fe5b670de0b6b3a764000091900463ffffffff612dec16565b90505b613f986040518060400160405280600a8152602001697074755769746846656560b01b815250856137e9565b600454613fb49061010090046001600160a01b03168086613379565b600460019054906101000a90046001600160a01b03166001600160a01b0316632ce510908a8f1515600a60149054906101000a900460ff16151514156040518363ffffffff1660e01b815260040180836001600160a01b03166001600160a01b031681526020018215151515815260200192505050602060405180830381600087803b15801561404357600080fd5b505af1158015614057573d6000803e3d6000fd5b505050506040513d602081101561406d57600080fd5b5051909d959c5093909301995092975050505050505050565b6000612710828402048061409d5783915050612e3c565b6004546140b99061010090046001600160a01b03168083613379565b60048054600954600a54604080516302ce510960e41b81526001600160a01b0393841695810195909552600160a01b90910460ff16156024850152516101009092041691632ce510909160448083019260209291908290030181600087803b15801561412457600080fd5b505af1158015614138573d6000803e3d6000fd5b505050506040513d602081101561414e57600080fd5b5050600954604080516301f8c3f560e11b815290516001600160a01b03909216916303f187ea9160048082019260009290919082900301818387803b15801561419657600080fd5b505af11580156141aa573d6000803e3d6000fd5b50505093039392505050565b826001600160a01b0316639dc29fac83836040518363ffffffff1660e01b815260040180836001600160a01b03166001600160a01b0316815260200182815260200192505050600060405180830381600087803b15801561378257600080fd5b600061423d604051806040016040528060048152602001636370747560e01b815250614a2d565b60008061424b6001806130bb565b509150915060008061425b61047a565b91509150600080614281600460019054906101000a90046001600160a01b031630613243565b905089156142fe576142cb604051806040016040528060028152602001610ded60f31b8152506020600e9054906101000a90046001600160701b03166001600160701b03166137e9565b846002026142ef846001600160701b0316600b54038361317890919063ffffffff16565b816142f657fe5b049150614350565b6143286040518060400160405280600581526020016467616d6d6160d81b8152506011548361389b565b601154670de0b6b3a764000090614345908363ffffffff61317816565b8161434c57fe5b0491505b6143756040518060400160405280600381526020016268657960e81b815250836137e9565b60008a6143d857846001600160701b0316670de0b6b3a76400006143a76011546002028a61317890919063ffffffff16565b816143ae57fe5b04016143c98a6001600160701b03881663ffffffff61317816565b816143d057fe5b0489036143ff565b600b546143f48a6001600160701b03871663ffffffff61317816565b816143fb57fe5b0489035b9050806144128b8563ffffffff61317816565b8161441957fe5b0497506144258861333b565b505050505050509392505050565b600660009054906101000a90046001600160a01b03166001600160a01b03166398118cb46040518163ffffffff1660e01b815260040160206040518083038186803b15801561448157600080fd5b505afa158015614495573d6000803e3d6000fd5b505050506040513d60208110156144ab57600080fd5b5051601d5560055460408051631475aa5760e31b815290516001600160a01b039092169163a3ad52b891600480820192602092909190829003018186803b1580156144f557600080fd5b505afa158015614509573d6000803e3d6000fd5b505050506040513d602081101561451f57600080fd5b5051601e5560055460408051632ca17caf60e11b815290516001600160a01b0390921691635942f95e91600480820192602092909190829003018186803b15801561456957600080fd5b505afa15801561457d573d6000803e3d6000fd5b505050506040513d602081101561459357600080fd5b5051601f55600554604080516358e20cf160e11b815290516001600160a01b039092169163b1c419e291600480820192602092909190829003018186803b1580156145dd57600080fd5b505afa1580156145f1573d6000803e3d6000fd5b505050506040513d602081101561460757600080fd5b5051601c55565b6000808085614623888663ffffffff61317816565b8161462a57fe5b049050848111156146585784925086614649848863ffffffff61317816565b8161465057fe5b04915061465f565b8092508391505b5094509492505050565b600080600080614677612b58565b9150915060008061468884846130bb565b509092509050600060c86146a2848a63ffffffff61317816565b816146a957fe5b049050600060c86146c0848b63ffffffff61317816565b816146c757fe5b049050816001600160701b0316861180156146ea5750806001600160701b031685115b15614804576000806146fa612a80565b506001600160701b031691506001600160701b031691506147338282866001600160701b03168b03866001600160701b03168b0361460e565b600254600454929c50909a5061475c916001600160a01b0391821691610100909104168c613379565b60035460045461477e916001600160a01b03908116916101009004168b613379565b60048054604080516335313c2160e11b81523093810193909352516101009091046001600160a01b031691636a6278429160248083019260209291908290030181600087803b1580156147d057600080fd5b505af11580156147e4573d6000803e3d6000fd5b505050506040513d60208110156147fa57600080fd5b5061487592505050565b600460019054906101000a90046001600160a01b03166001600160a01b031663145f3c276040518163ffffffff1660e01b8152600401600060405180830381600087803b15801561485457600080fd5b505af1158015614868573d6000803e3d6000fd5b5050505060009750600096505b505050505050915091565b6000808080670de0b6b3a764000061489e878763ffffffff61317816565b600202816148a857fe5b049350856148df88670de0b6b3a76400006148d8601254670de0b6b3a7640000038961317890919063ffffffff16565b8161114457fe5b816148e657fe5b049250670de0b6b3a76400006149076012548661317890919063ffffffff16565b8161490e57fe5b600d549190049450915061494c670de0b6b3a7640000614934858563ffffffff61317816565b8161493b57fe5b600e5491900463ffffffff614ad316565b600b5460408051630472985560e11b8152600060048201526024810186905260448101849052606481018b9052608481018a90529187018b900360a48301525191925073__$a7d75b79dbad75865e91612b2984d03884$__916308e530aa9160c480820192602092909190829003018186803b1580156149cb57600080fd5b505af41580156149df573d6000803e3d6000fd5b505050506040513d60208110156149f557600080fd5b505115614a215760125484670de0b6b3a76400000281614a1157fe5b0493506000925060009150600090505b95509550955095915050565b610ab5816040516024018080602001828103825283818151815260200191508051906020019080838360005b83811015614a71578181015183820152602001614a59565b50505050905090810190601f168015614a9e5780820380516001836020036101000a031916815260200191505b5060408051601f198184030181529190526020810180516001600160e01b031663104c13eb60e21b1790529250614f2a915050565b80820182811015612e3c576040805162461bcd60e51b815260206004820152601460248201527364732d6d6174682d6164642d6f766572666c6f7760601b604482015290519081900360640190fd5b6000818310614b345750808203612e3c565b500390565b60008183116131ea57816130b4565b60008085846001600160701b03161015614c3e57600254600454614b89916001600160a01b03908116916101009004166001600160701b0387168903613379565b60048054600a54604080516321913af360e11b81523094810194909452600160a01b90910460ff1615156024840152516101009091046001600160a01b03169163432275e69160448083019260609291908290030181600087803b158015614bf057600080fd5b505af1158015614c04573d6000803e3d6000fd5b505050506040513d6060811015614c1a57600080fd5b5051602080546001600160701b0319166001600160701b0387161790559150614c5a565b602080546001600160701b0319166001600160701b0388161790555b84836001600160701b03161015614d5557600354600454614c98916001600160a01b03908116916101009004166001600160701b0386168803613379565b60048054600a54604080516321913af360e11b81523094810194909452600160a01b90910460ff16156024840152516101009091046001600160a01b03169163432275e69160448083019260609291908290030181600087803b158015614cfe57600080fd5b505af1158015614d12573d6000803e3d6000fd5b505050506040513d6060811015614d2857600080fd5b505160208054600160701b600160e01b031916600160701b6001600160701b038716021790559050614d7a565b60208054600160701b600160e01b031916600160701b6001600160701b038816021790555b60208054604080516001600160701b038084168252600160701b9093049092169282019290925281517f1d96001f313f6446e46c7776b79d231589555627a46fa2388f3220937fc79e51929181900390910190a194509492505050565b600d54600e546040805163234eca8b60e01b815260006004820181905260248201899052604482019490945260648101929092526084820189905260a4820188905260c482018690525173__$a7d75b79dbad75865e91612b2984d03884$__9163234eca8b9160e4808301926060929190829003018186803b158015614e5c57600080fd5b505af4158015614e70573d6000803e3d6000fd5b505050506040513d6060811015614e8657600080fd5b505190508115614ec85782670de0b6b3a764000014614ec357670de0b6b3a7640000614eb8828563ffffffff61317816565b81614ebf57fe5b0490505b614f20565b600080548890614edf90899063ffffffff61317816565b81614ee657fe5b049050858114614f0c5780614f01858863ffffffff61317816565b81614f0857fe5b0493505b614f1c828563ffffffff614ad316565b9150505b9695505050505050565b80516a636f6e736f6c652e6c6f67602083016000808483855afa505050505056fea265627a7a723158203f7dafec5a82af76697905273260b755cb0b4aa382c54d80e63b4edefc62756564736f6c63430005100032a265627a7a723158209d175bc286533dc84066e06913438274c3123556ba43e1fd038181eea0f4d48f64736f6c63430005100032",
  "linkReferences": {
    "contracts/libraries/ZirconLibrary.sol": {
      "ZirconLibrary": [
        {
          "length": 20,
          "start": 7191
        },
        {
          "length": 20,
          "start": 12561
        },
        {
          "length": 20,
          "start": 18124
        },
        {
          "length": 20,
          "start": 23123
        },
        {
          "length": 20,
          "start": 24293
        }
      ]
    }
  },
  "deployedLinkReferences": {
    "contracts/libraries/ZirconLibrary.sol": {
      "ZirconLibrary": [
        {
          "length": 20,
          "start": 6959
        },
        {
          "length": 20,
          "start": 12329
        },
        {
          "length": 20,
          "start": 17892
        },
        {
          "length": 20,
          "start": 22891
        },
        {
          "length": 20,
          "start": 24061
        }
      ]
    }
  }
}