{
  "_format": "hh-sol-artifact-1",
  "contractName": "ZirconPylonFactory",
  "sourceName": "contracts/ZirconPylonFactory.sol",
  "abi": [
    {
      "inputs": [
        {
          "internalType": "address",
          "name": "_factory",
          "type": "address"
        },
        {
          "internalType": "address",
          "name": "_energyFactory",
          "type": "address"
        },
        {
          "internalType": "address",
          "name": "_ptFactory",
          "type": "address"
        },
        {
          "internalType": "address",
          "name": "_feeToSetter",
          "type": "address"
        },
        {
          "internalType": "address",
          "name": "_migrator",
          "type": "address"
        }
      ],
      "payable": false,
      "stateMutability": "nonpayable",
      "type": "constructor"
    },
    {
      "anonymous": false,
      "inputs": [
        {
          "indexed": true,
          "internalType": "address",
          "name": "token0",
          "type": "address"
        },
        {
          "indexed": true,
          "internalType": "address",
          "name": "token1",
          "type": "address"
        },
        {
          "indexed": false,
          "internalType": "address",
          "name": "poolToken0",
          "type": "address"
        },
        {
          "indexed": false,
          "internalType": "address",
          "name": "poolToken1",
          "type": "address"
        },
        {
          "indexed": false,
          "internalType": "address",
          "name": "pylon",
          "type": "address"
        },
        {
          "indexed": false,
          "internalType": "address",
          "name": "pair",
          "type": "address"
        }
      ],
      "name": "PylonCreated",
      "type": "event"
    },
    {
      "constant": true,
      "inputs": [],
      "name": "EMASamples",
      "outputs": [
        {
          "internalType": "uint256",
          "name": "",
          "type": "uint256"
        }
      ],
      "payable": false,
      "stateMutability": "view",
      "type": "function"
    },
    {
      "constant": false,
      "inputs": [
        {
          "internalType": "address",
          "name": "_pairAddress",
          "type": "address"
        },
        {
          "internalType": "address",
          "name": "_tokenA",
          "type": "address"
        },
        {
          "internalType": "address",
          "name": "_tokenB",
          "type": "address"
        }
      ],
      "name": "addPylon",
      "outputs": [
        {
          "internalType": "address",
          "name": "pylonAddress",
          "type": "address"
        }
      ],
      "payable": false,
      "stateMutability": "nonpayable",
      "type": "function"
    },
    {
      "constant": false,
      "inputs": [
        {
          "internalType": "address",
          "name": "_pairAddress",
          "type": "address"
        },
        {
          "internalType": "address",
          "name": "_tokenA",
          "type": "address"
        },
        {
          "internalType": "address",
          "name": "_tokenB",
          "type": "address"
        },
        {
          "internalType": "address",
          "name": "floatPTAddress",
          "type": "address"
        },
        {
          "internalType": "address",
          "name": "anchorPTAddress",
          "type": "address"
        }
      ],
      "name": "addPylonCustomPT",
      "outputs": [
        {
          "internalType": "address",
          "name": "pylonAddress",
          "type": "address"
        }
      ],
      "payable": false,
      "stateMutability": "nonpayable",
      "type": "function"
    },
    {
      "constant": true,
      "inputs": [
        {
          "internalType": "uint256",
          "name": "",
          "type": "uint256"
        }
      ],
      "name": "allPylons",
      "outputs": [
        {
          "internalType": "address",
          "name": "",
          "type": "address"
        }
      ],
      "payable": false,
      "stateMutability": "view",
      "type": "function"
    },
    {
      "constant": true,
      "inputs": [],
      "name": "allPylonsLength",
      "outputs": [
        {
          "internalType": "uint256",
          "name": "",
          "type": "uint256"
        }
      ],
      "payable": false,
      "stateMutability": "view",
      "type": "function"
    },
    {
      "constant": false,
      "inputs": [
        {
          "internalType": "address",
          "name": "_newEnergyRev",
          "type": "address"
        },
        {
          "internalType": "address",
          "name": "_pylonAddress",
          "type": "address"
        },
        {
          "internalType": "address",
          "name": "_pairAddress",
          "type": "address"
        },
        {
          "internalType": "address",
          "name": "_tokenA",
          "type": "address"
        },
        {
          "internalType": "address",
          "name": "_tokenB",
          "type": "address"
        }
      ],
      "name": "changeEnergyAddress",
      "outputs": [
        {
          "internalType": "address",
          "name": "energy",
          "type": "address"
        }
      ],
      "payable": false,
      "stateMutability": "nonpayable",
      "type": "function"
    },
    {
      "constant": false,
      "inputs": [
        {
          "internalType": "address",
          "name": "_newEnergyFactory",
          "type": "address"
        }
      ],
      "name": "changeEnergyFactoryAddress",
      "outputs": [],
      "payable": false,
      "stateMutability": "nonpayable",
      "type": "function"
    },
    {
      "constant": true,
      "inputs": [],
      "name": "deltaGammaMinFee",
      "outputs": [
        {
          "internalType": "uint256",
          "name": "",
          "type": "uint256"
        }
      ],
      "payable": false,
      "stateMutability": "view",
      "type": "function"
    },
    {
      "constant": true,
      "inputs": [],
      "name": "deltaGammaThreshold",
      "outputs": [
        {
          "internalType": "uint256",
          "name": "",
          "type": "uint256"
        }
      ],
      "payable": false,
      "stateMutability": "view",
      "type": "function"
    },
    {
      "constant": true,
      "inputs": [],
      "name": "energyFactory",
      "outputs": [
        {
          "internalType": "address",
          "name": "",
          "type": "address"
        }
      ],
      "payable": false,
      "stateMutability": "view",
      "type": "function"
    },
    {
      "constant": true,
      "inputs": [],
      "name": "factory",
      "outputs": [
        {
          "internalType": "address",
          "name": "",
          "type": "address"
        }
      ],
      "payable": false,
      "stateMutability": "view",
      "type": "function"
    },
    {
      "constant": true,
      "inputs": [
        {
          "internalType": "address",
          "name": "",
          "type": "address"
        },
        {
          "internalType": "address",
          "name": "",
          "type": "address"
        }
      ],
      "name": "getPylon",
      "outputs": [
        {
          "internalType": "address",
          "name": "",
          "type": "address"
        }
      ],
      "payable": false,
      "stateMutability": "view",
      "type": "function"
    },
    {
      "constant": true,
      "inputs": [],
      "name": "maximumPercentageSync",
      "outputs": [
        {
          "internalType": "uint256",
          "name": "",
          "type": "uint256"
        }
      ],
      "payable": false,
      "stateMutability": "view",
      "type": "function"
    },
    {
      "constant": false,
      "inputs": [
        {
          "internalType": "address",
          "name": "_oldPylon",
          "type": "address"
        },
        {
          "internalType": "address",
          "name": "_newPylon",
          "type": "address"
        }
      ],
      "name": "migrateLiquidity",
      "outputs": [],
      "payable": false,
      "stateMutability": "nonpayable",
      "type": "function"
    },
    {
      "constant": true,
      "inputs": [],
      "name": "muChangeFactor",
      "outputs": [
        {
          "internalType": "uint256",
          "name": "",
          "type": "uint256"
        }
      ],
      "payable": false,
      "stateMutability": "view",
      "type": "function"
    },
    {
      "constant": true,
      "inputs": [],
      "name": "muUpdatePeriod",
      "outputs": [
        {
          "internalType": "uint256",
          "name": "",
          "type": "uint256"
        }
      ],
      "payable": false,
      "stateMutability": "view",
      "type": "function"
    },
    {
      "constant": true,
      "inputs": [],
      "name": "paused",
      "outputs": [
        {
          "internalType": "bool",
          "name": "",
          "type": "bool"
        }
      ],
      "payable": false,
      "stateMutability": "view",
      "type": "function"
    },
    {
      "constant": false,
      "inputs": [
        {
          "internalType": "address",
          "name": "_feeToSetter",
          "type": "address"
        }
      ],
      "name": "setFeeToSetter",
      "outputs": [],
      "payable": false,
      "stateMutability": "nonpayable",
      "type": "function"
    },
    {
      "constant": false,
      "inputs": [
        {
          "internalType": "uint256",
          "name": "_maximumPercentageSync",
          "type": "uint256"
        },
        {
          "internalType": "uint256",
          "name": "_deltaGammaThreshold",
          "type": "uint256"
        },
        {
          "internalType": "uint256",
          "name": "_deltaGammaMinFee",
          "type": "uint256"
        },
        {
          "internalType": "uint256",
          "name": "_muUpdatePeriod",
          "type": "uint256"
        },
        {
          "internalType": "uint256",
          "name": "_muChangeFactor",
          "type": "uint256"
        },
        {
          "internalType": "uint256",
          "name": "_EMASamples",
          "type": "uint256"
        }
      ],
      "name": "setFees",
      "outputs": [],
      "payable": false,
      "stateMutability": "nonpayable",
      "type": "function"
    },
    {
      "constant": false,
      "inputs": [
        {
          "internalType": "address",
          "name": "_migrator",
          "type": "address"
        }
      ],
      "name": "setMigrator",
      "outputs": [],
      "payable": false,
      "stateMutability": "nonpayable",
      "type": "function"
    },
    {
      "constant": false,
      "inputs": [
        {
          "internalType": "bool",
          "name": "_paused",
          "type": "bool"
        }
      ],
      "name": "setPaused",
      "outputs": [],
      "payable": false,
      "stateMutability": "nonpayable",
      "type": "function"
    },
    {
      "constant": false,
      "inputs": [
        {
          "internalType": "address",
          "name": "_pylon",
          "type": "address"
        },
        {
          "internalType": "uint256",
          "name": "_gamma",
          "type": "uint256"
        },
        {
          "internalType": "uint256",
          "name": "_vab",
          "type": "uint256"
        },
        {
          "internalType": "uint256",
          "name": "_anchorKFactor",
          "type": "uint256"
        },
        {
          "internalType": "bool",
          "name": "_formulaSwitch",
          "type": "bool"
        }
      ],
      "name": "startPylon",
      "outputs": [],
      "payable": false,
      "stateMutability": "nonpayable",
      "type": "function"
    }
  ],
  "bytecode": "0x608060405234801561001057600080fd5b5060405161608a38038061608a833981810160405260a081101561003357600080fd5b508051602082015160408301516060840151608090940151600280546001600160a01b03199081166001600160a01b039687161782556004805482169587169590951790945560038054851693861693909317835560058054851696861696909617909555600680546028600755668e1bc9bf0400006008556064600955600a9690965560f0600b55600c9290925593909116919092161760ff60a01b19169055615fa7806100e36000396000f3fe608060405234801561001057600080fd5b50600436106101125760003560e01c80630e0f2973146101175780631397ed541461016157806316c38b3c146101a357806317d1ff9f146101c257806323cf3118146101ca5780632be90b32146101f0578063320a55721461020a5780635942f95e146102305780635c975abb1461023857806362c0bfe8146102545780636c0fb0181461029c57806379281abe146102a457806379459801146102dc57806386f6c3c1146102e4578063a2e74af61461031f578063a3ad52b814610345578063afc3743f1461034d578063c0972f7a1461036a578063c45a015514610372578063dc2c1e991461037a578063ed6b92cd146103a8578063fd0d6ec6146103b0575b600080fd5b6101456004803603604081101561012d57600080fd5b506001600160a01b03813581169160200135166103f8565b604080516001600160a01b039092168252519081900360200190f35b6101a1600480360360a081101561017757600080fd5b506001600160a01b038135169060208101359060408101359060608101359060800135151561041b565b005b6101a1600480360360208110156101b957600080fd5b503515156104a0565b6101456104c6565b6101a1600480360360208110156101e057600080fd5b50356001600160a01b03166104d5565b6101f86104ff565b60408051918252519081900360200190f35b6101a16004803603602081101561022057600080fd5b50356001600160a01b0316610505565b6101f861052f565b610240610535565b604080519115158252519081900360200190f35b610145600480360360a081101561026a57600080fd5b506001600160a01b03813581169160208101358216916040820135811691606081013582169160809091013516610545565b6101f86106f2565b610145600480360360608110156102ba57600080fd5b506001600160a01b0381358116916020810135821691604090910135166106f8565b6101f86109ce565b6101a1600480360360c08110156102fa57600080fd5b5080359060208101359060408101359060608101359060808101359060a001356109d4565b6101a16004803603602081101561033557600080fd5b50356001600160a01b03166109f9565b6101f8610a23565b6101456004803603602081101561036357600080fd5b5035610a29565b6101f8610a50565b610145610a56565b6101a16004803603604081101561039057600080fd5b506001600160a01b0381358116916020013516610a65565b6101f8610ae1565b610145600480360360a08110156103c657600080fd5b506001600160a01b03813581169160208101358216916040820135811691606081013582169160809091013516610ae7565b60006020818152928152604080822090935290815220546001600160a01b031681565b610423610bc6565b60408051635786ed1560e11b8152600481018690526024810185905260448101849052821515606482015290516001600160a01b0387169163af0dda2a91608480830192600092919082900301818387803b15801561048157600080fd5b505af1158015610495573d6000803e3d6000fd5b505050505050505050565b6104a8610c10565b60068054911515600160a01b0260ff60a01b19909216919091179055565b6004546001600160a01b031681565b6104dd610bc6565b600680546001600160a01b0319166001600160a01b0392909216919091179055565b60095481565b61050d610bc6565b600480546001600160a01b0319166001600160a01b0392909216919091179055565b60085481565b600654600160a01b900460ff1681565b600061054f610bc6565b600480546040805163f732ff4b60e01b81526001600160a01b038781169482019490945285841660248201529051929091169163f732ff4b91604480820192602092909190829003018186803b1580156105a857600080fd5b505afa1580156105bc573d6000803e3d6000fd5b505050506040513d60208110156105d257600080fd5b505190506001600160a01b03811661067e57600480546040805163245cb9e160e21b81526001600160a01b038981169482019490945287841660248201528684166044820152858416606482015290519290911691639172e784916084808201926020929091908290030181600087803b15801561064f57600080fd5b505af1158015610663573d6000803e3d6000fd5b505050506040513d602081101561067957600080fd5b505190505b60408051638aa9614960e01b81526001600160a01b0383811660048301528881166024830152915191871691638aa961499160448082019260009290919082900301818387803b1580156106d157600080fd5b505af11580156106e5573d6000803e3d6000fd5b5050505095945050505050565b60015490565b6000816001600160a01b0316836001600160a01b0316141561074a576040805162461bcd60e51b81526020600482015260066024820152655a463a20494160d01b604482015290519081900360640190fd5b6001600160a01b03838116600090815260208181526040808320868516845290915290205416156107ab576040805162461bcd60e51b81526020600482015260066024820152655a463a20504560d01b604482015290519081900360640190fd5b6107b6838386610c58565b6003546040805162f3d1d760e51b81526001600160a01b038781166004830152808516602483015291519394506000939190921691631e7a3ae091604480830192602092919082900301818787803b15801561081157600080fd5b505af1158015610825573d6000803e3d6000fd5b505050506040513d602081101561083b57600080fd5b50516003546040805162f3d1d760e51b81526001600160a01b038781166004830152868116602483015291519394506000939190921691631e7a3ae091604480830192602092919082900301818787803b15801561089857600080fd5b505af11580156108ac573d6000803e3d6000fd5b505050506040513d60208110156108c257600080fd5b505190506108d4858584848a88610ce2565b60408051633fb3e5cd60e21b81526001600160a01b0387811660048301528881166024830152858116604483015260006064830181905292519085169263fecf9734926084808201939182900301818387803b15801561093357600080fd5b505af1158015610947573d6000803e3d6000fd5b505060408051633fb3e5cd60e21b81526001600160a01b0388811660048301528a811660248301528781166044830152600160648301529151918516935063fecf9734925060848082019260009290919082900301818387803b1580156109ad57600080fd5b505af11580156109c1573d6000803e3d6000fd5b5050505050509392505050565b600b5481565b6109dc610c10565b600795909555600893909355600991909155600b55600c55600a55565b610a01610c10565b600580546001600160a01b0319166001600160a01b0392909216919091179055565b60075481565b60018181548110610a3657fe5b6000918252602090912001546001600160a01b0316905081565b600c5481565b6002546001600160a01b031681565b610a6d610bc6565b816001600160a01b031663438ab5ac826040518263ffffffff1660e01b815260040180826001600160a01b03166001600160a01b03168152602001915050600060405180830381600087803b158015610ac557600080fd5b505af1158015610ad9573d6000803e3d6000fd5b505050505050565b600a5481565b6000610af1610bc6565b836001600160a01b0316856001600160a01b03161415610b41576040805162461bcd60e51b81526020600482015260066024820152655a463a20494160d01b604482015290519081900360640190fd5b6001600160a01b0385811660009081526020818152604080832088851684529091529020541615610ba2576040805162461bcd60e51b81526020600482015260066024820152655a463a20504560d01b604482015290519081900360640190fd5b610bad858588610c58565b9050610bbd858585858a86610ce2565b95945050505050565b6006546001600160a01b03163314610c0e576040805162461bcd60e51b81526020600482015260066024820152652d282a1d102360d11b604482015290519081900360640190fd5b565b6005546001600160a01b03163314610c0e576040805162461bcd60e51b81526020600482015260066024820152652d282a1d102360d11b604482015290519081900360640190fd5b6000606060405180602001610c6c90610f81565b601f1982820381018352601f9091011660408181526001600160601b0319606089811b821660208581019190915289821b831660348601529088901b90911660488401528151603c818503018152605c909301909152815191810191909120825192935091829184016000f59695505050505050565b600480546040805163044209e560e51b81526001600160a01b038a81169482019490945288841660248201529051600093909216916388413ca091604480820192602092909190829003018186803b158015610d3d57600080fd5b505afa158015610d51573d6000803e3d6000fd5b505050506040513d6020811015610d6757600080fd5b5051600480546040805163245cb9e160e21b81526001600160a01b038781169482019490945287841660248201528b841660448201528a8416606482015290519394506000939290911691639172e7849160848082019260209290919082900301818787803b158015610dd957600080fd5b505af1158015610ded573d6000803e3d6000fd5b505050506040513d6020811015610e0357600080fd5b505160025460408051634514f16f60e11b81526001600160a01b038a8116600483015289811660248301528c811660448301528b81166064830152888116608483015292831660a482015282841660c482015285831660e4820152905192935090851691638a29e2de916101048082019260009290919082900301818387803b158015610e8f57600080fd5b505af1158015610ea3573d6000803e3d6000fd5b5050604080516001600160a01b038a8116825289811660208301528781168284015288811660608301529151828c169450918c1692507fab83557b3a718996d408afe08287d09bafed3590c7ae61a430d518d3199d4590919081900360800190a350506001600160a01b0395861660009081526020818152604080832097891683529690529485208054969091166001600160a01b0319968716811790915560018054808201825595527fb10e2d527612073b26eecdfd717e6a320cf44b4afac2b0732d9fcbe2b7fa0cf69094018054909516909317909355505050565b614fe480610f8f8339019056fe6080604052600060175534801561001557600080fd5b506000805460ff19166001179055600480546001600160a01b03191633179055614fa0806100446000396000f3fe608060405234801561001057600080fd5b50600436106101125760003560e01c80630a22d5f314610117578063158ef93e14610145578063192b65d81461015f5780633339dc1a1461016757806333cdde4e1461016f578063438ab5ac1461019d5780634a00d16a146101c55780638a29e2de146101cd5780638aa961491461022c5780638d470e221461025a5780638ffa32361461028857806397ed64db146102a4578063a01de3aa146102ac578063a9f0e58f146102b4578063af0dda2a146102bc578063b7073003146102ed578063ba7b3dea146102f5578063c561cf4f14610323578063c9bd59a01461036a578063efefd9f914610372578063f29401c41461037a578063fef93492146103a0575b600080fd5b61011f6103a8565b604080516001600160701b03938416815291909216602082015281519081900390910190f35b61014d6103c3565b60408051918252519081900360200190f35b61014d6103c9565b61014d6103cf565b61014d6004803603604081101561018557600080fd5b506001600160a01b03813516906020013515156103d5565b6101c3600480360360208110156101b357600080fd5b50356001600160a01b0316610a50565b005b61014d610b7c565b6101c360048036036101008110156101e457600080fd5b506001600160a01b038135811691602081013582169160408201358116916060810135821691608082013581169160a081013582169160c082013581169160e0013516610b82565b6101c36004803603604081101561024257600080fd5b506001600160a01b0381358116916020013516610d17565b61014d6004803603604081101561027057600080fd5b506001600160a01b0381351690602001351515610d4d565b6102906111aa565b604080519115158252519081900360200190f35b61014d6111ba565b6102906111c0565b61014d6111c9565b6101c3600480360360808110156102d257600080fd5b508035906020810135906040810135906060013515156111cf565b61014d61121e565b61014d6004803603604081101561030b57600080fd5b506001600160a01b0381351690602001351515611224565b6103516004803603604081101561033957600080fd5b506001600160a01b0381351690602001351515611744565b6040805192835260208301919091528051918290030190f35b61014d611cde565b61014d611ce4565b6103516004803603602081101561039057600080fd5b50356001600160a01b0316611cea565b61014d612250565b6016546001600160701b0380821692600160701b9092041690565b60175481565b600a5481565b60105481565b6000805460ff1661041b576040805162461bcd60e51b815260206004820152601f6024820152600080516020614f27833981519152604482015290519081900360640190fd5b6000805460ff1916905561042d612256565b61043561230f565b60008261044d576006546001600160a01b031661045a565b6007546001600160a01b03165b90506000806104676103a8565b600154604080516370a0823160e01b815230600482015290519395509193506000928392839283926001600160a01b03909116916370a08231916024808301926020929190829003018186803b1580156104c057600080fd5b505afa1580156104d4573d6000803e3d6000fd5b505050506040513d60208110156104ea57600080fd5b5051600254604080516370a0823160e01b815230600482015290519293506000926001600160a01b03909216916370a0823191602480820192602092909190829003018186803b15801561053d57600080fd5b505afa158015610551573d6000803e3d6000fd5b505050506040513d602081101561056757600080fd5b50519050610584826001600160701b03891663ffffffff61273016565b945061059f816001600160701b03881663ffffffff61273016565b935060006105ab612786565b90506105b9868260006129ac565b95506105c7858260016129ac565b94506000806105d7600080612c38565b915091508c61062657610623670de0b6b3a7640000610604600e5460020285612db190919063ffffffff16565b8161060b57fe5b6001600160701b038d1691900463ffffffff612e1416565b95505b60008d610675576106708261065260026106468c8863ffffffff612db116565b9063ffffffff612db116565b8161065957fe5b0461066b8b600263ffffffff612db116565b612e63565b6106a7565b6106a78361068e60026106468d8763ffffffff612db116565b8161069557fe5b0461066b8a600263ffffffff612db116565b90508d15610782576106eb600b60009054906101000a900460ff1682600c546106e48e6001600160701b0316600a5461273090919063ffffffff16565b8787612e79565b600c8190555060008c6001600160a01b03166318160ddd6040518163ffffffff1660e01b815260040160206040518083038186803b15801561072c57600080fd5b505afa158015610740573d6000803e3d6000fd5b505050506040513d602081101561075657600080fd5b5051600a5490915061076e838363ffffffff612db116565b8161077557fe5b600a805485019055049d50505b505050505050610791836130bf565b61079a826130bf565b6001546003546107b7916001600160a01b039081169116856130fd565b6002546003546107d4916001600160a01b039081169116846130fd565b600354604080516335313c2160e11b815230600482015290516001600160a01b0390921691636a627842916024808201926020929091908290030181600087803b15801561082157600080fd5b505af1158015610835573d6000803e3d6000fd5b505050506040513d602081101561084b57600080fd5b506000905061085861327b565b5090508861097c57600061086d600080612c38565b509050600061087a6103a8565b5090506000896001600160a01b03166318160ddd6040518163ffffffff1660e01b815260040160206040518083038186803b1580156108b857600080fd5b505afa1580156108cc573d6000803e3d6000fd5b505050506040513d60208110156108e257600080fd5b505190506000610926670de0b6b3a7640000610907866002890263ffffffff612db116565b8161090e57fe5b6001600160701b03861691900463ffffffff612e1416565b9050670de0b6b3a764000061096d610960670de0b6b3a76400008985670de0b6b3a7640000028161095357fe5b049063ffffffff61273016565b849063ffffffff612db116565b8161097457fe5b049b50505050505b866001600160a01b03166340c10f198b8a6040518363ffffffff1660e01b815260040180836001600160a01b03166001600160a01b0316815260200182815260200192505050600060405180830381600087803b1580156109dc57600080fd5b505af11580156109f0573d6000803e3d6000fd5b5050604080513381526020810188905280820187905290517f9a36e9f82fd3ab4ec26a87598c0f7f4519b7895fa6a0bca1968b486ee019b0829350908190036060019150a150506000805460ff1916600117905550939695505050505050565b610a58613531565b600354604080516370a0823160e01b81523060048201529051610ad9926001600160a01b031691849183916370a08231916024808301926020929190829003018186803b158015610aa857600080fd5b505afa158015610abc573d6000803e3d6000fd5b505050506040513d6020811015610ad257600080fd5b50516130fd565b600254604080516370a0823160e01b81523060048201529051610b29926001600160a01b031691849183916370a08231916024808301926020929190829003018186803b158015610aa857600080fd5b600154604080516370a0823160e01b81523060048201529051610b79926001600160a01b031691849183916370a08231916024808301926020929190829003018186803b158015610aa857600080fd5b50565b600d5481565b60005460ff16610bc7576040805162461bcd60e51b815260206004820152601f6024820152600080516020614f27833981519152604482015290519081900360640190fd5b6000805460ff19169055610bd9613531565b600680546001600160a01b03808b166001600160a01b031992831617909255600780548a84169083161790556003805487841692168217905560408051630dfe168160e01b8152905192891692630dfe168191600481810192602092909190829003018186803b158015610c4c57600080fd5b505afa158015610c60573d6000803e3d6000fd5b505050506040513d6020811015610c7657600080fd5b505160098054604080518082019091526001600160a01b039a8b16808252998b166020909101819052600180546001600160a01b0319908116909b178155600280548c16909217909155600580548b16988c1698909817909755600880548a16968b169690961790955560ff60a01b1990941690881691909114600160a01b021790941693909416929092179092556000805460ff19169091179055505050565b610d1f613531565b600880546001600160a01b039384166001600160a01b03199182161790915560098054929093169116179055565b6000805460ff16610d93576040805162461bcd60e51b815260206004820152601f6024820152600080516020614f27833981519152604482015290519081900360640190fd5b6000805460ff19169055610da5612256565b610dad61230f565b600080610db86103a8565b915091506000610e8785610dcc5783610dce565b825b6001600160701b031686610ded576001546001600160a01b0316610dfa565b6002546001600160a01b03165b6001600160a01b03166370a08231306040518263ffffffff1660e01b815260040180826001600160a01b03166001600160a01b0316815260200191505060206040518083038186803b158015610e4f57600080fd5b505afa158015610e63573d6000803e3d6000fd5b505050506040513d6020811015610e7957600080fd5b50519063ffffffff61273016565b9050610e92816130bf565b610ea481610e9e612786565b876129ac565b9050600080610eb4600080612c38565b91509150600087610f0557610f02670de0b6b3a7640000610ee3600e5460020286612db190919063ffffffff16565b81610eea57fe5b6001600160701b03891691900463ffffffff612e1416565b90505b600088610f1d576006546001600160a01b0316610f2a565b6007546001600160a01b03165b6001600160a01b03166318160ddd6040518163ffffffff1660e01b815260040160206040518083038186803b158015610f6257600080fd5b505afa158015610f76573d6000803e3d6000fd5b505050506040513d6020811015610f8c57600080fd5b505190506000610fbf868b610fa15786610fa3565b855b8c610fae578a610fb0565b895b6001600160701b03168d613579565b90508915610fed57600a54610fda828463ffffffff612db116565b81610fe157fe5b600a8054840190550498505b600080610ff861327b565b915091508b6110f25760008861101c85670de0b6b3a764000063ffffffff612db116565b8161102357fe5b0490506000611033600080612c38565b50905060006110406103a8565b5090506000611083670de0b6b3a76400006110648560028a0263ffffffff612db116565b8161106b57fe5b6001600160701b03851691900463ffffffff612e1416565b90506000670de0b6b3a76400006110bf6110b2670de0b6b3a76400008d86670de0b6b3a7640000028161095357fe5b8b9063ffffffff612db116565b816110c657fe5b049050670de0b6b3a76400006110e2828763ffffffff612db116565b816110e957fe5b049f5050505050505b8b611108576006546001600160a01b0316611115565b6007546001600160a01b03165b6001600160a01b03166340c10f198e8d6040518363ffffffff1660e01b815260040180836001600160a01b03166001600160a01b0316815260200182815260200192505050600060405180830381600087803b15801561117457600080fd5b505af1158015611188573d6000803e3d6000fd5b50506000805460ff19166001179055509a9d9c50505050505050505050505050565b600954600160a01b900460ff1681565b600e5481565b600b5460ff1681565b600c5481565b6111d7613531565b600e849055600a839055600c829055600b805460ff1916821515179055600f84905543601455601584905582156112135761121061327b565b50505b505060016017555050565b60115481565b6000805460ff1661126a576040805162461bcd60e51b815260206004820152601f6024820152600080516020614f27833981519152604482015290519081900360640190fd5b6000805460ff1916905561127c612256565b61128461230f565b60008261129c576006546001600160a01b03166112a9565b6007546001600160a01b03165b604080516370a0823160e01b815230600482015290519192506000916001600160a01b038416916370a08231916024808301926020929190829003018186803b1580156112f557600080fd5b505afa158015611309573d6000803e3d6000fd5b505050506040513d602081101561131f57600080fd5b5051905061132c816130bf565b6000826001600160a01b03166318160ddd6040518163ffffffff1660e01b815260040160206040518083038186803b15801561136757600080fd5b505afa15801561137b573d6000803e3d6000fd5b505050506040513d602081101561139157600080fd5b5051600354909150869086906001600160a01b03166000806113b48487896136f8565b9150915060006113c2612786565b905060006113f26127106113dc858563ffffffff612db116565b816113e357fe5b8591900463ffffffff61273016565b90506114218661140d576001546001600160a01b031661141a565b6002546001600160a01b03165b88836130fd565b8884101561164357600061143b8a8663ffffffff61273016565b9050600061144a88838c6137d5565b9050600061147a612710611464848863ffffffff612db116565b8161146b57fe5b8491900463ffffffff61273016565b9050600089156115735761148d826139e0565b90925090508b600061149d6103a8565b6001600160701b031691505060006114b6600080612c38565b600b54600a5491935061156c925060ff169085908a02816114d357fe5b600354604080516370a0823160e01b8152306004820152905193909204928a926001600160a01b03909216916370a08231916024808301926020929190829003018186803b15801561152457600080fd5b505afa158015611538573d6000803e3d6000fd5b505050506040513d602081101561154e57600080fd5b5051600c54600a54611566908963ffffffff61273016565b87613bc0565b600c555050505b61157e87878c6129ac565b5061158a898a846130fd565b600954604080516302ce510960e41b81526001600160a01b038e8116600483015260ff600160a01b9094049390931615158d15151415602482015290516000928c1691632ce5109091604480830192602092919082900301818787803b1580156115f357600080fd5b505af1158015611607573d6000803e3d6000fd5b505050506040513d602081101561161d57600080fd5b5051958601959050611632600082848f613d58565b61163c8488613f8b565b5050505050505b60408051632770a7eb60e21b8152306004820152602481018b905290516001600160a01b038c1691639dc29fac91604480830192600092919082900301818387803b15801561169157600080fd5b505af11580156116a5573d6000803e3d6000fd5b50505050809a505050505050505084156116e357600a5481906116ce908463ffffffff612db116565b816116d557fe5b600a80549290910490910390555b6116eb61327b565b505060408051338152602081018690528615158183015290517f5cf7281eb36e25a92ffd0cff3089777ca0cb41d28e8c7158c234b1eae9a07ed29181900360600190a150506000805460ff191660011790555092915050565b60008054819060ff1661178c576040805162461bcd60e51b815260206004820152601f6024820152600080516020614f27833981519152604482015290519081900360640190fd5b6000805460ff1916905561179e612256565b6117a661230f565b6000836117be576006546001600160a01b03166117cb565b6007546001600160a01b03165b604080516370a0823160e01b815230600482015290519192506000916001600160a01b038416916370a08231916024808301926020929190829003018186803b15801561181757600080fd5b505afa15801561182b573d6000803e3d6000fd5b505050506040513d602081101561184157600080fd5b5051905061184e816130bf565b6000826001600160a01b03166318160ddd6040518163ffffffff1660e01b815260040160206040518083038186803b15801561188957600080fd5b505afa15801561189d573d6000803e3d6000fd5b505050506040513d60208110156118b357600080fd5b505190506000806118c2612786565b905060006118d18986866137d5565b90506000806118de6103a8565b6001600160701b031691506001600160701b03169150600080611902600080612c38565b9150915060008d6119675761194885670de0b6b3a7640000611934600e54610646600289612db190919063ffffffff16565b8161193b57fe5b049063ffffffff612e1416565b6119588a8763ffffffff612db116565b8161195f57fe5b048903611985565b600a5461197a8a8663ffffffff612db116565b8161198157fe5b0489035b9050808a106119c4576040805162461bcd60e51b815260206004808301919091526024820152635a3a204560e01b604482015290519081900360640190fd5b5060006119f36127106119dd898963ffffffff612db116565b816119e457fe5b8891900463ffffffff61273016565b90508d15611ace57611a04816139e0565b600b54600a54919a50919250611aca9160ff16908b90611a2a908e63ffffffff612db116565b81611a3157fe5b600354604080516370a0823160e01b81523060048201529051939092049286926001600160a01b03909216916370a08231916024808301926020929190829003018186803b158015611a8257600080fd5b505afa158015611a96573d6000803e3d6000fd5b505050506040513d6020811015611aac57600080fd5b5051600c54600a54611ac4908b63ffffffff61273016565b88613bc0565b600c555b600354611ae5906001600160a01b031680836130fd565b5050505050600080600360009054906101000a90046001600160a01b03166001600160a01b03166389afcb448d6040518263ffffffff1660e01b815260040180826001600160a01b03166001600160a01b031681526020019150506040805180830381600087803b158015611b5957600080fd5b505af1158015611b6d573d6000803e3d6000fd5b505050506040513d6040811015611b8357600080fd5b5080516020909101519092509050611b9b8385613f8b565b50600954600160a01b900460ff16611bb35780611bb5565b815b600954909a50600160a01b900460ff16611bcf5781611bd1565b805b9850611bdf8a8a878f613d58565b60408051632770a7eb60e21b81523060048201526024810189905290516001600160a01b038a1691639dc29fac91604480830192600092919082900301818387803b158015611c2d57600080fd5b505af1158015611c41573d6000803e3d6000fd5b505050508a15611c7557600a548690611c60908963ffffffff612db116565b81611c6757fe5b600a80549290910490910390555b611c7d61327b565b505060408051338152602081018c90528082018b905290517fb83dbb1f0386f1b6d6f534f325d617e3f96f2971cca29021702094328c1cb70c9181900360600190a150506000805460ff191660011790555095989497509395505050505050565b60125481565b60135481565b60008054819060ff16611d32576040805162461bcd60e51b815260206004820152601f6024820152600080516020614f27833981519152604482015290519081900360640190fd5b6000805460ff19169055601754158015611db757506004805460408051635c975abb60e01b815290516001600160a01b0390921692635c975abb928282019260209290829003018186803b158015611d8957600080fd5b505afa158015611d9d573d6000803e3d6000fd5b505050506040513d6020811015611db357600080fd5b5051155b611df1576040805162461bcd60e51b8152602060048083019190915260248201526305a3a20560e41b604482015290519081900360640190fd5b600154604080516370a0823160e01b815230600482015290516000926001600160a01b0316916370a08231916024808301926020929190829003018186803b158015611e3c57600080fd5b505afa158015611e50573d6000803e3d6000fd5b505050506040513d6020811015611e6657600080fd5b5051600254604080516370a0823160e01b815230600482015290519293506000926001600160a01b03909216916370a0823191602480820192602092909190829003018186803b158015611eb957600080fd5b505afa158015611ecd573d6000803e3d6000fd5b505050506040513d6020811015611ee357600080fd5b50519050611ef0826130bf565b611ef9816130bf565b600080611f046140b0565b915091506000826001600160701b0316118015611f2a57506000816001600160701b0316115b15611f5357611f4d826001600160701b0316826001600160701b03168686614179565b90945092505b600a839055670de0b6b3a7640000600c819055611f749084906000826141d4565b50600b805460ff1916911515919091179055600e55600754604080516340c10f1960e01b81526000600482018190526103e8602483015291516001600160a01b03909316926340c10f199260448084019391929182900301818387803b158015611fdd57600080fd5b505af1158015611ff1573d6000803e3d6000fd5b5050600654604080516340c10f1960e01b81526000600482018190526103e8602483015291516001600160a01b0390931694506340c10f1993506044808201939182900301818387803b15801561204757600080fd5b505af115801561205b573d6000803e3d6000fd5b505050506120746103e88461273090919063ffffffff16565b94506120b16103e86120926002600e54612db190919063ffffffff16565b6120aa87670de0b6b3a764000063ffffffff612db116565b8161095357fe5b95506000600460009054906101000a90046001600160a01b03166001600160a01b031663a3ad52b86040518163ffffffff1660e01b815260040160206040518083038186803b15801561210357600080fd5b505afa158015612117573d6000803e3d6000fd5b505050506040513d602081101561212d57600080fd5b5051905061213a816142dd565b600754604080516340c10f1960e01b81526001600160a01b038b81166004830152602482018a9052915191909216916340c10f1991604480830192600092919082900301818387803b15801561218f57600080fd5b505af11580156121a3573d6000803e3d6000fd5b5050600654604080516340c10f1960e01b81526001600160a01b038d81166004830152602482018d905291519190921693506340c10f199250604480830192600092919082900301818387803b1580156121fc57600080fd5b505af1158015612210573d6000803e3d6000fd5b5050600e54600f819055436014556015555061222c905061327b565b5050600160178190556000805460ff19169091179055509496939550929350505050565b600f5481565b60175460011480156122d357506004805460408051635c975abb60e01b815290516001600160a01b0390921692635c975abb928282019260209290829003018186803b1580156122a557600080fd5b505afa1580156122b9573d6000803e3d6000fd5b505050506040513d60208110156122cf57600080fd5b5051155b61230d576040805162461bcd60e51b8152602060048083019190915260248201526305a3a20560e41b604482015290519081900360640190fd5b565b6003546001600160a01b0316331461238a57600360009054906101000a90046001600160a01b03166001600160a01b03166311816b046040518163ffffffff1660e01b8152600401600060405180830381600087803b15801561237157600080fd5b505af1158015612385573d6000803e3d6000fd5b505050505b600360009054906101000a90046001600160a01b03166001600160a01b031663145f3c276040518163ffffffff1660e01b8152600401600060405180830381600087803b1580156123da57600080fd5b505af11580156123ee573d6000803e3d6000fd5b50505050600080612400600080612c38565b91509150600061240e6103a8565b600e549092509050831580159061242457508215155b1561272a5760008061244461243f878763ffffffff612db116565b614609565b600d5490915086908690831115612567576000600d54612473600f54600d548703612db190919063ffffffff16565b8161247a57fe5b049050801561256557670de0b6b3a764000061249c898363ffffffff612db116565b600202816124a657fe5b04945060006124c9886001600160701b0316600a5461273090919063ffffffff16565b600b54600a549192506125609160ff909116906124ec898563ffffffff612db116565b816124f357fe5b04600c546125158c6001600160701b0316600a5461273090919063ffffffff16565b670de0b6b3a76400006125308a89830363ffffffff612db116565b8161253757fe5b04670de0b6b3a76400006125538a8a830363ffffffff612db116565b8161255a57fe5b04612e79565b600c55505b505b5050600a8054830190819055600c5461258b91906001600160701b038716886141d4565b50600b805460ff1916911515919091179055600e556125a861465b565b600d8190556013546000906125c490439063ffffffff61273016565b905080156126bd576000600460009054906101000a90046001600160a01b03166001600160a01b031663ed6b92cd6040518163ffffffff1660e01b815260040160206040518083038186803b15801561261c57600080fd5b505afa158015612630573d6000803e3d6000fd5b505050506040513d602081101561264657600080fd5b5051601254909150600090600a439190910311612664576000612669565b600a83045b905061267e600183018263ffffffff612e1416565b6126976011548460105402612e1490919063ffffffff16565b8161269e57fe5b04601055600e546126af908761487d565b6011555050436013556126df565b6126db6126cc600e548661487d565b6011549063ffffffff612e1416565b6011555b600a54600c54600e5460408051938452602084019290925282820152517f54964c70825f65946c2e16cd62d98784e0536cf3d54b15ce1845f37f325945d29181900360600190a15050505b50505050565b80820382811115612780576040805162461bcd60e51b815260206004820152601560248201527464732d6d6174682d7375622d756e646572666c6f7760581b604482015290519081900360640190fd5b92915050565b6000806127976010546011546148ad565b90506000600460009054906101000a90046001600160a01b03166001600160a01b0316635942f95e6040518163ffffffff1660e01b815260040160206040518083038186803b1580156127e957600080fd5b505afa1580156127fd573d6000803e3d6000fd5b505050506040513d602081101561281357600080fd5b5051600854600e5460408051630134dce560e11b81526004810192909252519293506001600160a01b0390911691630269b9ca91602480820192602092909190829003018186803b15801561286757600080fd5b505afa15801561287b573d6000803e3d6000fd5b505050506040513d602081101561289157600080fd5b505192508082106129a7576012544303600082670de0b6b3a7640000816128b457fe5b049050808211156128c857436012556129a4565b60048054604080516315f4859960e11b815290516129639389936001600160a01b031692632be90b329281830192602092829003018186803b15801561290d57600080fd5b505afa158015612921573d6000803e3d6000fd5b505050506040513d602081101561293757600080fd5b50516127108661294d898363ffffffff612db116565b8161295457fe5b0403019063ffffffff612e1416565b945061271085106129a4576040805162461bcd60e51b81526020600482015260066024820152650b474408ca8960d31b604482015290519081900360640190fd5b50505b505090565b600061271083850204806129c35784915050612c31565b82156129eb576002546008546129e6916001600160a01b039081169116836130fd565b612bc3565b600154600354612a08916001600160a01b039081169116836130fd565b600080612a136140b0565b915091506000612aa7600560009054906101000a90046001600160a01b03166001600160a01b03166398118cb46040518163ffffffff1660e01b815260040160206040518083038186803b158015612a6a57600080fd5b505afa158015612a7e573d6000803e3d6000fd5b505050506040513d6020811015612a9457600080fd5b505185906127100363ffffffff612db116565b90506000612ad682612aca6001600160701b03871661271063ffffffff612db116565b9063ffffffff612e1416565b612aef836001600160701b03861663ffffffff612db116565b81612af657fe5b6003546009549290910492506001600160a01b03169063022c0d9f90600160a01b900460ff16612b265782612b29565b60005b600954600160a01b900460ff16612b41576000612b43565b835b600854604080516001600160e01b031960e087901b168152600481019490945260248401929092526001600160a01b0316604483015260806064830152600060848301819052905160c48084019382900301818387803b158015612ba657600080fd5b505af1158015612bba573d6000803e3d6000fd5b50505050505050505b600860009054906101000a90046001600160a01b03166001600160a01b03166303f187ea6040518163ffffffff1660e01b8152600401600060405180830381600087803b158015612c1357600080fd5b505af1158015612c27573d6000803e3d6000fd5b5050509085039150505b9392505050565b600080600080612c466140b0565b600354604080516370a0823160e01b815230600482015290519395509193506000926001600160a01b03909116916370a08231916024808301926020929190829003018186803b158015612c9957600080fd5b505afa158015612cad573d6000803e3d6000fd5b505050506040513d6020811015612cc357600080fd5b5051600354604080516318160ddd60e01b815290519293506000926001600160a01b03909216916318160ddd91600480820192602092909190829003018186803b158015612d1057600080fd5b505afa158015612d24573d6000803e3d6000fd5b505050506040513d6020811015612d3a57600080fd5b50519050811580612d49575080155b15612d5d5787879550955050505050612daa565b80612d776001600160701b0386168463ffffffff612db116565b81612d7e57fe5b0481612d996001600160701b0386168563ffffffff612db116565b81612da057fe5b0495509550505050505b9250929050565b6000811580612dcc57505080820282828281612dc957fe5b04145b612780576040805162461bcd60e51b815260206004820152601460248201527364732d6d6174682d6d756c2d6f766572666c6f7760601b604482015290519081900360640190fd5b80820182811015612780576040805162461bcd60e51b815260206004820152601460248201527364732d6d6174682d6164642d6f766572666c6f7760601b604482015290519081900360640190fd5b6000818310612e725781612c31565b5090919050565b600080612e9f86670de0b6b3a76400006002820a5b0403670de0b6b3a764000002614609565b90506000868210612eb257818701612eb6565b8187035b9050600086612ed386670de0b6b3a764000063ffffffff612db116565b81612eda57fe5b0490508181670de0b6b3a76400000281612ef057fe5b0490508980612f075750670de0b6b3a76400008110155b156130ad5789158015612f4357508087612f2f8b670de0b6b3a764000063ffffffff612db116565b81612f3657fe5b04670de0b6b3a764000001105b15612f53578793505050506130b5565b8860008b612f99578688671bc16d674ec80000612f81670de0b6b3a763ffff1987018d63ffffffff612db116565b81612f8857fe5b040281612f9157fe5b048801612f9b565b875b905060008c612fd757671bc16d674ec80000612fc8670de0b6b3a763ffff1986018c63ffffffff612db116565b81612fcf57fe5b048801612fd9565b875b905060008d61300857670de0b6b3a7640000612ffb868d63ffffffff612db116565b8161300257fe5b0461300a565b8a5b9050600083613045600287048c018c60020261302f8f8a612db190919063ffffffff16565b8161303657fe5b048e019063ffffffff612db116565b8161304c57fe5b04905082613060828463ffffffff612db116565b8161306757fe5b0498508b850161307d8a8f63ffffffff612db116565b8161308457fe5b049850670de0b6b3a76400008910156130a357670de0b6b3a764000098505b50505050506130b1565b8793505b5050505b9695505050505050565b60008111610b79576040805162461bcd60e51b815260206004808301919091526024820152632d1d102d60e11b604482015290519081900360640190fd5b60408051808201825260198152787472616e7366657228616464726573732c75696e743235362960381b60209182015281516001600160a01b0385811660248301526044808301869052845180840390910181526064909201845291810180516001600160e01b031663a9059cbb60e01b1781529251815160009460609489169392918291908083835b602083106131a65780518252601f199092019160209182019101613187565b6001836020036101000a0380198251168184511680821785525050505050509050019150506000604051808303816000865af19150503d8060008114613208576040519150601f19603f3d011682016040523d82523d6000602084013e61320d565b606091505b509150915081801561323b57508051158061323b575080806020019051602081101561323857600080fd5b50515b613274576040805162461bcd60e51b81526020600482015260056024820152642d1d102a2360d91b604482015290519081900360640190fd5b5050505050565b600154604080516370a0823160e01b81523060048201529051600092839283926001600160a01b03909216916370a0823191602480820192602092909190829003018186803b1580156132cd57600080fd5b505afa1580156132e1573d6000803e3d6000fd5b505050506040513d60208110156132f757600080fd5b5051600254604080516370a0823160e01b815230600482015290519293506000926001600160a01b03909216916370a0823191602480820192602092909190829003018186803b15801561334a57600080fd5b505afa15801561335e573d6000803e3d6000fd5b505050506040513d602081101561337457600080fd5b505190506000806133858484612c38565b915091506000600460009054906101000a90046001600160a01b03166001600160a01b031663a3ad52b86040518163ffffffff1660e01b815260040160206040518083038186803b1580156133d957600080fd5b505afa1580156133ed573d6000803e3d6000fd5b505050506040513d602081101561340357600080fd5b505190506000606461341b858463ffffffff612db116565b8161342257fe5b04905060006064613439858563ffffffff612db116565b8161344057fe5b04905061344f878784846148bc565b6134598787612c38565b909550935061347161243f868663ffffffff612db116565b600d55600061347e6103a8565b6001600160701b031691505061349a600a54600c5483886141d4565b6004805460408051632ca17caf60e11b81529051959f50929d506001600160a01b031693635942f95e93508282019260209290829003018186803b1580156134e157600080fd5b505afa1580156134f5573d6000803e3d6000fd5b505050506040513d602081101561350b57600080fd5b5051600e5461351b908c9061487d565b1061352557436012555b50505050505050509091565b6004546001600160a01b0316331461230d576040805162461bcd60e51b815260206004808301919091526024820152632d1d102360e11b604482015290519081900360640190fd5b6004805460408051631475aa5760e31b8152905160009384936001600160a01b03169263a3ad52b89281830192602092829003018186803b1580156135bd57600080fd5b505afa1580156135d1573d6000803e3d6000fd5b505050506040513d60208110156135e757600080fd5b50519050600060646135ff878463ffffffff612db116565b8161360657fe5b04905060008582111561363d5750848103801561363d578088116136385761362d836142dd565b8793505050506136f0565b928301925b80881061367a576040805162461bcd60e51b81526020600482015260066024820152655a503a20417360d01b604482015290519081900360640190fd5b80880360006136898288614b3c565b905086156136d75760008061369f600080612c38565b600b54600c54600a549395509193506136d19260ff9091169186916136ca908f63ffffffff61273016565b8686612e79565b600c5550505b9485019482156136ea576136ea856142dd565b50505050505b949350505050565b600080600080613709600080612c38565b915091506000806137186103a8565b91509150600089613729578261372b565b815b6001600160701b0316905060008a6137435785613745565b845b600e54600a549192509061375e8d858e86828787614d1f565b9950600061376c8b8d612e63565b90508d15613794578c613785838363ffffffff612db116565b8161378c57fe5b0499506137c4565b8c6137b98261064688670de0b6b3a76400006119346002848c8c63ffffffff612db116565b816137c057fe5b0499505b505050505050505050935093915050565b60008060006137e5600180612c38565b915091506000806137f46103a8565b600354604080516370a0823160e01b8152306004820152905193955091935060009283926001600160a01b03909216916370a08231916024808301926020929190829003018186803b15801561384957600080fd5b505afa15801561385d573d6000803e3d6000fd5b505050506040513d602081101561387357600080fd5b5051905089156138ca5761388e85600263ffffffff612db116565b600a546138bb906138ae906001600160701b03871663ffffffff61273016565b839063ffffffff612db116565b816138c257fe5b0491506138f2565b600e54670de0b6b3a7640000906138e7908363ffffffff612db116565b816138ee57fe5b0491505b60008a61395157613929856001600160701b0316670de0b6b3a7640000611934600e5461064660028d612db190919063ffffffff16565b6139428a6001600160701b03881663ffffffff612db116565b8161394957fe5b048903613978565b600a5461396d8a6001600160701b03871663ffffffff612db116565b8161397457fe5b0489035b90508061398b8b8563ffffffff612db116565b8161399257fe5b049750600088116139d2576040805162461bcd60e51b81526020600482015260056024820152642d1d1021ad60d91b604482015290519081900360640190fd5b505050505050509392505050565b60008060006139ed6103a8565b6001600160701b03169150506000613a06600080612c38565b9150506000613a66670de0b6b3a7640000613a2c85600a5461273090919063ffffffff16565b613a59613a4086600263ffffffff612db116565b600e54670de0b6b3a7640000039063ffffffff612db116565b81613a6057fe5b04612e63565b9050670de0b6b3a7640000613a81828863ffffffff612db116565b81613a8857fe5b049450670de0b6b3a7640000811015613bb8576000670de0b6b3a7640000613ab88884830363ffffffff612db116565b81613abf57fe5b600354600854604080516370a0823160e01b81526001600160a01b03928316600482015290519490930494506000939116916370a08231916024808301926020929190829003018186803b158015613b1657600080fd5b505afa158015613b2a573d6000803e3d6000fd5b505050506040513d6020811015613b4057600080fd5b5051905080821015613b6f57600354600854613b6a916001600160a01b0390811691168185614da2565b613bb5565b600354600854613b8d916001600160a01b0390811691168184614da2565b87613baa670de0b6b3a7640000610646858563ffffffff61273016565b81613bb157fe5b0495505b50505b505050915091565b60008780613bd55750670de0b6b3a764000084115b15613d4a57868815613c81576000613bf986670de0b6b3a76400006002820a612e8e565b90506000868210613c0c57818701613c10565b8187035b9050600086613c2d87670de0b6b3a764000063ffffffff612db116565b81613c3457fe5b0490508181670de0b6b3a76400000281613c4a57fe5b049050613c7b670de0b6b3a7640000613c6d89610646838663ffffffff61273016565b81613c7457fe5b048c612e63565b93505050505b600088613c94898463ffffffff612db116565b81613c9b57fe5b0490506000670de0b6b3a7640000600289613cbc838663ffffffff612db116565b81613cc357fe5b04670de0b6b3a7640000030a81613cd657fe5b049050613ce9868463ffffffff61273016565b613cf9828863ffffffff612db116565b81613d0057fe5b049350670de0b6b3a7640000613d1c858963ffffffff612db116565b81613d2357fe5b049350670de0b6b3a7640000841015613d4257670de0b6b3a764000093505b505050613d4d565b50825b979650505050505050565b811561272a57828415613da057600080613d706140b0565b6001600160701b03918216935016905081613d91888363ffffffff612db116565b81613d9857fe5b048301925050505b600083670de0b6b3a764000003613dc8670de0b6b3a764000084612db190919063ffffffff16565b81613dcf57fe5b0490506000613de4828463ffffffff61273016565b600254600854604080516370a0823160e01b81526001600160a01b0392831660048201529051939450849391909216916370a08231916024808301926020929190829003018186803b158015613e3957600080fd5b505afa158015613e4d573d6000803e3d6000fd5b505050506040513d6020811015613e6357600080fd5b50511115613e8e57600254600854613e89916001600160a01b0390811691168684614da2565b613f1a565b600254600854604080516370a0823160e01b81526001600160a01b03928316600482018190529151613f1a949390931692889184916370a0823191602480820192602092909190829003018186803b158015613ee957600080fd5b505afa158015613efd573d6000803e3d6000fd5b505050506040513d6020811015613f1357600080fd5b5051614da2565b600860009054906101000a90046001600160a01b03166001600160a01b0316634923b2306040518163ffffffff1660e01b8152600401600060405180830381600087803b158015613f6a57600080fd5b505af1158015613f7e573d6000803e3d6000fd5b5050505050505050505050565b60006127108284020480613fa25783915050612780565b600354613fb9906001600160a01b031680836130fd565b600354600854600954604080516302ce510960e41b81526001600160a01b039384166004820152600160a01b90920460ff16156024830152519190921691632ce510909160448083019260209291908290030181600087803b15801561401e57600080fd5b505af1158015614032573d6000803e3d6000fd5b505050506040513d602081101561404857600080fd5b5050600854604080516301f8c3f560e11b815290516001600160a01b03909216916303f187ea9160048082019260009290919082900301818387803b15801561409057600080fd5b505af11580156140a4573d6000803e3d6000fd5b50505093039392505050565b600080600080600360009054906101000a90046001600160a01b03166001600160a01b0316630902f1ac6040518163ffffffff1660e01b815260040160606040518083038186803b15801561410457600080fd5b505afa158015614118573d6000803e3d6000fd5b505050506040513d606081101561412e57600080fd5b5080516020909101516009549193509150600160a01b900460ff166141535780614155565b815b600954909450600160a01b900460ff1661416f5781614171565b805b925050509091565b600080808561418e888663ffffffff612db116565b8161419557fe5b049050848111156141c357849250866141b4848863ffffffff612db116565b816141bb57fe5b0491506141ca565b8092508391505b5094509492505050565b60008080806141ea85600263ffffffff612db116565b905060006141fe898863ffffffff61273016565b9050600061421889670de0b6b3a76400006002820a612e8e565b9050600089821061422b57818a0161422f565b818a035b9050670de0b6b3a764000061424a848363ffffffff612db116565b8161425157fe5b04945084881115614281578383670de0b6b3a7640000028161426f57fe5b04670de0b6b3a76400000396506142cf565b6004830261429d85670de0b6b3a764000063ffffffff612db116565b816142a457fe5b049650896142c088670de0b6b3a764000063ffffffff612db116565b816142c757fe5b049650600195505b505050509450945094915050565b600154604080516370a0823160e01b815230600482015290516000926001600160a01b0316916370a08231916024808301926020929190829003018186803b15801561432857600080fd5b505afa15801561433c573d6000803e3d6000fd5b505050506040513d602081101561435257600080fd5b5051600254604080516370a0823160e01b815230600482015290519293506000926001600160a01b03909216916370a0823191602480820192602092909190829003018186803b1580156143a557600080fd5b505afa1580156143b9573d6000803e3d6000fd5b505050506040513d60208110156143cf57600080fd5b505190506000806143e08484612c38565b9092509050600060c86143f9848863ffffffff612db116565b8161440057fe5b049050600060c8614417848963ffffffff612db116565b8161441e57fe5b049050816001600160701b0316861180156144415750806001600160701b031685115b156145b0576000806144516140b0565b6001600160701b031691506001600160701b03169150600080836000148015614478575082155b156144c3576144b98a8a61449b826001600160701b038b1663ffffffff61273016565b6144b48d6001600160701b038b1663ffffffff61273016565b614179565b90925090506144e7565b6144e1848461449b8d6001600160701b038b1663ffffffff61273016565b90925090505b811561450a5760015460035461450a916001600160a01b039081169116846130fd565b801561452d5760025460035461452d916001600160a01b039081169116836130fd565b600354604080516335313c2160e11b815230600482015290516001600160a01b0390921691636a627842916024808201926020929091908290030181600087803b15801561457a57600080fd5b505af115801561458e573d6000803e3d6000fd5b505050506040513d60208110156145a457600080fd5b50614600945050505050565b600360009054906101000a90046001600160a01b03166001600160a01b031663145f3c276040518163ffffffff1660e01b8152600401600060405180830381600087803b158015613f6a57600080fd5b50505050505050565b6000600382111561464c575080600160028204015b818110156146465780915060028182858161463557fe5b04018161463e57fe5b04905061461e565b50614656565b8115614656575060015b919050565b6004805460408051637945980160e01b8152905143936001600160a01b0390931692637945980192808201926020929091829003018186803b1580156146a057600080fd5b505afa1580156146b4573d6000803e3d6000fd5b505050506040513d60208110156146ca57600080fd5b50516014548290031115610b7957600e54601554808210156706f05b59d3b2000083101580821461482d57600081156147115750600e546706f05b59d3b1ffff1901614720565b50600e546706f05b59d3b20000035b82156147eb576000670de0b6b3a76400006147bf600460009054906101000a90046001600160a01b03166001600160a01b031663c0972f7a6040518163ffffffff1660e01b815260040160206040518083038186803b15801561478257600080fd5b505afa158015614796573d6000803e3d6000fd5b505050506040513d60208110156147ac57600080fd5b505187890390850263ffffffff612db116565b816147c657fe5b049050670de0b6b3a7640000600f548201116147e557600f8054820190555b50614827565b6000670de0b6b3a76400006148088787038463ffffffff612db116565b8161480f57fe5b049050600f54811161482557600f805482900390555b505b50614872565b811561485957600f5483850390670de0b6b3a76400009082011161482757600f80548201905550614872565b600f5484840390811161487057600f805482900390555b505b505050601555601455565b600081831061489d57614896838363ffffffff61273016565b9050612780565b612c31828463ffffffff61273016565b6000818311612e725781612c31565b83826001600160701b031610156149af57600154600354614902916001600160a01b0390811691166148fd876001600160701b03871663ffffffff61273016565b6130fd565b600354600954604080516321913af360e11b8152306004820152600160a01b90920460ff1615156024830152516001600160a01b039092169163432275e6916044808201926060929091908290030181600087803b15801561496357600080fd5b505af1158015614977573d6000803e3d6000fd5b505050506040513d606081101561498d57600080fd5b5050601680546001600160701b0319166001600160701b0384161790556149cb565b601680546001600160701b0319166001600160701b0386161790555b82816001600160701b03161015614ac157600254600354614a0c916001600160a01b0390811691166148fd866001600160701b03861663ffffffff61273016565b600354600954604080516321913af360e11b8152306004820152600160a01b90920460ff16156024830152516001600160a01b039092169163432275e6916044808201926060929091908290030181600087803b158015614a6c57600080fd5b505af1158015614a80573d6000803e3d6000fd5b505050506040513d6060811015614a9657600080fd5b505060168054600160701b600160e01b031916600160701b6001600160701b03841602179055614ae6565b60168054600160701b600160e01b031916600160701b6001600160701b038616021790555b601654604080516001600160701b038084168252600160701b909304909216602083015280517f1d96001f313f6446e46c7776b79d231589555627a46fa2388f3220937fc79e519281900390910190a150505050565b6000806000614b496140b0565b90925090506000614b6f61243f6001600160701b0380861690851663ffffffff612db116565b90506000612710614c136002600560009054906101000a90046001600160a01b03166001600160a01b03166398118cb46040518163ffffffff1660e01b815260040160206040518083038186803b158015614bc957600080fd5b505afa158015614bdd573d6000803e3d6000fd5b505050506040513d6020811015614bf357600080fd5b505181614bfc57fe5b8a916000199104612710030163ffffffff612db116565b81614c1a57fe5b049050600086614c4d57614c4861243f6001600160701b03808716906106469089168663ffffffff612e1416565b614c82565b614c8261243f614c6c6001600160701b0387168563ffffffff612e1416565b6001600160701b0388169063ffffffff612db116565b9050600083614ca3670de0b6b3a7640000610646858463ffffffff61273016565b81614caa57fe5b04905087614ce457670de0b6b3a7640000614cd76001600160701b0388166002840263ffffffff612db116565b81614cde57fe5b04614d12565b670de0b6b3a7640000614d096001600160701b0387166002840263ffffffff612db116565b81614d1057fe5b045b9998505050505050505050565b60008715614d475781614d38888863ffffffff612db116565b81614d3f57fe5b049050613d4d565b614d7e670de0b6b3a7640000614d686002610646898863ffffffff612db116565b81614d6f57fe5b8691900463ffffffff612e1416565b614d8e888863ffffffff612db116565b81614d9557fe5b0498975050505050505050565b60006060856001600160a01b0316604051806060016040528060258152602001614f47602591398051602091820120604080516001600160a01b03808b166024830152891660448201526064808201899052825180830390910181526084909101825292830180516001600160e01b03166001600160e01b0319909316929092178252518251909182918083835b60208310614e4f5780518252601f199092019160209182019101614e30565b6001836020036101000a0380198251168184511680821785525050505050509050019150506000604051808303816000865af19150503d8060008114614eb1576040519150601f19603f3d011682016040523d82523d6000602084013e614eb6565b606091505b5091509150818015614ee4575080511580614ee45750808060200190516020811015614ee157600080fd5b50515b614f1e576040805162461bcd60e51b81526020600482015260066024820152652d1d102a232360d11b604482015290519081900360640190fd5b50505050505056fe5265656e7472616e637947756172643a207265656e7472616e742063616c6c007472616e7366657246726f6d28616464726573732c616464726573732c75696e7432353629a265627a7a72315820f0ce87c2872780dcba9f56229761c6f644f98860e7a5ff95ffd6833109068afe64736f6c63430005100032a265627a7a7231582028029e2fc0918dc83e127a5daafc47b3b7e24ba26d70a708382dc053d905f86964736f6c63430005100032",
  "linkReferences": {},
  "deployedLinkReferences": {}
}