{
  "_format": "hh-sol-artifact-1",
  "contractName": "ZirconPylonRouter",
  "sourceName": "contracts/ZirconPylonRouter.sol",
  "abi": [
    {
      "inputs": [
        {
          "internalType": "address",
          "name": "_factory",
          "type": "address"
        },
        {
          "internalType": "address",
          "name": "_pylonFactory",
          "type": "address"
        },
        {
          "internalType": "address",
          "name": "_ptFactory",
          "type": "address"
        },
        {
          "internalType": "address",
          "name": "_WETH",
          "type": "address"
        }
      ],
      "stateMutability": "nonpayable",
      "type": "constructor"
    },
    {
      "inputs": [],
      "name": "WETH",
      "outputs": [
        {
          "internalType": "address",
          "name": "",
          "type": "address"
        }
      ],
      "stateMutability": "view",
      "type": "function"
    },
    {
      "inputs": [
        {
          "internalType": "address",
          "name": "tokenA",
          "type": "address"
        },
        {
          "internalType": "address",
          "name": "tokenB",
          "type": "address"
        },
        {
          "internalType": "uint256",
          "name": "amountADesired",
          "type": "uint256"
        },
        {
          "internalType": "uint256",
          "name": "amountBDesired",
          "type": "uint256"
        },
        {
          "internalType": "uint256",
          "name": "amountAMin",
          "type": "uint256"
        },
        {
          "internalType": "uint256",
          "name": "amountBMin",
          "type": "uint256"
        },
        {
          "internalType": "bool",
          "name": "isAnchor",
          "type": "bool"
        },
        {
          "internalType": "address",
          "name": "to",
          "type": "address"
        },
        {
          "internalType": "address",
          "name": "farm",
          "type": "address"
        },
        {
          "internalType": "uint256",
          "name": "deadline",
          "type": "uint256"
        }
      ],
      "name": "addAsyncLiquidity",
      "outputs": [
        {
          "internalType": "uint256",
          "name": "amountA",
          "type": "uint256"
        },
        {
          "internalType": "uint256",
          "name": "amountB",
          "type": "uint256"
        },
        {
          "internalType": "uint256",
          "name": "liquidity",
          "type": "uint256"
        }
      ],
      "stateMutability": "nonpayable",
      "type": "function"
    },
    {
      "inputs": [
        {
          "internalType": "address",
          "name": "token",
          "type": "address"
        },
        {
          "internalType": "uint256",
          "name": "amountDesiredToken",
          "type": "uint256"
        },
        {
          "internalType": "uint256",
          "name": "amountTokenMin",
          "type": "uint256"
        },
        {
          "internalType": "uint256",
          "name": "amountETHMin",
          "type": "uint256"
        },
        {
          "internalType": "bool",
          "name": "isAnchor",
          "type": "bool"
        },
        {
          "internalType": "bool",
          "name": "shouldReceiveAnchor",
          "type": "bool"
        },
        {
          "internalType": "address",
          "name": "to",
          "type": "address"
        },
        {
          "internalType": "address",
          "name": "farm",
          "type": "address"
        },
        {
          "internalType": "uint256",
          "name": "deadline",
          "type": "uint256"
        }
      ],
      "name": "addAsyncLiquidityETH",
      "outputs": [
        {
          "internalType": "uint256",
          "name": "amountA",
          "type": "uint256"
        },
        {
          "internalType": "uint256",
          "name": "amountB",
          "type": "uint256"
        },
        {
          "internalType": "uint256",
          "name": "liquidity",
          "type": "uint256"
        }
      ],
      "stateMutability": "payable",
      "type": "function"
    },
    {
      "inputs": [
        {
          "internalType": "address",
          "name": "tokenA",
          "type": "address"
        },
        {
          "internalType": "address",
          "name": "tokenB",
          "type": "address"
        },
        {
          "internalType": "uint256",
          "name": "amountDesired",
          "type": "uint256"
        },
        {
          "internalType": "uint256",
          "name": "minLiquidity",
          "type": "uint256"
        },
        {
          "internalType": "bool",
          "name": "isAnchor",
          "type": "bool"
        },
        {
          "internalType": "address",
          "name": "to",
          "type": "address"
        },
        {
          "internalType": "address",
          "name": "farm",
          "type": "address"
        },
        {
          "internalType": "uint256",
          "name": "deadline",
          "type": "uint256"
        }
      ],
      "name": "addSyncLiquidity",
      "outputs": [
        {
          "internalType": "uint256",
          "name": "amount",
          "type": "uint256"
        },
        {
          "internalType": "uint256",
          "name": "liquidity",
          "type": "uint256"
        }
      ],
      "stateMutability": "nonpayable",
      "type": "function"
    },
    {
      "inputs": [
        {
          "internalType": "address",
          "name": "token",
          "type": "address"
        },
        {
          "internalType": "bool",
          "name": "isAnchor",
          "type": "bool"
        },
        {
          "internalType": "uint256",
          "name": "minLiquidity",
          "type": "uint256"
        },
        {
          "internalType": "address",
          "name": "to",
          "type": "address"
        },
        {
          "internalType": "address",
          "name": "farm",
          "type": "address"
        },
        {
          "internalType": "uint256",
          "name": "deadline",
          "type": "uint256"
        }
      ],
      "name": "addSyncLiquidityETH",
      "outputs": [
        {
          "internalType": "uint256",
          "name": "liquidity",
          "type": "uint256"
        }
      ],
      "stateMutability": "payable",
      "type": "function"
    },
    {
      "inputs": [],
      "name": "factory",
      "outputs": [
        {
          "internalType": "address",
          "name": "",
          "type": "address"
        }
      ],
      "stateMutability": "view",
      "type": "function"
    },
    {
      "inputs": [
        {
          "internalType": "address",
          "name": "tokenA",
          "type": "address"
        },
        {
          "internalType": "address",
          "name": "tokenB",
          "type": "address"
        },
        {
          "internalType": "uint256",
          "name": "amountDesiredA",
          "type": "uint256"
        },
        {
          "internalType": "uint256",
          "name": "amountDesiredB",
          "type": "uint256"
        },
        {
          "internalType": "address",
          "name": "to",
          "type": "address"
        },
        {
          "internalType": "uint256",
          "name": "deadline",
          "type": "uint256"
        }
      ],
      "name": "init",
      "outputs": [
        {
          "internalType": "uint256",
          "name": "amountA",
          "type": "uint256"
        },
        {
          "internalType": "uint256",
          "name": "amountB",
          "type": "uint256"
        }
      ],
      "stateMutability": "nonpayable",
      "type": "function"
    },
    {
      "inputs": [
        {
          "internalType": "address",
          "name": "token",
          "type": "address"
        },
        {
          "internalType": "uint256",
          "name": "amountDesiredToken",
          "type": "uint256"
        },
        {
          "internalType": "bool",
          "name": "isAnchor",
          "type": "bool"
        },
        {
          "internalType": "address",
          "name": "to",
          "type": "address"
        },
        {
          "internalType": "uint256",
          "name": "deadline",
          "type": "uint256"
        }
      ],
      "name": "initETH",
      "outputs": [
        {
          "internalType": "uint256",
          "name": "amountA",
          "type": "uint256"
        },
        {
          "internalType": "uint256",
          "name": "amountB",
          "type": "uint256"
        }
      ],
      "stateMutability": "payable",
      "type": "function"
    },
    {
      "inputs": [],
      "name": "ptFactory",
      "outputs": [
        {
          "internalType": "address",
          "name": "",
          "type": "address"
        }
      ],
      "stateMutability": "view",
      "type": "function"
    },
    {
      "inputs": [],
      "name": "pylonFactory",
      "outputs": [
        {
          "internalType": "address",
          "name": "",
          "type": "address"
        }
      ],
      "stateMutability": "view",
      "type": "function"
    },
    {
      "inputs": [
        {
          "internalType": "address",
          "name": "tokenA",
          "type": "address"
        },
        {
          "internalType": "address",
          "name": "tokenB",
          "type": "address"
        },
        {
          "internalType": "uint256",
          "name": "liquidity",
          "type": "uint256"
        },
        {
          "internalType": "uint256",
          "name": "amountAMin",
          "type": "uint256"
        },
        {
          "internalType": "uint256",
          "name": "amountBMin",
          "type": "uint256"
        },
        {
          "internalType": "bool",
          "name": "isAnchor",
          "type": "bool"
        },
        {
          "internalType": "address",
          "name": "to",
          "type": "address"
        },
        {
          "internalType": "uint256",
          "name": "deadline",
          "type": "uint256"
        }
      ],
      "name": "removeLiquidityAsync",
      "outputs": [
        {
          "internalType": "uint256",
          "name": "amountA",
          "type": "uint256"
        },
        {
          "internalType": "uint256",
          "name": "amountB",
          "type": "uint256"
        }
      ],
      "stateMutability": "nonpayable",
      "type": "function"
    },
    {
      "inputs": [
        {
          "internalType": "address",
          "name": "token",
          "type": "address"
        },
        {
          "internalType": "uint256",
          "name": "liquidity",
          "type": "uint256"
        },
        {
          "internalType": "uint256",
          "name": "amountTokenMin",
          "type": "uint256"
        },
        {
          "internalType": "uint256",
          "name": "amountETHMin",
          "type": "uint256"
        },
        {
          "internalType": "bool",
          "name": "isAnchor",
          "type": "bool"
        },
        {
          "internalType": "bool",
          "name": "shouldBurnAnchor",
          "type": "bool"
        },
        {
          "internalType": "address",
          "name": "to",
          "type": "address"
        },
        {
          "internalType": "uint256",
          "name": "deadline",
          "type": "uint256"
        }
      ],
      "name": "removeLiquidityAsyncETH",
      "outputs": [
        {
          "internalType": "uint256",
          "name": "amountToken",
          "type": "uint256"
        },
        {
          "internalType": "uint256",
          "name": "amountETH",
          "type": "uint256"
        }
      ],
      "stateMutability": "nonpayable",
      "type": "function"
    },
    {
      "inputs": [
        {
          "internalType": "address",
          "name": "tokenA",
          "type": "address"
        },
        {
          "internalType": "address",
          "name": "tokenB",
          "type": "address"
        },
        {
          "internalType": "uint256",
          "name": "liquidity",
          "type": "uint256"
        },
        {
          "internalType": "uint256",
          "name": "amountMin",
          "type": "uint256"
        },
        {
          "internalType": "bool",
          "name": "shouldReceiveAnchor",
          "type": "bool"
        },
        {
          "internalType": "address",
          "name": "to",
          "type": "address"
        },
        {
          "internalType": "uint256",
          "name": "deadline",
          "type": "uint256"
        }
      ],
      "name": "removeLiquiditySync",
      "outputs": [
        {
          "internalType": "uint256",
          "name": "amount",
          "type": "uint256"
        }
      ],
      "stateMutability": "nonpayable",
      "type": "function"
    },
    {
      "inputs": [
        {
          "internalType": "address",
          "name": "token",
          "type": "address"
        },
        {
          "internalType": "uint256",
          "name": "liquidity",
          "type": "uint256"
        },
        {
          "internalType": "uint256",
          "name": "amountMin",
          "type": "uint256"
        },
        {
          "internalType": "bool",
          "name": "isAnchor",
          "type": "bool"
        },
        {
          "internalType": "bool",
          "name": "shouldRemoveAnchor",
          "type": "bool"
        },
        {
          "internalType": "address",
          "name": "to",
          "type": "address"
        },
        {
          "internalType": "uint256",
          "name": "deadline",
          "type": "uint256"
        }
      ],
      "name": "removeLiquiditySyncETH",
      "outputs": [
        {
          "internalType": "uint256",
          "name": "amount",
          "type": "uint256"
        }
      ],
      "stateMutability": "nonpayable",
      "type": "function"
    },
    {
      "stateMutability": "payable",
      "type": "receive"
    }
  ],
  "bytecode": "0x61010060405234801561001157600080fd5b5060405161355c38038061355c8339818101604052608081101561003457600080fd5b508051602082015160408301516060938401516001600160601b031993851b8416608052841b831660e05290831b821660a05290911b1660c05260805160601c60a05160601c60c05160601c60e05160601c6133f061016c6000398060f1528061087b52806108a652806109855280610a1c5280610baf5280610bd65280610c1e5280610c455280610c7c5280610cb85280610d3852806114f3528061151e528061156052806115f752806117745280611943528061197752806119d55280611acb5280611af65280611b795250806105e25280610b20528061103a525080611c015280611c2a5280611e545280611f225280611ff2528061261752806126fd52806129485280612a2e5250806117985280611c505280611d495280611e7e52806124d352806128045280612b2d52506133f06000f3fe6080604052600436106100e15760003560e01c80638a96e2471161007f578063e14f0fb611610059578063e14f0fb614610431578063ed1d080f146104a5578063ef68f27f14610509578063ef8863b4146105685761011a565b80638a96e247146103bd578063ad5c464814610407578063c45a01551461041c5761011a565b80634b026db1116100bb5780634b026db11461021e57806359b11df71461029e57806359b9a98b146102f3578063769635bd146103575761011a565b8063119438711461011f578063230e9bca146101905780632b34f135146101ed5761011a565b3661011a57336001600160a01b037f0000000000000000000000000000000000000000000000000000000000000000161461011857fe5b005b600080fd5b34801561012b57600080fd5b5061017e600480360360e081101561014257600080fd5b506001600160a01b0381358116916020810135821691604082013591606081013591608082013515159160a08101359091169060c0013561057d565b60408051918252519081900360200190f35b6101d4600480360360a08110156101a657600080fd5b506001600160a01b038135811691602081013591604082013515159160608101359091169060800135610818565b6040805192835260208301919091528051918290030190f35b3480156101f957600080fd5b50610202610b1e565b604080516001600160a01b039092168252519081900360200190f35b610280600480360361012081101561023557600080fd5b506001600160a01b038135811691602081013591604082013591606081013591608082013515159160a081013515159160c082013581169160e0810135909116906101000135610b42565b60408051938452602084019290925282820152519081900360600190f35b3480156102aa57600080fd5b506101d4600480360360c08110156102c157600080fd5b506001600160a01b03813581169160208101358216916040820135916060810135916080820135169060a00135610ed0565b3480156102ff57600080fd5b506101d4600480360361010081101561031757600080fd5b506001600160a01b038135811691602081013582169160408201359160608101359160808201359160a081013515159160c0820135169060e00135610fd4565b34801561036357600080fd5b506101d4600480360361010081101561037b57600080fd5b506001600160a01b0381358116916020810135821691604082013591606081013591608082013515159160a081013582169160c0820135169060e001356112b6565b61017e600480360360c08110156103d357600080fd5b506001600160a01b038135811691602081013515159160408201359160608101358216916080820135169060a0013561143c565b34801561041357600080fd5b50610202611772565b34801561042857600080fd5b50610202611796565b34801561043d57600080fd5b50610280600480360361014081101561045557600080fd5b506001600160a01b038135811691602081013582169160408201359160608101359160808201359160a08101359160c082013515159160e0810135821691610100820135169061012001356117ba565b3480156104b157600080fd5b506101d460048036036101008110156104c957600080fd5b506001600160a01b038135811691602081013591604082013591606081013591608082013515159160a081013515159160c0820135169060e001356118e1565b34801561051557600080fd5b5061017e600480360360e081101561052c57600080fd5b506001600160a01b0381358116916020810135916040820135916060810135151591608082013515159160a08101359091169060c00135611a69565b34801561057457600080fd5b50610202611bff565b600081428110156105d0576040805162461bcd60e51b8152602060048201526018602482015277155b9a5cddd85c158c949bdd5d195c8e881156141254915160421b604482015290519081900360640190fd5b60006105dc8a8a611c23565b905060007f00000000000000000000000000000000000000000000000000000000000000006001600160a01b031663fad51a9a838961061b578d61061d565b8c5b6040518363ffffffff1660e01b815260040180836001600160a01b03166001600160a01b03168152602001826001600160a01b03166001600160a01b031681526020019250505060206040518083038186803b15801561067c57600080fd5b505afa158015610690573d6000803e3d6000fd5b505050506040513d60208110156106a657600080fd5b5051604080516323b872dd60e01b81523360048201526001600160a01b038581166024830152604482018d90529151929350908316916323b872dd916064808201926020929091908290030181600087803b15801561070457600080fd5b505af1158015610718573d6000803e3d6000fd5b505050506040513d602081101561072e57600080fd5b5050604080517fba7b3dea0000000000000000000000000000000000000000000000000000000081526001600160a01b038881166004830152891515602483015291519184169163ba7b3dea916044808201926020929091908290030181600087803b15801561079d57600080fd5b505af11580156107b1573d6000803e3d6000fd5b505050506040513d60208110156107c757600080fd5b505193508784101561080a5760405162461bcd60e51b81526004018080602001828103825260248152602001806132f76024913960400191505060405180910390fd5b505050979650505050505050565b600080824281101561086c576040805162461bcd60e51b8152602060048201526018602482015277155b9a5cddd85c158c949bdd5d195c8e881156141254915160421b604482015290519081900360640190fd5b600086610879578861089b565b7f00000000000000000000000000000000000000000000000000000000000000005b90506000876108ca577f00000000000000000000000000000000000000000000000000000000000000006108cc565b895b905061090c6040518060400160405280600f81526020017f696e697469616c697a696e672e2e2e0000000000000000000000000000000000815250611c82565b60006109188383611d44565b9150506109596040518060400160405280601181526020017f6465696e697469616c697a696e672e2e2e000000000000000000000000000000815250611c82565b886109645789610966565b345b9550886109735734610975565b895b94506109838b33838d612073565b7f00000000000000000000000000000000000000000000000000000000000000006001600160a01b031663d0e30db0346040518263ffffffff1660e01b81526004016000604051808303818588803b1580156109de57600080fd5b505af11580156109f2573d6000803e3d6000fd5b50506040805163a9059cbb60e01b81526001600160a01b03868116600483015234602483015291517f0000000000000000000000000000000000000000000000000000000000000000909216945063a9059cbb935060448082019350602092918290030181600087803b158015610a6857600080fd5b505af1158015610a7c573d6000803e3d6000fd5b505050506040513d6020811015610a9257600080fd5b5051610a9a57fe5b60408051633ca5007160e21b81526001600160a01b038a8116600483015282519084169263f29401c492602480820193918290030181600087803b158015610ae157600080fd5b505af1158015610af5573d6000803e3d6000fd5b505050506040513d6040811015610b0b57600080fd5b50959b949a509398505050505050505050565b7f000000000000000000000000000000000000000000000000000000000000000081565b60008060008342811015610b98576040805162461bcd60e51b8152602060048201526018602482015277155b9a5cddd85c158c949bdd5d195c8e881156141254915160421b604482015290519081900360640190fd5b8c89610c018e348f8f8580610bad5787610bcf565b7f00000000000000000000000000000000000000000000000000000000000000005b87610bfa577f0000000000000000000000000000000000000000000000000000000000000000610bfc565b885b6121d0565b90965094508e91508a90506000610c7082610c1c5783610c3e565b7f00000000000000000000000000000000000000000000000000000000000000005b83610c69577f0000000000000000000000000000000000000000000000000000000000000000610c6b565b845b611c23565b9050610cb682610ca0577f0000000000000000000000000000000000000000000000000000000000000000610ca2565b835b338385610caf578a610cb1565b895b612073565b7f00000000000000000000000000000000000000000000000000000000000000006001600160a01b031663d0e30db083610cf05787610cf2565b885b6040518263ffffffff1660e01b81526004016000604051808303818588803b158015610d1d57600080fd5b505af1158015610d31573d6000803e3d6000fd5b50505050507f00000000000000000000000000000000000000000000000000000000000000006001600160a01b031663a9059cbb8284610d715788610d73565b895b6040518363ffffffff1660e01b815260040180836001600160a01b03166001600160a01b0316815260200182815260200192505050602060405180830381600087803b158015610dc257600080fd5b505af1158015610dd6573d6000803e3d6000fd5b505050506040513d6020811015610dec57600080fd5b5051610df457fe5b604080516319e6ef2760e11b81526001600160a01b038c811660048301528d151560248301529151918316916333cdde4e916044808201926020929091908290030181600087803b158015610e4857600080fd5b505af1158015610e5c573d6000803e3d6000fd5b505050506040513d6020811015610e7257600080fd5b505194508b9250610e869150505782610e88565b835b341115610ea757610ea7338a610e9e5784610ea0565b855b340361223d565b6001600160a01b03861615610ec057610ec08683612335565b5099509950999650505050505050565b6000808242811015610f24576040805162461bcd60e51b8152602060048201526018602482015277155b9a5cddd85c158c949bdd5d195c8e881156141254915160421b604482015290519081900360640190fd5b6000610f308a8a611d44565b915050879350869250610f458a338387612073565b610f5189338386612073565b60408051633ca5007160e21b81526001600160a01b03888116600483015282519084169263f29401c492602480820193918290030181600087803b158015610f9857600080fd5b505af1158015610fac573d6000803e3d6000fd5b505050506040513d6040811015610fc257600080fd5b50939a92995091975050505050505050565b6000808242811015611028576040805162461bcd60e51b8152602060048201526018602482015277155b9a5cddd85c158c949bdd5d195c8e881156141254915160421b604482015290519081900360640190fd5b60006110348c8c611c23565b905060007f00000000000000000000000000000000000000000000000000000000000000006001600160a01b031663fad51a9a838a611073578f611075565b8e5b6040518363ffffffff1660e01b815260040180836001600160a01b03166001600160a01b03168152602001826001600160a01b03166001600160a01b031681526020019250505060206040518083038186803b1580156110d457600080fd5b505afa1580156110e8573d6000803e3d6000fd5b505050506040513d60208110156110fe57600080fd5b5051604080516323b872dd60e01b81523360048201526001600160a01b038581166024830152604482018f90529151929350908316916323b872dd916064808201926020929091908290030181600087803b15801561115c57600080fd5b505af1158015611170573d6000803e3d6000fd5b505050506040513d602081101561118657600080fd5b5050604080517fc561cf4f0000000000000000000000000000000000000000000000000000000081526001600160a01b0389811660048301528a1515602483015282519085169263c561cf4f92604480820193918290030181600087803b1580156111f057600080fd5b505af1158015611204573d6000803e3d6000fd5b505050506040513d604081101561121a57600080fd5b5080516020909101519095509350898510156112675760405162461bcd60e51b81526004018080602001828103825260268152602001806133686026913960400191505060405180910390fd5b888410156112a65760405162461bcd60e51b81526004018080602001828103825260268152602001806132d16026913960400191505060405180910390fd5b5050509850989650505050505050565b600080824281101561130a576040805162461bcd60e51b8152602060048201526018602482015277155b9a5cddd85c158c949bdd5d195c8e881156141254915160421b604482015290519081900360640190fd5b6113148b8b6124cd565b88925060006113238c8c611c23565b905061133d88611333578c611335565b8b5b338387612073565b604080516346a3871160e11b81526001600160a01b0389811660048301528a15156024830152915191831691638d470e22916044808201926020929091908290030181600087803b15801561139157600080fd5b505af11580156113a5573d6000803e3d6000fd5b505050506040513d60208110156113bb57600080fd5b5051925088831015611414576040805162461bcd60e51b815260206004820152601960248201527f5a50523a204e6f7420656e6f756768206c697175696469747900000000000000604482015290519081900360640190fd5b6001600160a01b0386161561142d5761142d8684612335565b50509850989650505050505050565b6000814281101561148f576040805162461bcd60e51b8152602060048201526018602482015277155b9a5cddd85c158c949bdd5d195c8e881156141254915160421b604482015290519081900360640190fd5b600034116114e4576040805162461bcd60e51b815260206004820152600f60248201527f5a50523a205a45524f2d56414c55450000000000000000000000000000000000604482015290519081900360640190fd5b6000876114f15788611513565b7f00000000000000000000000000000000000000000000000000000000000000005b9050600088611542577f0000000000000000000000000000000000000000000000000000000000000000611544565b895b905061155082826124cd565b600061155c8383611c23565b90507f00000000000000000000000000000000000000000000000000000000000000006001600160a01b031663d0e30db0346040518263ffffffff1660e01b81526004016000604051808303818588803b1580156115b957600080fd5b505af11580156115cd573d6000803e3d6000fd5b50506040805163a9059cbb60e01b81526001600160a01b03868116600483015234602483015291517f0000000000000000000000000000000000000000000000000000000000000000909216945063a9059cbb935060448082019350602092918290030181600087803b15801561164357600080fd5b505af1158015611657573d6000803e3d6000fd5b505050506040513d602081101561166d57600080fd5b505161167557fe5b604080516346a3871160e11b81526001600160a01b038a811660048301528c156024830152915191831691638d470e22916044808201926020929091908290030181600087803b1580156116c857600080fd5b505af11580156116dc573d6000803e3d6000fd5b505050506040513d60208110156116f257600080fd5b505194508885101561174b576040805162461bcd60e51b815260206004820152601960248201527f5a50523a204e6f7420656e6f756768206c697175696469747900000000000000604482015290519081900360640190fd5b6001600160a01b03871615611764576117648786612335565b505050509695505050505050565b7f000000000000000000000000000000000000000000000000000000000000000081565b7f000000000000000000000000000000000000000000000000000000000000000081565b60008060008342811015611810576040805162461bcd60e51b8152602060048201526018602482015277155b9a5cddd85c158c949bdd5d195c8e881156141254915160421b604482015290519081900360640190fd5b61181e8e8e8e8e8e8e6127fb565b909450925060006118318f8f8787612c45565b604080516319e6ef2760e11b81526001600160a01b038b811660048301528c151560248301529151929350908316916333cdde4e916044808201926020929091908290030181600087803b15801561188857600080fd5b505af115801561189c573d6000803e3d6000fd5b505050506040513d60208110156118b257600080fd5b505192506001600160a01b038716156118cf576118cf8784612335565b50509a509a509a975050505050505050565b6000808242811015611935576040805162461bcd60e51b8152602060048201526018602482015277155b9a5cddd85c158c949bdd5d195c8e881156141254915160421b604482015290519081900360640190fd5b6000806119a28915611967577f0000000000000000000000000000000000000000000000000000000000000000611969565b8d5b8a15611975578e611997565b7f00000000000000000000000000000000000000000000000000000000000000005b8e8e8e8d308d610fd4565b9150915088156119b257806119b4565b815b945088156119c257816119c4565b805b935050506119d38b8685612c73565b7f00000000000000000000000000000000000000000000000000000000000000006001600160a01b0316632e1a7d4d836040518263ffffffff1660e01b815260040180828152602001915050600060405180830381600087803b158015611a3957600080fd5b505af1158015611a4d573d6000803e3d6000fd5b50505050611a5b858361223d565b509850989650505050505050565b60008142811015611abc576040805162461bcd60e51b8152602060048201526018602482015277155b9a5cddd85c158c949bdd5d195c8e881156141254915160421b604482015290519081900360640190fd5b600086611ac95789611aeb565b7f00000000000000000000000000000000000000000000000000000000000000005b9050600087611b1a577f0000000000000000000000000000000000000000000000000000000000000000611b1c565b8a5b9050611b5482828c8c8b8d8015611b3057508c5b80611b4257508c158015611b4257508d155b611b4c5730611b4e565b8b5b8b61057d565b9350878015611b61575086155b80611b725750868015611b72575087155b1561080a577f00000000000000000000000000000000000000000000000000000000000000006001600160a01b0316632e1a7d4d856040518263ffffffff1660e01b815260040180828152602001915050600060405180830381600087803b158015611bdd57600080fd5b505af1158015611bf1573d6000803e3d6000fd5b5050505061080a868561223d565b7f000000000000000000000000000000000000000000000000000000000000000081565b6000611c7b7f00000000000000000000000000000000000000000000000000000000000000008484611c767f00000000000000000000000000000000000000000000000000000000000000008888612dc0565b612e98565b9392505050565b611d41816040516024018080602001828103825283818151815260200191508051906020019080838360005b83811015611cc6578181015183820152602001611cae565b50505050905090810190601f168015611cf35780820380516001836020036101000a031916815260200191505b5060408051601f198184030181529190526020810180516001600160e01b03167f41304fac000000000000000000000000000000000000000000000000000000001790529250612f62915050565b50565b6000807f00000000000000000000000000000000000000000000000000000000000000006001600160a01b031663e6a4390585856040518363ffffffff1660e01b815260040180836001600160a01b03166001600160a01b03168152602001826001600160a01b03166001600160a01b031681526020019250505060206040518083038186803b158015611dd757600080fd5b505afa158015611deb573d6000803e3d6000fd5b505050506040513d6020811015611e0157600080fd5b505191506001600160a01b038216611ef857604080517f76f797380000000000000000000000000000000000000000000000000000000081526001600160a01b03868116600483015285811660248301527f00000000000000000000000000000000000000000000000000000000000000008116604483015291517f0000000000000000000000000000000000000000000000000000000000000000909216916376f79738916064808201926020929091908290030181600087803b158015611ec957600080fd5b505af1158015611edd573d6000803e3d6000fd5b505050506040513d6020811015611ef357600080fd5b505191505b60408051630e0f297360e01b81526001600160a01b038681166004830152858116602483015291517f000000000000000000000000000000000000000000000000000000000000000090921691630e0f297391604480820192602092909190829003018186803b158015611f6b57600080fd5b505afa158015611f7f573d6000803e3d6000fd5b505050506040513d6020811015611f9557600080fd5b505190506001600160a01b03811661206c57604080517f79281abe0000000000000000000000000000000000000000000000000000000081526001600160a01b0384811660048301528681166024830152858116604483015291517f0000000000000000000000000000000000000000000000000000000000000000909216916379281abe916064808201926020929091908290030181600087803b15801561203d57600080fd5b505af1158015612051573d6000803e3d6000fd5b505050506040513d602081101561206757600080fd5b505190505b9250929050565b604080516001600160a01b0385811660248301528481166044830152606480830185905283518084039091018152608490920183526020820180516001600160e01b03166323b872dd60e01b17815292518251600094606094938a169392918291908083835b602083106120f85780518252601f1990920191602091820191016120d9565b6001836020036101000a0380198251168184511680821785525050505050509050019150506000604051808303816000865af19150503d806000811461215a576040519150601f19603f3d011682016040523d82523d6000602084013e61215f565b606091505b509150915081801561218d57508051158061218d575080806020019051602081101561218a57600080fd5b50515b6121c85760405162461bcd60e51b81526004018080602001828103825260318152602001806132476031913960400191505060405180910390fd5b505050505050565b600080600085156121e157886121e3565b895b9050600086156121f3578a6121f5565b895b9050600087156122055788612207565b895b905060008815612217578a612219565b895b90506122298888868686866127fb565b909e909d509b505050505050505050505050565b604080516000808252602082019092526001600160a01b0384169083906040518082805190602001908083835b602083106122895780518252601f19909201916020918201910161226a565b6001836020036101000a03801982511681845116808217855250505050505090500191505060006040518083038185875af1925050503d80600081146122eb576040519150601f19603f3d011682016040523d82523d6000602084013e6122f0565b606091505b50509050806123305760405162461bcd60e51b81526004018080602001828103825260348152602001806132786034913960400191505060405180910390fd5b505050565b604080518082018252601681527f726f757465724465706f7369742875696e74323536290000000000000000000060209182015281516024808201859052835180830390910181526044909101835290810180516001600160e01b03167f462293a300000000000000000000000000000000000000000000000000000000178152915181516000936060936001600160a01b038816939092909182918083835b602083106123f45780518252601f1990920191602091820191016123d5565b6001836020036101000a0380198251168184511680821785525050505050509050019150506000604051808303816000865af19150503d8060008114612456576040519150601f19603f3d011682016040523d82523d6000602084013e61245b565b606091505b5091509150816124c7578051156124755780518082602001fd5b816124c7576040805162461bcd60e51b815260206004820152600f60248201527f5a503a204641524d5f4641494c45440000000000000000000000000000000000604482015290519081900360640190fd5b50505050565b818160007f00000000000000000000000000000000000000000000000000000000000000006001600160a01b031663e6a4390584846040518363ffffffff1660e01b815260040180836001600160a01b03166001600160a01b03168152602001826001600160a01b03166001600160a01b031681526020019250505060206040518083038186803b15801561256157600080fd5b505afa158015612575573d6000803e3d6000fd5b505050506040513d602081101561258b57600080fd5b505190506001600160a01b0381166125ea576040805162461bcd60e51b815260206004820152601560248201527f5a50523a2050616972204e6f7420437265617465640000000000000000000000604482015290519081900360640190fd5b60408051630e0f297360e01b81526001600160a01b038581166004830152848116602483015291516000927f00000000000000000000000000000000000000000000000000000000000000001691630e0f2973916044808301926020929190829003018186803b15801561265d57600080fd5b505afa158015612671573d6000803e3d6000fd5b505050506040513d602081101561268757600080fd5b50516001600160a01b031614156126e5576040805162461bcd60e51b815260206004820152601660248201527f5a50523a2050796c6f6e206e6f74206372656174656400000000000000000000604482015290519081900360640190fd5b60408051630614bbb360e21b81526001600160a01b037f0000000000000000000000000000000000000000000000000000000000000000811660048301528086166024830152808516604483015283166064820152905173__$6f4b38e22cf6b26129418bae2c930c4a30$__91631852eecc916084808301926020929190829003018186803b15801561277757600080fd5b505af415801561278b573d6000803e3d6000fd5b505050506040513d60208110156127a157600080fd5b50516127f4576040805162461bcd60e51b815260206004820152601a60248201527f5a50523a2050796c6f6e204e6f7420496e697469616c697a6564000000000000604482015290519081900360640190fd5b5050505050565b600080878760007f00000000000000000000000000000000000000000000000000000000000000006001600160a01b031663e6a4390584846040518363ffffffff1660e01b815260040180836001600160a01b03166001600160a01b03168152602001826001600160a01b03166001600160a01b031681526020019250505060206040518083038186803b15801561289257600080fd5b505afa1580156128a6573d6000803e3d6000fd5b505050506040513d60208110156128bc57600080fd5b505190506001600160a01b03811661291b576040805162461bcd60e51b815260206004820152601560248201527f5a50523a2050616972204e6f7420437265617465640000000000000000000000604482015290519081900360640190fd5b60408051630e0f297360e01b81526001600160a01b038581166004830152848116602483015291516000927f00000000000000000000000000000000000000000000000000000000000000001691630e0f2973916044808301926020929190829003018186803b15801561298e57600080fd5b505afa1580156129a2573d6000803e3d6000fd5b505050506040513d60208110156129b857600080fd5b50516001600160a01b03161415612a16576040805162461bcd60e51b815260206004820152601660248201527f5a50523a2050796c6f6e206e6f74206372656174656400000000000000000000604482015290519081900360640190fd5b60408051630614bbb360e21b81526001600160a01b037f0000000000000000000000000000000000000000000000000000000000000000811660048301528086166024830152808516604483015283166064820152905173__$6f4b38e22cf6b26129418bae2c930c4a30$__91631852eecc916084808301926020929190829003018186803b158015612aa857600080fd5b505af4158015612abc573d6000803e3d6000fd5b505050506040513d6020811015612ad257600080fd5b5051612b25576040805162461bcd60e51b815260206004820152601a60248201527f5a50523a2050796c6f6e204e6f7420496e697469616c697a6564000000000000604482015290519081900360640190fd5b600080612b537f00000000000000000000000000000000000000000000000000000000000000008e8e612f83565b91509150816000148015612b65575080155b15612b75578a9650899550612c35565b6000612b828c8484613051565b90508a8111612bd55788811015612bca5760405162461bcd60e51b81526004018080602001828103825260268152602001806132d16026913960400191505060405180910390fd5b8b9750955085612c33565b6000612be28c8486613051565b90508c811115612bee57fe5b8a811015612c2d5760405162461bcd60e51b81526004018080602001828103825260268152602001806133686026913960400191505060405180910390fd5b97508a96505b505b5050505050965096945050505050565b6000612c518585611c23565b9050612c5f85338386612073565b612c6b84338385612073565b949350505050565b604080516001600160a01b038481166024830152604480830185905283518084039091018152606490920183526020820180516001600160e01b031663a9059cbb60e01b178152925182516000946060949389169392918291908083835b60208310612cf05780518252601f199092019160209182019101612cd1565b6001836020036101000a0380198251168184511680821785525050505050509050019150506000604051808303816000865af19150503d8060008114612d52576040519150601f19603f3d011682016040523d82523d6000602084013e612d57565b606091505b5091509150818015612d85575080511580612d855750808060200190516020811015612d8257600080fd5b50515b6127f45760405162461bcd60e51b815260040180806020018281038252602d81526020018061338e602d913960400191505060405180910390fd5b6000806000612dcf85856130fd565b604080516bffffffffffffffffffffffff19606094851b811660208084019190915293851b81166034830152825160288184030181526048830184528051908501207fff0000000000000000000000000000000000000000000000000000000000000060688401529a90941b9093166069840152607d8301989098527f0ec3a964af2d4288dcee11cf85135843bcfc1e8e4f8a107d634a0818cc792ee7609d808401919091528851808403909101815260bd909201909752805196019590952095945050505050565b604080516bffffffffffffffffffffffff19606095861b811660208084019190915294861b8116603483015292851b831660488201528151603c818303018152605c820183528051908501207fff00000000000000000000000000000000000000000000000000000000000000607c8301529590941b909116607d84015260918301939093527f9fc442a4d7a12215c697eb81564442a0cd83ff2b9db622486b898fe36004e49260b1808401919091528351808403909101815260d1909201909252805191012090565b80516a636f6e736f6c652e6c6f67602083016000808483855afa5050505050565b6000806000612f9285856130fd565b509050600080612fa3888888612dc0565b6001600160a01b0316630902f1ac6040518163ffffffff1660e01b815260040160606040518083038186803b158015612fdb57600080fd5b505afa158015612fef573d6000803e3d6000fd5b505050506040513d606081101561300557600080fd5b5080516020909101516dffffffffffffffffffffffffffff91821693501690506001600160a01b038781169084161461303f578082613042565b81815b90999098509650505050505050565b60008084116130915760405162461bcd60e51b81526004018080602001828103825260258152602001806133436025913960400191505060405180910390fd5b6000831180156130a15750600082115b6130dc5760405162461bcd60e51b815260040180806020018281038252602881526020018061331b6028913960400191505060405180910390fd5b826130ed858463ffffffff6131d416565b816130f457fe5b04949350505050565b600080826001600160a01b0316846001600160a01b031614156131515760405162461bcd60e51b81526004018080602001828103825260258152602001806132ac6025913960400191505060405180910390fd5b826001600160a01b0316846001600160a01b031610613171578284613174565b83835b90925090506001600160a01b03821661206c576040805162461bcd60e51b815260206004820152601e60248201527f556e697377617056324c6962726172793a205a45524f5f414444524553530000604482015290519081900360640190fd5b60008115806131ef575050808202828282816131ec57fe5b04145b613240576040805162461bcd60e51b815260206004820152601460248201527f64732d6d6174682d6d756c2d6f766572666c6f77000000000000000000000000604482015290519081900360640190fd5b9291505056fe5472616e7366657248656c7065723a3a7472616e7366657246726f6d3a207472616e7366657246726f6d206661696c65645472616e7366657248656c7065723a3a736166655472616e736665724554483a20455448207472616e73666572206661696c6564556e697377617056324c6962726172793a204944454e544943414c5f414444524553534553556e69737761705632526f757465723a20494e53554646494349454e545f425f414d4f554e54556e69737761705632526f757465723a20494e53554646494349454e545f414d4f554e54556e697377617056324c6962726172793a20494e53554646494349454e545f4c4951554944495459556e697377617056324c6962726172793a20494e53554646494349454e545f414d4f554e54556e69737761705632526f757465723a20494e53554646494349454e545f415f414d4f554e545472616e7366657248656c7065723a3a736166655472616e736665723a207472616e73666572206661696c6564a26469706673582212202e7290f230030ff928c4d7abd114de8df1bea00898dc3afd3c8e377e32f3303864736f6c63430006060033",
  "linkReferences": {
    "contracts/libraries/ZirconPeripheralLibrary.sol": {
      "ZirconPeripheralLibrary": [
        {
          "length": 20,
          "start": 10410
        },
        {
          "length": 20,
          "start": 11227
        }
      ]
    }
  },
  "deployedLinkReferences": {
    "contracts/libraries/ZirconPeripheralLibrary.sol": {
      "ZirconPeripheralLibrary": [
        {
          "length": 20,
          "start": 10046
        },
        {
          "length": 20,
          "start": 10863
        }
      ]
    }
  }
}