{
  "_format": "hh-sol-artifact-1",
  "contractName": "ZirconPylon",
  "sourceName": "contracts/ZirconPylon.sol",
  "abi": [
    {
      "inputs": [],
      "payable": false,
      "stateMutability": "nonpayable",
      "type": "constructor"
    },
    {
      "anonymous": false,
      "inputs": [
        {
          "indexed": false,
          "internalType": "address",
          "name": "sender",
          "type": "address"
        },
        {
          "indexed": false,
          "internalType": "uint256",
          "name": "aIn0",
          "type": "uint256"
        },
        {
          "indexed": false,
          "internalType": "bool",
          "name": "isAnchor",
          "type": "bool"
        }
      ],
      "name": "Burn",
      "type": "event"
    },
    {
      "anonymous": false,
      "inputs": [
        {
          "indexed": false,
          "internalType": "address",
          "name": "sender",
          "type": "address"
        },
        {
          "indexed": false,
          "internalType": "uint256",
          "name": "aIn0",
          "type": "uint256"
        },
        {
          "indexed": false,
          "internalType": "uint256",
          "name": "aIn1",
          "type": "uint256"
        }
      ],
      "name": "BurnAsync",
      "type": "event"
    },
    {
      "anonymous": false,
      "inputs": [
        {
          "indexed": false,
          "internalType": "address",
          "name": "sender",
          "type": "address"
        },
        {
          "indexed": false,
          "internalType": "uint256",
          "name": "aIn0",
          "type": "uint256"
        },
        {
          "indexed": false,
          "internalType": "uint256",
          "name": "aIn1",
          "type": "uint256"
        }
      ],
      "name": "MintAsync",
      "type": "event"
    },
    {
      "anonymous": false,
      "inputs": [
        {
          "indexed": false,
          "internalType": "address",
          "name": "sender",
          "type": "address"
        },
        {
          "indexed": false,
          "internalType": "uint256",
          "name": "aIn0",
          "type": "uint256"
        },
        {
          "indexed": false,
          "internalType": "bool",
          "name": "isAnchor",
          "type": "bool"
        }
      ],
      "name": "MintSync",
      "type": "event"
    },
    {
      "anonymous": false,
      "inputs": [
        {
          "indexed": false,
          "internalType": "uint256",
          "name": "_vab",
          "type": "uint256"
        },
        {
          "indexed": false,
          "internalType": "uint256",
          "name": "_vfb",
          "type": "uint256"
        },
        {
          "indexed": false,
          "internalType": "uint256",
          "name": "_gamma",
          "type": "uint256"
        }
      ],
      "name": "PylonSync",
      "type": "event"
    },
    {
      "anonymous": false,
      "inputs": [
        {
          "indexed": false,
          "internalType": "uint256",
          "name": "_reserve0",
          "type": "uint256"
        },
        {
          "indexed": false,
          "internalType": "uint256",
          "name": "_reserve1",
          "type": "uint256"
        }
      ],
      "name": "PylonUpdate",
      "type": "event"
    },
    {
      "constant": true,
      "inputs": [],
      "name": "EMABlockNumber",
      "outputs": [
        {
          "internalType": "uint256",
          "name": "",
          "type": "uint256"
        }
      ],
      "payable": false,
      "stateMutability": "view",
      "type": "function"
    },
    {
      "constant": true,
      "inputs": [
        {
          "internalType": "uint256",
          "name": "_virtualAnchorBalance",
          "type": "uint256"
        },
        {
          "internalType": "uint256",
          "name": "_anchorKFactor",
          "type": "uint256"
        },
        {
          "internalType": "uint256",
          "name": "_pylonReserve1",
          "type": "uint256"
        },
        {
          "internalType": "uint256",
          "name": "_translatedReserve1",
          "type": "uint256"
        }
      ],
      "name": "_calculateGamma",
      "outputs": [
        {
          "internalType": "uint256",
          "name": "gamma",
          "type": "uint256"
        },
        {
          "internalType": "bool",
          "name": "isLineFormula",
          "type": "bool"
        },
        {
          "internalType": "uint256",
          "name": "reserveSwitch",
          "type": "uint256"
        }
      ],
      "payable": false,
      "stateMutability": "pure",
      "type": "function"
    },
    {
      "constant": true,
      "inputs": [],
      "name": "anchorKFactor",
      "outputs": [
        {
          "internalType": "uint256",
          "name": "",
          "type": "uint256"
        }
      ],
      "payable": false,
      "stateMutability": "view",
      "type": "function"
    },
    {
      "constant": false,
      "inputs": [
        {
          "internalType": "address",
          "name": "_to",
          "type": "address"
        },
        {
          "internalType": "bool",
          "name": "_isAnchor",
          "type": "bool"
        }
      ],
      "name": "burn",
      "outputs": [
        {
          "internalType": "uint256",
          "name": "amount",
          "type": "uint256"
        }
      ],
      "payable": false,
      "stateMutability": "nonpayable",
      "type": "function"
    },
    {
      "constant": false,
      "inputs": [
        {
          "internalType": "address",
          "name": "_to",
          "type": "address"
        },
        {
          "internalType": "bool",
          "name": "_isAnchor",
          "type": "bool"
        }
      ],
      "name": "burnAsync",
      "outputs": [
        {
          "internalType": "uint256",
          "name": "amount0",
          "type": "uint256"
        },
        {
          "internalType": "uint256",
          "name": "amount1",
          "type": "uint256"
        }
      ],
      "payable": false,
      "stateMutability": "nonpayable",
      "type": "function"
    },
    {
      "constant": false,
      "inputs": [
        {
          "internalType": "address",
          "name": "_energyAddress",
          "type": "address"
        },
        {
          "internalType": "address",
          "name": "_energyRevAddress",
          "type": "address"
        }
      ],
      "name": "changeEnergyAddress",
      "outputs": [],
      "payable": false,
      "stateMutability": "nonpayable",
      "type": "function"
    },
    {
      "constant": true,
      "inputs": [],
      "name": "formulaSwitch",
      "outputs": [
        {
          "internalType": "bool",
          "name": "",
          "type": "bool"
        }
      ],
      "payable": false,
      "stateMutability": "view",
      "type": "function"
    },
    {
      "constant": true,
      "inputs": [],
      "name": "gammaEMA",
      "outputs": [
        {
          "internalType": "uint256",
          "name": "",
          "type": "uint256"
        }
      ],
      "payable": false,
      "stateMutability": "view",
      "type": "function"
    },
    {
      "constant": true,
      "inputs": [],
      "name": "gammaMulDecimals",
      "outputs": [
        {
          "internalType": "uint256",
          "name": "",
          "type": "uint256"
        }
      ],
      "payable": false,
      "stateMutability": "view",
      "type": "function"
    },
    {
      "constant": true,
      "inputs": [],
      "name": "getSyncReserves",
      "outputs": [
        {
          "internalType": "uint112",
          "name": "_reserve0",
          "type": "uint112"
        },
        {
          "internalType": "uint112",
          "name": "_reserve1",
          "type": "uint112"
        }
      ],
      "payable": false,
      "stateMutability": "view",
      "type": "function"
    },
    {
      "constant": false,
      "inputs": [
        {
          "internalType": "uint256",
          "name": "_gamma",
          "type": "uint256"
        },
        {
          "internalType": "uint256",
          "name": "_vab",
          "type": "uint256"
        },
        {
          "internalType": "uint256",
          "name": "_anchorKFactor",
          "type": "uint256"
        },
        {
          "internalType": "bool",
          "name": "_formulaSwitch",
          "type": "bool"
        }
      ],
      "name": "initMigratedPylon",
      "outputs": [],
      "payable": false,
      "stateMutability": "nonpayable",
      "type": "function"
    },
    {
      "constant": false,
      "inputs": [
        {
          "internalType": "address",
          "name": "_to",
          "type": "address"
        }
      ],
      "name": "initPylon",
      "outputs": [
        {
          "internalType": "uint256",
          "name": "floatLiquidity",
          "type": "uint256"
        },
        {
          "internalType": "uint256",
          "name": "anchorLiquidity",
          "type": "uint256"
        }
      ],
      "payable": false,
      "stateMutability": "nonpayable",
      "type": "function"
    },
    {
      "constant": false,
      "inputs": [
        {
          "internalType": "address",
          "name": "_floatPoolTokenAddress",
          "type": "address"
        },
        {
          "internalType": "address",
          "name": "_anchorPoolTokenAddress",
          "type": "address"
        },
        {
          "internalType": "address",
          "name": "_floatToken",
          "type": "address"
        },
        {
          "internalType": "address",
          "name": "_anchorToken",
          "type": "address"
        },
        {
          "internalType": "address",
          "name": "_pairAddress",
          "type": "address"
        },
        {
          "internalType": "address",
          "name": "_pairFactoryAddress",
          "type": "address"
        },
        {
          "internalType": "address",
          "name": "_energy",
          "type": "address"
        },
        {
          "internalType": "address",
          "name": "_energyRev",
          "type": "address"
        }
      ],
      "name": "initialize",
      "outputs": [],
      "payable": false,
      "stateMutability": "nonpayable",
      "type": "function"
    },
    {
      "constant": true,
      "inputs": [],
      "name": "initialized",
      "outputs": [
        {
          "internalType": "uint256",
          "name": "",
          "type": "uint256"
        }
      ],
      "payable": false,
      "stateMutability": "view",
      "type": "function"
    },
    {
      "constant": true,
      "inputs": [],
      "name": "isFloatReserve0",
      "outputs": [
        {
          "internalType": "bool",
          "name": "",
          "type": "bool"
        }
      ],
      "payable": false,
      "stateMutability": "view",
      "type": "function"
    },
    {
      "constant": true,
      "inputs": [],
      "name": "lastFloatAccumulator",
      "outputs": [
        {
          "internalType": "uint256",
          "name": "",
          "type": "uint256"
        }
      ],
      "payable": false,
      "stateMutability": "view",
      "type": "function"
    },
    {
      "constant": true,
      "inputs": [],
      "name": "lastOracleTimestamp",
      "outputs": [
        {
          "internalType": "uint256",
          "name": "",
          "type": "uint256"
        }
      ],
      "payable": false,
      "stateMutability": "view",
      "type": "function"
    },
    {
      "constant": true,
      "inputs": [],
      "name": "lastPrice",
      "outputs": [
        {
          "internalType": "uint256",
          "name": "",
          "type": "uint256"
        }
      ],
      "payable": false,
      "stateMutability": "view",
      "type": "function"
    },
    {
      "constant": true,
      "inputs": [],
      "name": "lastRootKTranslated",
      "outputs": [
        {
          "internalType": "uint256",
          "name": "",
          "type": "uint256"
        }
      ],
      "payable": false,
      "stateMutability": "view",
      "type": "function"
    },
    {
      "constant": false,
      "inputs": [
        {
          "internalType": "address",
          "name": "newPylon",
          "type": "address"
        }
      ],
      "name": "migrateLiquidity",
      "outputs": [],
      "payable": false,
      "stateMutability": "nonpayable",
      "type": "function"
    },
    {
      "constant": false,
      "inputs": [
        {
          "internalType": "address",
          "name": "to",
          "type": "address"
        },
        {
          "internalType": "bool",
          "name": "shouldMintAnchor",
          "type": "bool"
        }
      ],
      "name": "mintAsync",
      "outputs": [
        {
          "internalType": "uint256",
          "name": "liquidity",
          "type": "uint256"
        }
      ],
      "payable": false,
      "stateMutability": "nonpayable",
      "type": "function"
    },
    {
      "constant": false,
      "inputs": [
        {
          "internalType": "address",
          "name": "_to",
          "type": "address"
        },
        {
          "internalType": "bool",
          "name": "isAnchor",
          "type": "bool"
        }
      ],
      "name": "mintPoolTokens",
      "outputs": [
        {
          "internalType": "uint256",
          "name": "liquidity",
          "type": "uint256"
        }
      ],
      "payable": false,
      "stateMutability": "nonpayable",
      "type": "function"
    },
    {
      "constant": true,
      "inputs": [],
      "name": "muMulDecimals",
      "outputs": [
        {
          "internalType": "uint256",
          "name": "",
          "type": "uint256"
        }
      ],
      "payable": false,
      "stateMutability": "view",
      "type": "function"
    },
    {
      "constant": true,
      "inputs": [],
      "name": "strikeBlock",
      "outputs": [
        {
          "internalType": "uint256",
          "name": "",
          "type": "uint256"
        }
      ],
      "payable": false,
      "stateMutability": "view",
      "type": "function"
    },
    {
      "constant": true,
      "inputs": [],
      "name": "thisBlockEMA",
      "outputs": [
        {
          "internalType": "uint256",
          "name": "",
          "type": "uint256"
        }
      ],
      "payable": false,
      "stateMutability": "view",
      "type": "function"
    },
    {
      "constant": true,
      "inputs": [],
      "name": "virtualAnchorBalance",
      "outputs": [
        {
          "internalType": "uint256",
          "name": "",
          "type": "uint256"
        }
      ],
      "payable": false,
      "stateMutability": "view",
      "type": "function"
    }
  ],
  "bytecode": "0x60806040526000601d5534801561001557600080fd5b50600380546001600160a01b03191633179055614b9e806100376000396000f3fe608060405234801561001057600080fd5b506004361061013e5760003560e01c806304c1675814610143578063053f14da146101905780630a22d5f3146101aa578063158ef93e146101d8578063192b65d8146101e05780633339dc1a146101e857806333cdde4e146101f0578063438ab5ac1461021e5780634a00d16a146102465780638a29e2de1461024e5780638aa96149146102ad5780638d470e22146102db5780638ffa32361461030957806397ed64db14610325578063a01de3aa1461032d578063a9f0e58f14610335578063abaf26491461033d578063af0dda2a14610345578063b707300314610376578063ba7b3dea1461037e578063c548b4c5146103ac578063c561cf4f146103b4578063c9bd59a0146103fb578063efefd9f914610403578063f29401c41461040b578063fef9349214610431575b600080fd5b6101726004803603608081101561015957600080fd5b5080359060208101359060408101359060600135610439565b60408051938452911515602084015282820152519081900360600190f35b610198610530565b60408051918252519081900360200190f35b6101b2610536565b604080516001600160701b03938416815291909216602082015281519081900390910190f35b610198610551565b610198610557565b61019861055d565b6101986004803603604081101561020657600080fd5b506001600160a01b0381351690602001351515610563565b6102446004803603602081101561023457600080fd5b50356001600160a01b0316610bce565b005b610198610c34565b610244600480360361010081101561026557600080fd5b506001600160a01b038135811691602081013582169160408201358116916060810135821691608082013581169160a081013582169160c082013581169160e0013516610c3a565b610244600480360360408110156102c357600080fd5b506001600160a01b0381358116916020013516610d84565b610198600480360360408110156102f157600080fd5b506001600160a01b0381351690602001351515610dba565b610311611150565b604080519115158252519081900360200190f35b610198611160565b610311611166565b61019861116f565b610198611175565b6102446004803603608081101561035b57600080fd5b5080359060208101359060408101359060600135151561117b565b6101986111ca565b6101986004803603604081101561039457600080fd5b506001600160a01b03813516906020013515156111d0565b6101986118db565b6103e2600480360360408110156103ca57600080fd5b506001600160a01b03813516906020013515156118e1565b6040805192835260208301919091528051918290030190f35b61019861201f565b610198612025565b6103e26004803603602081101561042157600080fd5b50356001600160a01b031661202b565b610198612599565b600080806002840281610452898863ffffffff61259f16565b9050600061047889670de0b6b3a76400006002820a0403670de0b6b3a7640000026125f5565b9050600089821061048b57818a0161048f565b818a035b9050670de0b6b3a76400006104aa848363ffffffff61264716565b816104b157fe5b049450848811156104e1578383670de0b6b3a764000002816104cf57fe5b04670de0b6b3a7640000039650610522565b600483026104fd85670de0b6b3a764000063ffffffff61264716565b8161050457fe5b0496508987670de0b6b3a7640000028161051a57fe5b049650600195505b505050509450945094915050565b60175481565b601c546001600160701b0380821692600160701b9092041690565b601d5481565b60095481565b600f5481565b600061056d6126aa565b6105756127bd565b60008261058d576005546001600160a01b031661059a565b6006546001600160a01b03165b90506000806105a7610536565b915091506000806000806000806105bc61308f565b90925090506105da826001600160701b038a1663ffffffff61259f16565b95506105f5816001600160701b03891663ffffffff61259f16565b945060008060006106046130c7565b506001600160701b031691506001600160701b031691506106378282670de0b6b3a7640000028161063157fe5b0461319f565b9250505061064787826000613467565b965061065586826001613467565b9550600080610665600080613689565b5090925090506001600160701b038a168e6106db576002546000906106989061010090046001600160a01b0316306137fe565b9050670de0b6b3a7640000600d548202816106af57fe5b0484600202828f6001600160701b031602816106c757fe5b0401985083818c02816106d657fe5b049750505b60008f61070f5761070a836106f98c6002880263ffffffff61264716565b8161070057fe5b048c600202613889565b610737565b610737846107268d6002870263ffffffff61264716565b8161072d57fe5b048b600202613889565b90508f156108b157600a54600b5460095473__$a7d75b79dbad75865e91612b2984d03884$__9263f8fbc01f9260ff9091169185919061077d908863ffffffff61259f16565b89896040518763ffffffff1660e01b81526004018087151515158152602001868152602001858152602001848152602001838152602001828152602001965050505050505060206040518083038186803b1580156107da57600080fd5b505af41580156107ee573d6000803e3d6000fd5b505050506040513d602081101561080457600080fd5b8101908080519060200190929190505050600b8190555060008e6001600160a01b03166318160ddd6040518163ffffffff1660e01b815260040160206040518083038186803b15801561085657600080fd5b505afa15801561086a573d6000803e3d6000fd5b505050506040513d602081101561088057600080fd5b5051600954909150610898838363ffffffff61264716565b8161089f57fe5b6009805485019055049f506108d39050565b6108cf84848302816108bf57fe5b04600b548686600d54600061389f565b600b555b505050505050506108e3846139bd565b6108ec836139bd565b60005460025461090e916001600160a01b0390811691610100900416866139fb565b600154600254610930916001600160a01b0390811691610100900416856139fb565b600254604080516335313c2160e11b815230600482015290516101009092046001600160a01b031691636a627842916024808201926020929091908290030181600087803b15801561098157600080fd5b505af1158015610995573d6000803e3d6000fd5b505050506040513d60208110156109ab57600080fd5b50600090506109b8613b79565b50905089610b6a5760006109cd600080613689565b5050905060006109db610536565b50905060006109ff600260019054906101000a90046001600160a01b0316306137fe565b90506000670de0b6b3a7640000858302048460020283856001600160701b03160281610a2757fe5b0401905060008c6001600160a01b03166318160ddd6040518163ffffffff1660e01b815260040160206040518083038186803b158015610a6657600080fd5b505afa158015610a7a573d6000803e3d6000fd5b505050506040513d6020811015610a9057600080fd5b50519050878211610ad2576040805162461bcd60e51b81526020600482015260076024820152662d281d102b232160c91b604482015290519081900360640190fd5b6103e88883031115610b2157868883031115610b21576040805162461bcd60e51b81526020600482015260096024820152685a503a20564642324160b81b604482015290519081900360640190fd5b670de0b6b3a7640000610b5a670de0b6b3a76400008a85670de0b6b3a76400000281610b4957fe5b04038361264790919063ffffffff16565b81610b6157fe5b049d5050505050505b610b75888c8b613cca565b604080513381526020810187905280820186905290517f9a36e9f82fd3ab4ec26a87598c0f7f4519b7895fa6a0bca1968b486ee019b0829181900360600190a150506002805460ff191690555094979650505050505050565b610bd6613d47565b600254610bfb9061010090046001600160a01b031682610bf682306137fe565b6139fb565b600154610c16906001600160a01b031682610bf682306137fe565b600054610c31906001600160a01b031682610bf682306137fe565b50565b600c5481565b610c42613d47565b600580546001600160a01b03808b166001600160a01b031992831617909255600680548a84169216919091179055600280548683166101008102610100600160a81b03199092169190911790915560408051630dfe168160e01b8152905192891692630dfe168191600481810192602092909190829003018186803b158015610cca57600080fd5b505afa158015610cde573d6000803e3d6000fd5b505050506040513d6020811015610cf457600080fd5b505160088054604080518082019091526001600160a01b039a8b16808252998b166020909101819052600080546001600160a01b0319908116909b179055600180548b169091179055600480548a16978b1697909717909655600780548916958a169590951790945560ff60a01b1990941693871614600160a01b02929092179093169316929092179055505050565b610d8c613d47565b600780546001600160a01b039384166001600160a01b03199182161790915560088054929093169116179055565b6000610dc46126aa565b610dcc6127bd565b600080610dd7610536565b915091506000610e2e85610deb5783610ded565b825b6001600160701b0316610e2287610e0f576000546001600160a01b0316610e1c565b6001546001600160a01b03165b306137fe565b9063ffffffff61259f16565b9050610e39816139bd565b610e4d81610e47602a61319f565b87613467565b9050600080610e5d600080613689565b5091509150600080610e84600260019054906101000a90046001600160a01b0316306137fe565b905088610ece57670de0b6b3a7640000600d54820281610ea057fe5b048460020282896001600160701b03160281610eb857fe5b040191508360020281860281610eca57fe5b0490505b600089610ee6576005546001600160a01b0316610ef3565b6006546001600160a01b03165b6001600160a01b03166318160ddd6040518163ffffffff1660e01b815260040160206040518083038186803b158015610f2b57600080fd5b505afa158015610f3f573d6000803e3d6000fd5b505050506040513d6020811015610f5557600080fd5b505190506000610f88878c610f6a5787610f6c565b865b8d610f77578b610f79565b8a5b6001600160701b03168e613d91565b90508a15610fb657600954610fa3828463ffffffff61264716565b81610faa57fe5b60098054840190550499505b6000610fc0613b79565b5090508b61110857876000610fd58180613689565b505090506000610fe3610536565b5090506000611007600260019054906101000a90046001600160a01b0316306137fe565b90506000670de0b6b3a7640000868302048460020283856001600160701b0316028161102f57fe5b04019050898111611071576040805162461bcd60e51b81526020600482015260076024820152662d281d102b232160c91b604482015290519081900360640190fd5b6103e88a820311156110bf57888a820311156110bf576040805162461bcd60e51b81526020600482015260086024820152672d281d102b23211960c11b604482015290519081900360640190fd5b670de0b6b3a76400006110f8670de0b6b3a76400008c84670de0b6b3a764000002816110e757fe5b04038a61264790919063ffffffff16565b816110ff57fe5b049f5050505050505b6111358c611121576005546001600160a01b031661112e565b6006546001600160a01b03165b8e8d613cca565b50506002805460ff1916905550969998505050505050505050565b600854600160a01b900460ff1681565b600d5481565b600a5460ff1681565b600b5481565b60155481565b611183613d47565b600d8490556009839055600b829055600a805460ff1916821515179055600e84905543601355601484905582156111bf576111bc613b79565b50505b50506001601d555050565b60105481565b60006111da6126aa565b6111e26127bd565b6000826111fa576005546001600160a01b0316611207565b6006546001600160a01b03165b604080516370a0823160e01b815230600482015290519192506000916001600160a01b038416916370a08231916024808301926020929190829003018186803b15801561125357600080fd5b505afa158015611267573d6000803e3d6000fd5b505050506040513d602081101561127d57600080fd5b5051905061128a816139bd565b6000826001600160a01b03166318160ddd6040518163ffffffff1660e01b815260040160206040518083038186803b1580156112c557600080fd5b505afa1580156112d9573d6000803e3d6000fd5b505050506040513d60208110156112ef57600080fd5b5051905084600080611302838587613fd5565b915091506000611312602a61319f565b905061271082820204820361134a85611336576000546001600160a01b0316611343565b6001546001600160a01b03165b8c836139fb565b8a878510156117de57848803600061136388838b6140d3565b9050612710858202048103896000808061137d8180613689565b5060025491935091508d9089906000906113a59061010090046001600160a01b0316306137fe565b905082156116325760006113b7610536565b6001600160701b03169150506000809050600760009054906101000a90046001600160a01b03166001600160a01b0316638b25fde18b61142d670de0b6b3a764000086600954036114208c600202600d54670de0b6b3a76400000361264790919063ffffffff16565b8161142757fe5b04613889565b6004805460408051632604632d60e21b815290516001600160a01b03909216926398118cb4928282019260209290829003018186803b15801561146f57600080fd5b505afa158015611483573d6000803e3d6000fd5b505050506040513d602081101561149957600080fd5b50516008546040805160e087901b6001600160e01b0319168152600481019590955260248501939093526044840191909152600160a01b900460ff16151560648301526001600160a01b0388166084830152805160a4808401938290030181600087803b15801561150957600080fd5b505af115801561151d573d6000803e3d6000fd5b505050506040513d604081101561153357600080fd5b810190808051906020019092919080519060200190929190505050809250819b505050808e019d505073__$a7d75b79dbad75865e91612b2984d03884$__63b748013f600a60009054906101000a900460ff168a8e600954028161159357fe5b600b54600954604080516001600160e01b031960e089901b1681529515156004870152939092046024850152604484018f905260648401889052608484015285900360a483015260c482018990525160e4808301926020929190829003018186803b15801561160157600080fd5b505af4158015611615573d6000803e3d6000fd5b505050506040513d602081101561162b57600080fd5b5051600b55505b61163d8e8e85613467565b5060025461165a9061010090046001600160a01b0316808a6139fb565b600254600854604080516302ce510960e41b81526001600160a01b038f81166004830152871515600160a01b90940460ff161515939093141560248201529051600093610100900490921691632ce510909160448082019260209290919082900301818787803b1580156116cd57600080fd5b505af11580156116e1573d6000803e3d6000fd5b505050506040513d60208110156116f757600080fd5b50519c8d019c9050836117c75773__$a7d75b79dbad75865e91612b2984d03884$__63b756b6968761172f848963ffffffff61264716565b8161173657fe5b04600b548c868a600d546040518763ffffffff1660e01b815260040180878152602001868152602001858152602001848152602001838152602001828152602001965050505050505060206040518083038186803b15801561179757600080fd5b505af41580156117ab573d6000803e3d6000fd5b505050506040513d60208110156117c157600080fd5b5051600b555b6117d18a8f614299565b5050505050505050505050505b60408051632770a7eb60e21b8152306004820152602481018a905290516001600160a01b038b1691639dc29fac91604480830192600092919082900301818387803b15801561182c57600080fd5b505af1158015611840573d6000803e3d6000fd5b50505050819950505050505050841561187d576009548190611868908463ffffffff61264716565b8161186f57fe5b600980549290910490910390555b611885613b79565b505060408051338152602081018690528615158183015290517f5cf7281eb36e25a92ffd0cff3089777ca0cb41d28e8c7158c234b1eae9a07ed29181900360600190a150506002805460ff191690555092915050565b60165481565b6000806118ec6126aa565b6118f46127bd565b60008361190c576005546001600160a01b0316611919565b6006546001600160a01b03165b604080516370a0823160e01b815230600482015290519192506000916001600160a01b038416916370a08231916024808301926020929190829003018186803b15801561196557600080fd5b505afa158015611979573d6000803e3d6000fd5b505050506040513d602081101561198f57600080fd5b5051905061199c816139bd565b6000826001600160a01b03166318160ddd6040518163ffffffff1660e01b815260040160206040518083038186803b1580156119d757600080fd5b505afa1580156119eb573d6000803e3d6000fd5b505050506040513d6020811015611a0157600080fd5b5051905060008080611a116130c7565b506001600160701b031691506001600160701b03169150611a3e8282670de0b6b3a7640000028161063157fe5b925050506000611a4f8885856140d3565b9050600080611a5c610536565b6001600160701b031691506001600160701b03169150600080611a80600080613689565b509150915060008c611ad65784670de0b6b3a7640000611aae600d546002028661264790919063ffffffff16565b81611ab557fe5b0401611ac7898763ffffffff61264716565b81611ace57fe5b048803611af4565b600954611ae9898663ffffffff61264716565b81611af057fe5b0488035b9050808910611b33576040805162461bcd60e51b815260206004808301919091526024820152635a3a204560e01b604482015290519081900360640190fd5b506000611b4686612710818a020461259f565b90508c15611d515760008e9050600760009054906101000a90046001600160a01b03166001600160a01b0316638b25fde183611bab670de0b6b3a7640000896009540361142089600202600d54670de0b6b3a76400000361264790919063ffffffff16565b6019546008546040805160e087901b6001600160e01b0319168152600481019590955260248501939093526044840191909152600160a01b900460ff16151560648301526001600160a01b0385166084830152805160a4808401938290030181600087803b158015611c1c57600080fd5b505af1158015611c30573d6000803e3d6000fd5b505050506040513d6040811015611c4657600080fd5b508051602090910151600a54600954919e5091935073__$a7d75b79dbad75865e91612b2984d03884$__925063b748013f9160ff16908b90611c8e908e63ffffffff61264716565b81611c9557fe5b0484611cb6600260019054906101000a90046001600160a01b0316306137fe565b600b548a60095403896040518863ffffffff1660e01b8152600401808815151515815260200187815260200186815260200185815260200184815260200183815260200182815260200197505050505050505060206040518083038186803b158015611d2157600080fd5b505af4158015611d35573d6000803e3d6000fd5b505050506040513d6020811015611d4b57600080fd5b5051600b555b600254611d6d9061010090046001600160a01b031680836139fb565b505050505060008990506000611d84600080613689565b509150506000611da9600260019054906101000a90046001600160a01b0316306137fe565b6002546040805163226bf2d160e21b81526001600160a01b038781166004830152825194955060009485946101009004909116926389afcb44926024808201939182900301818787803b158015611dff57600080fd5b505af1158015611e13573d6000803e3d6000fd5b505050506040513d6040811015611e2957600080fd5b50805160209091015190925090506000611e438789614299565b600854909150600160a01b900460ff16611e5d5781611e5f565b825b6008549d019c600160a01b900460ff16611e795782611e7b565b815b8c019b508d611f325773__$a7d75b79dbad75865e91612b2984d03884$__63b756b6968d600202600b5484888a600d546040518763ffffffff1660e01b815260040180878152602001868152602001858152602001848152602001838152602001828152602001965050505050505060206040518083038186803b158015611f0257600080fd5b505af4158015611f16573d6000803e3d6000fd5b505050506040513d6020811015611f2c57600080fd5b5051600b555b60408051632770a7eb60e21b8152306004820152602481018c905290516001600160a01b038d1691639dc29fac91604480830192600092919082900301818387803b158015611f8057600080fd5b505af1158015611f94573d6000803e3d6000fd5b505050508d15611fb957888a6009540281611fab57fe5b600980549290910490910390555b611fc1613b79565b50506002805460ff1916905560408051338152602081018f90528082018e905290517fb83dbb1f0386f1b6d6f534f325d617e3f96f2971cca29021702094328c1cb70c9181900360600190a150505050505050505050509250929050565b60115481565b60125481565b600080601d5460001480156120b75750600360009054906101000a90046001600160a01b03166001600160a01b0316635c975abb6040518163ffffffff1660e01b815260040160206040518083038186803b15801561208957600080fd5b505afa15801561209d573d6000803e3d6000fd5b505050506040513d60208110156120b357600080fd5b5051155b80156120c6575060025460ff16155b6120cf57600080fd5b60008060006120dc6130c7565b9250925092506000836001600160701b031611801561210457506000826001600160701b0316115b61210d57600080fd5b63ffffffff8116601555600854600160a01b900460ff166121a757600260019054906101000a90046001600160a01b03166001600160a01b0316635a3d54936040518163ffffffff1660e01b815260040160206040518083038186803b15801561217657600080fd5b505afa15801561218a573d6000803e3d6000fd5b505050506040513d60208110156121a057600080fd5b5051612222565b600260019054906101000a90046001600160a01b03166001600160a01b0316635909c0d56040518163ffffffff1660e01b815260040160206040518083038186803b1580156121f557600080fd5b505afa158015612209573d6000803e3d6000fd5b505050506040513d602081101561221f57600080fd5b50515b6016556001600160701b0380841690670de0b6b3a76400008402168161224457fe5b046001600160701b03166017556004805460408051632604632d60e21b815290516001600160a01b03909216926398118cb4928282019260209290829003018186803b15801561229357600080fd5b505afa1580156122a7573d6000803e3d6000fd5b505050506040513d60208110156122bd57600080fd5b505160195560035460408051631475aa5760e31b815290516001600160a01b039092169163a3ad52b891600480820192602092909190829003018186803b15801561230757600080fd5b505afa15801561231b573d6000803e3d6000fd5b505050506040513d602081101561233157600080fd5b5051601a5560035460408051632ca17caf60e11b815290516001600160a01b0390921691635942f95e91600480820192602092909190829003018186803b15801561237b57600080fd5b505afa15801561238f573d6000803e3d6000fd5b505050506040513d60208110156123a557600080fd5b5051601b55600354604080516358e20cf160e11b815290516001600160a01b039092169163b1c419e291600480820192602092909190829003018186803b1580156123ef57600080fd5b505afa158015612403573d6000803e3d6000fd5b505050506040513d602081101561241957600080fd5b50516018556002805460ff1916600117905560008061243661308f565b91509150612443826139bd565b61244c816139bd565b61246a856001600160701b0316856001600160701b031684846143c9565b6009819055670de0b6b3a7640000600b8190559193509150612490908290600082610439565b50600a805460ff1916911515919091179055600d556006546124bf906001600160a01b031660006103e8613cca565b6005546124d9906001600160a01b031660006103e8613cca565b6124eb816103e863ffffffff61259f16565b95506125286103e86125096002600d5461264790919063ffffffff16565b84670de0b6b3a7640000028161251b57fe5b049063ffffffff61259f16565b9650612535601a54614424565b60065461254c906001600160a01b03168988613cca565b600554612563906001600160a01b03168989613cca565b600d54600e8190554360135560145561257a613b79565b50506001601d5550506002805460ff1916905550929491935090915050565b600e5481565b808203828111156125ef576040805162461bcd60e51b815260206004820152601560248201527464732d6d6174682d7375622d756e646572666c6f7760581b604482015290519081900360640190fd5b92915050565b60006003821115612638575080600160028204015b818110156126325780915060028182858161262157fe5b04018161262a57fe5b04905061260a565b50612642565b8115612642575060015b919050565b60008115806126625750508082028282828161265f57fe5b04145b6125ef576040805162461bcd60e51b815260206004820152601460248201527364732d6d6174682d6d756c2d6f766572666c6f7760601b604482015290519081900360640190fd5b601d5460011480156127335750600360009054906101000a90046001600160a01b03166001600160a01b0316635c975abb6040518163ffffffff1660e01b815260040160206040518083038186803b15801561270557600080fd5b505afa158015612719573d6000803e3d6000fd5b505050506040513d602081101561272f57600080fd5b5051155b61276d576040805162461bcd60e51b8152602060048083019190915260248201526305a3a20560e41b604482015290519081900360640190fd5b60025460ff16156127ae576040805162461bcd60e51b815260206004808301919091526024820152632d1d102960e11b604482015290519081900360640190fd5b6002805460ff19166001179055565b6004805460408051632604632d60e21b815290516001600160a01b03909216926398118cb4928282019260209290829003018186803b1580156127ff57600080fd5b505afa158015612813573d6000803e3d6000fd5b505050506040513d602081101561282957600080fd5b505160195560035460408051631475aa5760e31b815290516001600160a01b039092169163a3ad52b891600480820192602092909190829003018186803b15801561287357600080fd5b505afa158015612887573d6000803e3d6000fd5b505050506040513d602081101561289d57600080fd5b5051601a5560035460408051632ca17caf60e11b815290516001600160a01b0390921691635942f95e91600480820192602092909190829003018186803b1580156128e757600080fd5b505afa1580156128fb573d6000803e3d6000fd5b505050506040513d602081101561291157600080fd5b5051601b55600354604080516358e20cf160e11b815290516001600160a01b039092169163b1c419e291600480820192602092909190829003018186803b15801561295b57600080fd5b505afa15801561296f573d6000803e3d6000fd5b505050506040513d602081101561298557600080fd5b505160185560025461010090046001600160a01b03163314612a0a57600260019054906101000a90046001600160a01b03166001600160a01b03166311816b046040518163ffffffff1660e01b8152600401600060405180830381600087803b1580156129f157600080fd5b505af1158015612a05573d6000803e3d6000fd5b505050505b600080612a18600080613689565b5091509150600260019054906101000a90046001600160a01b03166001600160a01b031663145f3c276040518163ffffffff1660e01b8152600401600060405180830381600087803b158015612a6d57600080fd5b505af1158015612a81573d6000803e3d6000fd5b505050506000612a928284026125f5565b9050600080612a9f610536565b9150915060006064601a54870281612ab357fe5b04905060006064601a54870281612ac657fe5b049050612ae7846001600160701b0316846001600160701b03168484614624565b505050506000806000612afb600080613689565b925092509250600080612b0c610536565b600d5460085492945090925090600090600160a01b900460ff16612ba957600260019054906101000a90046001600160a01b03166001600160a01b0316635a3d54936040518163ffffffff1660e01b815260040160206040518083038186803b158015612b7857600080fd5b505afa158015612b8c573d6000803e3d6000fd5b505050506040513d6020811015612ba257600080fd5b5051612c24565b600260019054906101000a90046001600160a01b03166001600160a01b0316635909c0d56040518163ffffffff1660e01b815260040160206040518083038186803b158015612bf757600080fd5b505afa158015612c0b573d6000803e3d6000fd5b505050506040513d6020811015612c2157600080fd5b50515b601854601554919250429101811115612ca4578563ffffffff16811115612c665763ffffffff86168103607088901b818a8281612c5d57fe5b04028401935050505b601654821115612ca457600060706016548403670de0b6b3a764000002901c905060155482038181612c9457fe5b0460175550601581905560168290555b8715801590612cb257508615155b15613082576000600c548a1115612d1a576000600c54612ce1600e54600c548e0361264790919063ffffffff16565b81612ce857fe5b0490508015612d1857670de0b6b3a7640000612d0a8a8363ffffffff61264716565b60020281612d1457fe5b0491505b505b60098054820190819055600b54612d3c91906001600160701b0388168b610439565b50600a805460ff1916911515919091179055600d5560075460035460408051637945980160e01b815290516001600160a01b039384169363b3828f839316916379459801916004808301926020929190829003018186803b158015612da057600080fd5b505afa158015612db4573d6000803e3d6000fd5b505050506040513d6020811015612dca57600080fd5b50516003546040805163604b97bd60e11b815290516001600160a01b039092169163c0972f7a91600480820192602092909190829003018186803b158015612e1157600080fd5b505afa158015612e25573d6000803e3d6000fd5b505050506040513d6020811015612e3b57600080fd5b5051601354600e54600d54601454604080516001600160e01b031960e08a901b1681526004810197909752602487019590955260448601939093526064850191909152608484015260a48301525160c4808301926020929190829003018186803b158015612ea857600080fd5b505afa158015612ebc573d6000803e3d6000fd5b505050506040513d6020811015612ed257600080fd5b5051600e55600d54601455436013819055600c8b9055601254600091612efd9163ffffffff61259f16565b90508015612feb576003546040805163ed6b92cd60e01b815290516000926001600160a01b03169163ed6b92cd916004808301926020929190829003018186803b158015612f4a57600080fd5b505afa158015612f5e573d6000803e3d6000fd5b505050506040513d6020811015612f7457600080fd5b5051601154909150600090600a439190910311612f92576000612f97565b600a83045b9050612fac600183018263ffffffff6148a216565b612fc560105484600f54026148a290919063ffffffff16565b81612fcc57fe5b04600f55600d54612fdd90886148f1565b60105550504360125561300d565b613009612ffa600d54876148f1565b6010549063ffffffff6148a216565b6010555b6130386040518060400160405280600781526020016674686973454d4160c81b815250601054614908565b600954600b54600d5460408051938452602084019290925282820152517f54964c70825f65946c2e16cd62d98784e0536cf3d54b15ce1845f37f325945d29181900360600190a150505b5050505050505050505050565b6000805481906130a8906001600160a01b0316306137fe565b6001549092506130c1906001600160a01b0316306137fe565b90509091565b600080600080600080600260019054906101000a90046001600160a01b03166001600160a01b0316630902f1ac6040518163ffffffff1660e01b815260040160606040518083038186803b15801561311e57600080fd5b505afa158015613132573d6000803e3d6000fd5b505050506040513d606081101561314857600080fd5b5080516020820151604090920151600854919550919350909150600160a01b900460ff166131765781613178565b825b600854909650600160a01b900460ff166131925782613194565b815b959690945092505050565b6000806131b0600f546010546149ba565b905082602a141561323d57600754600d5460408051630134dce560e11b81526004810192909252516001600160a01b0390921691630269b9ca91602480820192602092909190829003018186803b15801561320a57600080fd5b505afa15801561321e573d6000803e3d6000fd5b505050506040513d602081101561323457600080fd5b505191506132a0565b6019546002029150601754831061327a5760175483906132659061271063ffffffff61264716565b8161326c57fe5b0461271003820191506132a0565b60175461328f8461271063ffffffff61264716565b8161329657fe5b0461271003820191505b6132d56040518060400160405280600f81526020016e06665656270732c206970642c206c7608c1b81525083856017546149c9565b601b548110613422576000601154430390506000601b54670de0b6b3a7640000816132fc57fe5b0490506133336040518060400160405280600f81526020016e1cdd1c9a5ad94b0818dd5c9c995b9d608a1b81525060115443614a8d565b80821115613344574360115561341f565b6133ef84600360009054906101000a90046001600160a01b03166001600160a01b0316632be90b326040518163ffffffff1660e01b815260040160206040518083038186803b15801561339657600080fd5b505afa1580156133aa573d6000803e3d6000fd5b505050506040513d60208110156133c057600080fd5b5051601b54612710906133d9888363ffffffff61264716565b816133e057fe5b0403019063ffffffff6148a216565b935061341f604051806040016040528060098152602001681919dd0b081b585e1160ba1b815250601b5485614a8d565b50505b6127108210613461576040805162461bcd60e51b81526020600482015260066024820152650b474408ca8960d31b604482015290519081900360640190fd5b50919050565b6000612710838502048061347e5784915050613682565b82156134a6576001546007546134a1916001600160a01b039081169116836139fb565b613614565b6000546002546134c8916001600160a01b0390811691610100900416836139fb565b6000806134d36130c7565b509150915060006134f3601954612710038561264790919063ffffffff16565b90506000613522826135166001600160701b03871661271063ffffffff61264716565b9063ffffffff6148a216565b61353b836001600160701b03861663ffffffff61264716565b8161354257fe5b60025460085492909104925061010090046001600160a01b03169063022c0d9f90600160a01b900460ff16613577578261357a565b60005b600854600160a01b900460ff16613592576000613594565b835b600754604080516001600160e01b031960e087901b168152600481019490945260248401929092526001600160a01b0316604483015260806064830152600060848301819052905160c48084019382900301818387803b1580156135f757600080fd5b505af115801561360b573d6000803e3d6000fd5b50505050505050505b600760009054906101000a90046001600160a01b03166001600160a01b03166303f187ea6040518163ffffffff1660e01b8152600401600060405180830381600087803b15801561366457600080fd5b505af1158015613678573d6000803e3d6000fd5b5050509085039150505b9392505050565b60008060008060008061369a6130c7565b600254604080516370a0823160e01b815230600482015290519497509295509093506000926101009091046001600160a01b0316916370a08231916024808301926020929190829003018186803b1580156136f457600080fd5b505afa158015613708573d6000803e3d6000fd5b505050506040513d602081101561371e57600080fd5b5051600254604080516318160ddd60e01b815290519293506000926101009092046001600160a01b0316916318160ddd91600480820192602092909190829003018186803b15801561376f57600080fd5b505afa158015613783573d6000803e3d6000fd5b505050506040513d602081101561379957600080fd5b505190508115806137a8575080155b156137c05789894297509750975050505050506137f7565b8082866001600160701b031602816137d457fe5b048183866001600160701b031602816137e957fe5b048497509750975050505050505b9250925092565b6000826001600160a01b03166370a08231836040518263ffffffff1660e01b815260040180826001600160a01b03166001600160a01b0316815260200191505060206040518083038186803b15801561385657600080fd5b505afa15801561386a573d6000803e3d6000fd5b505050506040513d602081101561388057600080fd5b50519392505050565b60008183106138985781613682565b5090919050565b600080826138d057670de0b6b3a76400006138c3866002870263ffffffff61264716565b816138ca57fe5b046138f5565b670de0b6b3a76400006138ec876002870263ffffffff61264716565b816138f357fe5b045b9050600081890161393b8561390d5760028b04613910565b60005b88018661392b57886002028a8d028161392557fe5b0461392d565b8b5b8a019063ffffffff61264716565b8161394257fe5b04905085613956828463ffffffff61264716565b8161395d57fe5b04905086613971828a63ffffffff61264716565b8161397857fe5b0490508781111561398d5787925050506139b3565b670de0b6b3a76400008110156139af57670de0b6b3a7640000925050506139b3565b9150505b9695505050505050565b60008111610c31576040805162461bcd60e51b815260206004808301919091526024820152632d1d102d60e11b604482015290519081900360640190fd5b60408051808201825260198152787472616e7366657228616464726573732c75696e743235362960381b60209182015281516001600160a01b0385811660248301526044808301869052845180840390910181526064909201845291810180516001600160e01b031663a9059cbb60e01b1781529251815160009460609489169392918291908083835b60208310613aa45780518252601f199092019160209182019101613a85565b6001836020036101000a0380198251168184511680821785525050505050509050019150506000604051808303816000865af19150503d8060008114613b06576040519150601f19603f3d011682016040523d82523d6000602084013e613b0b565b606091505b5091509150818015613b39575080511580613b395750808060200190516020811015613b3657600080fd5b50515b613b72576040805162461bcd60e51b81526020600482015260056024820152642d1d102a2360d91b604482015290519081900360640190fd5b5050505050565b600080600080613b8761308f565b91509150600080613b988484613689565b509150915060006064601a54840281613bad57fe5b04905060006064601a54840281613bc057fe5b049050613c0b86866064613bdf601a548961264790919063ffffffff16565b81613be657fe5b046064613bfe601a548961264790919063ffffffff16565b81613c0557fe5b04614624565b613c158686613689565b509094509250613c33613c2e858563ffffffff61264716565b6125f5565b600c556000613c40610536565b6001600160701b0316915050613c5c600954600b548387610439565b9050809950819a505050613ca66040518060400160405280601a81526020017933b0b6b6b0a732bb961033b0b6b6b0a7b6321610313637b1b5a760311b8152508a600d54436149c9565b601b54613cb58a600d546148f1565b10613cbf57436011555b505050505050509091565b826001600160a01b03166340c10f1983836040518363ffffffff1660e01b815260040180836001600160a01b03166001600160a01b0316815260200182815260200192505050600060405180830381600087803b158015613d2a57600080fd5b505af1158015613d3e573d6000803e3d6000fd5b50505050505050565b6003546001600160a01b03163314613d8f576040805162461bcd60e51b815260206004808301919091526024820152632d1d102360e11b604482015290519081900360640190fd5b565b601a54600090816064613daa878463ffffffff61264716565b81613db157fe5b049050600085821115613de857508481038015613de857808811613de357613dd883614424565b879350505050613fcd565b928301925b80880360008080613df98180613689565b50915091508815613f9b57896000613e128484026125f5565b90506000612710600260195481613e2557fe5b0460010161271003880281613e3657fe5b0490506000613e55613e4e868463ffffffff6148a216565b87026125f5565b9050828111613e93576040805162461bcd60e51b81526020600482015260056024820152645a503a534b60d81b604482015290519081900360640190fd5b600083848303670de0b6b3a76400000281613eaa57fe5b049050670de0b6b3a7640000868202600202048801975073__$a7d75b79dbad75865e91612b2984d03884$__63f8fbc01f600a60009054906101000a900460ff168a600b54613f048a60095461259f90919063ffffffff16565b8c8c6040518763ffffffff1660e01b81526004018087151515158152602001868152602001858152602001848152602001838152602001828152602001965050505050505060206040518083038186803b158015613f6157600080fd5b505af4158015613f75573d6000803e3d6000fd5b505050506040513d6020811015613f8b57600080fd5b5051600b5550613fb29350505050565b613fae84600b548484600d54600161389f565b600b555b968201968415613fc557613fc587614424565b505050505050505b949350505050565b600080600080613fe6600080613689565b5091509150600080613ff6610536565b915091506000896140075782614009565b815b6001600160701b0316905060008a6140215785614023565b845b905060008b61407957614074670de0b6b3a764000061405e6002614052600d548761264790919063ffffffff16565b9063ffffffff61264716565b8161406557fe5b8591900463ffffffff6148a216565b61407d565b6009545b905080614090848d63ffffffff61264716565b8161409757fe5b04985060006140a68a8c613889565b90508b6140b9838363ffffffff61264716565b816140c057fe5b0498505050505050505050935093915050565b60008060006140e3600180613689565b50915091506000806140f3610536565b600254604080516370a0823160e01b8152306004820152905193955091935060009283926101009092046001600160a01b0316916370a08231916024808301926020929190829003018186803b15801561414c57600080fd5b505afa158015614160573d6000803e3d6000fd5b505050506040513d602081101561417657600080fd5b5051905089156141b357846002026141a4846001600160701b0316600954038361264790919063ffffffff16565b816141ab57fe5b0491506141db565b600d54670de0b6b3a7640000906141d0908363ffffffff61264716565b816141d757fe5b0491505b60008a61423e57846001600160701b0316670de0b6b3a764000061420d600d546002028a61264790919063ffffffff16565b8161421457fe5b040161422f8a6001600160701b03881663ffffffff61264716565b8161423657fe5b048903614265565b60095461425a8a6001600160701b03871663ffffffff61264716565b8161426157fe5b0489035b9050806142788b8563ffffffff61264716565b8161427f57fe5b04975061428b886139bd565b505050505050509392505050565b600061271082840204806142b057839150506125ef565b6002546142cc9061010090046001600160a01b031680836139fb565b600254600754600854604080516302ce510960e41b81526001600160a01b039384166004820152600160a01b90920460ff161560248301525161010090930490911691632ce51090916044808201926020929091908290030181600087803b15801561433757600080fd5b505af115801561434b573d6000803e3d6000fd5b505050506040513d602081101561436157600080fd5b5050600754604080516301f8c3f560e11b815290516001600160a01b03909216916303f187ea9160048082019260009290919082900301818387803b1580156143a957600080fd5b505af11580156143bd573d6000803e3d6000fd5b50505093039392505050565b60008080856143de888663ffffffff61264716565b816143e557fe5b049050848111156144135784925086614404848863ffffffff61264716565b8161440b57fe5b04915061441a565b8092508391505b5094509492505050565b60008061442f61308f565b915091506000806144408484613689565b509092509050600060c861445a848863ffffffff61264716565b8161446157fe5b049050600060c8614478848963ffffffff61264716565b8161447f57fe5b049050816001600160701b0316861180156144a25750806001600160701b031685115b156145c0576000806144b26130c7565b506001600160701b031691506001600160701b031691506000806144ee8484886001600160701b03168d03886001600160701b03168d036143c9565b600054600254929450909250614517916001600160a01b039182169161010090910416846139fb565b600154600254614539916001600160a01b0390811691610100900416836139fb565b600254604080516335313c2160e11b815230600482015290516101009092046001600160a01b031691636a627842916024808201926020929091908290030181600087803b15801561458a57600080fd5b505af115801561459e573d6000803e3d6000fd5b505050506040513d60208110156145b457600080fd5b50613d3e945050505050565b600260019054906101000a90046001600160a01b03166001600160a01b031663145f3c276040518163ffffffff1660e01b8152600401600060405180830381600087803b15801561461057600080fd5b505af1158015613082573d6000803e3d6000fd5b83826001600160701b0316101561471457600054600254614662916001600160a01b03908116916101009004166001600160701b03851687036139fb565b600254600854604080516321913af360e11b8152306004820152600160a01b90920460ff16151560248301525160009261010090046001600160a01b03169163432275e691604480830192606092919082900301818787803b1580156146c757600080fd5b505af11580156146db573d6000803e3d6000fd5b505050506040513d60608110156146f157600080fd5b5050601c80546001600160701b0319166001600160701b03851617905550614730565b601c80546001600160701b0319166001600160701b0386161790555b82816001600160701b031610156148275760015460025461476e916001600160a01b03908116916101009004166001600160701b03841686036139fb565b600254600854604080516321913af360e11b8152306004820152600160a01b90920460ff16156024830152516101009092046001600160a01b03169163432275e6916044808201926060929091908290030181600087803b1580156147d257600080fd5b505af11580156147e6573d6000803e3d6000fd5b505050506040513d60608110156147fc57600080fd5b5050601c8054600160701b600160e01b031916600160701b6001600160701b0384160217905561484c565b601c8054600160701b600160e01b031916600160701b6001600160701b038616021790555b601c54604080516001600160701b038084168252600160701b909304909216602083015280517f1d96001f313f6446e46c7776b79d231589555627a46fa2388f3220937fc79e519281900390910190a150505050565b808201828110156125ef576040805162461bcd60e51b815260206004820152601460248201527364732d6d6174682d6164642d6f766572666c6f7760601b604482015290519081900360640190fd5b600081831061490357508082036125ef565b500390565b6149b682826040516024018080602001838152602001828103825284818151815260200191508051906020019080838360005b8381101561495357818101518382015260200161493b565b50505050905090810190601f1680156149805780820380516001836020036101000a031916815260200191505b5060408051601f198184030181529190526020810180516001600160e01b03166309710a9d60e41b1790529350614b4892505050565b5050565b60008183116138985781613682565b614a87848484846040516024018080602001858152602001848152602001838152602001828103825286818151815260200191508051906020019080838360005b83811015614a22578181015183820152602001614a0a565b50505050905090810190601f168015614a4f5780820380516001836020036101000a031916815260200191505b5060408051601f198184030181529190526020810180516001600160e01b03166304772b3360e11b1790529550614b48945050505050565b50505050565b614b438383836040516024018080602001848152602001838152602001828103825285818151815260200191508051906020019080838360005b83811015614adf578181015183820152602001614ac7565b50505050905090810190601f168015614b0c5780820380516001836020036101000a031916815260200191505b5060408051601f198184030181529190526020810180516001600160e01b031663969cdd0360e01b1790529450614b489350505050565b505050565b80516a636f6e736f6c652e6c6f67602083016000808483855afa505050505056fea265627a7a7231582075f07b7f876bf8158bd42282a9dddb96604ca7f32c16304daef2bc04c58cd21f64736f6c63430005100032",
  "linkReferences": {
    "contracts/libraries/ZirconLibrary.sol": {
      "ZirconLibrary": [
        {
          "length": 20,
          "start": 1921
        },
        {
          "length": 20,
          "start": 5525
        },
        {
          "length": 20,
          "start": 5949
        },
        {
          "length": 20,
          "start": 7316
        },
        {
          "length": 20,
          "start": 7869
        },
        {
          "length": 20,
          "start": 16122
        }
      ]
    }
  },
  "deployedLinkReferences": {
    "contracts/libraries/ZirconLibrary.sol": {
      "ZirconLibrary": [
        {
          "length": 20,
          "start": 1866
        },
        {
          "length": 20,
          "start": 5470
        },
        {
          "length": 20,
          "start": 5894
        },
        {
          "length": 20,
          "start": 7261
        },
        {
          "length": 20,
          "start": 7814
        },
        {
          "length": 20,
          "start": 16067
        }
      ]
    }
  }
}