{
  "_format": "hh-sol-artifact-1",
  "contractName": "ZirconPylon",
  "sourceName": "contracts/ZirconPylon.sol",
  "abi": [
    {
      "inputs": [],
      "payable": false,
      "stateMutability": "nonpayable",
      "type": "constructor"
    },
    {
      "anonymous": false,
      "inputs": [
        {
          "indexed": false,
          "internalType": "address",
          "name": "sender",
          "type": "address"
        },
        {
          "indexed": false,
          "internalType": "uint256",
          "name": "aIn0",
          "type": "uint256"
        },
        {
          "indexed": false,
          "internalType": "bool",
          "name": "isAnchor",
          "type": "bool"
        }
      ],
      "name": "Burn",
      "type": "event"
    },
    {
      "anonymous": false,
      "inputs": [
        {
          "indexed": false,
          "internalType": "address",
          "name": "sender",
          "type": "address"
        },
        {
          "indexed": false,
          "internalType": "uint256",
          "name": "aIn0",
          "type": "uint256"
        },
        {
          "indexed": false,
          "internalType": "uint256",
          "name": "aIn1",
          "type": "uint256"
        }
      ],
      "name": "BurnAsync",
      "type": "event"
    },
    {
      "anonymous": false,
      "inputs": [
        {
          "indexed": false,
          "internalType": "address",
          "name": "sender",
          "type": "address"
        },
        {
          "indexed": false,
          "internalType": "uint256",
          "name": "aIn0",
          "type": "uint256"
        },
        {
          "indexed": false,
          "internalType": "uint256",
          "name": "aIn1",
          "type": "uint256"
        }
      ],
      "name": "MintAsync",
      "type": "event"
    },
    {
      "anonymous": false,
      "inputs": [
        {
          "indexed": false,
          "internalType": "address",
          "name": "sender",
          "type": "address"
        },
        {
          "indexed": false,
          "internalType": "uint256",
          "name": "aIn0",
          "type": "uint256"
        },
        {
          "indexed": false,
          "internalType": "bool",
          "name": "isAnchor",
          "type": "bool"
        }
      ],
      "name": "MintSync",
      "type": "event"
    },
    {
      "anonymous": false,
      "inputs": [
        {
          "indexed": false,
          "internalType": "uint256",
          "name": "_vab",
          "type": "uint256"
        },
        {
          "indexed": false,
          "internalType": "uint256",
          "name": "_vfb",
          "type": "uint256"
        },
        {
          "indexed": false,
          "internalType": "uint256",
          "name": "_gamma",
          "type": "uint256"
        }
      ],
      "name": "PylonSync",
      "type": "event"
    },
    {
      "anonymous": false,
      "inputs": [
        {
          "indexed": false,
          "internalType": "uint256",
          "name": "_reserve0",
          "type": "uint256"
        },
        {
          "indexed": false,
          "internalType": "uint256",
          "name": "_reserve1",
          "type": "uint256"
        }
      ],
      "name": "PylonUpdate",
      "type": "event"
    },
    {
      "constant": true,
      "inputs": [],
      "name": "EMABlockNumber",
      "outputs": [
        {
          "internalType": "uint256",
          "name": "",
          "type": "uint256"
        }
      ],
      "payable": false,
      "stateMutability": "view",
      "type": "function"
    },
    {
      "constant": true,
      "inputs": [
        {
          "internalType": "uint256",
          "name": "_virtualAnchorBalance",
          "type": "uint256"
        },
        {
          "internalType": "uint256",
          "name": "_virtualFloatBalance",
          "type": "uint256"
        },
        {
          "internalType": "uint256",
          "name": "p2x",
          "type": "uint256"
        },
        {
          "internalType": "uint256",
          "name": "p2y",
          "type": "uint256"
        },
        {
          "internalType": "uint256",
          "name": "_pylonReserve0",
          "type": "uint256"
        },
        {
          "internalType": "uint256",
          "name": "_pylonReserve1",
          "type": "uint256"
        },
        {
          "internalType": "uint256",
          "name": "_translatedReserve0",
          "type": "uint256"
        },
        {
          "internalType": "uint256",
          "name": "_translatedReserve1",
          "type": "uint256"
        }
      ],
      "name": "_calculateGamma",
      "outputs": [
        {
          "internalType": "uint256",
          "name": "gamma",
          "type": "uint256"
        },
        {
          "internalType": "bool",
          "name": "isLineFormula",
          "type": "bool"
        },
        {
          "internalType": "bool",
          "name": "reduceOnly",
          "type": "bool"
        }
      ],
      "payable": false,
      "stateMutability": "view",
      "type": "function"
    },
    {
      "constant": false,
      "inputs": [
        {
          "internalType": "address",
          "name": "_to",
          "type": "address"
        },
        {
          "internalType": "bool",
          "name": "_isAnchor",
          "type": "bool"
        }
      ],
      "name": "burn",
      "outputs": [
        {
          "internalType": "uint256",
          "name": "amount",
          "type": "uint256"
        }
      ],
      "payable": false,
      "stateMutability": "nonpayable",
      "type": "function"
    },
    {
      "constant": false,
      "inputs": [
        {
          "internalType": "address",
          "name": "_to",
          "type": "address"
        },
        {
          "internalType": "bool",
          "name": "_isAnchor",
          "type": "bool"
        }
      ],
      "name": "burnAsync",
      "outputs": [
        {
          "internalType": "uint256",
          "name": "amount0",
          "type": "uint256"
        },
        {
          "internalType": "uint256",
          "name": "amount1",
          "type": "uint256"
        }
      ],
      "payable": false,
      "stateMutability": "nonpayable",
      "type": "function"
    },
    {
      "constant": false,
      "inputs": [
        {
          "internalType": "address",
          "name": "_energyAddress",
          "type": "address"
        },
        {
          "internalType": "address",
          "name": "_energyRevAddress",
          "type": "address"
        }
      ],
      "name": "changeEnergyAddress",
      "outputs": [],
      "payable": false,
      "stateMutability": "nonpayable",
      "type": "function"
    },
    {
      "constant": true,
      "inputs": [],
      "name": "formulaSwitch",
      "outputs": [
        {
          "internalType": "bool",
          "name": "",
          "type": "bool"
        }
      ],
      "payable": false,
      "stateMutability": "view",
      "type": "function"
    },
    {
      "constant": true,
      "inputs": [],
      "name": "gammaEMA",
      "outputs": [
        {
          "internalType": "uint256",
          "name": "",
          "type": "uint256"
        }
      ],
      "payable": false,
      "stateMutability": "view",
      "type": "function"
    },
    {
      "constant": true,
      "inputs": [],
      "name": "gammaMulDecimals",
      "outputs": [
        {
          "internalType": "uint256",
          "name": "",
          "type": "uint256"
        }
      ],
      "payable": false,
      "stateMutability": "view",
      "type": "function"
    },
    {
      "constant": true,
      "inputs": [],
      "name": "getSyncReserves",
      "outputs": [
        {
          "internalType": "uint112",
          "name": "_reserve0",
          "type": "uint112"
        },
        {
          "internalType": "uint112",
          "name": "_reserve1",
          "type": "uint112"
        }
      ],
      "payable": false,
      "stateMutability": "view",
      "type": "function"
    },
    {
      "constant": false,
      "inputs": [
        {
          "internalType": "uint256",
          "name": "_gamma",
          "type": "uint256"
        },
        {
          "internalType": "uint256",
          "name": "_vab",
          "type": "uint256"
        },
        {
          "internalType": "bool",
          "name": "_formulaSwitch",
          "type": "bool"
        }
      ],
      "name": "initMigratedPylon",
      "outputs": [],
      "payable": false,
      "stateMutability": "nonpayable",
      "type": "function"
    },
    {
      "constant": false,
      "inputs": [
        {
          "internalType": "address",
          "name": "_to",
          "type": "address"
        }
      ],
      "name": "initPylon",
      "outputs": [
        {
          "internalType": "uint256",
          "name": "floatLiquidity",
          "type": "uint256"
        },
        {
          "internalType": "uint256",
          "name": "anchorLiquidity",
          "type": "uint256"
        }
      ],
      "payable": false,
      "stateMutability": "nonpayable",
      "type": "function"
    },
    {
      "constant": false,
      "inputs": [
        {
          "internalType": "address",
          "name": "_floatPoolTokenAddress",
          "type": "address"
        },
        {
          "internalType": "address",
          "name": "_anchorPoolTokenAddress",
          "type": "address"
        },
        {
          "internalType": "address",
          "name": "_floatToken",
          "type": "address"
        },
        {
          "internalType": "address",
          "name": "_anchorToken",
          "type": "address"
        },
        {
          "internalType": "address",
          "name": "_pairAddress",
          "type": "address"
        },
        {
          "internalType": "address",
          "name": "_pairFactoryAddress",
          "type": "address"
        },
        {
          "internalType": "address",
          "name": "_energy",
          "type": "address"
        },
        {
          "internalType": "address",
          "name": "_energyRev",
          "type": "address"
        }
      ],
      "name": "initialize",
      "outputs": [],
      "payable": false,
      "stateMutability": "nonpayable",
      "type": "function"
    },
    {
      "constant": true,
      "inputs": [],
      "name": "initialized",
      "outputs": [
        {
          "internalType": "uint256",
          "name": "",
          "type": "uint256"
        }
      ],
      "payable": false,
      "stateMutability": "view",
      "type": "function"
    },
    {
      "constant": true,
      "inputs": [],
      "name": "isFloatReserve0",
      "outputs": [
        {
          "internalType": "bool",
          "name": "",
          "type": "bool"
        }
      ],
      "payable": false,
      "stateMutability": "view",
      "type": "function"
    },
    {
      "constant": true,
      "inputs": [],
      "name": "lastFloatAccumulator",
      "outputs": [
        {
          "internalType": "uint256",
          "name": "",
          "type": "uint256"
        }
      ],
      "payable": false,
      "stateMutability": "view",
      "type": "function"
    },
    {
      "constant": true,
      "inputs": [],
      "name": "lastOracleTimestamp",
      "outputs": [
        {
          "internalType": "uint256",
          "name": "",
          "type": "uint256"
        }
      ],
      "payable": false,
      "stateMutability": "view",
      "type": "function"
    },
    {
      "constant": true,
      "inputs": [],
      "name": "lastPrice",
      "outputs": [
        {
          "internalType": "uint256",
          "name": "",
          "type": "uint256"
        }
      ],
      "payable": false,
      "stateMutability": "view",
      "type": "function"
    },
    {
      "constant": true,
      "inputs": [],
      "name": "lastRootKTranslated",
      "outputs": [
        {
          "internalType": "uint256",
          "name": "",
          "type": "uint256"
        }
      ],
      "payable": false,
      "stateMutability": "view",
      "type": "function"
    },
    {
      "constant": false,
      "inputs": [
        {
          "internalType": "address",
          "name": "newPylon",
          "type": "address"
        }
      ],
      "name": "migrateLiquidity",
      "outputs": [],
      "payable": false,
      "stateMutability": "nonpayable",
      "type": "function"
    },
    {
      "constant": false,
      "inputs": [
        {
          "internalType": "address",
          "name": "to",
          "type": "address"
        },
        {
          "internalType": "bool",
          "name": "shouldMintAnchor",
          "type": "bool"
        }
      ],
      "name": "mintAsync",
      "outputs": [
        {
          "internalType": "uint256",
          "name": "liquidity",
          "type": "uint256"
        }
      ],
      "payable": false,
      "stateMutability": "nonpayable",
      "type": "function"
    },
    {
      "constant": false,
      "inputs": [
        {
          "internalType": "address",
          "name": "_to",
          "type": "address"
        },
        {
          "internalType": "bool",
          "name": "isAnchor",
          "type": "bool"
        }
      ],
      "name": "mintPoolTokens",
      "outputs": [
        {
          "internalType": "uint256",
          "name": "liquidity",
          "type": "uint256"
        }
      ],
      "payable": false,
      "stateMutability": "nonpayable",
      "type": "function"
    },
    {
      "constant": true,
      "inputs": [],
      "name": "muMulDecimals",
      "outputs": [
        {
          "internalType": "uint256",
          "name": "",
          "type": "uint256"
        }
      ],
      "payable": false,
      "stateMutability": "view",
      "type": "function"
    },
    {
      "constant": true,
      "inputs": [],
      "name": "p2x",
      "outputs": [
        {
          "internalType": "uint256",
          "name": "",
          "type": "uint256"
        }
      ],
      "payable": false,
      "stateMutability": "view",
      "type": "function"
    },
    {
      "constant": true,
      "inputs": [],
      "name": "p2y",
      "outputs": [
        {
          "internalType": "uint256",
          "name": "",
          "type": "uint256"
        }
      ],
      "payable": false,
      "stateMutability": "view",
      "type": "function"
    },
    {
      "constant": true,
      "inputs": [],
      "name": "strikeBlock",
      "outputs": [
        {
          "internalType": "uint256",
          "name": "",
          "type": "uint256"
        }
      ],
      "payable": false,
      "stateMutability": "view",
      "type": "function"
    },
    {
      "constant": true,
      "inputs": [],
      "name": "thisBlockEMA",
      "outputs": [
        {
          "internalType": "uint256",
          "name": "",
          "type": "uint256"
        }
      ],
      "payable": false,
      "stateMutability": "view",
      "type": "function"
    },
    {
      "constant": true,
      "inputs": [],
      "name": "virtualAnchorBalance",
      "outputs": [
        {
          "internalType": "uint256",
          "name": "",
          "type": "uint256"
        }
      ],
      "payable": false,
      "stateMutability": "view",
      "type": "function"
    },
    {
      "constant": true,
      "inputs": [],
      "name": "virtualFloatBalance",
      "outputs": [
        {
          "internalType": "uint256",
          "name": "",
          "type": "uint256"
        }
      ],
      "payable": false,
      "stateMutability": "view",
      "type": "function"
    }
  ],
  "bytecode": "0x6080604052600060215534801561001557600080fd5b50600580546001600160a01b03191633179055614fa3806100376000396000f3fe608060405234801561001057600080fd5b50600436106101545760003560e01c8063053f14da146101595780630a22d5f314610173578063158ef93e146101a1578063192b65d8146101a95780633339dc1a146101b157806333cdde4e146101b9578063438ab5ac146101e75780634a00d16a1461020f5780635d4b592e146102175780638a29e2de1461027f5780638aa96149146102de5780638d470e221461030c5780638ffa32361461033a57806397ed64db146103565780639ab9f3411461035e578063a01de3aa14610366578063a62ef0731461036e578063abaf264914610376578063b70730031461037e578063ba7b3dea14610386578063c548b4c5146103b4578063c561cf4f146103bc578063c9bd59a014610403578063cb84b7651461040b578063cca03acb14610436578063efefd9f91461043e578063f29401c414610446578063fef934921461046c575b600080fd5b610161610474565b60408051918252519081900360200190f35b61017b61047a565b604080516001600160701b03938416815291909216602082015281519081900390910190f35b610161610495565b61016161049b565b6101616104a1565b610161600480360360408110156101cf57600080fd5b506001600160a01b03813516906020013515156104a7565b61020d600480360360208110156101fd57600080fd5b50356001600160a01b0316610a52565b005b610161610ab8565b61025f600480360361010081101561022e57600080fd5b5080359060208101359060408101359060608101359060808101359060a08101359060c08101359060e00135610abe565b604080519384529115156020840152151582820152519081900360600190f35b61020d600480360361010081101561029657600080fd5b506001600160a01b038135811691602081013582169160408201358116916060810135821691608082013581169160a081013582169160c082013581169160e0013516610c2d565b61020d600480360360408110156102f457600080fd5b506001600160a01b0381358116916020013516610e68565b6101616004803603604081101561032257600080fd5b506001600160a01b0381351690602001351515610e9e565b61034261124d565b604080519115158252519081900360200190f35b61016161125d565b610161611263565b610342611269565b610161611272565b610161611278565b61016161127e565b6101616004803603604081101561039c57600080fd5b506001600160a01b0381351690602001351515611284565b6101616114bc565b6103ea600480360360408110156103d257600080fd5b506001600160a01b03813516906020013515156114c2565b6040805192835260208301919091528051918290030190f35b610161611a78565b61020d6004803603606081101561042157600080fd5b50803590602081013590604001351515611a7e565b610161611b87565b610161611b8d565b6103ea6004803603602081101561045c57600080fd5b50356001600160a01b0316611b93565b6101616121fc565b601b5481565b6020546001600160701b0380821692600160701b9092041690565b60215481565b600b5481565b60135481565b60006104b1612202565b6104b9612315565b60008060006104c661047a565b91509150806001600160701b0316600b540392505050600080846104f5576007546001600160a01b0316610502565b6008546001600160a01b03165b905060008060008060008061051561047a565b91509150600080610524612a7b565b506001600160701b031691506001600160701b03169150600080610546612b53565b91509150600061056485600080015486028161055e57fe5b04612b8d565b905061057f836001600160701b03891663ffffffff612e0f16565b61271060028383020204908190039b5098506105b26105a7836001600160701b038916612e0f565b826002026001612e65565b9950505050505060008b90506000806105cc6000806130de565b50909250905089898960008661060957610604856105f38460028a0263ffffffff61319b16565b816105fa57fe5b04846002026131fe565b610631565b61063186610620856002890263ffffffff61319b16565b8161062757fe5b04836002026131fe565b9050600061064483870185890102613214565b905060006106598488018e878b010102613214565b9050818111156106b2576000896106735785600202610678565b846002025b9050826106a48b61068e57878b01600202610695565b868a016002025b8585039063ffffffff61319b16565b816106ab57fe5b0484019350505b5050866107ba576000806106db600460019054906101000a90046001600160a01b031630613266565b90506000670de0b6b3a76400006011548302816106f457fe5b0489600202838e6001600160701b0316028161070c57fe5b040190506000896002028386028161072057fe5b0490508161073d6107308a6132f1565b839063ffffffff61319b16565b8161074457fe5b049350505050809f50868683028161075857fe5b049a50896001600160701b0316670de0b6b3a76400006107866011546002028a61319b90919063ffffffff16565b8161078d57fe5b04016107a483600f5461319b90919063ffffffff16565b816107ab57fe5b600f8054929091049091019055505b86156107e257600b546107cf610730866132f1565b816107d657fe5b600b805484019055049e505b5050505050505050508597506000806107fc6000806130de565b509150915061080a8661335e565b6108138561335e565b600254600454610835916001600160a01b03908116916101009004168861339c565b600354600454610857916001600160a01b03908116916101009004168761339c565b60048054604080516335313c2160e11b81523093810193909352516101009091046001600160a01b031691636a6278429160248083019260209291908290030181600087803b1580156108a957600080fd5b505af11580156108bd573d6000803e3d6000fd5b505050506040513d60208110156108d357600080fd5b50506002546004546108f7916001600160a01b03908116916101009004168661339c565b60048054600a54604080516321913af360e11b81523094810194909452600160a01b90910460ff1615156024840152516101009091046001600160a01b03169163432275e69160448083019260609291908290030181600087803b15801561095e57600080fd5b505af1158015610972573d6000803e3d6000fd5b505050506040513d606081101561098857600080fd5b50600090508061099b858286868f61351a565b915091508015806109a957508c5b6109eb576040805162461bcd60e51b815260206004820152600e60248201526d5a503a205265647563654f6e6c7960901b604482015290519081900360640190fd5b6109f6898f8e613745565b60408051338152602081018a905280820189905290517f9a36e9f82fd3ab4ec26a87598c0f7f4519b7895fa6a0bca1968b486ee019b0829181900360600190a150506004805460ff1916905550979a9950505050505050505050565b610a5a6137c2565b600454610a7f9061010090046001600160a01b031682610a7a8230613266565b61339c565b600354610a9a906001600160a01b031682610a7a8230613266565b600254610ab5906001600160a01b031682610a7a8230613266565b50565b60105481565b6000808080610ad38c8863ffffffff612e0f16565b90506000866000800154870281610ae657fe5b049050610b10604051806040016040528060018152602001600f60fb1b815250600080015461380c565b6040805163234eca8b60e01b815260006004820181905260248201849052604482018e9052606482018d9052608482018a905260a4820189905260c48201859052915173__$a7d75b79dbad75865e91612b2984d03884$__9163234eca8b9160e4808301926060929190829003018186803b158015610b8e57600080fd5b505af4158015610ba2573d6000803e3d6000fd5b505050506040513d6060811015610bb857600080fd5b5080516020820151604090920151919650909450905060028702610bea82670de0b6b3a764000063ffffffff61319b16565b81610bf157fe5b049550610c1c6040518060400160405280600581526020016467616d6d6160d81b81525082896138be565b505050985098509895505050505050565b610c356137c2565b600780546001600160a01b03808b166001600160a01b031992831617909255600880548a84169216919091179055600480548683166101008102610100600160a81b031990921691909117825560408051630dfe168160e01b81529051938a16939192630dfe1681928282019260209290829003018186803b158015610cba57600080fd5b505afa158015610cce573d6000803e3d6000fd5b505050506040513d6020811015610ce457600080fd5b5051600a80546040805180820182526001600160a01b038c81168083528c82166020938401819052600280546001600160a01b031990811684179091556003805482169092179091556006805482168d85161790556009805482168c851617905560ff60a01b1990951696821697909714600160a01b029590951790921693861693909317909155815180830180845263313ce56760e01b9052915191928392909163313ce567916044808601929190818703018186803b158015610da857600080fd5b505afa158015610dbc573d6000803e3d6000fd5b505050506040513d6020811015610dd257600080fd5b505160ff16600a0a81526040805163313ce56760e01b815290516020928301926001600160a01b038a169263313ce5679260048083019392829003018186803b158015610e1e57600080fd5b505afa158015610e32573d6000803e3d6000fd5b505050506040513d6020811015610e4857600080fd5b505160ff16600a0a90528051600055602001516001555050505050505050565b610e706137c2565b600980546001600160a01b039384166001600160a01b031991821617909155600a8054929093169116179055565b6000610ea8612202565b610eb0612315565b600080610ebb61047a565b915091506000610f1285610ecf5783610ed1565b825b6001600160701b0316610f0687610ef3576002546001600160a01b0316610f00565b6003546001600160a01b03165b30613266565b9063ffffffff612e0f16565b9050610f1d8161335e565b600085610f35576003546001600160a01b0316610f42565b6002546001600160a01b03165b90506000610f508230613266565b9050600087610f5f5784610f61565b855b6001600160701b0316905080821115610ff757600954610f8e9084906001600160a01b031683850361339c565b600960009054906101000a90046001600160a01b03166001600160a01b03166303f187ea6040518163ffffffff1660e01b8152600401600060405180830381600087803b158015610fde57600080fd5b505af1158015610ff2573d6000803e3d6000fd5b505050505b50505061100e81611008602a612b8d565b87612e65565b90506000611031600460019054906101000a90046001600160a01b031630613266565b90506000806110416000806130de565b50600b5491935091506001600160701b03861690036000806110848b611072576007546001600160a01b031661107f565b6008546001600160a01b03165b6132f1565b905060008c8c6001600160701b03808d16908c168b8a8a8d8880806110c3878b6110ae57876110b0565b865b8c6110bb578b6110bd565b8a5b8d613979565b92509250925085858302816110d457fe5b049d50891561110757600b546110f0848f63ffffffff61319b16565b816110f757fe5b600b805486019055049b50611197565b6000670de0b6b3a764000060115486028161111e57fe5b0487600202868c028161112d57fe5b04019050806111518f896002028888028161114457fe5b049063ffffffff61319b16565b8161115857fe5b049c506000670de0b6b3a764000060115489600202028161117557fe5b0490508a810183600f54028161118757fe5b600f805492909104909101905550505b5050505050505050506000806111b18760008c8c8c61351a565b915091508015806111bf57508f5b611201576040805162461bcd60e51b815260206004820152600e60248201526d5a503a205265647563654f6e6c7960901b604482015290519081900360640190fd5b61122e8361121a576007546001600160a01b0316611227565b6008546001600160a01b03165b8587613745565b50506004805460ff1916905550909d9c50505050505050505050505050565b600a54600160a01b900460ff1681565b60115481565b600f5481565b600c5460ff1681565b600e5481565b60195481565b60145481565b600061128e612202565b611296612315565b6000826112ae576007546001600160a01b03166112bb565b6008546001600160a01b03165b905060006112c98230613266565b90506112d48161335e565b60006112df836132f1565b90506000806112ef6000806130de565b509150915060006112fe61047a565b6001600160701b03169150670de0b6b3a764000090508860008061132383898b613caf565b915091506000611333602a612b8d565b90508d61271083830204830361136c86611358576002546001600160a01b0316611365565b6003546001600160a01b03165b838361339c565b8b8510156113ab57848c038b8a6000808061138b8c878b878c8a613dad565b9250925092508087019650829c506113a3828a6140a9565b505050505050505b6113b6848488612e65565b506113c28d308e6141d9565b809d50505050505050600081905060008060006113dd61047a565b91509150806001600160701b0316600b5403925050508a1561142757600b54879061140e908a63ffffffff61319b16565b8161141557fe5b600b8054929091049091039055611451565b600f54879061143c908a63ffffffff61319b16565b8161144357fe5b600f80549290910490910390555b61145f82600188888561351a565b505060408051338152602081018c90528c15158183015290517f5cf7281eb36e25a92ffd0cff3089777ca0cb41d28e8c7158c234b1eae9a07ed29181900360600190a150506004805460ff19169055509598975050505050505050565b601a5481565b6000806114cd612202565b6114d5612315565b6000836114ed576007546001600160a01b03166114fa565b6008546001600160a01b03165b905060006115088230613266565b90506115138161335e565b600061151e836132f1565b9050600080600061152d612a7b565b506001600160701b031691506001600160701b0316915061155682600080015483028161055e57fe5b925050506000611567888585614239565b905061159060405180604001604052806005815260200164696e70747560d81b8152508261380c565b670de0b6b3a7640000816000806115a561047a565b6001600160701b031691506001600160701b031691506000806115c96000806130de565b509150915060008e61161f5784670de0b6b3a76400006115f76011546002028661319b90919063ffffffff16565b816115fe57fe5b04016116108b8763ffffffff61319b16565b8161161757fe5b048a0361163d565b600b546116328b8663ffffffff61319b16565b8161163957fe5b048a035b9050808b1061167c576040805162461bcd60e51b815260206004808301919091526024820152635a3a204560e01b604482015290519081900360640190fd5b5061168d87612710818b0204612e0f565b94506116b8604051806040016040528060068152602001650383a3a9d1d160d51b81525086896138be565b8d156117d25760008f9050600960009054906101000a90046001600160a01b03166001600160a01b0316638b25fde187611728670de0b6b3a764000088600b540361171b88600202601154670de0b6b3a76400000361319b90919063ffffffff16565b8161172257fe5b046131fe565b601d54600a546040805160e087901b6001600160e01b0319168152600481019590955260248501939093526044840191909152600160a01b900460ff16151560648301526001600160a01b0385166084830152805160a4808401938290030181600087803b15801561179957600080fd5b505af11580156117ad573d6000803e3d6000fd5b505050506040513d60408110156117c357600080fd5b5080516020909101519d509550505b5050505060008b90506000806117e96000806130de565b5091509150600061180f600460019054906101000a90046001600160a01b031630613266565b60045490915061182e9061010090046001600160a01b0316808761339c565b61185a6040518060400160405280600a8152602001697074755769746846656560b01b8152508661380c565b600480546040805163226bf2d160e21b81526001600160a01b038881169482019490945281516000948594610100900416926389afcb44926024808201939182900301818787803b1580156118ae57600080fd5b505af11580156118c2573d6000803e3d6000fd5b505050506040513d60408110156118d857600080fd5b508051602090910151600a549193509150600160a01b900460ff166118fd57806118ff565b815b600a549f019e600160a01b900460ff16611919578161191b565b805b8e019d50505061192b87896140a9565b508d61199657670de0b6b3a764000061194f6011548361319b90919063ffffffff16565b8161195657fe5b0461196f88670de0b6b3a764000063ffffffff61319b16565b8161197657fe5b0486039550888a600f54028161198857fe5b600f80549290910490910390555b6119a18b308c6141d9565b6000806119ac61047a565b6001600160701b031691505080600b54039150508e156119e157898b600b5402816119d357fe5b600b80549290910490910390555b6119ef87600186868561351a565b50506000600460006101000a81548160ff0219169083151502179055507fb83dbb1f0386f1b6d6f534f325d617e3f96f2971cca29021702094328c1cb70c338f8f60405180846001600160a01b03166001600160a01b03168152602001838152602001828152602001935050505060405180910390a15050505050505050505050509250929050565b60155481565b611a866137c2565b611a8e614456565b6011839055600b829055600c805460ff19168215151790556012839055436017556018839055600080611ac26001806130de565b5091509150600080611ad2612a7b565b506001600160701b031691506001600160701b031691506000611af361047a565b506001600160701b03169050846000800154850281611b0e57fe5b04600d55601154670de0b6b3a764000090850260020204600e558515611b42578682840281611b3957fe5b04600f55611b61565b80670de0b6b3a7640000601154876002020281611b5b57fe5b0401600f555b8615611b7857611b7560008087878b61351a565b50505b50506001602155505050505050565b600d5481565b60165481565b6000806021546000148015611c1f5750600560009054906101000a90046001600160a01b03166001600160a01b0316635c975abb6040518163ffffffff1660e01b815260040160206040518083038186803b158015611bf157600080fd5b505afa158015611c05573d6000803e3d6000fd5b505050506040513d6020811015611c1b57600080fd5b5051155b8015611c2e575060045460ff16155b611c3757600080fd5b6000806000611c44612a7b565b9250925092506000836001600160701b0316118015611c6c57506000826001600160701b0316115b611c7557600080fd5b63ffffffff8116601955600a54600160a01b900460ff16611d0f57600460019054906101000a90046001600160a01b03166001600160a01b0316635a3d54936040518163ffffffff1660e01b815260040160206040518083038186803b158015611cde57600080fd5b505afa158015611cf2573d6000803e3d6000fd5b505050506040513d6020811015611d0857600080fd5b5051611d8a565b600460019054906101000a90046001600160a01b03166001600160a01b0316635909c0d56040518163ffffffff1660e01b815260040160206040518083038186803b158015611d5d57600080fd5b505afa158015611d71573d6000803e3d6000fd5b505050506040513d6020811015611d8757600080fd5b50515b601a556000546001600160701b03808516919084160281611da757fe5b04601b8190556040805180820190915260098152686c617374507269636560b81b6020820152611dd69161380c565b600660009054906101000a90046001600160a01b03166001600160a01b03166398118cb46040518163ffffffff1660e01b815260040160206040518083038186803b158015611e2457600080fd5b505afa158015611e38573d6000803e3d6000fd5b505050506040513d6020811015611e4e57600080fd5b5051601d5560055460408051631475aa5760e31b815290516001600160a01b039092169163a3ad52b891600480820192602092909190829003018186803b158015611e9857600080fd5b505afa158015611eac573d6000803e3d6000fd5b505050506040513d6020811015611ec257600080fd5b5051601e5560055460408051632ca17caf60e11b815290516001600160a01b0390921691635942f95e91600480820192602092909190829003018186803b158015611f0c57600080fd5b505afa158015611f20573d6000803e3d6000fd5b505050506040513d6020811015611f3657600080fd5b5051601f55600554604080516358e20cf160e11b815290516001600160a01b039092169163b1c419e291600480820192602092909190829003018186803b158015611f8057600080fd5b505afa158015611f94573d6000803e3d6000fd5b505050506040513d6020811015611faa57600080fd5b5051601c556004805460ff19166001179055600080611fc7612b53565b91509150611fd48261335e565b611fdd8161335e565b611ffb856001600160701b0316856001600160701b03168484614631565b600b819055600f829055601e546040805163066bc71760e11b81526000600482015260c88386028190048603938502048403838102602483015260448201819052606482018490528251959750939550919373__$a7d75b79dbad75865e91612b2984d03884$__92630cd78e2e926084808301939192829003018186803b15801561208557600080fd5b505af4158015612099573d6000803e3d6000fd5b505050506040513d60408110156120af57600080fd5b508051602090910151600e819055600d829055600b54600f54601e546120e89492939192919060c88a8202819004918a02048888610abe565b50600c805460ff1916911515919091179055601155600854612117906001600160a01b031660006103e8613745565b600754612131906001600160a01b031660006103e8613745565b612143836103e863ffffffff612e0f16565b97506121806103e8612161600260115461319b90919063ffffffff16565b86670de0b6b3a7640000028161217357fe5b049063ffffffff612e0f16565b985061218d601e5461468c565b50506008546121a6906001600160a01b03168b8a613745565b6007546121bd906001600160a01b03168b8b613745565b6011546012819055436017556018556121db602a600084848061351a565b5050600160215550506004805460ff19169055509496939550929350505050565b60125481565b602154600114801561228b5750600560009054906101000a90046001600160a01b03166001600160a01b0316635c975abb6040518163ffffffff1660e01b815260040160206040518083038186803b15801561225d57600080fd5b505afa158015612271573d6000803e3d6000fd5b505050506040513d602081101561228757600080fd5b5051155b6122c5576040805162461bcd60e51b8152602060048083019190915260248201526305a3a20560e41b604482015290519081900360640190fd5b60045460ff1615612306576040805162461bcd60e51b815260206004808301919091526024820152632d1d102960e11b604482015290519081900360640190fd5b6004805460ff19166001179055565b61231d614456565b60045461010090046001600160a01b0316331461239d57600460019054906101000a90046001600160a01b03166001600160a01b03166311816b046040518163ffffffff1660e01b8152600401600060405180830381600087803b15801561238457600080fd5b505af1158015612398573d6000803e3d6000fd5b505050505b600460019054906101000a90046001600160a01b03166001600160a01b031663145f3c276040518163ffffffff1660e01b8152600401600060405180830381600087803b1580156123ed57600080fd5b505af1158015612401573d6000803e3d6000fd5b505050506000806124136000806130de565b50915091506000612425828402613214565b905060008060006124376000806130de565b92509250925060008061244861047a565b601154600a5492945090925090600090600160a01b900460ff166124e557600460019054906101000a90046001600160a01b03166001600160a01b0316635a3d54936040518163ffffffff1660e01b815260040160206040518083038186803b1580156124b457600080fd5b505afa1580156124c8573d6000803e3d6000fd5b505050506040513d60208110156124de57600080fd5b5051612560565b600460019054906101000a90046001600160a01b03166001600160a01b0316635909c0d56040518163ffffffff1660e01b815260040160206040518083038186803b15801561253357600080fd5b505afa158015612547573d6000803e3d6000fd5b505050506040513d602081101561255d57600080fd5b50515b601c5460195491925042910181111561260a578563ffffffff168111156125a25763ffffffff86168103607088901b818a828161259957fe5b04028401935050505b601a5482111561260a576000603860006001015460386019548503601a548703816125c957fe5b04901c02901c90506125fc6040518060400160405280600981526020016861766720707269636560b81b8152508261380c565b601b556019819055601a8290555b871580159061261857508615155b15612a3e5760105460009081908a908a908d11156126ae5760008d6010548f03670de0b6b3a7640000028161264957fe5b0490506001600160701b03808a16908b16600080808061266c85878b8b8b6148a3565b93509350935093508260001415801561268457508115155b156126a25781600d8190555080600e81905550839a508299506126a6565b839a505b505050505050505b600b8054850190819055600f8054850190819055600d54600e546126e4939291906001600160701b03808f16908e168888610abe565b50600c805460ff191691151591909117905560115560125460095460055460408051637945980160e01b815290516001600160a01b039384169363b3828f839316916379459801916004808301926020929190829003018186803b15801561274b57600080fd5b505afa15801561275f573d6000803e3d6000fd5b505050506040513d602081101561277557600080fd5b50516005546040805163604b97bd60e11b815290516001600160a01b039092169163c0972f7a91600480820192602092909190829003018186803b1580156127bc57600080fd5b505afa1580156127d0573d6000803e3d6000fd5b505050506040513d60208110156127e657600080fd5b5051601754601254601154601854604080516001600160e01b031960e08a901b1681526004810197909752602487019590955260448601939093526064850191909152608484015260a48301525160c4808301926020929190829003018186803b15801561285357600080fd5b505afa158015612867573d6000803e3d6000fd5b505050506040513d602081101561287d57600080fd5b50516012819055811461289557601154601855436017555b5060108d8155604080518082019091529081526f19d85b5b584818d85b18dd5b185d195960821b60208201526128ca90614a50565b60006128e160165443612e0f90919063ffffffff16565b905080156129cf576005546040805163ed6b92cd60e01b815290516000926001600160a01b03169163ed6b92cd916004808301926020929190829003018186803b15801561292e57600080fd5b505afa158015612942573d6000803e3d6000fd5b505050506040513d602081101561295857600080fd5b5051601554909150600090600a43919091031161297657600061297b565b600a83045b9050612990600183018263ffffffff614af616565b6129a96014548460135402614af690919063ffffffff16565b816129b057fe5b046013556011546129c1908b614b45565b6014555050436016556129f1565b6129ed6129de6011548a614b45565b6014549063ffffffff614af616565b6014555b600b54600f5460115460408051938452602084019290925282820152517f54964c70825f65946c2e16cd62d98784e0536cf3d54b15ce1845f37f325945d29181900360600190a150505050505b612a6e6040518060400160405280600f81526020016e1cde5b98c818d85b18dd5b185d1959608a1b815250614a50565b5050505050505050505050565b600080600080600080600460019054906101000a90046001600160a01b03166001600160a01b0316630902f1ac6040518163ffffffff1660e01b815260040160606040518083038186803b158015612ad257600080fd5b505afa158015612ae6573d6000803e3d6000fd5b505050506040513d6060811015612afc57600080fd5b5080516020820151604090920151600a54919550919350909150600160a01b900460ff16612b2a5781612b2c565b825b600a54909650600160a01b900460ff16612b465782612b48565b815b959690945092505050565b6002546000908190612b6e906001600160a01b031630613266565b600354909250612b87906001600160a01b031630613266565b90509091565b600080612b9e601354601454614b5c565b905082602a1415612c2b5760095460115460408051630134dce560e11b81526004810192909252516001600160a01b0390921691630269b9ca91602480820192602092909190829003018186803b158015612bf857600080fd5b505afa158015612c0c573d6000803e3d6000fd5b505050506040513d6020811015612c2257600080fd5b50519150612cb6565b601d546002029150601b548310612c6857601b548390612c539061271063ffffffff61319b16565b81612c5a57fe5b046127100382019150612c8e565b601b54612c7d8461271063ffffffff61319b16565b81612c8457fe5b0461271003820191505b612cb66040518060400160405280600381526020016266656560e81b815250601b54856138be565b601f548110612da2576000601554430390506000601f54670de0b6b3a764000081612cdd57fe5b04905080821115612cf15743601555612d9f565b612d9c84600560009054906101000a90046001600160a01b03166001600160a01b0316632be90b326040518163ffffffff1660e01b815260040160206040518083038186803b158015612d4357600080fd5b505afa158015612d57573d6000803e3d6000fd5b505050506040513d6020811015612d6d57600080fd5b5051601f5461271090612d86888363ffffffff61319b16565b81612d8d57fe5b0403019063ffffffff614af616565b93505b50505b612dca6040518060400160405280600681526020016566656562707360d01b8152508361380c565b6127108210612e09576040805162461bcd60e51b81526020600482015260066024820152650b474408ca8960d31b604482015290519081900360640190fd5b50919050565b80820382811115612e5f576040805162461bcd60e51b815260206004820152601560248201527464732d6d6174682d7375622d756e646572666c6f7760581b604482015290519081900360640190fd5b92915050565b600061271083850204600a8111612e7f57849150506130d7565b8215612efb576003548190612e9d906001600160a01b031630613266565b11612ed9576040805162461bcd60e51b81526020600482015260076024820152662d1d10232a241960c91b604482015290519081900360640190fd5b600354600954612ef6916001600160a01b0390811691168361339c565b613069565b600254600454612f1d916001600160a01b03908116916101009004168361339c565b600080612f28612a7b565b50915091506000612f48601d54612710038561319b90919063ffffffff16565b90506000612f7782612f6b6001600160701b03871661271063ffffffff61319b16565b9063ffffffff614af616565b612f90836001600160701b03861663ffffffff61319b16565b81612f9757fe5b600454600a5492909104925061010090046001600160a01b03169063022c0d9f90600160a01b900460ff16612fcc5782612fcf565b60005b600a54600160a01b900460ff16612fe7576000612fe9565b835b600954604080516001600160e01b031960e087901b168152600481019490945260248401929092526001600160a01b0316604483015260806064830152600060848301819052905160c48084019382900301818387803b15801561304c57600080fd5b505af1158015613060573d6000803e3d6000fd5b50505050505050505b600960009054906101000a90046001600160a01b03166001600160a01b03166303f187ea6040518163ffffffff1660e01b8152600401600060405180830381600087803b1580156130b957600080fd5b505af11580156130cd573d6000803e3d6000fd5b5050509085039150505b9392505050565b6000806000806000806130ef612a7b565b92506001600160701b031692506001600160701b031692506000613128600460019054906101000a90046001600160a01b031630613266565b9050600061314a600460019054906101000a90046001600160a01b03166132f1565b9050811580613157575080155b1561316f578989429750975097505050505050613194565b808286028161317a57fe5b04818386028161318657fe5b048497509750975050505050505b9250925092565b60008115806131b6575050808202828282816131b357fe5b04145b612e5f576040805162461bcd60e51b815260206004820152601460248201527364732d6d6174682d6d756c2d6f766572666c6f7760601b604482015290519081900360640190fd5b600081831061320d57816130d7565b5090919050565b60006003821115613257575080600160028204015b818110156132515780915060028182858161324057fe5b04018161324957fe5b049050613229565b50613261565b8115613261575060015b919050565b6000826001600160a01b03166370a08231836040518263ffffffff1660e01b815260040180826001600160a01b03166001600160a01b0316815260200191505060206040518083038186803b1580156132be57600080fd5b505afa1580156132d2573d6000803e3d6000fd5b505050506040513d60208110156132e857600080fd5b50519392505050565b6000816001600160a01b03166318160ddd6040518163ffffffff1660e01b815260040160206040518083038186803b15801561332c57600080fd5b505afa158015613340573d6000803e3d6000fd5b505050506040513d602081101561335657600080fd5b505192915050565b60008111610ab5576040805162461bcd60e51b815260206004808301919091526024820152632d1d102d60e11b604482015290519081900360640190fd5b60408051808201825260198152787472616e7366657228616464726573732c75696e743235362960381b60209182015281516001600160a01b0385811660248301526044808301869052845180840390910181526064909201845291810180516001600160e01b031663a9059cbb60e01b1781529251815160009460609489169392918291908083835b602083106134455780518252601f199092019160209182019101613426565b6001836020036101000a0380198251168184511680821785525050505050509050019150506000604051808303816000865af19150503d80600081146134a7576040519150601f19603f3d011682016040523d82523d6000602084013e6134ac565b606091505b50915091508180156134da5750805115806134da57508080602001905160208110156134d757600080fd5b50515b613513576040805162461bcd60e51b81526020600482015260056024820152642d1d102a2360d91b604482015290519081900360640190fd5b5050505050565b600080600080613528612b53565b9150915060008061353984846130de565b50915091506135868484606461355a601e548761319b90919063ffffffff16565b8161356157fe5b046064613579601e548761319b90919063ffffffff16565b8161358057fe5b04614b6b565b505088915087905060008b602a146135e3578b8b6000806135a789896130de565b50915091506135d98787846135c960008001548661319b90919063ffffffff16565b816135d057fe5b048f8888614dfa565b9196509450925050505b6135fb6135f6848463ffffffff61319b16565b613214565b60105560008061360961047a565b6001600160701b031691506001600160701b031691508d602a146136f9576000805473__$a7d75b79dbad75865e91612b2984d03884$__9163dd2301ed91889088028161365257fe5b600b54600f54604080516001600160e01b031960e089901b1681526004810196909652939092046024850152869003604484015286900360648301526084820189905260a4820188905260c48201879052805160e480840193829003018186803b1580156136bf57600080fd5b505af41580156136d3573d6000803e3d6000fd5b505050506040513d60408110156136e957600080fd5b508051602090910151600e55600d555b613711600b54600f54600d54600e5486868b8b610abe565b9050809950819a505050601f5461372a8a601154614b45565b1061373457436015555b505050505050509550959350505050565b826001600160a01b03166340c10f1983836040518363ffffffff1660e01b815260040180836001600160a01b03166001600160a01b0316815260200182815260200192505050600060405180830381600087803b1580156137a557600080fd5b505af11580156137b9573d6000803e3d6000fd5b50505050505050565b6005546001600160a01b0316331461380a576040805162461bcd60e51b815260206004808301919091526024820152632d1d102360e11b604482015290519081900360640190fd5b565b6138ba82826040516024018080602001838152602001828103825284818151815260200191508051906020019080838360005b8381101561385757818101518382015260200161383f565b50505050905090810190601f1680156138845780820380516001836020036101000a031916815260200191505b5060408051601f198184030181529190526020810180516001600160e01b0316632d839cb360e21b1790529350614f4d92505050565b5050565b6139748383836040516024018080602001848152602001838152602001828103825285818151815260200191508051906020019080838360005b838110156139105781810151838201526020016138f8565b50505050905090810190601f16801561393d5780820380516001836020036101000a031916815260200191505b5060408051601f198184030181529190526020810180516001600160e01b031663ca47c4eb60e01b1790529450614f4d9350505050565b505050565b601e5460009081908190816064613996898463ffffffff61319b16565b8161399d57fe5b0490506000806000806139b16000806130de565b5091509150600060c8878402816139c457fe5b600254919004915060c888840204906000906139e9906001600160a01b031630613266565b600354909150600090613a05906001600160a01b031630613266565b90508382118015613a1557508281115b15613a5a57600080613a2d8888888703888703614631565b915091508f15613a495760648782018d02049a50809850613a57565b60648883018d02049a508198505b50505b50505050505088831115613aa15782810189900391508115613aa157818b11613a9c576000613a888561468c565b508c98509650879550613ca5945050505050565b958101955b818b0360008080613ab281806130de565b50915091508b15613b84578c6000613acb848402613214565b905060006127106002601d5481613ade57fe5b0460010161271003880281613aef57fe5b0490506000613b0e613b07868463ffffffff614af616565b8702613214565b9050828111613b4c576040805162461bcd60e51b81526020600482015260056024820152645a503a534b60d81b604482015290519081900360640190fd5b600083848303670de0b6b3a76400000281613b6357fe5b049050670de0b6b3a764000086820260020204880197505050505050613c7b565b8c6000613b92848402613214565b905060006127106002601d5481613ba557fe5b0460010161271003880281613bb657fe5b0490506000613bd585613bcf888563ffffffff614af616565b02613214565b9050828111613c13576040805162461bcd60e51b81526020600482015260056024820152645a503a534b60d81b604482015290519081900360640190fd5b600083848303670de0b6b3a76400000281613c2a57fe5b049050600082858403670de0b6b3a76400000281613c4457fe5b049050670de0b6b3a76400008882026002020489019850670de0b6b3a764000082600202890281613c7157fe5b049e505050505050505b9982019960008615613c9457613c908961468c565b5090505b890199505050929095019450505050505b9450945094915050565b600080600080613cc06000806130de565b5091509150600080613cd061047a565b91509150600089613ce15782613ce3565b815b6001600160701b0316905060008a613cfb5785613cfd565b845b905060008b613d5357613d4e670de0b6b3a7640000613d386002613d2c6011548761319b90919063ffffffff16565b9063ffffffff61319b16565b81613d3f57fe5b8591900463ffffffff614af616565b613d57565b600b545b905080613d6a848d63ffffffff61319b16565b81613d7157fe5b0498506000613d808a8c6131fe565b90508b613d93838363ffffffff61319b16565b81613d9a57fe5b0498505050505050505050935093915050565b6000806000613dbd898986614239565b60045490925061271088840204830390600090613de89061010090046001600160a01b031630613266565b90506000613df461047a565b6001600160701b031691505060008c15613f4a57600954600b546011548c928c926000926001600160a01b0390921691638b25fde1918a91613e5491670de0b6b3a764000091908b90039061171b90830360028b0263ffffffff61319b16565b601d54600a546040805160e087901b6001600160e01b0319168152600481019590955260248501939093526044840191909152600160a01b900460ff16151560648301526001600160a01b0386166084830152805160a4808401938290030181600087803b158015613ec557600080fd5b505af1158015613ed9573d6000803e3d6000fd5b505050506040513d6040811015613eef57600080fd5b5080516020909101519850965087905085670de0b6b3a76400008882030281613f1457fe5b049350670d7621dc58210000841015613f3757670de0b6b3a76400008785020496505b670de0b6b3a76400009350505050613f8f565b613f8c670de0b6b3a7640000846011540281613f6257fe5b0487670de0b6b3a76400000281613f7557fe5b670de0b6b3a764000091900463ffffffff612e0f16565b90505b613fbb6040518060400160405280600a8152602001697074755769746846656560b01b8152508561380c565b600454613fd79061010090046001600160a01b0316808661339c565b600460019054906101000a90046001600160a01b03166001600160a01b0316632ce510908a8f1515600a60149054906101000a900460ff16151514156040518363ffffffff1660e01b815260040180836001600160a01b03166001600160a01b031681526020018215151515815260200192505050602060405180830381600087803b15801561406657600080fd5b505af115801561407a573d6000803e3d6000fd5b505050506040513d602081101561409057600080fd5b5051909d959c5093909301995092975050505050505050565b600061271082840204806140c05783915050612e5f565b6004546140dc9061010090046001600160a01b0316808361339c565b60048054600954600a54604080516302ce510960e41b81526001600160a01b0393841695810195909552600160a01b90910460ff16156024850152516101009092041691632ce510909160448083019260209291908290030181600087803b15801561414757600080fd5b505af115801561415b573d6000803e3d6000fd5b505050506040513d602081101561417157600080fd5b5050600954604080516301f8c3f560e11b815290516001600160a01b03909216916303f187ea9160048082019260009290919082900301818387803b1580156141b957600080fd5b505af11580156141cd573d6000803e3d6000fd5b50505093039392505050565b826001600160a01b0316639dc29fac83836040518363ffffffff1660e01b815260040180836001600160a01b03166001600160a01b0316815260200182815260200192505050600060405180830381600087803b1580156137a557600080fd5b6000614260604051806040016040528060048152602001636370747560e01b815250614a50565b60008061426e6001806130de565b509150915060008061427e61047a565b915091506000806142a4600460019054906101000a90046001600160a01b031630613266565b90508915614321576142ee604051806040016040528060028152602001610ded60f31b8152506020600e9054906101000a90046001600160701b03166001600160701b031661380c565b84600202614312846001600160701b0316600b54038361319b90919063ffffffff16565b8161431957fe5b049150614373565b61434b6040518060400160405280600581526020016467616d6d6160d81b815250601154836138be565b601154670de0b6b3a764000090614368908363ffffffff61319b16565b8161436f57fe5b0491505b6143986040518060400160405280600381526020016268657960e81b8152508361380c565b60008a6143fb57846001600160701b0316670de0b6b3a76400006143ca6011546002028a61319b90919063ffffffff16565b816143d157fe5b04016143ec8a6001600160701b03881663ffffffff61319b16565b816143f357fe5b048903614422565b600b546144178a6001600160701b03871663ffffffff61319b16565b8161441e57fe5b0489035b9050806144358b8563ffffffff61319b16565b8161443c57fe5b0497506144488861335e565b505050505050509392505050565b600660009054906101000a90046001600160a01b03166001600160a01b03166398118cb46040518163ffffffff1660e01b815260040160206040518083038186803b1580156144a457600080fd5b505afa1580156144b8573d6000803e3d6000fd5b505050506040513d60208110156144ce57600080fd5b5051601d5560055460408051631475aa5760e31b815290516001600160a01b039092169163a3ad52b891600480820192602092909190829003018186803b15801561451857600080fd5b505afa15801561452c573d6000803e3d6000fd5b505050506040513d602081101561454257600080fd5b5051601e5560055460408051632ca17caf60e11b815290516001600160a01b0390921691635942f95e91600480820192602092909190829003018186803b15801561458c57600080fd5b505afa1580156145a0573d6000803e3d6000fd5b505050506040513d60208110156145b657600080fd5b5051601f55600554604080516358e20cf160e11b815290516001600160a01b039092169163b1c419e291600480820192602092909190829003018186803b15801561460057600080fd5b505afa158015614614573d6000803e3d6000fd5b505050506040513d602081101561462a57600080fd5b5051601c55565b6000808085614646888663ffffffff61319b16565b8161464d57fe5b0490508481111561467b578492508661466c848863ffffffff61319b16565b8161467357fe5b049150614682565b8092508391505b5094509492505050565b60008060008061469a612b53565b915091506000806146ab84846130de565b509092509050600060c86146c5848a63ffffffff61319b16565b816146cc57fe5b049050600060c86146e3848b63ffffffff61319b16565b816146ea57fe5b049050816001600160701b03168611801561470d5750806001600160701b031685115b156148275760008061471d612a7b565b506001600160701b031691506001600160701b031691506147568282866001600160701b03168b03866001600160701b03168b03614631565b600254600454929c50909a5061477f916001600160a01b0391821691610100909104168c61339c565b6003546004546147a1916001600160a01b03908116916101009004168b61339c565b60048054604080516335313c2160e11b81523093810193909352516101009091046001600160a01b031691636a6278429160248083019260209291908290030181600087803b1580156147f357600080fd5b505af1158015614807573d6000803e3d6000fd5b505050506040513d602081101561481d57600080fd5b5061489892505050565b600460019054906101000a90046001600160a01b03166001600160a01b031663145f3c276040518163ffffffff1660e01b8152600401600060405180830381600087803b15801561487757600080fd5b505af115801561488b573d6000803e3d6000fd5b5050505060009750600096505b505050505050915091565b6000808080670de0b6b3a76400006148c1878763ffffffff61319b16565b600202816148cb57fe5b0493508561490288670de0b6b3a76400006148fb601254670de0b6b3a7640000038961319b90919063ffffffff16565b8161114457fe5b8161490957fe5b049250670de0b6b3a764000061492a6012548661319b90919063ffffffff16565b8161493157fe5b600d549190049450915061496f670de0b6b3a7640000614957858563ffffffff61319b16565b8161495e57fe5b600e5491900463ffffffff614af616565b600b5460408051630472985560e11b8152600060048201526024810186905260448101849052606481018b9052608481018a90529187018b900360a48301525191925073__$a7d75b79dbad75865e91612b2984d03884$__916308e530aa9160c480820192602092909190829003018186803b1580156149ee57600080fd5b505af4158015614a02573d6000803e3d6000fd5b505050506040513d6020811015614a1857600080fd5b505115614a445760125484670de0b6b3a76400000281614a3457fe5b0493506000925060009150600090505b95509550955095915050565b610ab5816040516024018080602001828103825283818151815260200191508051906020019080838360005b83811015614a94578181015183820152602001614a7c565b50505050905090810190601f168015614ac15780820380516001836020036101000a031916815260200191505b5060408051601f198184030181529190526020810180516001600160e01b031663104c13eb60e21b1790529250614f4d915050565b80820182811015612e5f576040805162461bcd60e51b815260206004820152601460248201527364732d6d6174682d6164642d6f766572666c6f7760601b604482015290519081900360640190fd5b6000818310614b575750808203612e5f565b500390565b600081831161320d57816130d7565b60008085846001600160701b03161015614c6157600254600454614bac916001600160a01b03908116916101009004166001600160701b038716890361339c565b60048054600a54604080516321913af360e11b81523094810194909452600160a01b90910460ff1615156024840152516101009091046001600160a01b03169163432275e69160448083019260609291908290030181600087803b158015614c1357600080fd5b505af1158015614c27573d6000803e3d6000fd5b505050506040513d6060811015614c3d57600080fd5b5051602080546001600160701b0319166001600160701b0387161790559150614c7d565b602080546001600160701b0319166001600160701b0388161790555b84836001600160701b03161015614d7857600354600454614cbb916001600160a01b03908116916101009004166001600160701b038616880361339c565b60048054600a54604080516321913af360e11b81523094810194909452600160a01b90910460ff16156024840152516101009091046001600160a01b03169163432275e69160448083019260609291908290030181600087803b158015614d2157600080fd5b505af1158015614d35573d6000803e3d6000fd5b505050506040513d6060811015614d4b57600080fd5b505160208054600160701b600160e01b031916600160701b6001600160701b038716021790559050614d9d565b60208054600160701b600160e01b031916600160701b6001600160701b038816021790555b60208054604080516001600160701b038084168252600160701b9093049092169282019290925281517f1d96001f313f6446e46c7776b79d231589555627a46fa2388f3220937fc79e51929181900390910190a194509492505050565b600d54600e546040805163234eca8b60e01b815260006004820181905260248201899052604482019490945260648101929092526084820189905260a4820188905260c482018690525173__$a7d75b79dbad75865e91612b2984d03884$__9163234eca8b9160e4808301926060929190829003018186803b158015614e7f57600080fd5b505af4158015614e93573d6000803e3d6000fd5b505050506040513d6060811015614ea957600080fd5b505190508115614eeb5782670de0b6b3a764000014614ee657670de0b6b3a7640000614edb828563ffffffff61319b16565b81614ee257fe5b0490505b614f43565b600080548890614f0290899063ffffffff61319b16565b81614f0957fe5b049050858114614f2f5780614f24858863ffffffff61319b16565b81614f2b57fe5b0493505b614f3f828563ffffffff614af616565b9150505b9695505050505050565b80516a636f6e736f6c652e6c6f67602083016000808483855afa505050505056fea265627a7a723158204fd905f88860f511c5e8f81336d5a6719bff453d2c4b4a1d2869519bac6011ed64736f6c63430005100032",
  "linkReferences": {
    "contracts/libraries/ZirconLibrary.sol": {
      "ZirconLibrary": [
        {
          "length": 20,
          "start": 2956
        },
        {
          "length": 20,
          "start": 8326
        },
        {
          "length": 20,
          "start": 13924
        },
        {
          "length": 20,
          "start": 18923
        },
        {
          "length": 20,
          "start": 20093
        }
      ]
    }
  },
  "deployedLinkReferences": {
    "contracts/libraries/ZirconLibrary.sol": {
      "ZirconLibrary": [
        {
          "length": 20,
          "start": 2901
        },
        {
          "length": 20,
          "start": 8271
        },
        {
          "length": 20,
          "start": 13869
        },
        {
          "length": 20,
          "start": 18868
        },
        {
          "length": 20,
          "start": 20038
        }
      ]
    }
  }
}