{
  "_format": "hh-sol-artifact-1",
  "contractName": "ZirconPair",
  "sourceName": "contracts/ZirconPair.sol",
  "abi": [
    {
      "inputs": [],
      "payable": false,
      "stateMutability": "nonpayable",
      "type": "constructor"
    },
    {
      "anonymous": false,
      "inputs": [
        {
          "indexed": true,
          "internalType": "address",
          "name": "owner",
          "type": "address"
        },
        {
          "indexed": true,
          "internalType": "address",
          "name": "spender",
          "type": "address"
        },
        {
          "indexed": false,
          "internalType": "uint256",
          "name": "value",
          "type": "uint256"
        }
      ],
      "name": "Approval",
      "type": "event"
    },
    {
      "anonymous": false,
      "inputs": [
        {
          "indexed": true,
          "internalType": "address",
          "name": "sender",
          "type": "address"
        },
        {
          "indexed": false,
          "internalType": "uint256",
          "name": "amount0",
          "type": "uint256"
        },
        {
          "indexed": false,
          "internalType": "uint256",
          "name": "amount1",
          "type": "uint256"
        },
        {
          "indexed": true,
          "internalType": "address",
          "name": "to",
          "type": "address"
        }
      ],
      "name": "Burn",
      "type": "event"
    },
    {
      "anonymous": false,
      "inputs": [
        {
          "indexed": true,
          "internalType": "address",
          "name": "sender",
          "type": "address"
        },
        {
          "indexed": false,
          "internalType": "uint256",
          "name": "amount0",
          "type": "uint256"
        },
        {
          "indexed": false,
          "internalType": "uint256",
          "name": "amount1",
          "type": "uint256"
        }
      ],
      "name": "Mint",
      "type": "event"
    },
    {
      "anonymous": false,
      "inputs": [
        {
          "indexed": true,
          "internalType": "address",
          "name": "sender",
          "type": "address"
        },
        {
          "indexed": false,
          "internalType": "uint256",
          "name": "amount0In",
          "type": "uint256"
        },
        {
          "indexed": false,
          "internalType": "uint256",
          "name": "amount1In",
          "type": "uint256"
        },
        {
          "indexed": false,
          "internalType": "uint256",
          "name": "amount0Out",
          "type": "uint256"
        },
        {
          "indexed": false,
          "internalType": "uint256",
          "name": "amount1Out",
          "type": "uint256"
        },
        {
          "indexed": true,
          "internalType": "address",
          "name": "to",
          "type": "address"
        }
      ],
      "name": "Swap",
      "type": "event"
    },
    {
      "anonymous": false,
      "inputs": [
        {
          "indexed": false,
          "internalType": "uint112",
          "name": "reserve0",
          "type": "uint112"
        },
        {
          "indexed": false,
          "internalType": "uint112",
          "name": "reserve1",
          "type": "uint112"
        }
      ],
      "name": "Sync",
      "type": "event"
    },
    {
      "anonymous": false,
      "inputs": [
        {
          "indexed": true,
          "internalType": "address",
          "name": "from",
          "type": "address"
        },
        {
          "indexed": true,
          "internalType": "address",
          "name": "to",
          "type": "address"
        },
        {
          "indexed": false,
          "internalType": "uint256",
          "name": "value",
          "type": "uint256"
        }
      ],
      "name": "Transfer",
      "type": "event"
    },
    {
      "constant": true,
      "inputs": [],
      "name": "DOMAIN_SEPARATOR",
      "outputs": [
        {
          "internalType": "bytes32",
          "name": "",
          "type": "bytes32"
        }
      ],
      "payable": false,
      "stateMutability": "view",
      "type": "function"
    },
    {
      "constant": true,
      "inputs": [],
      "name": "MINIMUM_LIQUIDITY",
      "outputs": [
        {
          "internalType": "uint256",
          "name": "",
          "type": "uint256"
        }
      ],
      "payable": false,
      "stateMutability": "view",
      "type": "function"
    },
    {
      "constant": true,
      "inputs": [],
      "name": "PERMIT_TYPEHASH",
      "outputs": [
        {
          "internalType": "bytes32",
          "name": "",
          "type": "bytes32"
        }
      ],
      "payable": false,
      "stateMutability": "view",
      "type": "function"
    },
    {
      "constant": true,
      "inputs": [
        {
          "internalType": "address",
          "name": "",
          "type": "address"
        },
        {
          "internalType": "address",
          "name": "",
          "type": "address"
        }
      ],
      "name": "allowance",
      "outputs": [
        {
          "internalType": "uint256",
          "name": "",
          "type": "uint256"
        }
      ],
      "payable": false,
      "stateMutability": "view",
      "type": "function"
    },
    {
      "constant": false,
      "inputs": [
        {
          "internalType": "address",
          "name": "spender",
          "type": "address"
        },
        {
          "internalType": "uint256",
          "name": "value",
          "type": "uint256"
        }
      ],
      "name": "approve",
      "outputs": [
        {
          "internalType": "bool",
          "name": "",
          "type": "bool"
        }
      ],
      "payable": false,
      "stateMutability": "nonpayable",
      "type": "function"
    },
    {
      "constant": true,
      "inputs": [
        {
          "internalType": "address",
          "name": "",
          "type": "address"
        }
      ],
      "name": "balanceOf",
      "outputs": [
        {
          "internalType": "uint256",
          "name": "",
          "type": "uint256"
        }
      ],
      "payable": false,
      "stateMutability": "view",
      "type": "function"
    },
    {
      "constant": false,
      "inputs": [
        {
          "internalType": "address",
          "name": "to",
          "type": "address"
        }
      ],
      "name": "burn",
      "outputs": [
        {
          "internalType": "uint256",
          "name": "amount0",
          "type": "uint256"
        },
        {
          "internalType": "uint256",
          "name": "amount1",
          "type": "uint256"
        }
      ],
      "payable": false,
      "stateMutability": "nonpayable",
      "type": "function"
    },
    {
      "constant": false,
      "inputs": [
        {
          "internalType": "address",
          "name": "to",
          "type": "address"
        },
        {
          "internalType": "bool",
          "name": "isReserve0",
          "type": "bool"
        }
      ],
      "name": "burnOneSide",
      "outputs": [
        {
          "internalType": "uint256",
          "name": "amount",
          "type": "uint256"
        }
      ],
      "payable": false,
      "stateMutability": "nonpayable",
      "type": "function"
    },
    {
      "constant": false,
      "inputs": [
        {
          "internalType": "address",
          "name": "_revAddress",
          "type": "address"
        }
      ],
      "name": "changeEnergyRevAddress",
      "outputs": [],
      "payable": false,
      "stateMutability": "nonpayable",
      "type": "function"
    },
    {
      "constant": true,
      "inputs": [],
      "name": "decimals",
      "outputs": [
        {
          "internalType": "uint8",
          "name": "",
          "type": "uint8"
        }
      ],
      "payable": false,
      "stateMutability": "view",
      "type": "function"
    },
    {
      "constant": true,
      "inputs": [],
      "name": "energyRevenueAddress",
      "outputs": [
        {
          "internalType": "address",
          "name": "",
          "type": "address"
        }
      ],
      "payable": false,
      "stateMutability": "view",
      "type": "function"
    },
    {
      "constant": true,
      "inputs": [],
      "name": "factory",
      "outputs": [
        {
          "internalType": "address",
          "name": "",
          "type": "address"
        }
      ],
      "payable": false,
      "stateMutability": "view",
      "type": "function"
    },
    {
      "constant": true,
      "inputs": [],
      "name": "getReserves",
      "outputs": [
        {
          "internalType": "uint112",
          "name": "_reserve0",
          "type": "uint112"
        },
        {
          "internalType": "uint112",
          "name": "_reserve1",
          "type": "uint112"
        },
        {
          "internalType": "uint32",
          "name": "_blockTimestampLast",
          "type": "uint32"
        }
      ],
      "payable": false,
      "stateMutability": "view",
      "type": "function"
    },
    {
      "constant": false,
      "inputs": [
        {
          "internalType": "address",
          "name": "_token0",
          "type": "address"
        },
        {
          "internalType": "address",
          "name": "_token1",
          "type": "address"
        },
        {
          "internalType": "address",
          "name": "_energy",
          "type": "address"
        }
      ],
      "name": "initialize",
      "outputs": [],
      "payable": false,
      "stateMutability": "nonpayable",
      "type": "function"
    },
    {
      "constant": true,
      "inputs": [],
      "name": "kLast",
      "outputs": [
        {
          "internalType": "uint256",
          "name": "",
          "type": "uint256"
        }
      ],
      "payable": false,
      "stateMutability": "view",
      "type": "function"
    },
    {
      "constant": false,
      "inputs": [
        {
          "internalType": "address",
          "name": "to",
          "type": "address"
        }
      ],
      "name": "mint",
      "outputs": [
        {
          "internalType": "uint256",
          "name": "liquidity",
          "type": "uint256"
        }
      ],
      "payable": false,
      "stateMutability": "nonpayable",
      "type": "function"
    },
    {
      "constant": false,
      "inputs": [
        {
          "internalType": "address",
          "name": "to",
          "type": "address"
        },
        {
          "internalType": "bool",
          "name": "isReserve0",
          "type": "bool"
        }
      ],
      "name": "mintOneSide",
      "outputs": [
        {
          "internalType": "uint256",
          "name": "liquidity",
          "type": "uint256"
        },
        {
          "internalType": "uint256",
          "name": "amount0",
          "type": "uint256"
        },
        {
          "internalType": "uint256",
          "name": "amount1",
          "type": "uint256"
        }
      ],
      "payable": false,
      "stateMutability": "nonpayable",
      "type": "function"
    },
    {
      "constant": true,
      "inputs": [],
      "name": "name",
      "outputs": [
        {
          "internalType": "string",
          "name": "",
          "type": "string"
        }
      ],
      "payable": false,
      "stateMutability": "view",
      "type": "function"
    },
    {
      "constant": true,
      "inputs": [
        {
          "internalType": "address",
          "name": "",
          "type": "address"
        }
      ],
      "name": "nonces",
      "outputs": [
        {
          "internalType": "uint256",
          "name": "",
          "type": "uint256"
        }
      ],
      "payable": false,
      "stateMutability": "view",
      "type": "function"
    },
    {
      "constant": false,
      "inputs": [
        {
          "internalType": "address",
          "name": "owner",
          "type": "address"
        },
        {
          "internalType": "address",
          "name": "spender",
          "type": "address"
        },
        {
          "internalType": "uint256",
          "name": "value",
          "type": "uint256"
        },
        {
          "internalType": "uint256",
          "name": "deadline",
          "type": "uint256"
        },
        {
          "internalType": "uint8",
          "name": "v",
          "type": "uint8"
        },
        {
          "internalType": "bytes32",
          "name": "r",
          "type": "bytes32"
        },
        {
          "internalType": "bytes32",
          "name": "s",
          "type": "bytes32"
        }
      ],
      "name": "permit",
      "outputs": [],
      "payable": false,
      "stateMutability": "nonpayable",
      "type": "function"
    },
    {
      "constant": true,
      "inputs": [],
      "name": "price0CumulativeLast",
      "outputs": [
        {
          "internalType": "uint256",
          "name": "",
          "type": "uint256"
        }
      ],
      "payable": false,
      "stateMutability": "view",
      "type": "function"
    },
    {
      "constant": true,
      "inputs": [],
      "name": "price1CumulativeLast",
      "outputs": [
        {
          "internalType": "uint256",
          "name": "",
          "type": "uint256"
        }
      ],
      "payable": false,
      "stateMutability": "view",
      "type": "function"
    },
    {
      "constant": false,
      "inputs": [],
      "name": "publicMintFee",
      "outputs": [],
      "payable": false,
      "stateMutability": "nonpayable",
      "type": "function"
    },
    {
      "constant": false,
      "inputs": [
        {
          "internalType": "uint256",
          "name": "amount0Out",
          "type": "uint256"
        },
        {
          "internalType": "uint256",
          "name": "amount1Out",
          "type": "uint256"
        },
        {
          "internalType": "address",
          "name": "to",
          "type": "address"
        },
        {
          "internalType": "bytes",
          "name": "data",
          "type": "bytes"
        }
      ],
      "name": "swap",
      "outputs": [],
      "payable": false,
      "stateMutability": "nonpayable",
      "type": "function"
    },
    {
      "constant": true,
      "inputs": [],
      "name": "symbol",
      "outputs": [
        {
          "internalType": "string",
          "name": "",
          "type": "string"
        }
      ],
      "payable": false,
      "stateMutability": "view",
      "type": "function"
    },
    {
      "constant": false,
      "inputs": [],
      "name": "sync",
      "outputs": [],
      "payable": false,
      "stateMutability": "nonpayable",
      "type": "function"
    },
    {
      "constant": true,
      "inputs": [],
      "name": "token0",
      "outputs": [
        {
          "internalType": "address",
          "name": "",
          "type": "address"
        }
      ],
      "payable": false,
      "stateMutability": "view",
      "type": "function"
    },
    {
      "constant": true,
      "inputs": [],
      "name": "token1",
      "outputs": [
        {
          "internalType": "address",
          "name": "",
          "type": "address"
        }
      ],
      "payable": false,
      "stateMutability": "view",
      "type": "function"
    },
    {
      "constant": true,
      "inputs": [],
      "name": "totalSupply",
      "outputs": [
        {
          "internalType": "uint256",
          "name": "",
          "type": "uint256"
        }
      ],
      "payable": false,
      "stateMutability": "view",
      "type": "function"
    },
    {
      "constant": false,
      "inputs": [
        {
          "internalType": "address",
          "name": "to",
          "type": "address"
        },
        {
          "internalType": "uint256",
          "name": "value",
          "type": "uint256"
        }
      ],
      "name": "transfer",
      "outputs": [
        {
          "internalType": "bool",
          "name": "",
          "type": "bool"
        }
      ],
      "payable": false,
      "stateMutability": "nonpayable",
      "type": "function"
    },
    {
      "constant": false,
      "inputs": [
        {
          "internalType": "address",
          "name": "from",
          "type": "address"
        },
        {
          "internalType": "address",
          "name": "to",
          "type": "address"
        },
        {
          "internalType": "uint256",
          "name": "value",
          "type": "uint256"
        }
      ],
      "name": "transferFrom",
      "outputs": [
        {
          "internalType": "bool",
          "name": "",
          "type": "bool"
        }
      ],
      "payable": false,
      "stateMutability": "nonpayable",
      "type": "function"
    },
    {
      "constant": false,
      "inputs": [],
      "name": "tryLock",
      "outputs": [],
      "payable": false,
      "stateMutability": "nonpayable",
      "type": "function"
    }
  ],
  "bytecode": "0x60806040526001600d5534801561001557600080fd5b506040514690806052613265823960408051918290036052018220828201825260068352652d34b931b7b760d11b6020938401528151808301835260018152603160f81b908401528151808401919091527f94c6df7cbb14f58e7ac6d9fa315f8346b33ef43dae2423c0e0e94673dd9e65ff818301527fc89efdaa54c0f20c7adf612882df0950f5a951637e0307cdcb4c672f298b8bc6606082015260808101949094523060a0808601919091528151808603909101815260c09094019052825192019190912060045550600580546001600160a01b03191633179055613164806101016000396000f3fe608060405234801561001057600080fd5b50600436106101805760003560e01c8063022c0d9f1461018557806306fdde03146102115780630902f1ac1461028e578063095ea7b3146102c65780630dfe16811461030657806311816b041461032a578063145f3c271461033257806318160ddd1461033a57806323b872dd146103545780632ce510901461038a57806330adf81f146103b8578063313ce567146103c05780633644e515146103de578063432275e6146103e657806353ddd944146104325780635909c0d5146104585780635a3d5493146104605780636a627842146104685780636da996361461048e57806370a08231146104965780637464fc3d146104bc5780637ecebe00146104c457806389afcb44146104ea57806395d89b4114610529578063a9059cbb14610531578063ba9a7a561461055d578063c0c53b8b14610565578063c45a01551461059d578063d21220a7146105a5578063d505accf146105ad578063dd62ed3e146105fe578063fff6cae91461062c575b600080fd5b61020f6004803603608081101561019b57600080fd5b8135916020810135916001600160a01b036040830135169190810190608081016060820135600160201b8111156101d157600080fd5b8201836020820111156101e357600080fd5b803590602001918460018302840111600160201b8311171561020457600080fd5b509092509050610634565b005b610219610bdc565b6040805160208082528351818301528351919283929083019185019080838360005b8381101561025357818101518382015260200161023b565b50505050905090810190601f1680156102805780820380516001836020036101000a031916815260200191505b509250505060405180910390f35b610296610bfe565b604080516001600160701b03948516815292909316602083015263ffffffff168183015290519081900360600190f35b6102f2600480360360408110156102dc57600080fd5b506001600160a01b038135169060200135610c28565b604080519115158252519081900360200190f35b61030e610c3f565b604080516001600160a01b039092168252519081900360200190f35b61020f610c4e565b61020f610c9a565b610342610d90565b60408051918252519081900360200190f35b6102f26004803603606081101561036a57600080fd5b506001600160a01b03813581169160208101359091169060400135610d96565b610342600480360360408110156103a057600080fd5b506001600160a01b0381351690602001351515610e30565b61034261131b565b6103c861132d565b6040805160ff9092168252519081900360200190f35b610342611332565b610414600480360360408110156103fc57600080fd5b506001600160a01b0381351690602001351515611338565b60408051938452602084019290925282820152519081900360600190f35b61020f6004803603602081101561044857600080fd5b50356001600160a01b0316611813565b61034261188d565b610342611893565b6103426004803603602081101561047e57600080fd5b50356001600160a01b0316611899565b61030e611b6f565b610342600480360360208110156104ac57600080fd5b50356001600160a01b0316611b7e565b610342611b90565b610342600480360360208110156104da57600080fd5b50356001600160a01b0316611b96565b6105106004803603602081101561050057600080fd5b50356001600160a01b0316611ba8565b6040805192835260208301919091528051918290030190f35b610219611f2b565b6102f26004803603604081101561054757600080fd5b506001600160a01b038135169060200135611f4a565b610342611f57565b61020f6004803603606081101561057b57600080fd5b506001600160a01b038135811691602081013582169160409091013516611f5d565b61030e611ff3565b61030e612002565b61020f600480360360e08110156105c357600080fd5b506001600160a01b03813581169160208101359091169060408101359060608101359060ff6080820135169060a08101359060c00135612011565b6103426004803603604081101561061457600080fd5b506001600160a01b0381358116916020013516612200565b61020f61221d565b600d54600114610679576040805162461bcd60e51b8152602060048201526011602482015260008051602061303e833981519152604482015290519081900360640190fd5b6000600d558415158061068c5750600084115b6106c75760405162461bcd60e51b8152600401808060200182810382526025815260200180612f8c6025913960400191505060405180910390fd5b6000806106d2610bfe565b5091509150816001600160701b0316871080156106f75750806001600160701b031686105b6107325760405162461bcd60e51b8152600401808060200182810382526021815260200180612ff56021913960400191505060405180910390fd5b60065460075460009182916001600160a01b039182169190811690891682148015906107705750806001600160a01b0316896001600160a01b031614155b6107b9576040805162461bcd60e51b8152602060048201526015602482015274556e697377617056323a20494e56414c49445f544f60581b604482015290519081900360640190fd5b8a156107ca576107ca828a8d612372565b89156107db576107db818a8c612372565b861561089657886001600160a01b03166310d1e85c338d8d8c8c6040518663ffffffff1660e01b815260040180866001600160a01b03166001600160a01b03168152602001858152602001848152602001806020018281038252848482818152602001925080828437600081840152601f19601f8201169050808301925050509650505050505050600060405180830381600087803b15801561087d57600080fd5b505af1158015610891573d6000803e3d6000fd5b505050505b604080516370a0823160e01b815230600482015290516001600160a01b038416916370a08231916024808301926020929190829003018186803b1580156108dc57600080fd5b505afa1580156108f0573d6000803e3d6000fd5b505050506040513d602081101561090657600080fd5b5051604080516370a0823160e01b815230600482015290519195506001600160a01b038316916370a0823191602480820192602092909190829003018186803b15801561095257600080fd5b505afa158015610966573d6000803e3d6000fd5b505050506040513d602081101561097c57600080fd5b5051925060009150506001600160701b0385168a9003831161099f5760006109ae565b89856001600160701b03160383035b9050600089856001600160701b03160383116109cb5760006109da565b89856001600160701b03160383035b905060008211806109eb5750600081115b610a265760405162461bcd60e51b8152600401808060200182810382526024815260200180612fb16024913960400191505060405180910390fd5b60055460408051632604632d60e21b815290516000926001600160a01b0316916398118cb4916004808301926020929190829003018186803b158015610a6b57600080fd5b505afa158015610a7f573d6000803e3d6000fd5b505050506040513d6020811015610a9557600080fd5b505190506000610acc610aae858463ffffffff61250516565b610ac08861271063ffffffff61250516565b9063ffffffff61256816565b90506000610ae3610aae858563ffffffff61250516565b9050610b156305f5e100610b096001600160701b038c8116908c1663ffffffff61250516565b9063ffffffff61250516565b610b25838363ffffffff61250516565b1015610b67576040805162461bcd60e51b815260206004820152600c60248201526b556e697377617056323a204b60a01b604482015290519081900360640190fd5b505050610b76848488886125b8565b60408051838152602081018390528082018d9052606081018c905290516001600160a01b038b169133917fd78ad95fa46c994b6551d0da85fc275fe613ce37657fb8d5e3d130840159d8229181900360800190a350506001600d55505050505050505050565b604051806040016040528060068152602001652d34b931b7b760d11b81525081565b6009546001600160701b0380821692600160701b830490911691600160e01b900463ffffffff1690565b6000610c35338484612820565b5060015b92915050565b6006546001600160a01b031681565b600d54600114610c93576040805162461bcd60e51b8152602060048201526011602482015260008051602061303e833981519152604482015290519081900360640190fd5b6001600d55565b600d54600114610cdf576040805162461bcd60e51b8152602060048201526011602482015260008051602061303e833981519152604482015290519081900360640190fd5b6000600d81905580610cef610bfe565b5091509150610cfe8282612882565b604080518082019091526016815275556e69504d463a20496e7465726e616c20707269636560501b6020820152600954610d5e91906001600160701b0380821691600160701b900416670de0b6b3a76400000281610d5857fe5b04612a71565b600954610d84906001600160701b0380821691600160701b90041663ffffffff61250516565b600c5550506001600d55565b60005481565b6001600160a01b038316600090815260026020908152604080832033845290915281205460001914610e1b576001600160a01b0384166000908152600260209081526040808320338452909152902054610df6908363ffffffff61256816565b6001600160a01b03851660009081526002602090815260408083203384529091529020555b610e26848484612b23565b5060019392505050565b6000600d54600114610e77576040805162461bcd60e51b8152602060048201526011602482015260008051602061303e833981519152604482015290519081900360640190fd5b6000600d81905580610e87610bfe565b50600654600754604080516370a0823160e01b815230600482015290519496509294506001600160a01b03918216939116916000918291829186916370a08231916024808301926020929190829003018186803b158015610ee757600080fd5b505afa158015610efb573d6000803e3d6000fd5b505050506040513d6020811015610f1157600080fd5b5051604080516370a0823160e01b815230600482015290519192506000916001600160a01b038716916370a08231916024808301926020929190829003018186803b158015610f5f57600080fd5b505afa158015610f73573d6000803e3d6000fd5b505050506040513d6020811015610f8957600080fd5b5051306000908152600160209081526040808320546005548251632604632d60e21b8152925195965090946001600160a01b03909116926398118cb49260048082019391829003018186803b158015610fe157600080fd5b505afa158015610ff5573d6000803e3d6000fd5b505050506040513d602081101561100b57600080fd5b505190506110198a8a612882565b6000548061102d848763ffffffff61250516565b8161103457fe5b04965080611048848663ffffffff61250516565b8161104f57fe5b0495508c156110c45761107a86878c6001600160701b031603898e6001600160701b03160385612bcb565b87019650869b50848c106110bf5760405162461bcd60e51b81526004018080602001828103825260298152602001806130c76029913960400191505060405180910390fd5b61112b565b6110e687888d6001600160701b031603888d6001600160701b03160385612bcb565b86019550859b50838c1061112b5760405162461bcd60e51b81526004018080602001828103825260298152602001806130c76029913960400191505060405180910390fd5b60008711801561113b5750600086115b6111765760405162461bcd60e51b81526004018080602001828103825260288152602001806130166028913960400191505060405180910390fd5b6111803084612cb4565b8c1561119657611191898f8e612372565b6111a1565b6111a1888f8e612372565b604080516370a0823160e01b815230600482015290516001600160a01b038b16916370a08231916024808301926020929190829003018186803b1580156111e757600080fd5b505afa1580156111fb573d6000803e3d6000fd5b505050506040513d602081101561121157600080fd5b5051604080516370a0823160e01b815230600482015290519196506001600160a01b038a16916370a0823191602480820192602092909190829003018186803b15801561125d57600080fd5b505afa158015611271573d6000803e3d6000fd5b505050506040513d602081101561128757600080fd5b5051935061129785858d8d6125b8565b6009546112bd906001600160701b0380821691600160701b90041663ffffffff61250516565b600c819055508d6001600160a01b0316336001600160a01b03166000805160206130a78339815191528989604051808381526020018281526020019250505060405180910390a350506001600d5550979a9950505050505050505050565b60008051602061311083398151915281565b601281565b60045481565b6000806000600d54600114611382576040805162461bcd60e51b8152602060048201526011602482015260008051602061303e833981519152604482015290519081900360640190fd5b6000600d819055546113c55760405162461bcd60e51b81526004018080602001828103825260218152602001806130866021913960400191505060405180910390fd5b6000806113d0610bfe565b50600654604080516370a0823160e01b815230600482015290519395509193506000926001600160a01b03909116916370a08231916024808301926020929190829003018186803b15801561142457600080fd5b505afa158015611438573d6000803e3d6000fd5b505050506040513d602081101561144e57600080fd5b5051600754604080516370a0823160e01b815230600482015290519293506000926001600160a01b03909216916370a0823191602480820192602092909190829003018186803b1580156114a157600080fd5b505afa1580156114b5573d6000803e3d6000fd5b505050506040513d60208110156114cb57600080fd5b505190506114e8826001600160701b03861663ffffffff61256816565b9550611503816001600160701b03851663ffffffff61256816565b94506000600560009054906101000a90046001600160a01b03166001600160a01b03166398118cb46040518163ffffffff1660e01b815260040160206040518083038186803b15801561155557600080fd5b505afa158015611569573d6000803e3d6000fd5b505050506040513d602081101561157f57600080fd5b505190506000891561162657600188116115da576040805162461bcd60e51b815260206004820152601760248201527616940e88125b9cdd59999a58da595b9d08105b5bdd5b9d604a1b604482015290519081900360640190fd5b61161f61161a846127106115f78c60028804830360001901612505565b816115fe57fe5b6009546001600160701b0316919004019063ffffffff61250516565b612d40565b90506116ba565b60018711611675576040805162461bcd60e51b815260206004820152601760248201527616940e88125b9cdd59999a58da595b9d08105b5bdd5b9d604a1b604482015290519081900360640190fd5b6116b761161a6127106116918a60028704830360001901612505565b8161169857fe5b6009548892909104600160701b9091046001600160701b031601612505565b90505b6009546000906116e79061161a906001600160701b0380821691600160701b90041663ffffffff61250516565b90506000611704600054610b09848661256890919063ffffffff16565b90508180828161171057fe5b600980546001600160701b038a8116600160701b02600160701b600160e01b0319918d166001600160701b03199093169290921716179055049b506117558989612882565b60008c116117945760405162461bcd60e51b815260040180806020018281038252602881526020018061305e6028913960400191505060405180910390fd5b61179e8e8d612d92565b6117aa87878b8b6125b8565b6009546117d0906001600160701b0380821691600160701b90041663ffffffff61250516565b600c55604080518c8152602081018c905281513392600080516020612fd5833981519152928290030190a25050505050505050506001600d819055509250925092565b6005546001600160a01b0316331461186b576040805162461bcd60e51b8152602060048201526016602482015275155b9a5cddd85c158c8e881393d517d0531313d5d15160521b604482015290519081900360640190fd5b600880546001600160a01b0319166001600160a01b0392909216919091179055565b600a5481565b600b5481565b6000600d546001146118e0576040805162461bcd60e51b8152602060048201526011602482015260008051602061303e833981519152604482015290519081900360640190fd5b6000600d819055806118f0610bfe565b50600654604080516370a0823160e01b815230600482015290519395509193506000926001600160a01b03909116916370a08231916024808301926020929190829003018186803b15801561194457600080fd5b505afa158015611958573d6000803e3d6000fd5b505050506040513d602081101561196e57600080fd5b5051600754604080516370a0823160e01b815230600482015290519293506000926001600160a01b03909216916370a0823191602480820192602092909190829003018186803b1580156119c157600080fd5b505afa1580156119d5573d6000803e3d6000fd5b505050506040513d60208110156119eb57600080fd5b505190506000611a0a836001600160701b03871663ffffffff61256816565b90506000611a27836001600160701b03871663ffffffff61256816565b9050611a338686612882565b60005480611a6857611a546103e8610ac061161a868663ffffffff61250516565b9750611a6360006103e8612d92565b611ab7565b611ab46001600160701b038816611a85858463ffffffff61250516565b81611a8c57fe5b046001600160701b038816611aa7858563ffffffff61250516565b81611aae57fe5b04612e16565b97505b60008811611af65760405162461bcd60e51b815260040180806020018281038252602881526020018061305e6028913960400191505060405180910390fd5b611b008989612d92565b611b0c858589896125b8565b600954611b32906001600160701b0380821691600160701b90041663ffffffff61250516565b600c55604080518481526020810184905281513392600080516020612fd5833981519152928290030190a250506001600d55509395945050505050565b6008546001600160a01b031681565b60016020526000908152604090205481565b600c5481565b60036020526000908152604090205481565b600080600d54600114611bf0576040805162461bcd60e51b8152602060048201526011602482015260008051602061303e833981519152604482015290519081900360640190fd5b6000600d81905580611c00610bfe565b50600654600754604080516370a0823160e01b815230600482015290519496509294506001600160a01b039182169391169160009184916370a08231916024808301926020929190829003018186803b158015611c5c57600080fd5b505afa158015611c70573d6000803e3d6000fd5b505050506040513d6020811015611c8657600080fd5b5051604080516370a0823160e01b815230600482015290519192506000916001600160a01b038516916370a08231916024808301926020929190829003018186803b158015611cd457600080fd5b505afa158015611ce8573d6000803e3d6000fd5b505050506040513d6020811015611cfe57600080fd5b505130600090815260016020526040902054909150611d1d8787612882565b60005480611d31838663ffffffff61250516565b81611d3857fe5b04995080611d4c838563ffffffff61250516565b81611d5357fe5b04985060008a118015611d665750600089115b611da15760405162461bcd60e51b81526004018080602001828103825260288152602001806130166028913960400191505060405180910390fd5b611dab3083612cb4565b611db6868c8c612372565b611dc1858c8b612372565b604080516370a0823160e01b815230600482015290516001600160a01b038816916370a08231916024808301926020929190829003018186803b158015611e0757600080fd5b505afa158015611e1b573d6000803e3d6000fd5b505050506040513d6020811015611e3157600080fd5b5051604080516370a0823160e01b815230600482015290519195506001600160a01b038716916370a0823191602480820192602092909190829003018186803b158015611e7d57600080fd5b505afa158015611e91573d6000803e3d6000fd5b505050506040513d6020811015611ea757600080fd5b50519250611eb784848a8a6125b8565b600954611edd906001600160701b0380821691600160701b90041663ffffffff61250516565b600c55604080518b8152602081018b905281516001600160a01b038e169233926000805160206130a7833981519152929081900390910190a350505050505050506001600d81905550915091565b6040518060400160405280600381526020016216941560ea1b81525081565b6000610c35338484612b23565b6103e881565b6005546001600160a01b03163314611fb4576040805162461bcd60e51b81526020600482015260156024820152742d34b931b7b72830b4b91d102327a92124a22222a760591b604482015290519081900360640190fd5b600680546001600160a01b039485166001600160a01b031991821617909155600780549385169382169390931790925560088054919093169116179055565b6005546001600160a01b031681565b6007546001600160a01b031681565b4284101561205b576040805162461bcd60e51b8152602060048201526012602482015271155b9a5cddd85c158c8e881156141254915160721b604482015290519081900360640190fd5b6004546001600160a01b0380891660008181526003602090815260408083208054600180820190925582516000805160206131108339815191528186015280840196909652958d166060860152608085018c905260a085019590955260c08085018b90528151808603909101815260e08501825280519083012061190160f01b6101008601526101028501969096526101228085019690965280518085039096018652610142840180825286519683019690962095839052610162840180825286905260ff89166101828501526101a284018890526101c28401879052519193926101e280820193601f1981019281900390910190855afa158015612164573d6000803e3d6000fd5b5050604051601f1901519150506001600160a01b0381161580159061219a5750886001600160a01b0316816001600160a01b0316145b6121ea576040805162461bcd60e51b815260206004820152601c60248201527b556e697377617056323a20494e56414c49445f5349474e415455524560201b604482015290519081900360640190fd5b6121f5898989612820565b505050505050505050565b600260209081526000928352604080842090915290825290205481565b600d54600114612262576040805162461bcd60e51b8152602060048201526011602482015260008051602061303e833981519152604482015290519081900360640190fd5b6000600d55600654604080516370a0823160e01b81523060048201529051610c93926001600160a01b0316916370a08231916024808301926020929190829003018186803b1580156122b357600080fd5b505afa1580156122c7573d6000803e3d6000fd5b505050506040513d60208110156122dd57600080fd5b5051600754604080516370a0823160e01b815230600482015290516001600160a01b03909216916370a0823191602480820192602092909190829003018186803b15801561232a57600080fd5b505afa15801561233e573d6000803e3d6000fd5b505050506040513d602081101561235457600080fd5b50516009546001600160701b0380821691600160701b9004166125b8565b60408051808201825260198152787472616e7366657228616464726573732c75696e743235362960381b60209182015281516001600160a01b0385811660248301526044808301869052845180840390910181526064909201845291810180516001600160e01b031663a9059cbb60e01b1781529251815160009460609489169392918291908083835b6020831061241b5780518252601f1990920191602091820191016123fc565b6001836020036101000a0380198251168184511680821785525050505050509050019150506000604051808303816000865af19150503d806000811461247d576040519150601f19603f3d011682016040523d82523d6000602084013e612482565b606091505b50915091508180156124b05750805115806124b057508080602001905160208110156124ad57600080fd5b50515b6124fe576040805162461bcd60e51b815260206004820152601a602482015279155b9a5cddd85c158c8e881514905394d1915497d1905253115160321b604482015290519081900360640190fd5b5050505050565b60008115806125205750508082028282828161251d57fe5b04145b610c39576040805162461bcd60e51b815260206004820152601460248201527364732d6d6174682d6d756c2d6f766572666c6f7760601b604482015290519081900360640190fd5b80820382811115610c39576040805162461bcd60e51b815260206004820152601560248201527464732d6d6174682d7375622d756e646572666c6f7760581b604482015290519081900360640190fd5b6001600160701b0384118015906125d657506001600160701b038311155b61261d576040805162461bcd60e51b8152602060048201526013602482015272556e697377617056323a204f564552464c4f5760681b604482015290519081900360640190fd5b60095463ffffffff42811691600160e01b9004811682039081161580159061264d57506001600160701b03841615155b801561266157506001600160701b03831615155b156126d2578063ffffffff1661268f8561267a86612e2e565b6001600160e01b03169063ffffffff612e4016565b600a80546001600160e01b03929092169290920201905563ffffffff81166126ba8461267a87612e2e565b600b80546001600160e01b0392909216929092020190555b600980546001600160701b0319166001600160701b0388811691909117600160701b600160e01b031916600160701b8883168102919091179283905560408051808201909152601f81527f556e693a20557064617465642072657365727665302c2072657365727665310060208201526127559390928181169290910416612e65565b604080518082019091526013815272556e693a20496e7465726e616c20707269636560681b60208201526009546127ac91906001600160701b0380821691600160701b900416670de0b6b3a76400000281610d5857fe5b600980546001600160e01b0316600160e01b63ffffffff8516021790819055604080516001600160701b038084168252600160701b909304909216602083015280517f1c411e9a96e071241c2f21f7726b17ae89e3cab4c78be50e062b03a9fffbbad19281900390910190a1505050505050565b6001600160a01b03808416600081815260026020908152604080832094871680845294825291829020859055815185815291517f8c5be1e5ebec7d5bd14f71427d1e84f3dd0314c0f7b2291e5b200ac8c7c3b9259281900390910190a3505050565b600c548015612a6c5760006128ac61161a6001600160701b0386811690861663ffffffff61250516565b905060006128b983612d40565b9050808211156124fe5760055460408051637ac9059160e11b815290516000926001600160a01b03169163f5920b22916004808301926020929190829003018186803b15801561290857600080fd5b505afa15801561291c573d6000803e3d6000fd5b505050506040513d602081101561293257600080fd5b505190506000612954670de0b6b3a7640000610b09868663ffffffff61256816565b905060006129788461296c878663ffffffff61250516565b9063ffffffff612f1b16565b9050600081838161298557fe5b04905080156121f5576008546000546129ca916001600160a01b031690670de0b6b3a7640000906129bd90859063ffffffff61250516565b816129c457fe5b04612d92565b6000856129e9670de0b6b3a7640000610b098a8463ffffffff61256816565b816129f057fe5b60085491900491506001600160a01b031663b9d92de8612a16838563ffffffff61256816565b6040518263ffffffff1660e01b815260040180828152602001915050600060405180830381600087803b158015612a4c57600080fd5b505af1158015612a60573d6000803e3d6000fd5b50505050505050505050505b505050565b612b1f82826040516024018080602001838152602001828103825284818151815260200191508051906020019080838360005b83811015612abc578181015183820152602001612aa4565b50505050905090810190601f168015612ae95780820380516001836020036101000a031916815260200191505b5060408051601f198184030181529190526020810180516001600160e01b0316632d839cb360e21b1790529350612f6a92505050565b5050565b6001600160a01b038316600090815260016020526040902054612b4c908263ffffffff61256816565b6001600160a01b038085166000908152600160205260408082209390935590841681522054612b81908263ffffffff612f1b16565b6001600160a01b0380841660008181526001602090815260409182902094909455805185815290519193928716926000805160206130f083398151915292918290030190a3505050565b6000808511612c0c576040805162461bcd60e51b81526020600482015260086024820152675556323a2049494160c01b604482015290519081900360640190fd5b600084118015612c1c5750600083115b612c57576040805162461bcd60e51b815260206004820152600760248201526615558c8e88125360ca1b604482015290519081900360640190fd5b6000612c6e8661271085900363ffffffff61250516565b90506000612c82828663ffffffff61250516565b90506000612c9c8361296c8961271063ffffffff61250516565b9050808281612ca757fe5b0498975050505050505050565b6001600160a01b038216600090815260016020526040902054612cdd908263ffffffff61256816565b6001600160a01b03831660009081526001602052604081209190915554612d0a908263ffffffff61256816565b60009081556040805183815290516001600160a01b038516916000805160206130f0833981519152919081900360200190a35050565b60006003821115612d83575080600160028204015b81811015612d7d57809150600281828581612d6c57fe5b040181612d7557fe5b049050612d55565b50612d8d565b8115612d8d575060015b919050565b600054612da5908263ffffffff612f1b16565b60009081556001600160a01b038316815260016020526040902054612dd0908263ffffffff612f1b16565b6001600160a01b03831660008181526001602090815260408083209490945583518581529351929391926000805160206130f08339815191529281900390910190a35050565b6000818310612e255781612e27565b825b9392505050565b6001600160701b0316600160701b0290565b60006001600160701b0382166001600160e01b03841681612e5d57fe5b049392505050565b612a6c8383836040516024018080602001848152602001838152602001828103825285818151815260200191508051906020019080838360005b83811015612eb7578181015183820152602001612e9f565b50505050905090810190601f168015612ee45780820380516001836020036101000a031916815260200191505b5060408051601f198184030181529190526020810180516001600160e01b031663ca47c4eb60e01b1790529450612f6a9350505050565b80820182811015610c39576040805162461bcd60e51b815260206004820152601460248201527364732d6d6174682d6164642d6f766572666c6f7760601b604482015290519081900360640190fd5b80516a636f6e736f6c652e6c6f67602083016000808483855afa505050505056fe556e697377617056323a20494e53554646494349454e545f4f55545055545f414d4f554e54556e697377617056323a20494e53554646494349454e545f494e5055545f414d4f554e544c209b5fc8ad50758f13e2e1088ba56a560dff690a1c6fef26394f4c03821c4f556e697377617056323a20494e53554646494349454e545f4c4951554944495459556e697377617056323a20494e53554646494349454e545f4c49515549444954595f4255524e4544556e697377617056323a204c4f434b4544000000000000000000000000000000556e697377617056323a20494e53554646494349454e545f4c49515549444954595f4d494e544544556e697377617056323a20557365206d696e7420746f2073746172742070616972dccd412f0b1252819cb1fd330b93224ca42612892bb3f4f789976e6d81936496556e697377617056323a20455854454e53494f4e5f4e4f545f454e4f5547485f4c4951554944495459ddf252ad1be2c89b69c2b068fc378daa952ba7f163c4a11628f55a4df523b3ef6e71edae12b1b97f4d1f60370fef10105fa2faae0126114a169c64845d6126c9a265627a7a723158208a235c2127da65271cee4d5359de40f5f192ea410a8a267b7e9fe052ab65f41c64736f6c63430005100032454950373132446f6d61696e28737472696e67206e616d652c737472696e672076657273696f6e2c75696e7432353620636861696e49642c6164647265737320766572696679696e67436f6e747261637429",
  "linkReferences": {},
  "deployedLinkReferences": {}
}