{
  "_format": "hh-sol-artifact-1",
  "contractName": "ZirconPylonRouter",
  "sourceName": "contracts/ZirconPylonRouter.sol",
  "abi": [
    {
      "inputs": [
        {
          "internalType": "address",
          "name": "_factory",
          "type": "address"
        },
        {
          "internalType": "address",
          "name": "_pylonFactory",
          "type": "address"
        },
        {
          "internalType": "address",
          "name": "_WETH",
          "type": "address"
        }
      ],
      "stateMutability": "nonpayable",
      "type": "constructor"
    },
    {
      "inputs": [],
      "name": "WETH",
      "outputs": [
        {
          "internalType": "address",
          "name": "",
          "type": "address"
        }
      ],
      "stateMutability": "view",
      "type": "function"
    },
    {
      "inputs": [
        {
          "internalType": "address",
          "name": "tokenA",
          "type": "address"
        },
        {
          "internalType": "address",
          "name": "tokenB",
          "type": "address"
        },
        {
          "internalType": "uint256",
          "name": "amountADesired",
          "type": "uint256"
        },
        {
          "internalType": "uint256",
          "name": "amountBDesired",
          "type": "uint256"
        },
        {
          "internalType": "uint256",
          "name": "amountAMin",
          "type": "uint256"
        },
        {
          "internalType": "uint256",
          "name": "amountBMin",
          "type": "uint256"
        },
        {
          "internalType": "bool",
          "name": "isAnchor",
          "type": "bool"
        },
        {
          "internalType": "address",
          "name": "to",
          "type": "address"
        },
        {
          "internalType": "address",
          "name": "farm",
          "type": "address"
        },
        {
          "internalType": "uint256",
          "name": "deadline",
          "type": "uint256"
        }
      ],
      "name": "addAsyncLiquidity",
      "outputs": [
        {
          "internalType": "uint256",
          "name": "amountA",
          "type": "uint256"
        },
        {
          "internalType": "uint256",
          "name": "amountB",
          "type": "uint256"
        },
        {
          "internalType": "uint256",
          "name": "liquidity",
          "type": "uint256"
        }
      ],
      "stateMutability": "nonpayable",
      "type": "function"
    },
    {
      "inputs": [
        {
          "internalType": "address",
          "name": "tokenA",
          "type": "address"
        },
        {
          "internalType": "address",
          "name": "tokenB",
          "type": "address"
        },
        {
          "internalType": "uint256",
          "name": "amountDesired",
          "type": "uint256"
        },
        {
          "internalType": "bool",
          "name": "isAnchor",
          "type": "bool"
        },
        {
          "internalType": "address",
          "name": "to",
          "type": "address"
        },
        {
          "internalType": "address",
          "name": "farm",
          "type": "address"
        },
        {
          "internalType": "uint256",
          "name": "deadline",
          "type": "uint256"
        }
      ],
      "name": "addAsyncLiquidity100",
      "outputs": [
        {
          "internalType": "uint256",
          "name": "liquidity",
          "type": "uint256"
        }
      ],
      "stateMutability": "nonpayable",
      "type": "function"
    },
    {
      "inputs": [
        {
          "internalType": "address",
          "name": "token",
          "type": "address"
        },
        {
          "internalType": "bool",
          "name": "isAnchor",
          "type": "bool"
        },
        {
          "internalType": "address",
          "name": "to",
          "type": "address"
        },
        {
          "internalType": "address",
          "name": "farm",
          "type": "address"
        },
        {
          "internalType": "uint256",
          "name": "deadline",
          "type": "uint256"
        }
      ],
      "name": "addAsyncLiquidity100ETH",
      "outputs": [
        {
          "internalType": "uint256",
          "name": "liquidity",
          "type": "uint256"
        }
      ],
      "stateMutability": "payable",
      "type": "function"
    },
    {
      "inputs": [
        {
          "internalType": "address",
          "name": "token",
          "type": "address"
        },
        {
          "internalType": "uint256",
          "name": "amountDesiredToken",
          "type": "uint256"
        },
        {
          "internalType": "uint256",
          "name": "amountTokenMin",
          "type": "uint256"
        },
        {
          "internalType": "uint256",
          "name": "amountETHMin",
          "type": "uint256"
        },
        {
          "internalType": "bool",
          "name": "isAnchor",
          "type": "bool"
        },
        {
          "internalType": "bool",
          "name": "shouldReceiveAnchor",
          "type": "bool"
        },
        {
          "internalType": "address",
          "name": "to",
          "type": "address"
        },
        {
          "internalType": "address",
          "name": "farm",
          "type": "address"
        },
        {
          "internalType": "uint256",
          "name": "deadline",
          "type": "uint256"
        }
      ],
      "name": "addAsyncLiquidityETH",
      "outputs": [
        {
          "internalType": "uint256",
          "name": "amountA",
          "type": "uint256"
        },
        {
          "internalType": "uint256",
          "name": "amountB",
          "type": "uint256"
        },
        {
          "internalType": "uint256",
          "name": "liquidity",
          "type": "uint256"
        }
      ],
      "stateMutability": "payable",
      "type": "function"
    },
    {
      "inputs": [
        {
          "internalType": "address",
          "name": "tokenA",
          "type": "address"
        },
        {
          "internalType": "address",
          "name": "tokenB",
          "type": "address"
        },
        {
          "internalType": "uint256",
          "name": "amountDesired",
          "type": "uint256"
        },
        {
          "internalType": "bool",
          "name": "isAnchor",
          "type": "bool"
        },
        {
          "internalType": "address",
          "name": "to",
          "type": "address"
        },
        {
          "internalType": "address",
          "name": "farm",
          "type": "address"
        },
        {
          "internalType": "uint256",
          "name": "deadline",
          "type": "uint256"
        }
      ],
      "name": "addSyncLiquidity",
      "outputs": [
        {
          "internalType": "uint256",
          "name": "amount",
          "type": "uint256"
        },
        {
          "internalType": "uint256",
          "name": "liquidity",
          "type": "uint256"
        }
      ],
      "stateMutability": "nonpayable",
      "type": "function"
    },
    {
      "inputs": [
        {
          "internalType": "address",
          "name": "token",
          "type": "address"
        },
        {
          "internalType": "bool",
          "name": "isAnchor",
          "type": "bool"
        },
        {
          "internalType": "address",
          "name": "to",
          "type": "address"
        },
        {
          "internalType": "address",
          "name": "farm",
          "type": "address"
        },
        {
          "internalType": "uint256",
          "name": "deadline",
          "type": "uint256"
        }
      ],
      "name": "addSyncLiquidityETH",
      "outputs": [
        {
          "internalType": "uint256",
          "name": "liquidity",
          "type": "uint256"
        }
      ],
      "stateMutability": "payable",
      "type": "function"
    },
    {
      "inputs": [],
      "name": "factory",
      "outputs": [
        {
          "internalType": "address",
          "name": "",
          "type": "address"
        }
      ],
      "stateMutability": "view",
      "type": "function"
    },
    {
      "inputs": [
        {
          "internalType": "address",
          "name": "tokenA",
          "type": "address"
        },
        {
          "internalType": "address",
          "name": "tokenB",
          "type": "address"
        },
        {
          "internalType": "uint256",
          "name": "amountDesiredA",
          "type": "uint256"
        },
        {
          "internalType": "uint256",
          "name": "amountDesiredB",
          "type": "uint256"
        },
        {
          "internalType": "address",
          "name": "to",
          "type": "address"
        },
        {
          "internalType": "uint256",
          "name": "deadline",
          "type": "uint256"
        }
      ],
      "name": "init",
      "outputs": [
        {
          "internalType": "uint256",
          "name": "amountA",
          "type": "uint256"
        },
        {
          "internalType": "uint256",
          "name": "amountB",
          "type": "uint256"
        }
      ],
      "stateMutability": "nonpayable",
      "type": "function"
    },
    {
      "inputs": [
        {
          "internalType": "address",
          "name": "token",
          "type": "address"
        },
        {
          "internalType": "uint256",
          "name": "amountDesiredToken",
          "type": "uint256"
        },
        {
          "internalType": "bool",
          "name": "isAnchor",
          "type": "bool"
        },
        {
          "internalType": "address",
          "name": "to",
          "type": "address"
        },
        {
          "internalType": "uint256",
          "name": "deadline",
          "type": "uint256"
        }
      ],
      "name": "initETH",
      "outputs": [
        {
          "internalType": "uint256",
          "name": "amountA",
          "type": "uint256"
        },
        {
          "internalType": "uint256",
          "name": "amountB",
          "type": "uint256"
        }
      ],
      "stateMutability": "payable",
      "type": "function"
    },
    {
      "inputs": [],
      "name": "pylonFactory",
      "outputs": [
        {
          "internalType": "address",
          "name": "",
          "type": "address"
        }
      ],
      "stateMutability": "view",
      "type": "function"
    },
    {
      "inputs": [
        {
          "internalType": "address",
          "name": "tokenA",
          "type": "address"
        },
        {
          "internalType": "address",
          "name": "tokenB",
          "type": "address"
        },
        {
          "internalType": "uint256",
          "name": "liquidity",
          "type": "uint256"
        },
        {
          "internalType": "uint256",
          "name": "amountAMin",
          "type": "uint256"
        },
        {
          "internalType": "uint256",
          "name": "amountBMin",
          "type": "uint256"
        },
        {
          "internalType": "bool",
          "name": "isAnchor",
          "type": "bool"
        },
        {
          "internalType": "address",
          "name": "to",
          "type": "address"
        },
        {
          "internalType": "uint256",
          "name": "deadline",
          "type": "uint256"
        }
      ],
      "name": "removeLiquidityAsync",
      "outputs": [
        {
          "internalType": "uint256",
          "name": "amountA",
          "type": "uint256"
        },
        {
          "internalType": "uint256",
          "name": "amountB",
          "type": "uint256"
        }
      ],
      "stateMutability": "nonpayable",
      "type": "function"
    },
    {
      "inputs": [
        {
          "internalType": "address",
          "name": "token",
          "type": "address"
        },
        {
          "internalType": "uint256",
          "name": "liquidity",
          "type": "uint256"
        },
        {
          "internalType": "uint256",
          "name": "amountTokenMin",
          "type": "uint256"
        },
        {
          "internalType": "uint256",
          "name": "amountETHMin",
          "type": "uint256"
        },
        {
          "internalType": "bool",
          "name": "isAnchor",
          "type": "bool"
        },
        {
          "internalType": "bool",
          "name": "shouldBurnAnchor",
          "type": "bool"
        },
        {
          "internalType": "address",
          "name": "to",
          "type": "address"
        },
        {
          "internalType": "uint256",
          "name": "deadline",
          "type": "uint256"
        }
      ],
      "name": "removeLiquidityAsyncETH",
      "outputs": [
        {
          "internalType": "uint256",
          "name": "amountToken",
          "type": "uint256"
        },
        {
          "internalType": "uint256",
          "name": "amountETH",
          "type": "uint256"
        }
      ],
      "stateMutability": "nonpayable",
      "type": "function"
    },
    {
      "inputs": [
        {
          "internalType": "address",
          "name": "tokenA",
          "type": "address"
        },
        {
          "internalType": "address",
          "name": "tokenB",
          "type": "address"
        },
        {
          "internalType": "uint256",
          "name": "liquidity",
          "type": "uint256"
        },
        {
          "internalType": "uint256",
          "name": "amountMin",
          "type": "uint256"
        },
        {
          "internalType": "bool",
          "name": "shouldReceiveAnchor",
          "type": "bool"
        },
        {
          "internalType": "address",
          "name": "to",
          "type": "address"
        },
        {
          "internalType": "uint256",
          "name": "deadline",
          "type": "uint256"
        }
      ],
      "name": "removeLiquiditySync",
      "outputs": [
        {
          "internalType": "uint256",
          "name": "amount",
          "type": "uint256"
        }
      ],
      "stateMutability": "nonpayable",
      "type": "function"
    },
    {
      "inputs": [
        {
          "internalType": "address",
          "name": "token",
          "type": "address"
        },
        {
          "internalType": "uint256",
          "name": "liquidity",
          "type": "uint256"
        },
        {
          "internalType": "uint256",
          "name": "amountMin",
          "type": "uint256"
        },
        {
          "internalType": "bool",
          "name": "isAnchor",
          "type": "bool"
        },
        {
          "internalType": "bool",
          "name": "shouldRemoveAnchor",
          "type": "bool"
        },
        {
          "internalType": "address",
          "name": "to",
          "type": "address"
        },
        {
          "internalType": "uint256",
          "name": "deadline",
          "type": "uint256"
        }
      ],
      "name": "removeLiquiditySyncETH",
      "outputs": [
        {
          "internalType": "uint256",
          "name": "amount",
          "type": "uint256"
        }
      ],
      "stateMutability": "nonpayable",
      "type": "function"
    },
    {
      "stateMutability": "payable",
      "type": "receive"
    }
  ],
  "bytecode": "0x60e060405234801561001057600080fd5b50604051613c29380380613c298339818101604052606081101561003357600080fd5b50805160208201516040909201516001600160601b0319606083811b821660805282811b821660c05284901b1660a0526001600160a01b039182169282169116613abd61016c6000398060fc5280610a475280610a725280610ad55280610b6c5280610cdb5280610d025280610d4a5280610d715280610da85280610de45280610e6452806114e0528061150b528061154d52806115e45280611b565280611d7a5280611da55280611de75280611e7e5280611fb15280611fe552806120435280612139528061216452806121e75250806118a6528061198c528061227d52806122a65280612448528061252e5280612a705280612b3e5280612c0e528061301552806130fb5250806117625280611b7a52806122cc528061230452806129265280612a9a5280612ed152806131fa5250613abd6000f3fe6080604052600436106100ec5760003560e01c8063a266e8a31161008a578063e5c7396711610059578063e5c73967146104f3578063ed1d080f14610539578063ef68f27f1461059d578063ef8863b4146105fc57610125565b8063a266e8a3146103d8578063ad5c464814610439578063c45a01551461046a578063e14f0fb61461047f57610125565b80634b026db1116100c65780634b026db11461025957806359b11df7146102d957806359b9a98b1461032e5780636c40c8771461039257610125565b8063119438711461012a578063186b9a091461019b578063230e9bca1461021557610125565b3661012557336001600160a01b037f0000000000000000000000000000000000000000000000000000000000000000161461012357fe5b005b600080fd5b34801561013657600080fd5b50610189600480360360e081101561014d57600080fd5b506001600160a01b0381358116916020810135821691604082013591606081013591608082013515159160a08101359091169060c00135610611565b60408051918252519081900360200190f35b3480156101a757600080fd5b506101fc600480360360e08110156101be57600080fd5b506001600160a01b03813581169160208101358216916040820135916060810135151591608082013581169160a08101359091169060c001356108b4565b6040805192835260208301919091528051918290030190f35b6101fc600480360360a081101561022b57600080fd5b506001600160a01b0381358116916020810135916040820135151591606081013590911690608001356109e4565b6102bb600480360361012081101561027057600080fd5b506001600160a01b038135811691602081013591604082013591606081013591608082013515159160a081013515159160c082013581169160e0810135909116906101000135610c6e565b60408051938452602084019290925282820152519081900360600190f35b3480156102e557600080fd5b506101fc600480360360c08110156102fc57600080fd5b506001600160a01b03813581169160208101358216916040820135916060810135916080820135169060a00135610ffc565b34801561033a57600080fd5b506101fc600480360361010081101561035257600080fd5b506001600160a01b038135811691602081013582169160408201359160608101359160808201359160a081013515159160c0820135169060e0013561113f565b610189600480360360a08110156103a857600080fd5b506001600160a01b0381358116916020810135151591604082013581169160608101359091169060800135611429565b3480156103e457600080fd5b50610189600480360360e08110156103fb57600080fd5b506001600160a01b03813581169160208101358216916040820135916060810135151591608082013581169160a08101359091169060c00135611709565b34801561044557600080fd5b5061044e611b54565b604080516001600160a01b039092168252519081900360200190f35b34801561047657600080fd5b5061044e611b78565b34801561048b57600080fd5b506102bb60048036036101408110156104a357600080fd5b506001600160a01b038135811691602081013582169160408201359160608101359160808201359160a08101359160c082013515159160e081013582169161010082013516906101200135611b9c565b610189600480360360a081101561050957600080fd5b506001600160a01b0381358116916020810135151591604082013581169160608101359091169060800135611cc3565b34801561054557600080fd5b506101fc600480360361010081101561055d57600080fd5b506001600160a01b038135811691602081013591604082013591606081013591608082013515159160a081013515159160c0820135169060e00135611f4f565b3480156105a957600080fd5b50610189600480360360e08110156105c057600080fd5b506001600160a01b0381358116916020810135916040820135916060810135151591608082013515159160a08101359091169060c001356120d7565b34801561060857600080fd5b5061044e61227b565b60008142811015610664576040805162461bcd60e51b8152602060048201526018602482015277155b9a5cddd85c158c949bdd5d195c8e881156141254915160421b604482015290519081900360640190fd5b60006106708a8a61229f565b9050856106e157806001600160a01b03166306e53aec6040518163ffffffff1660e01b815260040160206040518083038186803b1580156106b057600080fd5b505afa1580156106c4573d6000803e3d6000fd5b505050506040513d60208110156106da57600080fd5b5051610747565b806001600160a01b03166322e489a46040518163ffffffff1660e01b815260040160206040518083038186803b15801561071a57600080fd5b505afa15801561072e573d6000803e3d6000fd5b505050506040513d602081101561074457600080fd5b50515b604080516323b872dd60e01b81523360048201526001600160a01b038481166024830152604482018c9052915192909116916323b872dd916064808201926020929091908290030181600087803b1580156107a157600080fd5b505af11580156107b5573d6000803e3d6000fd5b505050506040513d60208110156107cb57600080fd5b5050604080517fba7b3dea0000000000000000000000000000000000000000000000000000000081526001600160a01b038781166004830152881515602483015291519183169163ba7b3dea916044808201926020929091908290030181600087803b15801561083a57600080fd5b505af115801561084e573d6000803e3d6000fd5b505050506040513d602081101561086457600080fd5b50519250868310156108a75760405162461bcd60e51b81526004018080602001828103825260248152602001806139c46024913960400191505060405180910390fd5b5050979650505050505050565b6000808242811015610908576040805162461bcd60e51b8152602060048201526018602482015277155b9a5cddd85c158c949bdd5d195c8e881156141254915160421b604482015290519081900360640190fd5b6109128a8a6122fe565b87925060006109218b8b61229f565b905061093b88610931578b610933565b8a5b33838761262c565b604080516346a3871160e11b81526001600160a01b0389811660048301528a15156024830152915191831691638d470e22916044808201926020929091908290030181600087803b15801561098f57600080fd5b505af11580156109a3573d6000803e3d6000fd5b505050506040513d60208110156109b957600080fd5b505192506001600160a01b038616156109d6576109d68684612789565b505097509795505050505050565b6000808242811015610a38576040805162461bcd60e51b8152602060048201526018602482015277155b9a5cddd85c158c949bdd5d195c8e881156141254915160421b604482015290519081900360640190fd5b600086610a455788610a67565b7f00000000000000000000000000000000000000000000000000000000000000005b9050600087610a96577f0000000000000000000000000000000000000000000000000000000000000000610a98565b895b90506000610aa68383612921565b91505088610ab45789610ab6565b345b955088610ac35734610ac5565b895b9450610ad38b33838d61262c565b7f00000000000000000000000000000000000000000000000000000000000000006001600160a01b031663d0e30db0346040518263ffffffff1660e01b81526004016000604051808303818588803b158015610b2e57600080fd5b505af1158015610b42573d6000803e3d6000fd5b50506040805163a9059cbb60e01b81526001600160a01b03868116600483015234602483015291517f0000000000000000000000000000000000000000000000000000000000000000909216945063a9059cbb935060448082019350602092918290030181600087803b158015610bb857600080fd5b505af1158015610bcc573d6000803e3d6000fd5b505050506040513d6020811015610be257600080fd5b5051610bea57fe5b60408051633ca5007160e21b81526001600160a01b038a8116600483015282519084169263f29401c492602480820193918290030181600087803b158015610c3157600080fd5b505af1158015610c45573d6000803e3d6000fd5b505050506040513d6040811015610c5b57600080fd5b50959b949a509398505050505050505050565b60008060008342811015610cc4576040805162461bcd60e51b8152602060048201526018602482015277155b9a5cddd85c158c949bdd5d195c8e881156141254915160421b604482015290519081900360640190fd5b8c89610d2d8e348f8f8580610cd95787610cfb565b7f00000000000000000000000000000000000000000000000000000000000000005b87610d26577f0000000000000000000000000000000000000000000000000000000000000000610d28565b885b612c8f565b90965094508e91508a90506000610d9c82610d485783610d6a565b7f00000000000000000000000000000000000000000000000000000000000000005b83610d95577f0000000000000000000000000000000000000000000000000000000000000000610d97565b845b61229f565b9050610de282610dcc577f0000000000000000000000000000000000000000000000000000000000000000610dce565b835b338385610ddb578a610ddd565b895b61262c565b7f00000000000000000000000000000000000000000000000000000000000000006001600160a01b031663d0e30db083610e1c5787610e1e565b885b6040518263ffffffff1660e01b81526004016000604051808303818588803b158015610e4957600080fd5b505af1158015610e5d573d6000803e3d6000fd5b50505050507f00000000000000000000000000000000000000000000000000000000000000006001600160a01b031663a9059cbb8284610e9d5788610e9f565b895b6040518363ffffffff1660e01b815260040180836001600160a01b03166001600160a01b0316815260200182815260200192505050602060405180830381600087803b158015610eee57600080fd5b505af1158015610f02573d6000803e3d6000fd5b505050506040513d6020811015610f1857600080fd5b5051610f2057fe5b604080516319e6ef2760e11b81526001600160a01b038c811660048301528d151560248301529151918316916333cdde4e916044808201926020929091908290030181600087803b158015610f7457600080fd5b505af1158015610f88573d6000803e3d6000fd5b505050506040513d6020811015610f9e57600080fd5b505194508b9250610fb29150505782610fb4565b835b341115610fd357610fd3338a610fca5784610fcc565b855b3403612cfc565b6001600160a01b03861615610fec57610fec8683612789565b5099509950999650505050505050565b6000808242811015611050576040805162461bcd60e51b8152602060048201526018602482015277155b9a5cddd85c158c949bdd5d195c8e881156141254915160421b604482015290519081900360640190fd5b600061105c8a8a612921565b91505061109e6040518060400160405280600d81526020017f70796c6f6e20616464726573730000000000000000000000000000000000000081525082612df4565b8793508692506110b08a33838761262c565b6110bc8933838661262c565b60408051633ca5007160e21b81526001600160a01b03888116600483015282519084169263f29401c492602480820193918290030181600087803b15801561110357600080fd5b505af1158015611117573d6000803e3d6000fd5b505050506040513d604081101561112d57600080fd5b50939a92995091975050505050505050565b6000808242811015611193576040805162461bcd60e51b8152602060048201526018602482015277155b9a5cddd85c158c949bdd5d195c8e881156141254915160421b604482015290519081900360640190fd5b600061119f8c8c61229f565b90508661121057806001600160a01b03166306e53aec6040518163ffffffff1660e01b815260040160206040518083038186803b1580156111df57600080fd5b505afa1580156111f3573d6000803e3d6000fd5b505050506040513d602081101561120957600080fd5b5051611276565b806001600160a01b03166322e489a46040518163ffffffff1660e01b815260040160206040518083038186803b15801561124957600080fd5b505afa15801561125d573d6000803e3d6000fd5b505050506040513d602081101561127357600080fd5b50515b604080516323b872dd60e01b81523360048201526001600160a01b038481166024830152604482018e9052915192909116916323b872dd916064808201926020929091908290030181600087803b1580156112d057600080fd5b505af11580156112e4573d6000803e3d6000fd5b505050506040513d60208110156112fa57600080fd5b5050604080517fc561cf4f0000000000000000000000000000000000000000000000000000000081526001600160a01b038881166004830152891515602483015282519084169263c561cf4f92604480820193918290030181600087803b15801561136457600080fd5b505af1158015611378573d6000803e3d6000fd5b505050506040513d604081101561138e57600080fd5b5080516020909101519094509250888410156113db5760405162461bcd60e51b8152600401808060200182810382526026815260200180613a356026913960400191505060405180910390fd5b8783101561141a5760405162461bcd60e51b815260040180806020018281038252602681526020018061399e6026913960400191505060405180910390fd5b50509850989650505050505050565b6000814281101561147c576040805162461bcd60e51b8152602060048201526018602482015277155b9a5cddd85c158c949bdd5d195c8e881156141254915160421b604482015290519081900360640190fd5b600034116114d1576040805162461bcd60e51b815260206004820152600f60248201527f5a50523a205a45524f2d56414c55450000000000000000000000000000000000604482015290519081900360640190fd5b6000866114de5787611500565b7f00000000000000000000000000000000000000000000000000000000000000005b905060008761152f577f0000000000000000000000000000000000000000000000000000000000000000611531565b885b905061153d82826122fe565b6000611549838361229f565b90507f00000000000000000000000000000000000000000000000000000000000000006001600160a01b031663d0e30db0346040518263ffffffff1660e01b81526004016000604051808303818588803b1580156115a657600080fd5b505af11580156115ba573d6000803e3d6000fd5b50506040805163a9059cbb60e01b81526001600160a01b03868116600483015234602483015291517f0000000000000000000000000000000000000000000000000000000000000000909216945063a9059cbb935060448082019350602092918290030181600087803b15801561163057600080fd5b505af1158015611644573d6000803e3d6000fd5b505050506040513d602081101561165a57600080fd5b505161166257fe5b6040805163ac9370f360e01b81526001600160a01b038a811660048301528b15602483015291519183169163ac9370f3916044808201926020929091908290030181600087803b1580156116b557600080fd5b505af11580156116c9573d6000803e3d6000fd5b505050506040513d60208110156116df57600080fd5b505194506001600160a01b038716156116fc576116fc8786612789565b5050505095945050505050565b6000814281101561175c576040805162461bcd60e51b8152602060048201526018602482015277155b9a5cddd85c158c949bdd5d195c8e881156141254915160421b604482015290519081900360640190fd5b888860007f00000000000000000000000000000000000000000000000000000000000000006001600160a01b031663e6a4390584846040518363ffffffff1660e01b815260040180836001600160a01b03166001600160a01b03168152602001826001600160a01b03166001600160a01b031681526020019250505060206040518083038186803b1580156117f057600080fd5b505afa158015611804573d6000803e3d6000fd5b505050506040513d602081101561181a57600080fd5b505190506001600160a01b038116611879576040805162461bcd60e51b815260206004820152601560248201527f5a50523a2050616972204e6f7420437265617465640000000000000000000000604482015290519081900360640190fd5b60408051630e0f297360e01b81526001600160a01b038581166004830152848116602483015291516000927f00000000000000000000000000000000000000000000000000000000000000001691630e0f2973916044808301926020929190829003018186803b1580156118ec57600080fd5b505afa158015611900573d6000803e3d6000fd5b505050506040513d602081101561191657600080fd5b50516001600160a01b03161415611974576040805162461bcd60e51b815260206004820152601660248201527f5a50523a2050796c6f6e206e6f74206372656174656400000000000000000000604482015290519081900360640190fd5b60408051630614bbb360e21b81526001600160a01b037f0000000000000000000000000000000000000000000000000000000000000000811660048301528086166024830152808516604483015283166064820152905173__$6f4b38e22cf6b26129418bae2c930c4a30$__91631852eecc916084808301926020929190829003018186803b158015611a0657600080fd5b505af4158015611a1a573d6000803e3d6000fd5b505050506040513d6020811015611a3057600080fd5b5051611a83576040805162461bcd60e51b815260206004820152601a60248201527f5a50523a2050796c6f6e204e6f7420496e697469616c697a6564000000000000604482015290519081900360640190fd5b6000611a8f8d8d61229f565b9050611aa98a611a9f578d611aa1565b8c5b33838e61262c565b6040805163ac9370f360e01b81526001600160a01b038b811660048301528c1515602483015291519183169163ac9370f3916044808201926020929091908290030181600087803b158015611afd57600080fd5b505af1158015611b11573d6000803e3d6000fd5b505050506040513d6020811015611b2757600080fd5b505195506001600160a01b03881615611b4457611b448887612789565b5050505050979650505050505050565b7f000000000000000000000000000000000000000000000000000000000000000081565b7f000000000000000000000000000000000000000000000000000000000000000081565b60008060008342811015611bf2576040805162461bcd60e51b8152602060048201526018602482015277155b9a5cddd85c158c949bdd5d195c8e881156141254915160421b604482015290519081900360640190fd5b611c008e8e8e8e8e8e612ec8565b90945092506000611c138f8f8787613312565b604080516319e6ef2760e11b81526001600160a01b038b811660048301528c151560248301529151929350908316916333cdde4e916044808201926020929091908290030181600087803b158015611c6a57600080fd5b505af1158015611c7e573d6000803e3d6000fd5b505050506040513d6020811015611c9457600080fd5b505192506001600160a01b03871615611cb157611cb18784612789565b50509a509a509a975050505050505050565b60008142811015611d16576040805162461bcd60e51b8152602060048201526018602482015277155b9a5cddd85c158c949bdd5d195c8e881156141254915160421b604482015290519081900360640190fd5b60003411611d6b576040805162461bcd60e51b815260206004820152600f60248201527f5a50523a205a45524f2d56414c55450000000000000000000000000000000000604482015290519081900360640190fd5b600086611d785787611d9a565b7f00000000000000000000000000000000000000000000000000000000000000005b9050600087611dc9577f0000000000000000000000000000000000000000000000000000000000000000611dcb565b885b9050611dd782826122fe565b6000611de3838361229f565b90507f00000000000000000000000000000000000000000000000000000000000000006001600160a01b031663d0e30db0346040518263ffffffff1660e01b81526004016000604051808303818588803b158015611e4057600080fd5b505af1158015611e54573d6000803e3d6000fd5b50506040805163a9059cbb60e01b81526001600160a01b03868116600483015234602483015291517f0000000000000000000000000000000000000000000000000000000000000000909216945063a9059cbb935060448082019350602092918290030181600087803b158015611eca57600080fd5b505af1158015611ede573d6000803e3d6000fd5b505050506040513d6020811015611ef457600080fd5b5051611efc57fe5b604080516346a3871160e11b81526001600160a01b038a811660048301528b156024830152915191831691638d470e22916044808201926020929091908290030181600087803b1580156116b557600080fd5b6000808242811015611fa3576040805162461bcd60e51b8152602060048201526018602482015277155b9a5cddd85c158c949bdd5d195c8e881156141254915160421b604482015290519081900360640190fd5b6000806120108915611fd5577f0000000000000000000000000000000000000000000000000000000000000000611fd7565b8d5b8a15611fe3578e612005565b7f00000000000000000000000000000000000000000000000000000000000000005b8e8e8e8d308d61113f565b9150915088156120205780612022565b815b945088156120305781612032565b805b935050506120418b8685613340565b7f00000000000000000000000000000000000000000000000000000000000000006001600160a01b0316632e1a7d4d836040518263ffffffff1660e01b815260040180828152602001915050600060405180830381600087803b1580156120a757600080fd5b505af11580156120bb573d6000803e3d6000fd5b505050506120c98583612cfc565b509850989650505050505050565b6000814281101561212a576040805162461bcd60e51b8152602060048201526018602482015277155b9a5cddd85c158c949bdd5d195c8e881156141254915160421b604482015290519081900360640190fd5b6000866121375789612159565b7f00000000000000000000000000000000000000000000000000000000000000005b9050600087612188577f000000000000000000000000000000000000000000000000000000000000000061218a565b8a5b90506121c282828c8c8b8d801561219e57508c5b806121b057508c1580156121b057508d155b6121ba57306121bc565b8b5b8b610611565b93508780156121cf575086155b806121e057508680156121e0575087155b1561226d577f00000000000000000000000000000000000000000000000000000000000000006001600160a01b0316632e1a7d4d856040518263ffffffff1660e01b815260040180828152602001915050600060405180830381600087803b15801561224b57600080fd5b505af115801561225f573d6000803e3d6000fd5b5050505061226d8685612cfc565b505050979650505050505050565b7f000000000000000000000000000000000000000000000000000000000000000081565b60006122f77f000000000000000000000000000000000000000000000000000000000000000084846122f27f0000000000000000000000000000000000000000000000000000000000000000888861348d565b613565565b9392505050565b818160007f00000000000000000000000000000000000000000000000000000000000000006001600160a01b031663e6a4390584846040518363ffffffff1660e01b815260040180836001600160a01b03166001600160a01b03168152602001826001600160a01b03166001600160a01b031681526020019250505060206040518083038186803b15801561239257600080fd5b505afa1580156123a6573d6000803e3d6000fd5b505050506040513d60208110156123bc57600080fd5b505190506001600160a01b03811661241b576040805162461bcd60e51b815260206004820152601560248201527f5a50523a2050616972204e6f7420437265617465640000000000000000000000604482015290519081900360640190fd5b60408051630e0f297360e01b81526001600160a01b038581166004830152848116602483015291516000927f00000000000000000000000000000000000000000000000000000000000000001691630e0f2973916044808301926020929190829003018186803b15801561248e57600080fd5b505afa1580156124a2573d6000803e3d6000fd5b505050506040513d60208110156124b857600080fd5b50516001600160a01b03161415612516576040805162461bcd60e51b815260206004820152601660248201527f5a50523a2050796c6f6e206e6f74206372656174656400000000000000000000604482015290519081900360640190fd5b60408051630614bbb360e21b81526001600160a01b037f0000000000000000000000000000000000000000000000000000000000000000811660048301528086166024830152808516604483015283166064820152905173__$6f4b38e22cf6b26129418bae2c930c4a30$__91631852eecc916084808301926020929190829003018186803b1580156125a857600080fd5b505af41580156125bc573d6000803e3d6000fd5b505050506040513d60208110156125d257600080fd5b5051612625576040805162461bcd60e51b815260206004820152601a60248201527f5a50523a2050796c6f6e204e6f7420496e697469616c697a6564000000000000604482015290519081900360640190fd5b5050505050565b604080516001600160a01b0385811660248301528481166044830152606480830185905283518084039091018152608490920183526020820180516001600160e01b03166323b872dd60e01b17815292518251600094606094938a169392918291908083835b602083106126b15780518252601f199092019160209182019101612692565b6001836020036101000a0380198251168184511680821785525050505050509050019150506000604051808303816000865af19150503d8060008114612713576040519150601f19603f3d011682016040523d82523d6000602084013e612718565b606091505b5091509150818015612746575080511580612746575080806020019051602081101561274357600080fd5b50515b6127815760405162461bcd60e51b81526004018080602001828103825260318152602001806139146031913960400191505060405180910390fd5b505050505050565b604080518082018252601681527f726f757465724465706f7369742875696e74323536290000000000000000000060209182015281516024808201859052835180830390910181526044909101835290810180516001600160e01b03167f462293a300000000000000000000000000000000000000000000000000000000178152915181516000936060936001600160a01b038816939092909182918083835b602083106128485780518252601f199092019160209182019101612829565b6001836020036101000a0380198251168184511680821785525050505050509050019150506000604051808303816000865af19150503d80600081146128aa576040519150601f19603f3d011682016040523d82523d6000602084013e6128af565b606091505b50915091508161291b578051156128c95780518082602001fd5b8161291b576040805162461bcd60e51b815260206004820152600f60248201527f5a503a204641524d5f4641494c45440000000000000000000000000000000000604482015290519081900360640190fd5b50505050565b6000807f00000000000000000000000000000000000000000000000000000000000000006001600160a01b031663e6a4390585856040518363ffffffff1660e01b815260040180836001600160a01b03166001600160a01b03168152602001826001600160a01b03166001600160a01b031681526020019250505060206040518083038186803b1580156129b457600080fd5b505afa1580156129c8573d6000803e3d6000fd5b505050506040513d60208110156129de57600080fd5b505160408051808201909152600c81527f70616972206164647265737300000000000000000000000000000000000000006020820152909250612a219083612df4565b6001600160a01b038216612b1457604080517f76f797380000000000000000000000000000000000000000000000000000000081526001600160a01b03868116600483015285811660248301527f00000000000000000000000000000000000000000000000000000000000000008116604483015291517f0000000000000000000000000000000000000000000000000000000000000000909216916376f79738916064808201926020929091908290030181600087803b158015612ae557600080fd5b505af1158015612af9573d6000803e3d6000fd5b505050506040513d6020811015612b0f57600080fd5b505191505b60408051630e0f297360e01b81526001600160a01b038681166004830152858116602483015291517f000000000000000000000000000000000000000000000000000000000000000090921691630e0f297391604480820192602092909190829003018186803b158015612b8757600080fd5b505afa158015612b9b573d6000803e3d6000fd5b505050506040513d6020811015612bb157600080fd5b505190506001600160a01b038116612c8857604080517f79281abe0000000000000000000000000000000000000000000000000000000081526001600160a01b0384811660048301528681166024830152858116604483015291517f0000000000000000000000000000000000000000000000000000000000000000909216916379281abe916064808201926020929091908290030181600087803b158015612c5957600080fd5b505af1158015612c6d573d6000803e3d6000fd5b505050506040513d6020811015612c8357600080fd5b505190505b9250929050565b60008060008515612ca05788612ca2565b895b905060008615612cb2578a612cb4565b895b905060008715612cc45788612cc6565b895b905060008815612cd6578a612cd8565b895b9050612ce8888886868686612ec8565b909e909d509b505050505050505050505050565b604080516000808252602082019092526001600160a01b0384169083906040518082805190602001908083835b60208310612d485780518252601f199092019160209182019101612d29565b6001836020036101000a03801982511681845116808217855250505050505090500191505060006040518083038185875af1925050503d8060008114612daa576040519150601f19603f3d011682016040523d82523d6000602084013e612daf565b606091505b5050905080612def5760405162461bcd60e51b81526004018080602001828103825260348152602001806139456034913960400191505060405180910390fd5b505050565b604080516001600160a01b038316604482015260248101918252835160648201528351612ec49285928592829160840190602086019080838360005b83811015612e48578181015183820152602001612e30565b50505050905090810190601f168015612e755780820380516001836020036101000a031916815260200191505b5060408051601f198184030181529190526020810180516001600160e01b03167f319af33300000000000000000000000000000000000000000000000000000000179052935061362f92505050565b5050565b600080878760007f00000000000000000000000000000000000000000000000000000000000000006001600160a01b031663e6a4390584846040518363ffffffff1660e01b815260040180836001600160a01b03166001600160a01b03168152602001826001600160a01b03166001600160a01b031681526020019250505060206040518083038186803b158015612f5f57600080fd5b505afa158015612f73573d6000803e3d6000fd5b505050506040513d6020811015612f8957600080fd5b505190506001600160a01b038116612fe8576040805162461bcd60e51b815260206004820152601560248201527f5a50523a2050616972204e6f7420437265617465640000000000000000000000604482015290519081900360640190fd5b60408051630e0f297360e01b81526001600160a01b038581166004830152848116602483015291516000927f00000000000000000000000000000000000000000000000000000000000000001691630e0f2973916044808301926020929190829003018186803b15801561305b57600080fd5b505afa15801561306f573d6000803e3d6000fd5b505050506040513d602081101561308557600080fd5b50516001600160a01b031614156130e3576040805162461bcd60e51b815260206004820152601660248201527f5a50523a2050796c6f6e206e6f74206372656174656400000000000000000000604482015290519081900360640190fd5b60408051630614bbb360e21b81526001600160a01b037f0000000000000000000000000000000000000000000000000000000000000000811660048301528086166024830152808516604483015283166064820152905173__$6f4b38e22cf6b26129418bae2c930c4a30$__91631852eecc916084808301926020929190829003018186803b15801561317557600080fd5b505af4158015613189573d6000803e3d6000fd5b505050506040513d602081101561319f57600080fd5b50516131f2576040805162461bcd60e51b815260206004820152601a60248201527f5a50523a2050796c6f6e204e6f7420496e697469616c697a6564000000000000604482015290519081900360640190fd5b6000806132207f00000000000000000000000000000000000000000000000000000000000000008e8e613650565b91509150816000148015613232575080155b15613242578a9650899550613302565b600061324f8c848461371e565b90508a81116132a257888110156132975760405162461bcd60e51b815260040180806020018281038252602681526020018061399e6026913960400191505060405180910390fd5b8b9750955085613300565b60006132af8c848661371e565b90508c8111156132bb57fe5b8a8110156132fa5760405162461bcd60e51b8152600401808060200182810382526026815260200180613a356026913960400191505060405180910390fd5b97508a96505b505b5050505050965096945050505050565b600061331e858561229f565b905061332c8533838661262c565b6133388433838561262c565b949350505050565b604080516001600160a01b038481166024830152604480830185905283518084039091018152606490920183526020820180516001600160e01b031663a9059cbb60e01b178152925182516000946060949389169392918291908083835b602083106133bd5780518252601f19909201916020918201910161339e565b6001836020036101000a0380198251168184511680821785525050505050509050019150506000604051808303816000865af19150503d806000811461341f576040519150601f19603f3d011682016040523d82523d6000602084013e613424565b606091505b5091509150818015613452575080511580613452575080806020019051602081101561344f57600080fd5b50515b6126255760405162461bcd60e51b815260040180806020018281038252602d815260200180613a5b602d913960400191505060405180910390fd5b600080600061349c85856137ca565b604080516bffffffffffffffffffffffff19606094851b811660208084019190915293851b81166034830152825160288184030181526048830184528051908501207fff0000000000000000000000000000000000000000000000000000000000000060688401529a90941b9093166069840152607d8301989098527f0731dee119e38b0e51b64db5eef1ff812d2dc2d0de19e86f49e177147c19063f609d808401919091528851808403909101815260bd909201909752805196019590952095945050505050565b604080516bffffffffffffffffffffffff19606095861b811660208084019190915294861b8116603483015292851b831660488201528151603c818303018152605c820183528051908501207fff00000000000000000000000000000000000000000000000000000000000000607c8301529590941b909116607d84015260918301939093527f70f02a62a722d5aa3660572da0f56438b960ee9e435f9763634cc49a149bb95360b1808401919091528351808403909101815260d1909201909252805191012090565b80516a636f6e736f6c652e6c6f67602083016000808483855afa5050505050565b600080600061365f85856137ca565b50905060008061367088888861348d565b6001600160a01b0316630902f1ac6040518163ffffffff1660e01b815260040160606040518083038186803b1580156136a857600080fd5b505afa1580156136bc573d6000803e3d6000fd5b505050506040513d60608110156136d257600080fd5b5080516020909101516dffffffffffffffffffffffffffff91821693501690506001600160a01b038781169084161461370c57808261370f565b81815b90999098509650505050505050565b600080841161375e5760405162461bcd60e51b8152600401808060200182810382526025815260200180613a106025913960400191505060405180910390fd5b60008311801561376e5750600082115b6137a95760405162461bcd60e51b81526004018080602001828103825260288152602001806139e86028913960400191505060405180910390fd5b826137ba858463ffffffff6138a116565b816137c157fe5b04949350505050565b600080826001600160a01b0316846001600160a01b0316141561381e5760405162461bcd60e51b81526004018080602001828103825260258152602001806139796025913960400191505060405180910390fd5b826001600160a01b0316846001600160a01b03161061383e578284613841565b83835b90925090506001600160a01b038216612c88576040805162461bcd60e51b815260206004820152601e60248201527f556e697377617056324c6962726172793a205a45524f5f414444524553530000604482015290519081900360640190fd5b60008115806138bc575050808202828282816138b957fe5b04145b61390d576040805162461bcd60e51b815260206004820152601460248201527f64732d6d6174682d6d756c2d6f766572666c6f77000000000000000000000000604482015290519081900360640190fd5b9291505056fe5472616e7366657248656c7065723a3a7472616e7366657246726f6d3a207472616e7366657246726f6d206661696c65645472616e7366657248656c7065723a3a736166655472616e736665724554483a20455448207472616e73666572206661696c6564556e697377617056324c6962726172793a204944454e544943414c5f414444524553534553556e69737761705632526f757465723a20494e53554646494349454e545f425f414d4f554e54556e69737761705632526f757465723a20494e53554646494349454e545f414d4f554e54556e697377617056324c6962726172793a20494e53554646494349454e545f4c4951554944495459556e697377617056324c6962726172793a20494e53554646494349454e545f414d4f554e54556e69737761705632526f757465723a20494e53554646494349454e545f415f414d4f554e545472616e7366657248656c7065723a3a736166655472616e736665723a207472616e73666572206661696c6564a264697066735822122034d55c3c60d7b9583f7a48166d144732bea4b210162edc1a068d7959fb75a17464736f6c63430006060033",
  "linkReferences": {
    "contracts/libraries/ZirconPeripheralLibrary.sol": {
      "ZirconPeripheralLibrary": [
        {
          "length": 20,
          "start": 6969
        },
        {
          "length": 20,
          "start": 9947
        },
        {
          "length": 20,
          "start": 12968
        }
      ]
    }
  },
  "deployedLinkReferences": {
    "contracts/libraries/ZirconPeripheralLibrary.sol": {
      "ZirconPeripheralLibrary": [
        {
          "length": 20,
          "start": 6605
        },
        {
          "length": 20,
          "start": 9583
        },
        {
          "length": 20,
          "start": 12604
        }
      ]
    }
  }
}