{
  "_format": "hh-sol-artifact-1",
  "contractName": "ZirconPylon",
  "sourceName": "contracts/ZirconPylon.sol",
  "abi": [
    {
      "inputs": [],
      "payable": false,
      "stateMutability": "nonpayable",
      "type": "constructor"
    },
    {
      "anonymous": false,
      "inputs": [
        {
          "indexed": false,
          "internalType": "address",
          "name": "sender",
          "type": "address"
        },
        {
          "indexed": false,
          "internalType": "uint256",
          "name": "aIn0",
          "type": "uint256"
        },
        {
          "indexed": false,
          "internalType": "bool",
          "name": "isAnchor",
          "type": "bool"
        }
      ],
      "name": "Burn",
      "type": "event"
    },
    {
      "anonymous": false,
      "inputs": [
        {
          "indexed": false,
          "internalType": "address",
          "name": "sender",
          "type": "address"
        },
        {
          "indexed": false,
          "internalType": "uint256",
          "name": "aIn0",
          "type": "uint256"
        },
        {
          "indexed": false,
          "internalType": "uint256",
          "name": "aIn1",
          "type": "uint256"
        }
      ],
      "name": "BurnAsync",
      "type": "event"
    },
    {
      "anonymous": false,
      "inputs": [
        {
          "indexed": false,
          "internalType": "address",
          "name": "sender",
          "type": "address"
        },
        {
          "indexed": false,
          "internalType": "uint256",
          "name": "aIn0",
          "type": "uint256"
        },
        {
          "indexed": false,
          "internalType": "uint256",
          "name": "aIn1",
          "type": "uint256"
        }
      ],
      "name": "MintAsync",
      "type": "event"
    },
    {
      "anonymous": false,
      "inputs": [
        {
          "indexed": false,
          "internalType": "address",
          "name": "sender",
          "type": "address"
        },
        {
          "indexed": false,
          "internalType": "uint256",
          "name": "aIn0",
          "type": "uint256"
        },
        {
          "indexed": false,
          "internalType": "bool",
          "name": "isAnchor",
          "type": "bool"
        }
      ],
      "name": "MintSync",
      "type": "event"
    },
    {
      "anonymous": false,
      "inputs": [
        {
          "indexed": false,
          "internalType": "uint256",
          "name": "_vab",
          "type": "uint256"
        },
        {
          "indexed": false,
          "internalType": "uint256",
          "name": "_vfb",
          "type": "uint256"
        },
        {
          "indexed": false,
          "internalType": "uint256",
          "name": "_gamma",
          "type": "uint256"
        }
      ],
      "name": "PylonSync",
      "type": "event"
    },
    {
      "anonymous": false,
      "inputs": [
        {
          "indexed": false,
          "internalType": "uint256",
          "name": "_reserve0",
          "type": "uint256"
        },
        {
          "indexed": false,
          "internalType": "uint256",
          "name": "_reserve1",
          "type": "uint256"
        }
      ],
      "name": "PylonUpdate",
      "type": "event"
    },
    {
      "constant": true,
      "inputs": [],
      "name": "EMABlockNumber",
      "outputs": [
        {
          "internalType": "uint256",
          "name": "",
          "type": "uint256"
        }
      ],
      "payable": false,
      "stateMutability": "view",
      "type": "function"
    },
    {
      "constant": true,
      "inputs": [
        {
          "internalType": "uint256",
          "name": "_virtualAnchorBalance",
          "type": "uint256"
        },
        {
          "internalType": "uint256",
          "name": "_anchorKFactor",
          "type": "uint256"
        },
        {
          "internalType": "uint256",
          "name": "_pylonReserve1",
          "type": "uint256"
        },
        {
          "internalType": "uint256",
          "name": "_translatedReserve1",
          "type": "uint256"
        }
      ],
      "name": "_calculateGamma",
      "outputs": [
        {
          "internalType": "uint256",
          "name": "gamma",
          "type": "uint256"
        },
        {
          "internalType": "bool",
          "name": "isLineFormula",
          "type": "bool"
        },
        {
          "internalType": "uint256",
          "name": "reserveSwitch",
          "type": "uint256"
        }
      ],
      "payable": false,
      "stateMutability": "pure",
      "type": "function"
    },
    {
      "constant": true,
      "inputs": [],
      "name": "anchorKFactor",
      "outputs": [
        {
          "internalType": "uint256",
          "name": "",
          "type": "uint256"
        }
      ],
      "payable": false,
      "stateMutability": "view",
      "type": "function"
    },
    {
      "constant": false,
      "inputs": [
        {
          "internalType": "address",
          "name": "_to",
          "type": "address"
        },
        {
          "internalType": "bool",
          "name": "_isAnchor",
          "type": "bool"
        }
      ],
      "name": "burn",
      "outputs": [
        {
          "internalType": "uint256",
          "name": "amount",
          "type": "uint256"
        }
      ],
      "payable": false,
      "stateMutability": "nonpayable",
      "type": "function"
    },
    {
      "constant": false,
      "inputs": [
        {
          "internalType": "address",
          "name": "_to",
          "type": "address"
        },
        {
          "internalType": "bool",
          "name": "_isAnchor",
          "type": "bool"
        }
      ],
      "name": "burnAsync",
      "outputs": [
        {
          "internalType": "uint256",
          "name": "amount0",
          "type": "uint256"
        },
        {
          "internalType": "uint256",
          "name": "amount1",
          "type": "uint256"
        }
      ],
      "payable": false,
      "stateMutability": "nonpayable",
      "type": "function"
    },
    {
      "constant": false,
      "inputs": [
        {
          "internalType": "address",
          "name": "_energyAddress",
          "type": "address"
        },
        {
          "internalType": "address",
          "name": "_energyRevAddress",
          "type": "address"
        }
      ],
      "name": "changeEnergyAddress",
      "outputs": [],
      "payable": false,
      "stateMutability": "nonpayable",
      "type": "function"
    },
    {
      "constant": true,
      "inputs": [],
      "name": "formulaSwitch",
      "outputs": [
        {
          "internalType": "bool",
          "name": "",
          "type": "bool"
        }
      ],
      "payable": false,
      "stateMutability": "view",
      "type": "function"
    },
    {
      "constant": true,
      "inputs": [],
      "name": "gammaEMA",
      "outputs": [
        {
          "internalType": "uint256",
          "name": "",
          "type": "uint256"
        }
      ],
      "payable": false,
      "stateMutability": "view",
      "type": "function"
    },
    {
      "constant": true,
      "inputs": [],
      "name": "gammaMulDecimals",
      "outputs": [
        {
          "internalType": "uint256",
          "name": "",
          "type": "uint256"
        }
      ],
      "payable": false,
      "stateMutability": "view",
      "type": "function"
    },
    {
      "constant": true,
      "inputs": [],
      "name": "getSyncReserves",
      "outputs": [
        {
          "internalType": "uint112",
          "name": "_reserve0",
          "type": "uint112"
        },
        {
          "internalType": "uint112",
          "name": "_reserve1",
          "type": "uint112"
        }
      ],
      "payable": false,
      "stateMutability": "view",
      "type": "function"
    },
    {
      "constant": false,
      "inputs": [
        {
          "internalType": "uint256",
          "name": "_gamma",
          "type": "uint256"
        },
        {
          "internalType": "uint256",
          "name": "_vab",
          "type": "uint256"
        },
        {
          "internalType": "uint256",
          "name": "_anchorKFactor",
          "type": "uint256"
        },
        {
          "internalType": "bool",
          "name": "_formulaSwitch",
          "type": "bool"
        }
      ],
      "name": "initMigratedPylon",
      "outputs": [],
      "payable": false,
      "stateMutability": "nonpayable",
      "type": "function"
    },
    {
      "constant": false,
      "inputs": [
        {
          "internalType": "address",
          "name": "_to",
          "type": "address"
        }
      ],
      "name": "initPylon",
      "outputs": [
        {
          "internalType": "uint256",
          "name": "floatLiquidity",
          "type": "uint256"
        },
        {
          "internalType": "uint256",
          "name": "anchorLiquidity",
          "type": "uint256"
        }
      ],
      "payable": false,
      "stateMutability": "nonpayable",
      "type": "function"
    },
    {
      "constant": false,
      "inputs": [
        {
          "internalType": "address",
          "name": "_floatPoolTokenAddress",
          "type": "address"
        },
        {
          "internalType": "address",
          "name": "_anchorPoolTokenAddress",
          "type": "address"
        },
        {
          "internalType": "address",
          "name": "_floatToken",
          "type": "address"
        },
        {
          "internalType": "address",
          "name": "_anchorToken",
          "type": "address"
        },
        {
          "internalType": "address",
          "name": "_pairAddress",
          "type": "address"
        },
        {
          "internalType": "address",
          "name": "_pairFactoryAddress",
          "type": "address"
        },
        {
          "internalType": "address",
          "name": "_energy",
          "type": "address"
        },
        {
          "internalType": "address",
          "name": "_energyRev",
          "type": "address"
        }
      ],
      "name": "initialize",
      "outputs": [],
      "payable": false,
      "stateMutability": "nonpayable",
      "type": "function"
    },
    {
      "constant": true,
      "inputs": [],
      "name": "initialized",
      "outputs": [
        {
          "internalType": "uint256",
          "name": "",
          "type": "uint256"
        }
      ],
      "payable": false,
      "stateMutability": "view",
      "type": "function"
    },
    {
      "constant": true,
      "inputs": [],
      "name": "isFloatReserve0",
      "outputs": [
        {
          "internalType": "bool",
          "name": "",
          "type": "bool"
        }
      ],
      "payable": false,
      "stateMutability": "view",
      "type": "function"
    },
    {
      "constant": true,
      "inputs": [],
      "name": "lastPrice",
      "outputs": [
        {
          "internalType": "uint256",
          "name": "",
          "type": "uint256"
        }
      ],
      "payable": false,
      "stateMutability": "view",
      "type": "function"
    },
    {
      "constant": true,
      "inputs": [],
      "name": "lastRootKTranslated",
      "outputs": [
        {
          "internalType": "uint256",
          "name": "",
          "type": "uint256"
        }
      ],
      "payable": false,
      "stateMutability": "view",
      "type": "function"
    },
    {
      "constant": false,
      "inputs": [
        {
          "internalType": "address",
          "name": "newPylon",
          "type": "address"
        }
      ],
      "name": "migrateLiquidity",
      "outputs": [],
      "payable": false,
      "stateMutability": "nonpayable",
      "type": "function"
    },
    {
      "constant": false,
      "inputs": [
        {
          "internalType": "address",
          "name": "to",
          "type": "address"
        },
        {
          "internalType": "bool",
          "name": "shouldMintAnchor",
          "type": "bool"
        }
      ],
      "name": "mintAsync",
      "outputs": [
        {
          "internalType": "uint256",
          "name": "liquidity",
          "type": "uint256"
        }
      ],
      "payable": false,
      "stateMutability": "nonpayable",
      "type": "function"
    },
    {
      "constant": false,
      "inputs": [
        {
          "internalType": "address",
          "name": "_to",
          "type": "address"
        },
        {
          "internalType": "bool",
          "name": "isAnchor",
          "type": "bool"
        }
      ],
      "name": "mintPoolTokens",
      "outputs": [
        {
          "internalType": "uint256",
          "name": "liquidity",
          "type": "uint256"
        }
      ],
      "payable": false,
      "stateMutability": "nonpayable",
      "type": "function"
    },
    {
      "constant": true,
      "inputs": [],
      "name": "muMulDecimals",
      "outputs": [
        {
          "internalType": "uint256",
          "name": "",
          "type": "uint256"
        }
      ],
      "payable": false,
      "stateMutability": "view",
      "type": "function"
    },
    {
      "constant": true,
      "inputs": [],
      "name": "strikeBlock",
      "outputs": [
        {
          "internalType": "uint256",
          "name": "",
          "type": "uint256"
        }
      ],
      "payable": false,
      "stateMutability": "view",
      "type": "function"
    },
    {
      "constant": true,
      "inputs": [],
      "name": "thisBlockEMA",
      "outputs": [
        {
          "internalType": "uint256",
          "name": "",
          "type": "uint256"
        }
      ],
      "payable": false,
      "stateMutability": "view",
      "type": "function"
    },
    {
      "constant": true,
      "inputs": [],
      "name": "virtualAnchorBalance",
      "outputs": [
        {
          "internalType": "uint256",
          "name": "",
          "type": "uint256"
        }
      ],
      "payable": false,
      "stateMutability": "view",
      "type": "function"
    }
  ],
  "bytecode": "0x60806040526000601d5534801561001557600080fd5b50600380546001600160a01b03191633179055614b6c806100376000396000f3fe608060405234801561001057600080fd5b50600436106101285760003560e01c806304c167581461012d578063053f14da1461017a5780630a22d5f314610194578063158ef93e146101c2578063192b65d8146101ca5780633339dc1a146101d257806333cdde4e146101da578063438ab5ac146102085780634a00d16a146102305780638a29e2de146102385780638aa96149146102975780638d470e22146102c55780638ffa3236146102f357806397ed64db1461030f578063a01de3aa14610317578063a9f0e58f1461031f578063af0dda2a14610327578063b707300314610358578063ba7b3dea14610360578063c561cf4f1461038e578063c9bd59a0146103d5578063efefd9f9146103dd578063f29401c4146103e5578063fef934921461040b575b600080fd5b61015c6004803603608081101561014357600080fd5b5080359060208101359060408101359060600135610413565b60408051938452911515602084015282820152519081900360600190f35b61018261050a565b60408051918252519081900360200190f35b61019c610510565b604080516001600160701b03938416815291909216602082015281519081900390910190f35b61018261052b565b610182610531565b610182610537565b610182600480360360408110156101f057600080fd5b506001600160a01b038135169060200135151561053d565b61022e6004803603602081101561021e57600080fd5b50356001600160a01b0316610ba8565b005b610182610c0e565b61022e600480360361010081101561024f57600080fd5b506001600160a01b038135811691602081013582169160408201358116916060810135821691608082013581169160a081013582169160c082013581169160e0013516610c14565b61022e600480360360408110156102ad57600080fd5b506001600160a01b0381358116916020013516610d5e565b610182600480360360408110156102db57600080fd5b506001600160a01b0381351690602001351515610d94565b6102fb61112a565b604080519115158252519081900360200190f35b61018261113a565b6102fb611140565b610182611149565b61022e6004803603608081101561033d57600080fd5b5080359060208101359060408101359060600135151561114f565b61018261119e565b6101826004803603604081101561037657600080fd5b506001600160a01b03813516906020013515156111a4565b6103bc600480360360408110156103a457600080fd5b506001600160a01b03813516906020013515156118af565b6040805192835260208301919091528051918290030190f35b610182611fed565b610182611ff3565b6103bc600480360360208110156103fb57600080fd5b50356001600160a01b0316611ff9565b610182612567565b60008080600284028161042c898863ffffffff61256d16565b9050600061045289670de0b6b3a76400006002820a0403670de0b6b3a7640000026125c3565b9050600089821061046557818a01610469565b818a035b9050670de0b6b3a7640000610484848363ffffffff61261516565b8161048b57fe5b049450848811156104bb578383670de0b6b3a764000002816104a957fe5b04670de0b6b3a76400000396506104fc565b600483026104d785670de0b6b3a764000063ffffffff61261516565b816104de57fe5b0496508987670de0b6b3a764000002816104f457fe5b049650600195505b505050509450945094915050565b60175481565b601c546001600160701b0380821692600160701b9092041690565b601d5481565b60095481565b600f5481565b6000610547612678565b61054f61278b565b600082610567576005546001600160a01b0316610574565b6006546001600160a01b03165b9050600080610581610510565b9150915060008060008060008061059661305d565b90925090506105b4826001600160701b038a1663ffffffff61256d16565b95506105cf816001600160701b03891663ffffffff61256d16565b945060008060006105de613095565b506001600160701b031691506001600160701b031691506106118282670de0b6b3a7640000028161060b57fe5b0461316d565b9250505061062187826000613435565b965061062f86826001613435565b955060008061063f600080613657565b5090925090506001600160701b038a168e6106b5576002546000906106729061010090046001600160a01b0316306137cc565b9050670de0b6b3a7640000600d5482028161068957fe5b0484600202828f6001600160701b031602816106a157fe5b0401985083818c02816106b057fe5b049750505b60008f6106e9576106e4836106d38c6002880263ffffffff61261516565b816106da57fe5b048c600202613857565b610711565b610711846107008d6002870263ffffffff61261516565b8161070757fe5b048b600202613857565b90508f1561088b57600a54600b5460095473__$a7d75b79dbad75865e91612b2984d03884$__9263f8fbc01f9260ff90911691859190610757908863ffffffff61256d16565b89896040518763ffffffff1660e01b81526004018087151515158152602001868152602001858152602001848152602001838152602001828152602001965050505050505060206040518083038186803b1580156107b457600080fd5b505af41580156107c8573d6000803e3d6000fd5b505050506040513d60208110156107de57600080fd5b8101908080519060200190929190505050600b8190555060008e6001600160a01b03166318160ddd6040518163ffffffff1660e01b815260040160206040518083038186803b15801561083057600080fd5b505afa158015610844573d6000803e3d6000fd5b505050506040513d602081101561085a57600080fd5b5051600954909150610872838363ffffffff61261516565b8161087957fe5b6009805485019055049f506108ad9050565b6108a9848483028161089957fe5b04600b548686600d54600061386d565b600b555b505050505050506108bd8461398b565b6108c68361398b565b6000546002546108e8916001600160a01b0390811691610100900416866139c9565b60015460025461090a916001600160a01b0390811691610100900416856139c9565b600254604080516335313c2160e11b815230600482015290516101009092046001600160a01b031691636a627842916024808201926020929091908290030181600087803b15801561095b57600080fd5b505af115801561096f573d6000803e3d6000fd5b505050506040513d602081101561098557600080fd5b5060009050610992613b47565b50905089610b445760006109a7600080613657565b5050905060006109b5610510565b50905060006109d9600260019054906101000a90046001600160a01b0316306137cc565b90506000670de0b6b3a7640000858302048460020283856001600160701b03160281610a0157fe5b0401905060008c6001600160a01b03166318160ddd6040518163ffffffff1660e01b815260040160206040518083038186803b158015610a4057600080fd5b505afa158015610a54573d6000803e3d6000fd5b505050506040513d6020811015610a6a57600080fd5b50519050878211610aac576040805162461bcd60e51b81526020600482015260076024820152662d281d102b232160c91b604482015290519081900360640190fd5b6103e88883031115610afb57868883031115610afb576040805162461bcd60e51b81526020600482015260096024820152685a503a20564642324160b81b604482015290519081900360640190fd5b670de0b6b3a7640000610b34670de0b6b3a76400008a85670de0b6b3a76400000281610b2357fe5b04038361261590919063ffffffff16565b81610b3b57fe5b049d5050505050505b610b4f888c8b613c98565b604080513381526020810187905280820186905290517f9a36e9f82fd3ab4ec26a87598c0f7f4519b7895fa6a0bca1968b486ee019b0829181900360600190a150506002805460ff191690555094979650505050505050565b610bb0613d15565b600254610bd59061010090046001600160a01b031682610bd082306137cc565b6139c9565b600154610bf0906001600160a01b031682610bd082306137cc565b600054610c0b906001600160a01b031682610bd082306137cc565b50565b600c5481565b610c1c613d15565b600580546001600160a01b03808b166001600160a01b031992831617909255600680548a84169216919091179055600280548683166101008102610100600160a81b03199092169190911790915560408051630dfe168160e01b8152905192891692630dfe168191600481810192602092909190829003018186803b158015610ca457600080fd5b505afa158015610cb8573d6000803e3d6000fd5b505050506040513d6020811015610cce57600080fd5b505160088054604080518082019091526001600160a01b039a8b16808252998b166020909101819052600080546001600160a01b0319908116909b179055600180548b169091179055600480548a16978b1697909717909655600780548916958a169590951790945560ff60a01b1990941693871614600160a01b02929092179093169316929092179055505050565b610d66613d15565b600780546001600160a01b039384166001600160a01b03199182161790915560088054929093169116179055565b6000610d9e612678565b610da661278b565b600080610db1610510565b915091506000610e0885610dc55783610dc7565b825b6001600160701b0316610dfc87610de9576000546001600160a01b0316610df6565b6001546001600160a01b03165b306137cc565b9063ffffffff61256d16565b9050610e138161398b565b610e2781610e21602a61316d565b87613435565b9050600080610e37600080613657565b5091509150600080610e5e600260019054906101000a90046001600160a01b0316306137cc565b905088610ea857670de0b6b3a7640000600d54820281610e7a57fe5b048460020282896001600160701b03160281610e9257fe5b040191508360020281860281610ea457fe5b0490505b600089610ec0576005546001600160a01b0316610ecd565b6006546001600160a01b03165b6001600160a01b03166318160ddd6040518163ffffffff1660e01b815260040160206040518083038186803b158015610f0557600080fd5b505afa158015610f19573d6000803e3d6000fd5b505050506040513d6020811015610f2f57600080fd5b505190506000610f62878c610f445787610f46565b865b8d610f51578b610f53565b8a5b6001600160701b03168e613d5f565b90508a15610f9057600954610f7d828463ffffffff61261516565b81610f8457fe5b60098054840190550499505b6000610f9a613b47565b5090508b6110e257876000610faf8180613657565b505090506000610fbd610510565b5090506000610fe1600260019054906101000a90046001600160a01b0316306137cc565b90506000670de0b6b3a7640000868302048460020283856001600160701b0316028161100957fe5b0401905089811161104b576040805162461bcd60e51b81526020600482015260076024820152662d281d102b232160c91b604482015290519081900360640190fd5b6103e88a8203111561109957888a82031115611099576040805162461bcd60e51b81526020600482015260086024820152672d281d102b23211960c11b604482015290519081900360640190fd5b670de0b6b3a76400006110d2670de0b6b3a76400008c84670de0b6b3a764000002816110c157fe5b04038a61261590919063ffffffff16565b816110d957fe5b049f5050505050505b61110f8c6110fb576005546001600160a01b0316611108565b6006546001600160a01b03165b8e8d613c98565b50506002805460ff1916905550969998505050505050505050565b600854600160a01b900460ff1681565b600d5481565b600a5460ff1681565b600b5481565b611157613d15565b600d8490556009839055600b829055600a805460ff1916821515179055600e849055436013556014849055821561119357611190613b47565b50505b50506001601d555050565b60105481565b60006111ae612678565b6111b661278b565b6000826111ce576005546001600160a01b03166111db565b6006546001600160a01b03165b604080516370a0823160e01b815230600482015290519192506000916001600160a01b038416916370a08231916024808301926020929190829003018186803b15801561122757600080fd5b505afa15801561123b573d6000803e3d6000fd5b505050506040513d602081101561125157600080fd5b5051905061125e8161398b565b6000826001600160a01b03166318160ddd6040518163ffffffff1660e01b815260040160206040518083038186803b15801561129957600080fd5b505afa1580156112ad573d6000803e3d6000fd5b505050506040513d60208110156112c357600080fd5b50519050846000806112d6838587613fa3565b9150915060006112e6602a61316d565b905061271082820204820361131e8561130a576000546001600160a01b0316611317565b6001546001600160a01b03165b8c836139c9565b8a878510156117b257848803600061133788838b6140a1565b905061271085820204810389600080806113518180613657565b5060025491935091508d9089906000906113799061010090046001600160a01b0316306137cc565b9050821561160657600061138b610510565b6001600160701b03169150506000809050600760009054906101000a90046001600160a01b03166001600160a01b0316638b25fde18b611401670de0b6b3a764000086600954036113f48c600202600d54670de0b6b3a76400000361261590919063ffffffff16565b816113fb57fe5b04613857565b6004805460408051632604632d60e21b815290516001600160a01b03909216926398118cb4928282019260209290829003018186803b15801561144357600080fd5b505afa158015611457573d6000803e3d6000fd5b505050506040513d602081101561146d57600080fd5b50516008546040805160e087901b6001600160e01b0319168152600481019590955260248501939093526044840191909152600160a01b900460ff16151560648301526001600160a01b0388166084830152805160a4808401938290030181600087803b1580156114dd57600080fd5b505af11580156114f1573d6000803e3d6000fd5b505050506040513d604081101561150757600080fd5b810190808051906020019092919080519060200190929190505050809250819b505050808e019d505073__$a7d75b79dbad75865e91612b2984d03884$__63b748013f600a60009054906101000a900460ff168a8e600954028161156757fe5b600b54600954604080516001600160e01b031960e089901b1681529515156004870152939092046024850152604484018f905260648401889052608484015285900360a483015260c482018990525160e4808301926020929190829003018186803b1580156115d557600080fd5b505af41580156115e9573d6000803e3d6000fd5b505050506040513d60208110156115ff57600080fd5b5051600b55505b6116118e8e85613435565b5060025461162e9061010090046001600160a01b0316808a6139c9565b600254600854604080516302ce510960e41b81526001600160a01b038f81166004830152871515600160a01b90940460ff161515939093141560248201529051600093610100900490921691632ce510909160448082019260209290919082900301818787803b1580156116a157600080fd5b505af11580156116b5573d6000803e3d6000fd5b505050506040513d60208110156116cb57600080fd5b50519c8d019c90508361179b5773__$a7d75b79dbad75865e91612b2984d03884$__63b756b69687611703848963ffffffff61261516565b8161170a57fe5b04600b548c868a600d546040518763ffffffff1660e01b815260040180878152602001868152602001858152602001848152602001838152602001828152602001965050505050505060206040518083038186803b15801561176b57600080fd5b505af415801561177f573d6000803e3d6000fd5b505050506040513d602081101561179557600080fd5b5051600b555b6117a58a8f614267565b5050505050505050505050505b60408051632770a7eb60e21b8152306004820152602481018a905290516001600160a01b038b1691639dc29fac91604480830192600092919082900301818387803b15801561180057600080fd5b505af1158015611814573d6000803e3d6000fd5b50505050819950505050505050841561185157600954819061183c908463ffffffff61261516565b8161184357fe5b600980549290910490910390555b611859613b47565b505060408051338152602081018690528615158183015290517f5cf7281eb36e25a92ffd0cff3089777ca0cb41d28e8c7158c234b1eae9a07ed29181900360600190a150506002805460ff191690555092915050565b6000806118ba612678565b6118c261278b565b6000836118da576005546001600160a01b03166118e7565b6006546001600160a01b03165b604080516370a0823160e01b815230600482015290519192506000916001600160a01b038416916370a08231916024808301926020929190829003018186803b15801561193357600080fd5b505afa158015611947573d6000803e3d6000fd5b505050506040513d602081101561195d57600080fd5b5051905061196a8161398b565b6000826001600160a01b03166318160ddd6040518163ffffffff1660e01b815260040160206040518083038186803b1580156119a557600080fd5b505afa1580156119b9573d6000803e3d6000fd5b505050506040513d60208110156119cf57600080fd5b50519050600080806119df613095565b506001600160701b031691506001600160701b03169150611a0c8282670de0b6b3a7640000028161060b57fe5b925050506000611a1d8885856140a1565b9050600080611a2a610510565b6001600160701b031691506001600160701b03169150600080611a4e600080613657565b509150915060008c611aa45784670de0b6b3a7640000611a7c600d546002028661261590919063ffffffff16565b81611a8357fe5b0401611a95898763ffffffff61261516565b81611a9c57fe5b048803611ac2565b600954611ab7898663ffffffff61261516565b81611abe57fe5b0488035b9050808910611b01576040805162461bcd60e51b815260206004808301919091526024820152635a3a204560e01b604482015290519081900360640190fd5b506000611b1486612710818a020461256d565b90508c15611d1f5760008e9050600760009054906101000a90046001600160a01b03166001600160a01b0316638b25fde183611b79670de0b6b3a764000089600954036113f489600202600d54670de0b6b3a76400000361261590919063ffffffff16565b6019546008546040805160e087901b6001600160e01b0319168152600481019590955260248501939093526044840191909152600160a01b900460ff16151560648301526001600160a01b0385166084830152805160a4808401938290030181600087803b158015611bea57600080fd5b505af1158015611bfe573d6000803e3d6000fd5b505050506040513d6040811015611c1457600080fd5b508051602090910151600a54600954919e5091935073__$a7d75b79dbad75865e91612b2984d03884$__925063b748013f9160ff16908b90611c5c908e63ffffffff61261516565b81611c6357fe5b0484611c84600260019054906101000a90046001600160a01b0316306137cc565b600b548a60095403896040518863ffffffff1660e01b8152600401808815151515815260200187815260200186815260200185815260200184815260200183815260200182815260200197505050505050505060206040518083038186803b158015611cef57600080fd5b505af4158015611d03573d6000803e3d6000fd5b505050506040513d6020811015611d1957600080fd5b5051600b555b600254611d3b9061010090046001600160a01b031680836139c9565b505050505060008990506000611d52600080613657565b509150506000611d77600260019054906101000a90046001600160a01b0316306137cc565b6002546040805163226bf2d160e21b81526001600160a01b038781166004830152825194955060009485946101009004909116926389afcb44926024808201939182900301818787803b158015611dcd57600080fd5b505af1158015611de1573d6000803e3d6000fd5b505050506040513d6040811015611df757600080fd5b50805160209091015190925090506000611e118789614267565b600854909150600160a01b900460ff16611e2b5781611e2d565b825b6008549d019c600160a01b900460ff16611e475782611e49565b815b8c019b508d611f005773__$a7d75b79dbad75865e91612b2984d03884$__63b756b6968d600202600b5484888a600d546040518763ffffffff1660e01b815260040180878152602001868152602001858152602001848152602001838152602001828152602001965050505050505060206040518083038186803b158015611ed057600080fd5b505af4158015611ee4573d6000803e3d6000fd5b505050506040513d6020811015611efa57600080fd5b5051600b555b60408051632770a7eb60e21b8152306004820152602481018c905290516001600160a01b038d1691639dc29fac91604480830192600092919082900301818387803b158015611f4e57600080fd5b505af1158015611f62573d6000803e3d6000fd5b505050508d15611f8757888a6009540281611f7957fe5b600980549290910490910390555b611f8f613b47565b50506002805460ff1916905560408051338152602081018f90528082018e905290517fb83dbb1f0386f1b6d6f534f325d617e3f96f2971cca29021702094328c1cb70c9181900360600190a150505050505050505050509250929050565b60115481565b60125481565b600080601d5460001480156120855750600360009054906101000a90046001600160a01b03166001600160a01b0316635c975abb6040518163ffffffff1660e01b815260040160206040518083038186803b15801561205757600080fd5b505afa15801561206b573d6000803e3d6000fd5b505050506040513d602081101561208157600080fd5b5051155b8015612094575060025460ff16155b61209d57600080fd5b60008060006120aa613095565b9250925092506000836001600160701b03161180156120d257506000826001600160701b0316115b6120db57600080fd5b63ffffffff8116601555600854600160a01b900460ff1661217557600260019054906101000a90046001600160a01b03166001600160a01b0316635a3d54936040518163ffffffff1660e01b815260040160206040518083038186803b15801561214457600080fd5b505afa158015612158573d6000803e3d6000fd5b505050506040513d602081101561216e57600080fd5b50516121f0565b600260019054906101000a90046001600160a01b03166001600160a01b0316635909c0d56040518163ffffffff1660e01b815260040160206040518083038186803b1580156121c357600080fd5b505afa1580156121d7573d6000803e3d6000fd5b505050506040513d60208110156121ed57600080fd5b50515b6016556001600160701b0380841690670de0b6b3a76400008402168161221257fe5b046001600160701b03166017556004805460408051632604632d60e21b815290516001600160a01b03909216926398118cb4928282019260209290829003018186803b15801561226157600080fd5b505afa158015612275573d6000803e3d6000fd5b505050506040513d602081101561228b57600080fd5b505160195560035460408051631475aa5760e31b815290516001600160a01b039092169163a3ad52b891600480820192602092909190829003018186803b1580156122d557600080fd5b505afa1580156122e9573d6000803e3d6000fd5b505050506040513d60208110156122ff57600080fd5b5051601a5560035460408051632ca17caf60e11b815290516001600160a01b0390921691635942f95e91600480820192602092909190829003018186803b15801561234957600080fd5b505afa15801561235d573d6000803e3d6000fd5b505050506040513d602081101561237357600080fd5b5051601b55600354604080516358e20cf160e11b815290516001600160a01b039092169163b1c419e291600480820192602092909190829003018186803b1580156123bd57600080fd5b505afa1580156123d1573d6000803e3d6000fd5b505050506040513d60208110156123e757600080fd5b50516018556002805460ff1916600117905560008061240461305d565b915091506124118261398b565b61241a8161398b565b612438856001600160701b0316856001600160701b03168484614397565b6009819055670de0b6b3a7640000600b819055919350915061245e908290600082610413565b50600a805460ff1916911515919091179055600d5560065461248d906001600160a01b031660006103e8613c98565b6005546124a7906001600160a01b031660006103e8613c98565b6124b9816103e863ffffffff61256d16565b95506124f66103e86124d76002600d5461261590919063ffffffff16565b84670de0b6b3a764000002816124e957fe5b049063ffffffff61256d16565b9650612503601a546143f2565b60065461251a906001600160a01b03168988613c98565b600554612531906001600160a01b03168989613c98565b600d54600e81905543601355601455612548613b47565b50506001601d5550506002805460ff1916905550929491935090915050565b600e5481565b808203828111156125bd576040805162461bcd60e51b815260206004820152601560248201527464732d6d6174682d7375622d756e646572666c6f7760581b604482015290519081900360640190fd5b92915050565b60006003821115612606575080600160028204015b81811015612600578091506002818285816125ef57fe5b0401816125f857fe5b0490506125d8565b50612610565b8115612610575060015b919050565b60008115806126305750508082028282828161262d57fe5b04145b6125bd576040805162461bcd60e51b815260206004820152601460248201527364732d6d6174682d6d756c2d6f766572666c6f7760601b604482015290519081900360640190fd5b601d5460011480156127015750600360009054906101000a90046001600160a01b03166001600160a01b0316635c975abb6040518163ffffffff1660e01b815260040160206040518083038186803b1580156126d357600080fd5b505afa1580156126e7573d6000803e3d6000fd5b505050506040513d60208110156126fd57600080fd5b5051155b61273b576040805162461bcd60e51b8152602060048083019190915260248201526305a3a20560e41b604482015290519081900360640190fd5b60025460ff161561277c576040805162461bcd60e51b815260206004808301919091526024820152632d1d102960e11b604482015290519081900360640190fd5b6002805460ff19166001179055565b6004805460408051632604632d60e21b815290516001600160a01b03909216926398118cb4928282019260209290829003018186803b1580156127cd57600080fd5b505afa1580156127e1573d6000803e3d6000fd5b505050506040513d60208110156127f757600080fd5b505160195560035460408051631475aa5760e31b815290516001600160a01b039092169163a3ad52b891600480820192602092909190829003018186803b15801561284157600080fd5b505afa158015612855573d6000803e3d6000fd5b505050506040513d602081101561286b57600080fd5b5051601a5560035460408051632ca17caf60e11b815290516001600160a01b0390921691635942f95e91600480820192602092909190829003018186803b1580156128b557600080fd5b505afa1580156128c9573d6000803e3d6000fd5b505050506040513d60208110156128df57600080fd5b5051601b55600354604080516358e20cf160e11b815290516001600160a01b039092169163b1c419e291600480820192602092909190829003018186803b15801561292957600080fd5b505afa15801561293d573d6000803e3d6000fd5b505050506040513d602081101561295357600080fd5b505160185560025461010090046001600160a01b031633146129d857600260019054906101000a90046001600160a01b03166001600160a01b03166311816b046040518163ffffffff1660e01b8152600401600060405180830381600087803b1580156129bf57600080fd5b505af11580156129d3573d6000803e3d6000fd5b505050505b6000806129e6600080613657565b5091509150600260019054906101000a90046001600160a01b03166001600160a01b031663145f3c276040518163ffffffff1660e01b8152600401600060405180830381600087803b158015612a3b57600080fd5b505af1158015612a4f573d6000803e3d6000fd5b505050506000612a608284026125c3565b9050600080612a6d610510565b9150915060006064601a54870281612a8157fe5b04905060006064601a54870281612a9457fe5b049050612ab5846001600160701b0316846001600160701b031684846145f2565b505050506000806000612ac9600080613657565b925092509250600080612ada610510565b600d5460085492945090925090600090600160a01b900460ff16612b7757600260019054906101000a90046001600160a01b03166001600160a01b0316635a3d54936040518163ffffffff1660e01b815260040160206040518083038186803b158015612b4657600080fd5b505afa158015612b5a573d6000803e3d6000fd5b505050506040513d6020811015612b7057600080fd5b5051612bf2565b600260019054906101000a90046001600160a01b03166001600160a01b0316635909c0d56040518163ffffffff1660e01b815260040160206040518083038186803b158015612bc557600080fd5b505afa158015612bd9573d6000803e3d6000fd5b505050506040513d6020811015612bef57600080fd5b50515b601854601554919250429101811115612c72578563ffffffff16811115612c345763ffffffff86168103607088901b818a8281612c2b57fe5b04028401935050505b601654821115612c7257600060706016548403670de0b6b3a764000002901c905060155482038181612c6257fe5b0460175550601581905560168290555b8715801590612c8057508615155b15613050576000600c548a1115612ce8576000600c54612caf600e54600c548e0361261590919063ffffffff16565b81612cb657fe5b0490508015612ce657670de0b6b3a7640000612cd88a8363ffffffff61261516565b60020281612ce257fe5b0491505b505b60098054820190819055600b54612d0a91906001600160701b0388168b610413565b50600a805460ff1916911515919091179055600d5560075460035460408051637945980160e01b815290516001600160a01b039384169363b3828f839316916379459801916004808301926020929190829003018186803b158015612d6e57600080fd5b505afa158015612d82573d6000803e3d6000fd5b505050506040513d6020811015612d9857600080fd5b50516003546040805163604b97bd60e11b815290516001600160a01b039092169163c0972f7a91600480820192602092909190829003018186803b158015612ddf57600080fd5b505afa158015612df3573d6000803e3d6000fd5b505050506040513d6020811015612e0957600080fd5b5051601354600e54600d54601454604080516001600160e01b031960e08a901b1681526004810197909752602487019590955260448601939093526064850191909152608484015260a48301525160c4808301926020929190829003018186803b158015612e7657600080fd5b505afa158015612e8a573d6000803e3d6000fd5b505050506040513d6020811015612ea057600080fd5b5051600e55600d54601455436013819055600c8b9055601254600091612ecb9163ffffffff61256d16565b90508015612fb9576003546040805163ed6b92cd60e01b815290516000926001600160a01b03169163ed6b92cd916004808301926020929190829003018186803b158015612f1857600080fd5b505afa158015612f2c573d6000803e3d6000fd5b505050506040513d6020811015612f4257600080fd5b5051601154909150600090600a439190910311612f60576000612f65565b600a83045b9050612f7a600183018263ffffffff61487016565b612f9360105484600f540261487090919063ffffffff16565b81612f9a57fe5b04600f55600d54612fab90886148bf565b601055505043601255612fdb565b612fd7612fc8600d54876148bf565b6010549063ffffffff61487016565b6010555b6130066040518060400160405280600781526020016674686973454d4160c81b8152506010546148d6565b600954600b54600d5460408051938452602084019290925282820152517f54964c70825f65946c2e16cd62d98784e0536cf3d54b15ce1845f37f325945d29181900360600190a150505b5050505050505050505050565b600080548190613076906001600160a01b0316306137cc565b60015490925061308f906001600160a01b0316306137cc565b90509091565b600080600080600080600260019054906101000a90046001600160a01b03166001600160a01b0316630902f1ac6040518163ffffffff1660e01b815260040160606040518083038186803b1580156130ec57600080fd5b505afa158015613100573d6000803e3d6000fd5b505050506040513d606081101561311657600080fd5b5080516020820151604090920151600854919550919350909150600160a01b900460ff166131445781613146565b825b600854909650600160a01b900460ff166131605782613162565b815b959690945092505050565b60008061317e600f54601054614988565b905082602a141561320b57600754600d5460408051630134dce560e11b81526004810192909252516001600160a01b0390921691630269b9ca91602480820192602092909190829003018186803b1580156131d857600080fd5b505afa1580156131ec573d6000803e3d6000fd5b505050506040513d602081101561320257600080fd5b5051915061326e565b601954600202915060175483106132485760175483906132339061271063ffffffff61261516565b8161323a57fe5b04612710038201915061326e565b60175461325d8461271063ffffffff61261516565b8161326457fe5b0461271003820191505b6132a36040518060400160405280600f81526020016e06665656270732c206970642c206c7608c1b8152508385601754614997565b601b5481106133f0576000601154430390506000601b54670de0b6b3a7640000816132ca57fe5b0490506133016040518060400160405280600f81526020016e1cdd1c9a5ad94b0818dd5c9c995b9d608a1b81525060115443614a5b565b8082111561331257436011556133ed565b6133bd84600360009054906101000a90046001600160a01b03166001600160a01b0316632be90b326040518163ffffffff1660e01b815260040160206040518083038186803b15801561336457600080fd5b505afa158015613378573d6000803e3d6000fd5b505050506040513d602081101561338e57600080fd5b5051601b54612710906133a7888363ffffffff61261516565b816133ae57fe5b0403019063ffffffff61487016565b93506133ed604051806040016040528060098152602001681919dd0b081b585e1160ba1b815250601b5485614a5b565b50505b612710821061342f576040805162461bcd60e51b81526020600482015260066024820152650b474408ca8960d31b604482015290519081900360640190fd5b50919050565b6000612710838502048061344c5784915050613650565b82156134745760015460075461346f916001600160a01b039081169116836139c9565b6135e2565b600054600254613496916001600160a01b0390811691610100900416836139c9565b6000806134a1613095565b509150915060006134c1601954612710038561261590919063ffffffff16565b905060006134f0826134e46001600160701b03871661271063ffffffff61261516565b9063ffffffff61487016565b613509836001600160701b03861663ffffffff61261516565b8161351057fe5b60025460085492909104925061010090046001600160a01b03169063022c0d9f90600160a01b900460ff166135455782613548565b60005b600854600160a01b900460ff16613560576000613562565b835b600754604080516001600160e01b031960e087901b168152600481019490945260248401929092526001600160a01b0316604483015260806064830152600060848301819052905160c48084019382900301818387803b1580156135c557600080fd5b505af11580156135d9573d6000803e3d6000fd5b50505050505050505b600760009054906101000a90046001600160a01b03166001600160a01b03166303f187ea6040518163ffffffff1660e01b8152600401600060405180830381600087803b15801561363257600080fd5b505af1158015613646573d6000803e3d6000fd5b5050509085039150505b9392505050565b600080600080600080613668613095565b600254604080516370a0823160e01b815230600482015290519497509295509093506000926101009091046001600160a01b0316916370a08231916024808301926020929190829003018186803b1580156136c257600080fd5b505afa1580156136d6573d6000803e3d6000fd5b505050506040513d60208110156136ec57600080fd5b5051600254604080516318160ddd60e01b815290519293506000926101009092046001600160a01b0316916318160ddd91600480820192602092909190829003018186803b15801561373d57600080fd5b505afa158015613751573d6000803e3d6000fd5b505050506040513d602081101561376757600080fd5b50519050811580613776575080155b1561378e5789894297509750975050505050506137c5565b8082866001600160701b031602816137a257fe5b048183866001600160701b031602816137b757fe5b048497509750975050505050505b9250925092565b6000826001600160a01b03166370a08231836040518263ffffffff1660e01b815260040180826001600160a01b03166001600160a01b0316815260200191505060206040518083038186803b15801561382457600080fd5b505afa158015613838573d6000803e3d6000fd5b505050506040513d602081101561384e57600080fd5b50519392505050565b60008183106138665781613650565b5090919050565b6000808261389e57670de0b6b3a7640000613891866002870263ffffffff61261516565b8161389857fe5b046138c3565b670de0b6b3a76400006138ba876002870263ffffffff61261516565b816138c157fe5b045b90506000818901613909856138db5760028b046138de565b60005b8801866138f957886002028a8d02816138f357fe5b046138fb565b8b5b8a019063ffffffff61261516565b8161391057fe5b04905085613924828463ffffffff61261516565b8161392b57fe5b0490508661393f828a63ffffffff61261516565b8161394657fe5b0490508781111561395b578792505050613981565b670de0b6b3a764000081101561397d57670de0b6b3a764000092505050613981565b9150505b9695505050505050565b60008111610c0b576040805162461bcd60e51b815260206004808301919091526024820152632d1d102d60e11b604482015290519081900360640190fd5b60408051808201825260198152787472616e7366657228616464726573732c75696e743235362960381b60209182015281516001600160a01b0385811660248301526044808301869052845180840390910181526064909201845291810180516001600160e01b031663a9059cbb60e01b1781529251815160009460609489169392918291908083835b60208310613a725780518252601f199092019160209182019101613a53565b6001836020036101000a0380198251168184511680821785525050505050509050019150506000604051808303816000865af19150503d8060008114613ad4576040519150601f19603f3d011682016040523d82523d6000602084013e613ad9565b606091505b5091509150818015613b07575080511580613b075750808060200190516020811015613b0457600080fd5b50515b613b40576040805162461bcd60e51b81526020600482015260056024820152642d1d102a2360d91b604482015290519081900360640190fd5b5050505050565b600080600080613b5561305d565b91509150600080613b668484613657565b509150915060006064601a54840281613b7b57fe5b04905060006064601a54840281613b8e57fe5b049050613bd986866064613bad601a548961261590919063ffffffff16565b81613bb457fe5b046064613bcc601a548961261590919063ffffffff16565b81613bd357fe5b046145f2565b613be38686613657565b509094509250613c01613bfc858563ffffffff61261516565b6125c3565b600c556000613c0e610510565b6001600160701b0316915050613c2a600954600b548387610413565b9050809950819a505050613c746040518060400160405280601a81526020017933b0b6b6b0a732bb961033b0b6b6b0a7b6321610313637b1b5a760311b8152508a600d5443614997565b601b54613c838a600d546148bf565b10613c8d57436011555b505050505050509091565b826001600160a01b03166340c10f1983836040518363ffffffff1660e01b815260040180836001600160a01b03166001600160a01b0316815260200182815260200192505050600060405180830381600087803b158015613cf857600080fd5b505af1158015613d0c573d6000803e3d6000fd5b50505050505050565b6003546001600160a01b03163314613d5d576040805162461bcd60e51b815260206004808301919091526024820152632d1d102360e11b604482015290519081900360640190fd5b565b601a54600090816064613d78878463ffffffff61261516565b81613d7f57fe5b049050600085821115613db657508481038015613db657808811613db157613da6836143f2565b879350505050613f9b565b928301925b80880360008080613dc78180613657565b50915091508815613f6957896000613de08484026125c3565b90506000612710600260195481613df357fe5b0460010161271003880281613e0457fe5b0490506000613e23613e1c868463ffffffff61487016565b87026125c3565b9050828111613e61576040805162461bcd60e51b81526020600482015260056024820152645a503a534b60d81b604482015290519081900360640190fd5b600083848303670de0b6b3a76400000281613e7857fe5b049050670de0b6b3a7640000868202600202048801975073__$a7d75b79dbad75865e91612b2984d03884$__63f8fbc01f600a60009054906101000a900460ff168a600b54613ed28a60095461256d90919063ffffffff16565b8c8c6040518763ffffffff1660e01b81526004018087151515158152602001868152602001858152602001848152602001838152602001828152602001965050505050505060206040518083038186803b158015613f2f57600080fd5b505af4158015613f43573d6000803e3d6000fd5b505050506040513d6020811015613f5957600080fd5b5051600b5550613f809350505050565b613f7c84600b548484600d54600161386d565b600b555b968201968415613f9357613f93876143f2565b505050505050505b949350505050565b600080600080613fb4600080613657565b5091509150600080613fc4610510565b91509150600089613fd55782613fd7565b815b6001600160701b0316905060008a613fef5785613ff1565b845b905060008b61404757614042670de0b6b3a764000061402c6002614020600d548761261590919063ffffffff16565b9063ffffffff61261516565b8161403357fe5b8591900463ffffffff61487016565b61404b565b6009545b90508061405e848d63ffffffff61261516565b8161406557fe5b04985060006140748a8c613857565b90508b614087838363ffffffff61261516565b8161408e57fe5b0498505050505050505050935093915050565b60008060006140b1600180613657565b50915091506000806140c1610510565b600254604080516370a0823160e01b8152306004820152905193955091935060009283926101009092046001600160a01b0316916370a08231916024808301926020929190829003018186803b15801561411a57600080fd5b505afa15801561412e573d6000803e3d6000fd5b505050506040513d602081101561414457600080fd5b5051905089156141815784600202614172846001600160701b0316600954038361261590919063ffffffff16565b8161417957fe5b0491506141a9565b600d54670de0b6b3a76400009061419e908363ffffffff61261516565b816141a557fe5b0491505b60008a61420c57846001600160701b0316670de0b6b3a76400006141db600d546002028a61261590919063ffffffff16565b816141e257fe5b04016141fd8a6001600160701b03881663ffffffff61261516565b8161420457fe5b048903614233565b6009546142288a6001600160701b03871663ffffffff61261516565b8161422f57fe5b0489035b9050806142468b8563ffffffff61261516565b8161424d57fe5b0497506142598861398b565b505050505050509392505050565b6000612710828402048061427e57839150506125bd565b60025461429a9061010090046001600160a01b031680836139c9565b600254600754600854604080516302ce510960e41b81526001600160a01b039384166004820152600160a01b90920460ff161560248301525161010090930490911691632ce51090916044808201926020929091908290030181600087803b15801561430557600080fd5b505af1158015614319573d6000803e3d6000fd5b505050506040513d602081101561432f57600080fd5b5050600754604080516301f8c3f560e11b815290516001600160a01b03909216916303f187ea9160048082019260009290919082900301818387803b15801561437757600080fd5b505af115801561438b573d6000803e3d6000fd5b50505093039392505050565b60008080856143ac888663ffffffff61261516565b816143b357fe5b049050848111156143e157849250866143d2848863ffffffff61261516565b816143d957fe5b0491506143e8565b8092508391505b5094509492505050565b6000806143fd61305d565b9150915060008061440e8484613657565b509092509050600060c8614428848863ffffffff61261516565b8161442f57fe5b049050600060c8614446848963ffffffff61261516565b8161444d57fe5b049050816001600160701b0316861180156144705750806001600160701b031685115b1561458e57600080614480613095565b506001600160701b031691506001600160701b031691506000806144bc8484886001600160701b03168d03886001600160701b03168d03614397565b6000546002549294509092506144e5916001600160a01b039182169161010090910416846139c9565b600154600254614507916001600160a01b0390811691610100900416836139c9565b600254604080516335313c2160e11b815230600482015290516101009092046001600160a01b031691636a627842916024808201926020929091908290030181600087803b15801561455857600080fd5b505af115801561456c573d6000803e3d6000fd5b505050506040513d602081101561458257600080fd5b50613d0c945050505050565b600260019054906101000a90046001600160a01b03166001600160a01b031663145f3c276040518163ffffffff1660e01b8152600401600060405180830381600087803b1580156145de57600080fd5b505af1158015613050573d6000803e3d6000fd5b83826001600160701b031610156146e257600054600254614630916001600160a01b03908116916101009004166001600160701b03851687036139c9565b600254600854604080516321913af360e11b8152306004820152600160a01b90920460ff16151560248301525160009261010090046001600160a01b03169163432275e691604480830192606092919082900301818787803b15801561469557600080fd5b505af11580156146a9573d6000803e3d6000fd5b505050506040513d60608110156146bf57600080fd5b5050601c80546001600160701b0319166001600160701b038516179055506146fe565b601c80546001600160701b0319166001600160701b0386161790555b82816001600160701b031610156147f55760015460025461473c916001600160a01b03908116916101009004166001600160701b03841686036139c9565b600254600854604080516321913af360e11b8152306004820152600160a01b90920460ff16156024830152516101009092046001600160a01b03169163432275e6916044808201926060929091908290030181600087803b1580156147a057600080fd5b505af11580156147b4573d6000803e3d6000fd5b505050506040513d60608110156147ca57600080fd5b5050601c8054600160701b600160e01b031916600160701b6001600160701b0384160217905561481a565b601c8054600160701b600160e01b031916600160701b6001600160701b038616021790555b601c54604080516001600160701b038084168252600160701b909304909216602083015280517f1d96001f313f6446e46c7776b79d231589555627a46fa2388f3220937fc79e519281900390910190a150505050565b808201828110156125bd576040805162461bcd60e51b815260206004820152601460248201527364732d6d6174682d6164642d6f766572666c6f7760601b604482015290519081900360640190fd5b60008183106148d157508082036125bd565b500390565b61498482826040516024018080602001838152602001828103825284818151815260200191508051906020019080838360005b83811015614921578181015183820152602001614909565b50505050905090810190601f16801561494e5780820380516001836020036101000a031916815260200191505b5060408051601f198184030181529190526020810180516001600160e01b03166309710a9d60e41b1790529350614b1692505050565b5050565b60008183116138665781613650565b614a55848484846040516024018080602001858152602001848152602001838152602001828103825286818151815260200191508051906020019080838360005b838110156149f05781810151838201526020016149d8565b50505050905090810190601f168015614a1d5780820380516001836020036101000a031916815260200191505b5060408051601f198184030181529190526020810180516001600160e01b03166304772b3360e11b1790529550614b16945050505050565b50505050565b614b118383836040516024018080602001848152602001838152602001828103825285818151815260200191508051906020019080838360005b83811015614aad578181015183820152602001614a95565b50505050905090810190601f168015614ada5780820380516001836020036101000a031916815260200191505b5060408051601f198184030181529190526020810180516001600160e01b031663969cdd0360e01b1790529450614b169350505050565b505050565b80516a636f6e736f6c652e6c6f67602083016000808483855afa505050505056fea265627a7a7231582081eb22c1037f936e68d050e03d8b883b49a7bafdb77e5b27124c188c5adf94ff64736f6c63430005100032",
  "linkReferences": {
    "contracts/libraries/ZirconLibrary.sol": {
      "ZirconLibrary": [
        {
          "length": 20,
          "start": 1883
        },
        {
          "length": 20,
          "start": 5481
        },
        {
          "length": 20,
          "start": 5905
        },
        {
          "length": 20,
          "start": 7266
        },
        {
          "length": 20,
          "start": 7819
        },
        {
          "length": 20,
          "start": 16072
        }
      ]
    }
  },
  "deployedLinkReferences": {
    "contracts/libraries/ZirconLibrary.sol": {
      "ZirconLibrary": [
        {
          "length": 20,
          "start": 1828
        },
        {
          "length": 20,
          "start": 5426
        },
        {
          "length": 20,
          "start": 5850
        },
        {
          "length": 20,
          "start": 7211
        },
        {
          "length": 20,
          "start": 7764
        },
        {
          "length": 20,
          "start": 16017
        }
      ]
    }
  }
}